:100000000C94FC010C9424020C9424020C94F61C15
:100010000C94F61C0C94F61C0C9424020C942402F0
:100020000C9424020C9424020C9424020C94921C30
:100030000C9424020C9424020C9424020C942402A8
:100040000C94F01B0C9424020C94601C0C943A1C2D
:100050000C9424020C9424020C9424020C94240288
:100060000C946E1D0C94240200407A10F35A00A0E8
:10007000724E18090010A5D4E80000E87648170071
:1000800000E40B54020000CA9A3B000000E1F505B1
:10009000000080969800000040420F000000A086FB
:1000A00001000000102700000000E803000000002D
:1000B0006400000000000A000000000001000000D1
:1000C00000002C76D888DC674F0823DFC1DFAE59EB
:1000D000E1B1B796E5E3E453C63AE651997696E87E
:1000E000E6C28426EB898C9B62ED407C6FFCEFBC02
:1000F0009C9F40F2BAA56FA5F490055A2AF75C932D
:100100006B6CF9676DC11BFCE0E40D47FEF520E662
:10011000B500D0ED902E0300943577050080841E45
:10012000080000204E0A000000C80C333333330FA0
:10013000986E12831141EF8D2114893BE65516CF3D
:10014000FEE6DB18D1844B381BF77C1D901DA4BB49
:10015000E424203284725E228100C9F124ECA1E5FE
:100160003D273E524F4B23003E524F4B230023006E
:100170003E0023003E00230024003A003E41542D5F
:10018000506F776572426F783A00230024003A007E
:100190003E41542D506F776572426F783A003E4869
:1001A000455252230023003E0023003E003E4845B6
:1001B000525223003E47455252230023003E002363
:1001C000003E003E474552522300436F6E6669670A
:1001D000204D6F646500456E746572204154204364
:1001E0006F6D6D616E647300506C65617365207531
:1001F0006E7061697220426C7565746F6F746820EF
:100200006669727374004E6F20426C7565746F6F0F
:100210007468206D6F64756C6520666F756E642000
:100220006F7220697420697320706169726564005F
:100230003E554F4B23003E554F4B23003E414F4B05
:1002400023003E414F4B23003E4F4F4B23003E4F78
:100250004F4B23003E4F45525223003E4F455252D2
:1002600023003E4F45525223003E4F455252230039
:100270003E4345525223003E4345525223003E43E3
:100280004F4B23003E434F4B23003E4E4F4B23002A
:100290003E4E4F4B23003E4E45525223003E4E45AC
:1002A00052522300230023003A003A003E003E0051
:1002B0003E5645525223003E5645525223002300DB
:1002C0003E0023003E0023002300310031003E00A9
:1002D0003E0023003E0023003E00230024002300B4
:1002E00024003A003A003A003A003A003A003A0054
:1002F0003A00240024003E003E00230023003E007C
:100300003E003E534F4B23003E534F4B23003E5382
:1003100045525223003E5345525223003E5345520C
:100320005223003E53455252230023002300240051
:1003300024003E003E00230023003E003E003E4DD0
:1003400045525223003E4D45525223003E4D4552E8
:100350005223003E4D455252230023003A003A00FA
:100360003E0023003A003A003E003E4523003E4551
:10037000230023003A003A003E0023003A003A00EE
:100380003E0023003E493A0023003E493A003E46E3
:100390004F4B23003E464F4B23000000000024003B
:1003A00027002A00000000080002010000030407E3
:1003B00000000000000000000000000023002600F4
:1003C000290000000000250028002B00040404047C
:1003D00004040404020202020202030303030303EF
:1003E00001020408102040800102040810200102CC
:1003F000040810208D1E702411241FBECFEFD8E0FA
:10040000DEBFCDBF11E0A0E0B1E0EEE9FDE502C046
:1004100005900D92AC3DB107D9F725E0ACEDB1E008
:1004200001C01D92A335B207E1F711E0CBEFD1E097
:1004300004C02197FE010E94EA29CA3FD107C9F7EB
:100440000E948A1F0C94C22E0C94000008950895F7
:10045000FC019081909528E030E081E397FF03C094
:10046000990F982701C0990F21503109B9F781815F
:10047000892728E030E091E387FF03C0880F8927B0
:1004800001C0880F21503109B9F70895833081F0F8
:1004900028F4813099F08230A9F008958730A9F0CE
:1004A0008830C9F08430B1F4809180008F7D03C022
:1004B000809180008F7780938000089584B58F7736
:1004C00084BD089584B58F7DFBCF8091B0008F7778
:1004D0008093B00008958091B0008F7DF9CFCF93C5
:1004E000DF93282F30E0F901EC55FC4F8491F9019E
:1004F000E052FC4FD491F901E453FC4FC491CC235A
:10050000A1F081110E944602EC2FF0E0EE0FFF1FD8
:10051000E854FC4FA591B491EC91ED2381E090E07B
:1005200009F480E0DF91CF91089580E090E0FACF68
:100530001F93CF93DF93282F30E0F901EC55FC4F48
:100540008491F901E052FC4FD491F901E453FC4F3E
:10055000C491CC23A9F0162F81110E944602EC2FE2
:10056000F0E0EE0FFF1FEE53FC4FA591B4918FB753
:10057000F894EC91111108C0D095DE23DC938FBF65
:10058000DF91CF911F910895DE2BF8CFCF93DF93AA
:1005900090E0FC01E052FC4F249184539C4FFC01FD
:1005A00084918823C9F090E0880F991FFC01E656DA
:1005B000FC4FA591B491FC01EE53FC4FC591D49131
:1005C00061110DC09FB7F8948C91209582238C9374
:1005D0008881282328839FBFDF91CF9108956230BF
:1005E00051F49FB7F8943C91822F809583238C938C
:1005F000E8812E2BEFCF8FB7F894EC912E2B2C9314
:100600008FBFEACF1F93CF93DF93182FEB0161E0E9
:100610000E94C602209739F460E0812FDF91CF91CC
:100620001F910C949802CF3FD10511F461E0F5CFF2
:10063000E12FF0E0EC55FC4FE491E33031F140F470
:10064000E130B1F0E230E1F0C038D1057CF7E4CF21
:10065000E73029F1E83059F1E430B1F780918000BA
:10066000806280938000D0938B00C0938A0004C086
:1006700084B5806884BDC7BDDF91CF911F91089577
:1006800084B5806284BDC8BDF7CF8091800080684A
:1006900080938000D0938900C0938800EDCF809133
:1006A000B00080688093B000C093B300E5CF809124
:1006B000B00080628093B000C093B400DDCF8E3074
:1006C00008F08E508770806480937C0080917A005F
:1006D000806480937A0080917A0086FDFCCF8091BF
:1006E00078009091790008953FB7F8948091D603EF
:1006F0009091D703A091D803B091D90326B5A89BB8
:1007000005C02F3F19F00196A11DB11D3FBFBA2FA3
:10071000A92F982F8827BC01CD01620F711D811D63
:10072000911D42E0660F771F881F991F4A95D1F7E8
:1007300008958F929F92AF92BF92CF92DF92EF92E5
:10074000FF924B015C010E9474036B017C010E94CB
:1007500074036C197D098E099F09683E73408105F9
:100760009105A8F321E0821A9108A108B10888EE4A
:10077000C80E83E0D81EE11CF11C81149104A10471
:10078000B10429F7FF90EF90DF90CF90BF90AF902A
:100790009F908F900895DC01ED91FC910190F08184
:1007A000E02D0994DB0114964D915C9115976D91A4
:1007B0007C91DC01ED91FC910280F381E02D0994A4
:1007C000EF92FF920F931F93CF93DF938C017B01E6
:1007D000D0E0C0E0F701EC0FFD1F6491662361F0EB
:1007E000D801ED91FC910190F081E02DC8010995AF
:1007F000892B11F02196EECFCE01DF91CF911F9181
:100800000F91FF90EF900895AF92BF92CF92DF9239
:10081000EF92FF920F931F93CF93DF936C017B01B5
:100820008B01040F151FEB015E01AE18BF08C01746
:10083000D10759F06991D601ED91FC910190F081B9
:10084000E02DC6010995892B79F7C501DF91CF917C
:100850001F910F91FF90EF90DF90CF90BF90AF90DE
:100860000895FC01538D448D252F30E0842F90E0B6
:10087000821B930B541710F0CF960895019708959B
:10088000FC01918D828D981761F0A28DAE0FBF2F64
:10089000B11D5D968C91928D9F5F9F73928F90E0BA
:1008A00008958FEF9FEF0895FC01918D828D981729
:1008B00031F0828DE80FF11D858D90E008958FEF66
:1008C0009FEF0895FC01918D228D892F90E0805C2F
:1008D0009F4F821B91098F73992708958DE594E0AE
:1008E0000E94620421E0892B09F420E0822F089500
:1008F00080E090E0892B29F00E946E0481110C9415
:1009000000000895FC01A48DA80FB92FB11DA35AB2
:10091000BF4F2C91848D90E001968F739927848F1F
:10092000A689B7892C93A089B1898C918370806442
:100930008C93938D848D981306C00288F389E02DE3
:1009400080818F7D80830895EF92FF920F931F9394
:10095000CF93DF93EC0181E0888F9B8D8C8D981372
:100960001AC0E889F989808185FF15C09FB7F8947E
:10097000EE89FF896083E889F989808183708064CA
:1009800080839FBF81E090E0DF91CF911F910F9115
:10099000FF90EF900895F62E0B8D10E00F5F1F4F24
:1009A0000F731127E02E8C8D8E110CC00FB607FC33
:1009B000FACFE889F989808185FFF5CFCE010E94C1
:1009C0008204F1CFEB8DEC0FFD2FF11DE35AFF4FA9
:1009D000F0829FB7F8940B8FEA89FB89808180624F
:1009E000CFCFCF93DF93EC01888D8823B9F0AA890C
:1009F000BB89E889F9898C9185FD03C0808186FDDA
:100A00000DC00FB607FCF7CF8C9185FFF2CF808128
:100A100085FFEDCFCE010E948204E9CFDF91CF9117
:100A200008952091AA023091AB022817390771F47A
:100A30009091A8028091A902981741F0E091A80234
:100A4000F0E0ED5BFD4F808190E008958FEF9FEF28
:100A500008950895EF92FF920F931F93CF93DF9322
:100A6000DC015C96ED90FC905D97E114F10479F463
:100A700081E090E013969C938E93129790E080E033
:100A8000DF91CF911F910F91FF90EF9008955196B4
:100A9000ED91FC91529750968C915097982F90958C
:100AA0000FB75E962C915E97122F127021FD609504
:100AB000F8942081112319F1282B2083E701219735
:100AC000F1F728E0462F50E0308160FF1AC0382B44
:100AD0003083E7012197F1F7BA01759567952150A9
:100AE00089F7112381F08081892380830FBF5C9671
:100AF0008D919C910197F1F781E090E0C1CF29237E
:100B0000DCCF3923E5CF9081892BEFCF2091AA024A
:100B10003091AB022817390761F48091A902209126
:100B2000A80290E0805C9F4F821B91098F739927E8
:100B3000089590E080E008952091AA023091AB02E0
:100B400028173907B9F49091A8028091A902981743
:100B500089F0E091A802F0E0ED5BFD4F80812091EB
:100B6000A80230E02F5F3F4F2F7333272093A80256
:100B700090E008958FEF9FEF0895089508952091D4
:100B80002002260F3327331F21323105ECF4209148
:100B90003304FC0190E080E0243069F082E00895A5
:100BA000A09120022191AC0140505E4FA40FB52FBF
:100BB000B11D2C930196861798F380912002680F3F
:100BC0006093200280E0089581E00895109233043C
:100BD00081E08093320410920D0461E082E10E9472
:100BE000980261E083E10E949802E9EBF0E08081E5
:100BF0008E7F808380818D7F808388E48093B8009E
:100C000085E48093BC0008951092EC031092EB03EE
:100C100010923A0410925C040E94E60586E292E08B
:100C20009093EA038093E90387E292E09093E803CC
:100C30008093E7030895CF93DF9391E09093FF01B2
:100C40008823B9F0C091B800D091BA008091BC005F
:100C50008A7B8093BC0060E082E10E94980260E0A1
:100C600083E10E9498020E94E605D093BA00C093E7
:100C7000B800DF91CF9108958F929F92AF92BF926B
:100C8000CF92DF92EF92FF920F931F93CF93DF9358
:100C9000D0915C04D13208F0D7C0182FC0915B040A
:100CA0000E9474036B017C018091330481116BC03D
:100CB00082E080933304109332048FEF80933104E9
:100CC00010923004D0932F04ABE3B4E0EFE0F4E0F3
:100CD00080E0D81391C010920E0480910E04CC0FC6
:100CE000C82BC0930E0480910D04813009F088C098
:100CF00010920D040E9474036B017C0180910E041C
:100D00008093BB008091350490913604A091370404
:100D1000B0913804892B8A2B8B2BA1F00E9474038D
:100D20000091350410913604209137043091380435
:100D30006C197D098E099F090617170728073907BF
:100D400008F442C08091BC0083FDD8CF85EC80932D
:100D5000BC000E9474036B017C01809133048230DB
:100D600009F450C0809131048F3F09F46FC0809125
:100D70003104803209F46CC080913104803309F46D
:100D800069C084E026C08091350490913604A0911A
:100D90003704B0913804892B8A2B8B2B09F484CF2C
:100DA0000E9474038090350490903604A09037041C
:100DB000B09038046C197D098E099F098616970634
:100DC000A806B90608F070CF809134040E941B0673
:100DD00085E010923A0410925C0410923904DF917D
:100DE000CF911F910F91FF90EF90DF90CF90BF9028
:100DF000AF909F908F9008959D9191938F5F69CF51
:100E000085EEA5CF8091350490913604A0913704EA
:100E1000B0913804892B8A2B8B2B09F49ECF0E942A
:100E200074030091350410913604209137043091F9
:100E300038046C197D098E099F09061717072807C2
:100E4000390708F08ACFC0CF81E0C3CF80E0C1CF9F
:100E500082E0BFCF83E0BDCFCF93DF93EC018B81E6
:100E60008823A1F0888191E09093390480935B04FA
:100E700010923A0410925C0481E00E943C0691E0DA
:100E8000811190E0892FDF91CF9108950E9404068F
:100E900081E08B83CE010E942C07982F8111E2CF35
:100EA000F1CFE091EC038091EB03E81730F4F0E030
:100EB000E351FC4F808190E008958FEF9FEF0895FC
:100EC0009091EC038091EB032FEF3FEF981748F4DC
:100ED000E92FF0E0E351FC4F208130E09F5F9093D9
:100EE000EC03C90108958091EB039091EC03891BF9
:100EF000990B0895CF92DF92EF92FF920F931F9379
:100F0000CF93DF937C01CB018A0120913904222306
:100F100089F0EB016B01C40ED51ECC15DD0569F01F
:100F20006991D701ED91FC910190F081E02DC7010D
:100F30000995F3CF642F0E94BF05C801DF91CF91BF
:100F40001F910F91FF90EF90DF90CF900895CF9376
:100F5000DF931F92CDB7DEB7698320913904222336
:100F6000F9F020915C04203258F021E030E0FC01DF
:100F70003383228390E080E00F90DF91CF9108953A
:100F800080913A04E82FF0E0E55CFB4F9981908373
:100F90008F5F80933A0480935C0481E090E0ECCF13
:100FA00061E0CE0101960E94BF05F7CF90E080E09E
:100FB000089560E082E10E94C60260E083E10E9441
:100FC000C60282E10E946F02892B31F083E10E9408
:100FD0006F0221E0892B09F420E0822F0895CF933E
:100FE000DF9362E082E10E94C60261E083E10E9439
:100FF000C602C9E0D0E061E083E10E94980265E0AA
:1010000070E080E090E00E94990360E083E10E943C
:10101000980265E070E080E090E00E9499032197DB
:1010200051F7DF91CF910C9404060F931F93CF9348
:10103000DF932EE1269FA001279F500D11244350DE
:101040005D4F30E020E0FA01E20FF31F108A2F5FBE
:101050003F4F2A303105B9F7DC011496ED91FC9130
:10106000C9E0D0E0E930F10508F4EF0130E020E01C
:101070002C173D07C4F42E173F0740F4DC010D91F7
:101080001C91D801A20FB31F012B21F41092DC0197
:10109000ACEDB1E01C91DA01A20FB31F50961C9386
:1010A0002F5F3F4FE5CF8EE1869FF001879FF00DC8
:1010B0001124E350FD4FEC0FFD1F108ADF91CF91FB
:1010C0001F910F9108950F931F93CF93DF932EE1FC
:1010D000269FA001279F500D112443505D4F30E003
:1010E00020E0FA01E20FF31F15822F5F3F4F2B30F4
:1010F0003105B9F7DC011496ED91FC91CAE0D0E01E
:10110000EA30F10508F4EF0130E020E02C173D074C
:10111000C4F42E173F0740F4DC010D911C91D80157
:10112000A20FB31F012B21F41092DC01ACEDB1E052
:101130001C91DA01A20FB31F15961C932F5F3F4F2E
:10114000E5CF8EE1869FF001879FF00D1124E350DB
:10115000FD4FEC0FFD1F1582DF91CF911F910F9175
:101160000895CF93DF93DC0114962D913C912417C1
:10117000350710F490E01EC0EA01FC0181819281E4
:10118000208131E03093390420935B0410923A04BB
:1011900010925C04DC01ED91FC910280F381E02D62
:1011A0000995C817D90731F781E00E943C0691E004
:1011B0008111E0CF892FDF91CF910895CF93DF93F5
:1011C00000D0CDB7DEB799838A8342E050E0BE01FC
:1011D0006F5F7F4F80912F05909130050E94B1087D
:1011E0000F900F90DF91CF9108952F923F924F92E1
:1011F0005F926F927F928F929F92AF92BF92CF92A7
:10120000DF92EF92FF920F931F93CF93DF935C01D6
:101210001B016A01F12CE12CD50114968D919C9152
:1012200086010E191F098017910708F48C01F5013A
:10123000D0810E9474032B013C0180913304811101
:1012400072C0C02F013208F0C0E2F1E0F093330425
:1012500021E0C601801B910BE816F90608F420E096
:10126000209332048FEF80933104109230048C0F5E
:1012700080932F04A1E0A0930E0480910E04DD0F53
:10128000D82BD0930E0480910D04813009F090C0CA
:1012900010920D040E9474032B013C0180910E04F6
:1012A0008093BB008091350490913604A09137045F
:1012B000B0913804892B8A2B8B2BA1F00E947403E8
:1012C0002091350430913604409137045091380410
:1012D00064197509860997092617370748075907BA
:1012E00008F442C08091BC0083FDD8CFB5ECB09328
:1012F000BC000E9474032B013C01809133048130B7
:1013000009F45AC0809130048C1710F4C091300455
:10131000AFE0B4E0EDEEF3E080E08C1751F19D9189
:1013200091938F5FFACF8091350490913604A0910C
:101330003704B0913804892B8A2B8B2B09F47DCF8D
:101340000E94740320913504309136044091370493
:1013500050913804641975098609970926173707CB
:101360004807590708F069CF809134040E941B0692
:10137000C0E01092EC03C093EB03C017110609F014
:1013800057C041018E0C9F1CE401CE0188199909B8
:101390008017910798F5D50111968D919C91DC01EC
:1013A000ED91FC910284F385E02D09958993EDCFB1
:1013B000E5EEE093BC009DCF80913504909136041A
:1013C000A0913704B0913804892B8A2B8B2B09F418
:1013D00094CF0E94740320913504309136044091DB
:1013E000370450913804641975098609970926173E
:1013F00037074807590708F080CFB6CFE00EF11E37
:10140000EC14FD0408F408CF81E0DF91CF911F9127
:101410000F91FF90EF90DF90CF90BF90AF909F9093
:101420008F907F906F905F904F903F902F90089596
:1014300080E0EBCF0F931F93CF93DF9300D000D0CA
:1014400000D0CDB7DEB764E170E080E090E00E94AC
:10145000990346E050E0BE016F5F7F4F80912F05FA
:10146000909130050E94F508182F882309F452C086
:101470000B81CE0101960E942802081357C00E81ED
:10148000CE0104960E942802081350C029813A8197
:10149000322723273227A7E1B1E10E94C3282EE09B
:1014A00095958795779567952A95D1F764597141F8
:1014B000810991090E94372720E030E048EC52E48E
:1014C0000E943F296093290570932A0580932B057C
:1014D00090932C052C813D81322723273227A1E7C9
:1014E000B2E00E94C3283CE0969587957795679572
:1014F0003A95D1F70E94352720E030E048EC52E4DD
:101500000E943F2960932505709326058093270547
:1015100090932805812F26960FB6F894DEBF0FBE54
:10152000CDBFDF91CF911F910F91089510E0F2CFC1
:1015300080E094E20E94DE08811105C060E070E066
:1015400080EC9FE708950E941A0A8823B9F36091FE
:10155000290570912A0580912B0590912C050895FD
:1015600080E094E20E94DE08811105C060E070E036
:1015700080EC9FE708950E941A0A8823B9F36091CE
:1015800025057091260580912705909128050895DD
:10159000CF93DF931F92CDB7DEB741E050E0BE019D
:1015A0006F5F7F4FFC01848595850E94F508882335
:1015B00029F089810F90DF91CF9108958FEFFACFB5
:1015C000CF92DF92EF92FF920F931F93CF93DF930F
:1015D000CDB7DEB78B01CDB6DEB69B012F5F3F4F97
:1015E0006DB77EB7621B730B0FB6F8947EBF0FBE4C
:1015F0006DBF2DB73EB72F5F3F4F7901BC016652DB
:101600007C4FC9010E94E22BF701E00FF11F10820D
:10161000C7010E94D3240FB6F894DEBE0FBECDBE24
:10162000DF91CF911F910F91FF90EF90DF90CF90BE
:1016300008950F931F93CF93DF938C01EB0188E202
:10164000FB0111928A95E9F74BE050E06AE971E0FD
:10165000CE010E94E22B1B8681E090E0A0E0B0E08A
:101660008C879D87AE87BF87F80182819381092E81
:10167000000CAA0BBB0B888B998BAA8BBB8B8DE0C4
:1016800090E0A0E0B0E08C8B9D8BAE8BBF8B1CA25A
:101690001DA21EA21FA280E090E0A0E2B2EC8C8FFF
:1016A0009D8FAE8FBF8F80E090E0AAEAB2E4888F72
:1016B000998FAA8FBB8F8AE999E9A9E9BEE388A32C
:1016C00099A3AAA3BBA3DF91CF911F910F91089576
:1016D0000F931F93CF93DF938C01EB0188E2FB0103
:1016E00011928A95E9F74BE050E062EA71E0CE0191
:1016F0000E94E22B1B8681E090E0A0E0B0E08C87A6
:101700009D87AE87BF87F80182819381092E000CE7
:10171000AA0BBB0B888B998BAA8BBB8B8CE090E0C0
:10172000A0E0B0E08C8B9D8BAE8BBF8B1CA21DA26A
:101730001EA21FA21C8E1D8E1E8E1F8E80E090E0AA
:10174000A8ECB2E4888F998FAA8FBB8F80E090E0DD
:10175000A0E0B0E488A399A3AAA3BBA3DF91CF9193
:101760001F910F9108954F925F926F927F92AF9267
:10177000BF92CF92DF92EF92FF920F931F93CF937E
:10178000DF93CDB7DEB729970FB6F894DEBF0FBE53
:10179000CDBF8C017B016A018FB7F8944090D203D2
:1017A0005090D3036090D4037090D5038FBF809185
:1017B000060190910701A09108018F839887A9875E
:1017C00043E050E0BE01695F7F4FD8011C968D91C8
:1017D0009C910E94B108811117C0B12C8B2D2996C4
:1017E0000FB6F894DEBF0FBECDBFDF91CF911F9132
:1017F0000F91FF90EF90DF90CF90BF90AF907F90D0
:101800006F905F904F900895C8010E94C80A87FFAB
:1018100007C06AE070E080E090E00E949903F4CF96
:1018200046E050E0BE016F5F7F4FF80184859585EB
:101830000E94F508B82E882381F26A817B81762781
:1018400067277627CB01B0E0A0E09C01AD0184E0E2
:10185000220F331F441F551F8A95D1F7AC808A2D64
:1018600090E064E0959587956A95E1F7092E000C64
:10187000AA0BBB0BBC01CD01622B732B842B952BC8
:101880000E94352720E030E048EC52E40E94962781
:1018900020E030E040E855E30E949627D8011496F6
:1018A0006D937D938D939C9317976A2D6F7070E065
:1018B00090E080E0982F872F762F66272D81622B6E
:1018C000982F872F762F66272E81622B0E9435272F
:1018D00020E030E048E453E40E94962720E030E026
:1018E00040E855E30E94962720E030E048E452E4C7
:1018F0000E94D228F8016083718382839383C1148C
:10190000D10481F1F601349680E2DF011D928A95BF
:10191000E9F784E290E0A0E0B0E0F60180839183F3
:10192000A283B383D8011A968D919C91B0E0A0E078
:1019300084839583A683B7838DE090E0A0E0B0E038
:1019400080879187A287B387408A518A628A738A87
:10195000F80180819181A281B381F601848B958BFE
:10196000A68BB78BE114F10409F438CFF701349654
:1019700080E2DF011D928A95E9F784E290E0A0E021
:10198000B0E0F70180839183A283B383D8011896D6
:101990008D919C91B0E0A0E084839583A683B7836A
:1019A0008DE090E0A0E0B0E080879187A287B387C8
:1019B000408A518A628A738AF80184819581A6815E
:1019C000B781F701848B958BA68BB78B07CFAB01C3
:1019D00070E060E0FC01848195810E94B30B81E09E
:1019E000089550E040E0FC01848195810E94B30B92
:1019F00081E00895FC0180819181009711F00C94A1
:101A00008C2A08950C948C2A0C948C2A0F931F9383
:101A1000CF93DF93EC0188819981009759F02A8157
:101A20003B812617370730F081E0DF91CF911F917E
:101A30000F9108958B016F5F7F4F0E94152B0097C8
:101A400059F0998388831B830A832C813D81232B42
:101A500059F7FC011082E8CF80E0E7CFFB0101904D
:101A60000020E9F73197AF01461B570BDC01ED91E0
:101A7000FC910280F381E02D0994CF93DF93BC01A8
:101A80008DE594E00E94E003EC016AEA71E08DE5E7
:101A900094E00E942E0D8C0F9D1FDF91CF91089531
:101AA0008F929F92AF92BF92EF92FF920F931F93EC
:101AB000CF93DF93CDB7DEB7A1970FB6F894DEBF13
:101AC0000FBECDBF7C01FA01CB0119A2223008F470
:101AD0002AE08E010F5D1F4F822E912CB12CA12C7C
:101AE000BF01A50194010E94A128F901CA016A3031
:101AF0000CF5605DD8016E938D01232B242B252BD3
:101B000079F790E080E0109721F0BD01C7010E94B5
:101B10002E0DA1960FB6F894DEBF0FBECDBFDF919C
:101B2000CF911F910F91FF90EF90BF90AF909F903A
:101B30008F900895695CDECFCF92DF92EF92FF9293
:101B40000F931F93CF93DF936B01770FEE08FF087E
:101B5000F7FE1BC0EC016DE20E94CB038C01442711
:101B60005527BA014C195D096E097F092AE0CE019B
:101B70000E94500D800F911FDF91CF911F910F9107
:101B8000FF90EF90DF90CF9008952AE0B701A60173
:101B9000DF91CF911F910F91FF90EF90DF90CF9049
:101BA0000C94500D8F929F92AF92BF92CF92DF9282
:101BB000EF92FF920F931F93CF93DF93EC016A0193
:101BC0007B01AB019601CB01B6010E94E5296DEACC
:101BD00071E0811126C046015701E894B7F82FEF54
:101BE0003FEF4FE75FE7C501B4010E94E52981118E
:101BF0000CC02FEF3FEF4FE75FE7C501B4010E9434
:101C0000302761EB71E0181664F02FEF3FEF4FE7DC
:101C10005FE4C701B6010E94E02918168CF465EB59
:101C200071E0CE01DF91CF911F910F91FF90EF9066
:101C3000DF90CF90BF90AF909F908F900C942E0D1F
:101C40002FEF3FEF4FE75FECC701B6010E9430274F
:101C500087FDE5CF20E030E0A901C701B6010E9471
:101C6000302710E000E087FF09C06DE2CE010E943E
:101C7000CB038C01F7FAF094F7F8F0942AE037EDF3
:101C800043EA5BE3C701B6010E94D3286B017C01E4
:101C90000E94B1294B015C010E9435279B01AC01D8
:101CA000C701B6010E94D2286B017C012AE0B50170
:101CB000A401CE010E94500D080F191F6EE2CE0143
:101CC0000E94CB03080F191F20E030E040E251E4EE
:101CD000C701B6010E9496274B015C010E94B12901
:101CE0006B01F12CE12C2AE0B701A601CE010E9484
:101CF000500D080F191FC701B6010E9435279B011F
:101D0000AC01C501B4010E94D22820E030E040E2DD
:101D100051E40E9496270E94B129AB0170E060E077
:101D20002AE0CE010E94500D800F911FDF91CF91CC
:101D30001F910F91FF90EF90DF90CF90BF90AF90E9
:101D40009F908F9008950C942E0DEF92FF920F9319
:101D50001F93CF93DF93EC017B01198218821B82C2
:101D60001A821D821C82FB0101900020E9F7319745
:101D70008F01061B170BB8010E94060D28813981BF
:101D8000811113C02115310519F0C9010E948C2A57
:101D9000198218821D821C821B821A82DF91CF91C8
:101DA0001F910F91FF90EF9008951D830C83B70151
:101DB000C901DF91CF911F910F91FF90EF900C948B
:101DC000DB2B85ED8093BC00809135049091360427
:101DD000A0913704B09138040796A11DB11D23E0EE
:101DE000B695A795979587952A95D1F72091BC0030
:101DF00024FD03C01092330408954091350450919E
:101E000036046091370470913804452B462B472BDC
:101E100069F30097A105B10541F02AE22A95F1F78F
:101E200000C00197A109B109E1CF809134040C945D
:101E30001B060C945C288F929F92AF92BF92CF9218
:101E4000DF92EF92FF920F931F93CF93DF937B016B
:101E50006A01FC0101900020E9F731978F01081B0E
:101E6000190B4C01D0E0C0E05A0181E0A81AB1087A
:101E7000C017D10769F0CA15DB0550F4F401619170
:101E80004F01C7018C0F9D1F0E94190F2196F0CFA3
:101E9000CC15DD0540F460E0C7018C0F9D1F0E944A
:101EA000190F2196F5CFDF91CF911F910F91FF90E0
:101EB000EF90DF90CF90BF90AF909F908F9008955C
:101EC000CF93DF93D0E0C0E060E0CE010E94190F15
:101ED0002196C11582E0D807B9F760E088EE93E05B
:101EE0000E94190F60E089EE93E00E94190F61E0F3
:101EF0008AEE93E00E94190F6EE08BEE93E00E9451
:101F0000190F60E08CEE93E00E94190F60E08DEEF7
:101F100093E00E94190F60E08FEF93E00E94190F89
:101F20008091D003882341F062E671E08AEF94E06B
:101F3000DF91CF910C94E00368E671E08DE594E0C9
:101F4000F7CF1F93CF93DF93EC01162F0E945428F5
:101F5000181739F0612FCE01DF91CF911F910C94AA
:101F60005C28DF91CF911F910895DF92EF92FF924D
:101F70000F931F93CF93DF93D82EC6E5D1E087EB65
:101F8000E82E82E0F82E0DEF12E08881229670E0B4
:101F900060E00E94020360E0F701828193810E9469
:101FA000A10F60E0F701848195810E94A10FF801E3
:101FB000148E138E128EFAE0EF0EF11C025E1F4F8C
:101FC00081E0C036D80709F7DD20B1F08091D00359
:101FD000882369F06EE873E08AEF94E0DF91CF9197
:101FE0001F910F91FF90EF90DF900C94E00364E954
:101FF00073E08DE594E0F2CFDF91CF911F910F91C7
:10200000FF90EF90DF9008950C945428AF92BF9208
:10201000CF92DF92EF92FF920F931F93CF93DF93B4
:1020200000D0CDB7DEB78C017B01FC01118210829C
:10203000138212821582148270E060E00E94060D05
:10204000F8012081318181114BC02115310519F032
:10205000C9010E948C2AF801118210821582148213
:10206000138212825701F2E3AF0EB11CE11484E037
:10207000F80644F5C7010E945428882319F1898382
:102080001A82F801C480D580FFEFCF1ADF0AB601AB
:10209000C8010E94060D882379F0F8012081318162
:1020A00084819581BE016F5F7F4F820F931F0E94D5
:1020B000DB2BF801D582C482FFEFEF1AFF0AEA1486
:1020C000FB04A1F6C8010F900F90DF91CF911F91F3
:1020D0000F91FF90EF90DF90CF90BF90AF90089559
:1020E000158214826CEA71E0C9010E94DB2BBACF21
:1020F0002F923F924F925F926F927F928F929F9218
:10210000AF92BF92CF92DF92EF92FF920F931F9305
:10211000CF93DF9300D000D0CDB7DEB78C01079707
:102120004CF105EF11E022E044E060E070E0CB010B
:102130000E94B5240BEE11E022E044E060E070E084
:10214000CB010E94B5240F900F900F900F90DF915C
:10215000CF911F910F91FF90EF90DF90CF90BF90A4
:10216000AF909F908F907F906F905F904F903F9037
:102170002F9008958EE1809FF001819FF00D112432
:10218000E350FD4F858D882361F2C801880F991FA8
:102190009B838A83FC01EF5BFE4FE080F18095E139
:1021A000E916F10409F4BDCFEFEFEE16FE0661F07B
:1021B00061E08E2D0E94C602EA81FB81ED5CFE4F3C
:1021C00060818E2D0E94980284E10E945F03BC0111
:1021D000990F880B990B0E94372720E731E640EAD8
:1021E0005BE30E94962720E030E54CE556E40E9430
:1021F000962720E030EE42E955E40E943F296B012A
:102200007C0185E10E945F03BC01990F880B990B4B
:102210000E94372720E731E640EA5BE30E949627D9
:1022200028E539E340E250E40E94D2282CE437E369
:1022300049E85DE30E943F294B015C0120E030E06A
:10224000A9010E94302787FF03C0812C912C5401E3
:102250002AE939E949E95EE3C501B4010E94D328BE
:102260004B015C018EE1809FF001819FF00D1124F4
:10227000E350FD4F848102E310E0803509F060C037
:10228000412C512C612C712C8A819B81875F9E4F40
:10229000FC01F081F98389810E945F03BC01990FE1
:1022A000880B990B0E9437271B018C839A8392011C
:1022B000A3010E94E02918161CF421016C807A8089
:1022C00061E070E080E090E00E9499030150110904
:1022D00011F72AE038E240EA5BE3B201C3010E9451
:1022E000962720E030E54AEA55E40E94962720E050
:1022F00030EC4CE854E40E943F292B013C0120E0E3
:1023000030E0A9010E94302787FF03C0412C512CE7
:10231000320101EE11E022E044E0C501B4010E9467
:10232000B52405EF11E022E044E0C701B6010E94A8
:10233000B5240BEE11E022E044E0C301B20101CF6D
:10234000412C512C32018A819B81875F9E4FFC0179
:10235000F081F98389810E945F03BC01990F880B8A
:10236000990B0E9437279B01AC01C301B2010E9467
:10237000D3282B013C0161E070E080E090E00E94F6
:1023800099030150110931F720E030E048E452E4AC
:10239000C301B2010E943F292AE038E240EA5BE330
:1023A0009ECF0F931F93CF93DF93CDB7DEB76E977A
:1023B0000FB6F894DEBF0FBECDBF2BEE31E03F93DA
:1023C0002F9325EF31E03F932F932EE1289FF001CB
:1023D000299FF00D1124E350FD4F848D8F93838D41
:1023E0008F93828D1F928F9389EB91E09F938F93B0
:1023F0008E010F5F1F4F1F930F930E94212C0FB66A
:10240000F894DEBF0FBECDBF8091D003B801882302
:1024100079F08AEF94E00E94A30E6E960FB6F894BE
:10242000DEBF0FBECDBFDF91CF911F910F910895F9
:102430008DE594E0F0CF7F928F929F92AF92BF9202
:10244000CF92DF92EF92FF920F931F93CF93DF9380
:10245000CDB7DEB7C854D1090FB6F894DEBF0FBEB2
:10246000CDBF8332D9F08E3341F18D3011F00C9411
:10247000DA1BC85BDF4F0FB6F894DEBF0FBECDBFCF
:10248000DF91CF911F910F91FF90EF90DF90CF9050
:10249000BF90AF909F908F907F900895EAEDF3E00A
:1024A000A091DF01B091E001A652BC4F1C92809137
:1024B000DA03813539F40E94600F1092E001109226
:1024C000DF01D7CF843509F0B2C18091B502909178
:1024D000B6022091AC02222309F41FC1029769F7CA
:1024E0008090B1029090B202A090B302B090B4027A
:1024F000C090AD02D090AE02E090AF02F090B0027A
:102500000E94980A6093B1027093B2028093B30262
:102510009093B4020E94B00A6093AD027093AE0231
:102520008093AF029093B00205E010E06091B10299
:102530007091B2028091B3029091B4029B01AC0100
:102540000E94E52981110EC06091AD027091AE022A
:102550008091AF029091B0029B01AC010E94E529ED
:102560008823E9F00E94980A6093B1027093B20246
:102570008093B3029093B4020E94B00A6093AD02BC
:102580007093AE028093AF029093B0026AE070E065
:1025900080E090E00E9499030150110939F66091A2
:1025A000B1027091B2028091B3029091B4029B018A
:1025B000AC010E94E52981110EC06091AD027091BD
:1025C000AE028091AF029091B0029B01AC010E94DB
:1025D000E529882381F08092B1029092B202A09204
:1025E000B302B092B402C092AD02D092AE02E092B9
:1025F000AF02F092B0022091AD023091AE02409154
:10260000AF025091B00260E070E088EC92E40E946A
:10261000D22820E030E040EA50E40E943F299B01AC
:10262000AC016091B1027091B2028091B3029091BD
:10263000B4020E94D2286B017C018091D0038823D0
:10264000B9F160E873E08AEF94E00E94E003409102
:10265000B1025091B2026091B3027091B4028AEF5C
:1026600094E00E94D20D6EE773E08AEF94E00E943E
:10267000E0034091AD025091AE026091AF027091C3
:10268000B0028AEF94E00E94D20D6CE773E08AEF0B
:1026900094E00E94E003B701A6018AEF94E00E9453
:1026A000D20D6AE773E08AEF94E00E94E00305CF61
:1026B00068E773E08DE594E00E94E0034091B10289
:1026C0005091B2026091B3027091B4028DE594E032
:1026D0000E94D20D66E773E08DE594E00E94E0036E
:1026E0004091AD025091AE026091AF027091B00284
:1026F0008DE594E00E94D20D64E773E08DE594E0EF
:102700000E94E003B701A6018DE594E00E94D20D7E
:1027100062E773E08DE594E0C8CF019709F07EC0D1
:10272000AE014F5F5F4FBE016B5D7F4F81E395E070
:102730000E94B30B29AD3AAD4BAD5CAD60E070E0EB
:1027400088EC92E40E94D22820E030E040EA50E495
:102750000E943F299B01AC016D897E898F89988DEC
:102760000E94D2286B017C018091D003882359F10B
:1027700068E673E08AEF94E00E94E0034D895E8989
:102780006F89788D8AEF94E00E94D20D66E673E03F
:102790008AEF94E00E94E00349AD5AAD6BAD7CAD89
:1027A0008AEF94E00E94D20D64E673E08AEF94E031
:1027B0000E94E003B701A6018AEF94E00E94D20DC7
:1027C00062E673E070CF60E673E08DE594E00E940E
:1027D000E0034D895E896F89788D8DE594E00E94D4
:1027E000D20D6EE573E08DE594E00E94E00349AD03
:1027F0005AAD6BAD7CAD8DE594E00E94D20D6CE5D9
:1028000073E08DE594E00E94E003B701A6018DE539
:1028100094E00E94D20D6AE573E07CCF8091D003F2
:102820006EE673E081113FCF6AE673E073CF8D34BB
:1028300009F0D1C001900020E9F7EB5DF340329739
:1028400008F467C042E050E061E070E081E090E0B1
:102850000E94E00A873091054CF08091D00363E537
:1028600073E0811120CF6CE473E054CFFC01E15B95
:10287000FE4F2081213449F48091D00365E473E058
:10288000811111CF6EE373E045CF0E9478108E0165
:102890000F5F1F4F84E1F80111928A95E9F780914B
:1028A000D003882351F16CE373E08AEF94E00E9437
:1028B000E0038BEE91E09F938F9385EF91E09F93E0
:1028C0008F938FEB91E09F938F931F9284E18F936F
:1028D0001F930F930E94F12B0FB6F894DEBF0FBE2B
:1028E000CDBF8091D003B801882361F08AEF94E0D6
:1028F0000E94A30E68E373E0D6CE6AE373E08DE531
:1029000094E0D5CF8DE594E00E94A30E66E373E0DA
:1029100001CF8091D003882309F44FC064E373E0B2
:102920008AEF94E00E94E00310E000E064E1762E7C
:10293000CE0101967C017BEEC72E71E0D72EE5EF2C
:10294000AE2EE1E0BE2EFFEB8F2EF1E09F2EC801F0
:102950000E947810F701272D11922A95E9F7DF924E
:10296000CF92BF92AF929F928F921F927F92FF92CF
:10297000EF920E94F12B0FB6F894DEBF0FBECDBFD1
:102980008091D003B7018823E9F08AEF94E00E9498
:10299000A30E60E373E08AEF94E00E94E0030F5F10
:1029A0001F4F0530110599F68091D0036CE273E05A
:1029B000811179CE6AE273E0ADCE62E373E08DE51A
:1029C00094E0B0CF8DE594E00E94A30E6EE273E038
:1029D0008DE594E0E2CF833509F0C5C042E050E0D8
:1029E00061E070E081E090E00E94E00A8C0143E049
:1029F00050E063E070E082E090E00E94E00A7C0139
:102A0000073011054CF08091D00363E273E081112F
:102A10004ACE6CE173E07ECE2EE1209FC001219F63
:102A2000900D1124FC01E350FD4F6F01848180352E
:102A300071F5FFEFEF16F10411F008F051C0F80145
:102A4000EE0FFF1FEA5AFE4FB70180810E9402037A
:102A50002AE0209FC001219F900D11248C01095470
:102A60001D4F6E2DF801848195810E94A10F6E2D5E
:102A7000F801828193810E94A10FF601F48EE38E0A
:102A800081E0EF2809F480E0F601828F29C08235C9
:102A900009F060C0E114F10461F5F801EE0FFF1FC9
:102AA000EA5AFE4F70E060E080810E9402032AE053
:102AB000209FC001219F900D11248C0109541D4FAE
:102AC00060E0F801828193810E94A10F60E0F8012B
:102AD000848195810E94A10FF601148E138E128EAF
:102AE0008091D00368E073E08111DDCD62E073E096
:102AF00011CE1E141F04A4F7F801EE0FFF1FEA5AAF
:102B0000FE4F6FEF70E080810E9402032AE0209F59
:102B1000C001219F900D11249C0129543D4F790142
:102B20006FEFF901828193810E94A10F6FEFF7018E
:102B3000848195810E94A10F8EE1809FF001819F89
:102B4000F00D1124E350FD4F8FEF90E0948F838FB1
:102B500081E09BCF8091D00365E173E08111A3CD2B
:102B60006EE073E0D7CD803509F00BC201900020F4
:102B7000E9F7EB5DF340329730F142E050E061E07D
:102B800070E081E090E00E94E00A8C010E947810E1
:102B90008091D003882391F060E073E08AEF94E0A5
:102BA0000E94E003C8010E94D1118091D0036CEF14
:102BB00072E0811178CD6AEF72E0ACCD6EEF72E019
:102BC0008DE594E0EDCF8091D003882309F434C1E2
:102BD00068EF72E08AEF94E00E94E00310E000E00A
:102BE000C8010E947810C8010E94D1118091D003C1
:102BF000882309F426C164EF72E08AEF94E00E9412
:102C0000E0030F5F1F4F0730110551F78091B502A8
:102C10009091B602892B09F4FBC08091AC02882305
:102C200009F438C18090B1029090B202A090B30232
:102C3000B090B402C090AD02D090AE02E090AF026E
:102C4000F090B0020E94980A6093B1027093B202B1
:102C50008093B3029093B4020E94B00A6093AD02D5
:102C60007093AE028093AF029093B00205E010E043
:102C70006091B1027091B2028091B3029091B4025E
:102C80009B01AC010E94E52981110EC06091AD024B
:102C90007091AE028091AF029091B0029B01AC01A5
:102CA0000E94E5298823E9F00E94980A6093B10206
:102CB0007093B2028093B3029093B4020E94B00A60
:102CC0006093AD027093AE028093AF029093B00216
:102CD0006AE070E080E090E00E94990301501109E1
:102CE00039F66091B1027091B2028091B302909175
:102CF000B4029B01AC010E94E52981110EC06091D4
:102D0000AD027091AE028091AF029091B0029B0132
:102D1000AC010E94E529882381F08092B102909253
:102D2000B202A092B302B092B402C092AD02D092AD
:102D3000AE02E092AF02F092B002C090B102D09029
:102D4000B202E090B302F090B4022091AD02309153
:102D5000AE024091AF025091B00260E070E088ECAA
:102D600092E40E94D22820E030E040EA50E40E9441
:102D70003F299B01AC01C701B6010E94D2284B013B
:102D80005C018091D003B701A601882309F45EC0DD
:102D90008AEF94E00E94D20D60EF72E08AEF94E037
:102DA0000E94E0034091AD025091AE026091AF02EB
:102DB0007091B0028AEF94E00E94D20D6EEE72E044
:102DC0008AEF94E00E94E003B501A4018AEF94E049
:102DD0000E94D20D8091DE018F30A8F08091DD013C
:102DE00091E089278093DD01882309F450C08DE6A6
:102DF00090E30E94DE0861E070E080E090E00E94D5
:102E000099031092DE018091DE018F5F8093DE01D5
:102E10008091D003882309F4A5C060EE72E08AEFA8
:102E200094E00E94E00361EE71E08AEF94E00E947A
:102E3000A30E6EED72E037CC66EF72E08DE594E0A4
:102E4000CBCE62EF72E08DE594E0D9CE8DE594E0D3
:102E50000E94D20D6CEE72E08DE594E00E94E003DA
:102E60004091AD025091AE026091AF027091B002FC
:102E70008DE594E00E94D20D6AEE72E08DE594E05B
:102E80000E94E003B501A4018DE594E0A1CF86E6A0
:102E900090E3AFCFAE014F5F5F4FBE016B5D7F4FE1
:102EA00081E395E00E94B30BCD88DE88EF88F88C33
:102EB00029AD3AAD4BAD5CAD60E070E088EC92E4DA
:102EC0000E94D22820E030E040EA50E40E943F29EE
:102ED0009B01AC01C701B6010E94D2284B015C01E5
:102EE0008091D003B701A6018823F9F08AEF94E01E
:102EF0000E94D20D68EE72E08AEF94E00E94E00337
:102F000049AD5AAD6BAD7CAD8AEF94E00E94D20D15
:102F100066EE72E08AEF94E00E94E003B501A4013E
:102F20008AEF94E00E94D20D73CF8DE594E00E9469
:102F3000D20D64EE72E08DE594E00E94E00349ADAD
:102F40005AAD6BAD7CAD8DE594E00E94D20D62EE82
:102F500072E08DE594E00E94E003B501A4018DE5E7
:102F600094E0E0CF6CED72E08DE594E00E94E00328
:102F700061EE71E08DE594E00E94A30E6AED72E0CF
:102F8000C9CB823409F08FC001900020E9F7EB5DD6
:102F9000F3401091D0033297C8F142E050E061E075
:102FA00070E081E090E00E94E00A7C011123B9F01A
:102FB00068ED72E08AEF94E00E94E0038EE18E9D5E
:102FC000F0018F9DF00D1124E350FD4F628D70E0F4
:102FD0008AEF94E00E949C0D66ED72E064CB64ED94
:102FE00072E08DE594E00E94E0038EE18E9DF00199
:102FF0008F9DF00D1124E350FD4F628D70E08DE543
:1030000094E00E949C0D62ED72E084CB60ED72E072
:103010008AEF94E0111104C06EEC72E08DE594E04B
:103020000E94E0030DEF12E023E9E22E23E0F22EEE
:10303000F801628D70E08091D003882389F18AEFD6
:1030400094E00E949C0D025E1F4FE016F10681F78E
:103050008091D00381111AC06AEC72E08DE594E092
:103060000E94E0038091D003811115C06AEC72E0E8
:103070008DE594E00E94E0038091D00366EC72E05D
:10308000882309F447CB68EC72E00DCB6CEC72E05E
:103090008AEF94E0E5CF6CEC72E08AEF94E0EACF3F
:1030A0008DE594E0CECF863509F091C001900020E7
:1030B000E9F7EB5DF3401091D003329708F44DC06F
:1030C00042E050E061E070E081E090E00E94E00AC0
:1030D0007C018EE18E9DF0018F9DF00D1124E35057
:1030E000FD4F8481803511F0863581F51123B9F0CB
:1030F00064EC72E08AEF94E00E94E0038EE18E9D22
:10310000F0018F9DF00D1124E350FD4F638D748D00
:103110008AEF94E00E949C0D62EC72E0C4CA60ECFD
:1031200072E08DE594E00E94E0038EE18E9DF00157
:103130008F9DF00D1124E350FD4F638D748D8DE54F
:1031400094E00E949C0D6EEB72E0E4CA67EB72E0C3
:103150001111A9CA60EB72E0DDCA6EEA72E08AEF73
:1031600094E0111104C06CEA72E08DE594E00E94D5
:10317000E0030DEF12E0F8018481803581F4638D66
:10318000748D8091D0038823C9F08AEF94E00E9467
:103190009C0D6AEA72E08AEF94E00E94E003025E0E
:1031A0001F4FF3E003391F0731F78091D00366EA20
:1031B00072E0811178CA64EA72E0ACCA8DE594E0ED
:1031C0000E949C0D68EA72E08DE594E0E6CF8E34B3
:1031D00009F064C042E050E061E070E081E090E01E
:1031E0000E94E00A8C0108970CF040C0FE01319665
:1031F0008EE1809F6001819FD00C112490E080E0DF
:103200007F01DC01AC0DBD1DA350BD4F15961C9276
:10321000119201968B309105A1F74BE050E06CEDD7
:1032200073E0C7010E94E22B4BE050E06CED73E0CD
:10323000C6018E5F9C4F0E94E22B8EE1809FF001C1
:10324000819FF00D1124E350FD4F17868AE0809F87
:10325000F001819FF00D1124E954FD4F66817781C3
:103260004BE050E0C7010E941B0F0AC08091D003C1
:10327000882379F06DE972E08AEF94E00E94E00320
:103280008091D00360E972E081110DCA6AE872E0B2
:1032900041CA66E972E08DE594E0F0CF833409F02D
:1032A00045C042E050E061E070E081E090E00E94C3
:1032B000E00A8C0108974CF08091D00367E772E038
:1032C0008111F1C960E772E025CA4DE050E06CED74
:1032D00073E0CE0101960E94E22B1E862EE1209F14
:1032E000C001219F900D11244AE050E0BE016F5FA4
:1032F0007F4F835F9C4F0E94E22B8AE0809FF0010A
:10330000819FF00D1124E954FD4F608571854DE0DA
:1033100050E0CE0101960E941B0F8091D00364E81B
:1033200072E08111C0C96EE772E0F4C98F3409F010
:103330004EC042E050E061E070E081E090E00E9429
:10334000E00A883091056CF42EE1289FF001299F56
:10335000F00D1124E350FD4F2381203559F026351F
:1033600049F08091D00369E672E081119CC962E660
:1033700072E0D0C96091DC03262F2D7F203549F003
:103380008091D0036BE572E081118DC964E572E034
:10339000C1C92EE1289FF001299FF00D1124E350AF
:1033A000FD4F64832AE0289FF001299FF00D11242E
:1033B000E954FD4F808191810E94A10F8091D0033B
:1033C0006EE472E081116FC968E472E0A3C98134D0
:1033D000C9F506E511E087EBC82E82E0D82E9DEFF7
:1033E000E92E92E0F92EBB24B394F80180810E5FA0
:1033F0001F4F6FEF70E00E9402036FEFF6018281B2
:1034000093810E94A10F6FEFF601848195810E9444
:10341000A10F8FEF90E0F701948F838FB28EFAE0C7
:10342000CF0ED11C2EE1E20EF11C31E00036130765
:10343000E1F68091D0036CE372E0811134C962E45B
:1034400072E068C9863421F481E00E94B50F35C866
:10345000823521F4F0E0E0E009952FC8853549F484
:103460008091D00360E372E081111DC966E372E0D0
:1034700051C9893509F05CC065EC71E08AEF94E0D0
:103480000E942E0D68EE73E080E090E00E949903A8
:103490008AEF94E00E948605892B09F43FC08AEFE9
:1034A00094E00E949C058F349105C1F58AEC91E06F
:1034B0000E943D0D8AEF94E00E948605892B59F009
:1034C0008AEF94E00E949C0561E070E080E090E06B
:1034D0000E949903EFCF86ED91E00E943D0D8AEFA7
:1034E00094E00E948605892B49F08AEF94E00E94BF
:1034F0009C05682F8DE594E00E94A4048DE594E07E
:103500000E946204892B59F38DE594E00E944004E7
:10351000682F8AEF94E00E942A05E1CF86E092E0CE
:103520000E943D0D88EE91E00E943D0D0C945D12CD
:103530008734D9F542E050E061E070E081E090E04E
:103540000E94E00A9C019091D003273031053CF0A5
:1035500064EB71E09111A7C863EC71E0DBC88EE108
:10356000829F8001839F100D11240E5F1C4F9923B1
:1035700071F061EC71E08AEF94E00E94E003B80121
:103580008AEF94E00E94A30E6FEB71E08CC86DEBA4
:1035900071E08DE594E00E94E003B8018DE594E0D0
:1035A0000E94A30E6BEB71E0B5C88834D9F542E0F8
:1035B00050E061E070E081E090E00E94E00A9C0150
:1035C0009091D003273031053CF06EE971E0911104
:1035D0006AC86DEA71E09EC88EE1829F8001839F78
:1035E000100D1124035F1C4F992371F06BEA71E0F9
:1035F0008AEF94E00E94E003B8018AEF94E00E9411
:10360000A30E69EA71E04FC867EA71E08DE594E0C6
:103610000E94E003B8018DE594E00E94A30E65EAE4
:1036200071E078C88B3409F065C08E010F5F1F4FC1
:1036300088E0F80111928A95E9F7EDEFF2E0D80100
:103640008FEC93E024812D937E968E179F07D1F700
:103650008091D003882339F160E971E08AEF94E02A
:103660000E94E00369E475E08AEF94E00E94D203CF
:103670006EE871E08AEF94E00E94E00363E475E095
:103680008AEF94E00E94D2036CE871E08AEF94E044
:103690000E94E003B8018AEF94E00E94A30E6AE85A
:1036A00071E00C9453136CE771E08DE594E00E9497
:1036B000E00369E475E08DE594E00E94D2036AE7D7
:1036C00071E08DE594E00E94E00363E475E08DE530
:1036D00094E00E94D20368E771E08DE594E00E94D7
:1036E000E003B8018DE594E00E94A30E66E771E067
:1036F0000C948A138A3491F518861F8280E5898399
:103700008A8392E59B838C838D8381E48E838F8370
:103710008091D003882389F064E771E08AEF94E018
:103720000E94E003BE016F5F7F4F8AEF94E00E942A
:10373000A30E62E771E00C94531360E771E08DE52E
:1037400094E00E94E003BE016F5F7F4F8DE594E03F
:103750000E94A30E6EE671E00C948A13893411F076
:103760000C945D128091D003882391F06AE873E095
:103770008AEF94E00E94E0036091B5027091B60276
:103780008AEF94E00E949C0D68E873E00C94531358
:1037900064E873E08DE594E00E94E0036091B50277
:1037A0007091B6028DE594E00E949C0D62E873E092
:1037B0000C948A132091DF013091E0012C30310507
:1037C00010F00C943912A9014F5F5F4F5093E00144
:1037D0004093DF0126523C4FF90180830C9439124B
:1037E0001F920F920FB60F9211242F933F938F9336
:1037F0009F93AF93BF938091D2039091D303A091F5
:10380000D403B091D5033091D10323E0230F2D379A
:1038100058F50196A11DB11D2093D1038093D203C9
:103820009093D303A093D403B093D5038091D60390
:103830009091D703A091D803B091D9030196A11D0F
:10384000B11D8093D6039093D703A093D803B09370
:10385000D903BF91AF919F918F913F912F910F907D
:103860000FBE0F901F90189526E8230F0296A11DFA
:10387000B11DD2CF1F920F920FB60F9211242F932A
:103880003F934F935F936F937F938F939F93AF93E8
:10389000BF93EF93FF938DE594E00E948204FF9124
:1038A000EF91BF91AF919F918F917F916F915F91B8
:1038B0004F913F912F910F900FBE0F901F90189531
:1038C0001F920F920FB60F9211242F938F939F93F5
:1038D000EF93FF93E0916D04F0916E048081E0918D
:1038E0007304F091740482FD1BC090818091760472
:1038F0008F5F8F7320917704821741F0E0917604F7
:10390000F0E0E35AFB4F958F80937604FF91EF919F
:103910009F918F912F910F900FBE0F901F90189530
:103920008081F4CF1F920F920FB60F9211242F9324
:103930003F938F939F93EF93FF938091A70287FF0D
:103940001FC010928500109284008091A7028F5FA3
:103950008093A7028091A70287FF04C08091A702ED
:103960008C30ACF080918400909185000496803476
:103970009C4990F1809184009091850004962EC01E
:103980008091A70287FFE1CF8091A702DECF20912F
:10399000840030918500E091A7028E2FEE0F990BE5
:1039A000FC01EE0FFF1FE80FF91FED57FD4F81815E
:1039B0009281820F931F9093890080938800809159
:1039C000A702FF91EF919F918F913F912F910F90BF
:1039D0000FBE0F901F90189580E49CE9909389008A
:1039E000809388008FEF8093A702EBCF1F920F92F6
:1039F0000FB60F9211242F933F934F935F936F93C2
:103A00007F938F939F93AF93BF93EF93FF93E09137
:103A1000AA02F091AB02309749F0A685B78585855B
:103A2000968D91FF14C09C918923A1F4FF91EF9191
:103A3000BF91AF919F918F917F916F915F914F91C6
:103A40003F912F910F900FBE0F901F9018959C9152
:103A5000892361F7A389B4899C91858980958923FD
:103A60008C93868997890197F1F7608D718DA68572
:103A7000B785558538E020E0CB010197F1F7822F1B
:103A800090E095958795282F4C91452309F0206863
:103A9000315091F7868D81FD20958091A90290E0AB
:103AA00001968F7399273091A802381799F0A09149
:103AB000A902B0E0AD5BBD4F2C938093A902828D2B
:103AC000938D0197F1F7A389B4898C919589892BFE
:103AD0008C93ACCF868D8160868FF1CF1F920F9231
:103AE0000FB60F9211242F933F934F935F936F93D1
:103AF0007F938F939F93AF93BF93EF93FF938091A7
:103B0000B900887F803609F44AC0F0F5883209F49C
:103B1000A7C018F5803109F49BC0B8F4882309F4D4
:103B2000F9C0883009F494C0FF91EF91BF91AF9133
:103B30009F918F917F916F915F914F913F912F91C5
:103B40000F900FBE0F901F901895883109F488C010
:103B5000803251F78093310414C0803409F49DC041
:103B600040F48033B9F38833F9F68093310485EC5F
:103B7000B0C0803509F485C0883509F496C0883412
:103B800099F60E94E10ED0CF883909F48CC038F53F
:103B9000883729F050F4883611F0803729F683E011
:103BA000809333041092420257C0883809F47BC0D6
:103BB000803919F0803809F0B7CF80914202803205
:103BC00008F071C0E091420281E08E0F80934202C2
:103BD0008091BB00F0E0EE5DFD4F80833DC0803BF7
:103BE00039F0E0F4803A09F479C0883A09F09CCFC2
:103BF00084E0809333041092210210922002E0911D
:103C0000E903F091EA0309958091200281110FC028
:103C100081E0809320021092000209C0803C09F4E8
:103C2000A6CF883C09F4A3CF883B09F07DCFE09173
:103C3000210281E08E0F80932102F0E0E050FE4FE0
:103C400080818093BB00909121028091200229C045
:103C500080910E048093BB0085EC8093BC0064CF00
:103C60009091300480912F04981758F5E09130041A
:103C700081E08E0F80933004F0E0E15FFB4F8081A4
:103C8000E9CFE091300481E08E0F80933004809181
:103C9000BB00F0E0E15FFB4F8083909130048091A6
:103CA0002F049817C8F285E8D8CFE091300481E05E
:103CB0008E0F809330048091BB00F0E0E15FFB4FFA
:103CC00080838091320481115CCF81E080930D0468
:103CD00084EA8093BC001092330426CF85EC809355
:103CE000BC001092330480914202803230F4E091A3
:103CF0004202F0E0EE5DFD4F10826091420270E002
:103D0000E091E703F091E80382E292E009951092D6
:103D100042020ACF1092310434CFCF92DF92EF9259
:103D2000FF921092600410925F0498EEC92E93E007
:103D3000D92EE12CF12CC0926104D0926204E09261
:103D40006304F092640488E691E090935E048093AB
:103D50005D0485EC90E090936A048093690484ECA0
:103D600090E090936C0480936B0480EC90E09093CF
:103D70006E0480936D0481EC90E0909370048093C6
:103D80006F0482EC90E0909372048093710486EC4F
:103D900090E09093740480937304109276041092D0
:103DA0007704109278041092790410921C051092F6
:103DB0001B05C0921D05D0921E05E0921F05F092D2
:103DC00020058AE791E090931A058093190568EC25
:103DD00071E089E495E00E94A50E62ED71E083E454
:103DE00095E00E94A50E10923E0510923D0510929E
:103DF000400510923F051092420510924105109225
:103E0000300510922F0589E195E090932E0580935F
:103E10002D0580E090E0A0ECBFE78093250590930E
:103E20002605A0932705B093280580932905909334
:103E30002A05A0932B05B0932C051092FD04109237
:103E4000FC04C092FE04D092FF04E0920005F092C0
:103E500001058CE891E09093FB048093FA041092A2
:103E60001105109210051092130510921205109270
:103E70001505109214051092170510921605609101
:103E800018056E7F6D7F609318056695617081E0FF
:103E9000682782E00E94980261E082E00E94C602E8
:103EA000E2EEF3E0E491E0930A05EEECF3E0E49156
:103EB000F0E0EE0FFF1FEE53FC4F8591949190932D
:103EC0000C0580930B0560E083E00E94C6028091A0
:103ED000180581FD04C061E083E00E94980283E040
:103EE00080930605E3EEF3E0E491E0930705EFEC41
:103EF000F3E0E491F0E0EE0FFF1FE854FC4F8591F2
:103F000094919093090580930805FF90EF90DF90BE
:103F1000CF900895CF93DF93CDB7DEB7CA54D109C0
:103F20000FB6F894DEBF0FBECDBF789484B5826023
:103F300084BD84B5816084BD85B5826085BD85B54D
:103F4000816085BD80916E00816080936E001092CB
:103F50008100809181008260809381008091810046
:103F600081608093810080918000816080938000D7
:103F70008091B10084608093B1008091B000816035
:103F80008093B00080917A00846080937A00809161
:103F90007A00826080937A0080917A0081608093B9
:103FA0007A0080917A00806880937A001092C10034
:103FB000E0916D04F0916E0482E08083E0916904E9
:103FC000F0916A041082E0916B04F0916C048FEC24
:103FD000808310927504E0917104F091720486E080
:103FE0008083E0916F04F091700480818061808310
:103FF000E0916F04F0917004808188608083E0918B
:104000006F04F0917004808180688083E0916F0478
:10401000F091700480818F7D80831092150510923D
:1040200014051092130510921205109211051092AA
:1040300010058DE991E090931705809316059091F6
:104040000605963108F047C02DEB30E0309311059E
:10405000209310052BE931E03093130520931205CE
:104060002CE231E03093150520931405209168006F
:1040700084E0983048F031E09E3008F430E081E090
:1040800001C0880F3A95EAF7822B809368002DE6ED
:1040900030E0983050F02BE630E09E3030F02CE6E7
:1040A00030E0963110F030E020E030930E052093A0
:1040B0000D05292F30E0983008F085C281E001C05D
:1040C000880F9A95EAF780930F05809116059091D5
:1040D00017050197F1F78091140590911505892B2B
:1040E00049F1E091AA02F091AB0224E0EA3FF20725
:1040F00009F1309739F0A389B4899C91858980951D
:1041000089238C93809118058E7F809318051092D7
:10411000A9021092A8028AEF94E09093AB028093D8
:10412000AA02E0910D05F0910E05808190910F0596
:10413000892B80838EEF93E00E940410823481F0FB
:104140000E94600F62E48EEF93E00E94190F64EF0B
:1041500071E080E090E00E949903F0E0E0E00995D2
:1041600066E5662E61E0762E70E6E72E71E0F72EAA
:104170008301D8018C910E5F1F4F70E060E00E94B8
:104180000203E016F106A9F78FEF93E00E940410F6
:10419000883581F0482F50E070E060E02AE08DE53E
:1041A00094E00E94500D0E94600F68E58FEF93E04D
:1041B0000E94190F57EBC52E52E0D52EF60190E064
:1041C00080E0918380839C012F5F3F4F3383228364
:1041D0002E5F3F4F358324832D5F3F4F37832683E8
:1041E000255F3F4F318720874C963A96843C910556
:1041F00041F70E94EF070E94D907882309F4F0C114
:1042000080912F0590913005009711F00E948C2A23
:1042100086E090E00E94F0298C0180912D0590911C
:104220002E0524E4F801208392838183138280E2A7
:1042300090E0958384831093300500932F050E94AE
:104240000406FF24F394D8011396FC92C8010E943F
:104250002C07882309F4C4C182EA90E30E94DE0897
:104260006AE070E080E090E00E9499038DE293EFB5
:104270000E94DE0843E050E0BE016F5F7F4F8091F7
:104280002F05909130050E94F50889819A81019649
:1042900009F4A6C164E670E080E090E00E94990312
:1042A0000E94980A1B012C010E94B00A4B015C017C
:1042B000A2019101C201B1010E94E529811190C1C1
:1042C000A5019401C501B4010E94E529811188C1AD
:1042D00020E030E048E452ECC201B1010E94E02944
:1042E00018160CF07DC120E030E046E153E4C20135
:1042F000B1010E94302787FF73C120E030E0A9019F
:10430000C501B4010E94E02987FD6AC120E030E0C8
:1043100048EC52E4C501B4010E94302718160CF491
:104320005FC10E94980A6093B1027093B2028093B9
:10433000B3029093B4020E94B00A6093AD027093EE
:10434000AE028093AF029093B002F092AC0282E092
:1043500090E09093B6028093B502EDEFF2E082ED2B
:10436000DF011D928A95E9F78F0121E4822E21E079
:10437000922EEFE4F1E02B96FFAFEEAF2B97F12CEE
:10438000E12C32E5432E40E5242E55245394D301ED
:104390008D919D913D01F801918380838E3091052F
:1043A00008F40EC20E97089708F00CC281E4D801F9
:1043B00012968C93F601808191810E9404102B96B5
:1043C000AEADBFAD2B979D912B96BFAFAEAF2B97E8
:1043D000882309F4F9C1F8018483D80114968C91DB
:1043E0001497863509F000C214964C92D8011396A2
:1043F0009C93F601828193810E940410D801149647
:104400009C911497913409F0F5C15A965C92F6018B
:10441000848195810E94041090E0D8015C969C9361
:104420008E935B97F601A680B780B501CE01019609
:104430000E9406108D819E81892B09F4E3C1E981D8
:10444000FA818081882309F4DDC1B501CE0185960A
:104450000E94061089A59AA533243394892B39F03C
:10446000EDA1FEA13324339480818111312CCE0142
:1044700085960E94FA0CCE0101960E94FA0C332018
:1044800009F4C3C168ED71E0CE0101960E94A50E4A
:10449000B701CE0101960E946308CE0101960E94E9
:1044A000FA0CD6011896AD90BC90B501CE010196DC
:1044B0000E9406108D819E81892B09F4ACC1E9818F
:1044C000FA818081882309F4A6C1B501CE018596C1
:1044D0000E94061089A59AA533243394892B39F0BC
:1044E000EDA1FEA13324339480818111312CCE01C2
:1044F00085960E94FA0CCE0101960E94FA0C332098
:1045000009F48CC168ED71E0CE0101960E94A50E00
:10451000B701CE0101960E941508CE0101960E94B6
:10452000FA0CF8018481813441F1F3013297B080B3
:1045300061E08B2D0E94C602D8015B966D917C9143
:104540008B2D0E940203F801558ED401AD90BC90D2
:10455000BFEFAB16BB0689F0E5E1AE16B10469F01A
:1045600061E08A2D0E94C602F701EE0FFF1FED5C8D
:10457000FE4F60818A2D0E949802FFEFEF1AFF0A1A
:10458000025E1F4F22E0820E911C8AE0C80ED11CF1
:1045900097E0E916F10409F0FACE80E0E82E80E019
:1045A000F82E11E08DE594E00E94620418161906B9
:1045B0000CF03AC11092D0038DE594E00E944004C3
:1045C0000E941B12EFCF9E3040F42850310981E049
:1045D00001C0880F2A95EAF776CD2E503109F7CF22
:1045E0000E94EF070E94D907882309F4E4C064E120
:1045F00070E080E090E00E94990380913D059091E9
:104600003E05009711F00E948C2A86E090E00E94FF
:10461000F0298C0188E3F801808389E195E0928399
:104620008183138280E290E09583848310933E051A
:1046300000933D050E94040681E0D80113968C93F7
:10464000C8010E942C07882309F4B5C08AEB89832E
:1046500041E050E0BE016F5F7F4F80913D0590913A
:104660003E050E94B108882309F4A5C064E170E00A
:1046700080E090E00E94990381EE898388E08A833C
:104680001B8243E050E0BE016F5F7F4F80913D058C
:1046900090913E050E94B108882309F48CC081E303
:1046A00095E00E94C80A87FF07C06AE070E080E0DA
:1046B00090E00E949903F3CF81E395E00E94C80A3D
:1046C00083FF79C086E090E00E94F029FC0189E236
:1046D00091E09183808380E091E09383828301E382
:1046E00015E015830483F0934205E093410586E0CD
:1046F00090E00E94F029FC018BE191E0918380839E
:1047000081E091E09383828315830483F0934005D5
:10471000E0933F0564E670E080E090E00E9499033A
:10472000AE014F5F5F4FBE016B5D7F4FC8010E94BE
:10473000B30B2D883E884F88588CA2019101C2018D
:10474000B1010E94E529811136C089AC9AACABACAD
:10475000BCACA5019401C501B4010E94E5298111F9
:104760002AC020E030E048E452ECC201B1010E94CE
:10477000E029181604F520E030E046E153E4C201D8
:10478000B1010E94302787FF16C020E030E0A90168
:10479000C501B4010E94E02987FD0DC020E030E092
:1047A00048EC52E4C501B4010E94302718161CF0F1
:1047B00081E090E0CECD1092B6021092B502CDCD40
:1047C00084E4F5CD8EE4F3CD963521F4D80114962A
:1047D0004C9203CE963419F4F8012482FECD903524
:1047E000A9F3F8019483F9CD863409F0FFCDF801DF
:1047F0002482FCCD882319F0F801528E08CE5A96F7
:104800001C9205CE3324339436CEB501CE010196E9
:104810000E9406103DCE332433946DCEB501CE01F7
:1048200001960E94061074CE8AEF94E00E948605DD
:10483000181619064CF41093D0038AEF94E00E94E6
:104840009C050E941B12F0CF84E10E945F03BC0113
:10485000990F880B990B0E94372720E731E640EA31
:104860005BE30E94962720E030E54CE556E40E9489
:10487000962720E030EE42E955E40E943F294B01A3
:104880005C0123E333E34BE651E40E94E029181670
:1048900054F02DEC3CEC4CE151E4C501B4010E9414
:1048A000302787FF1AC08091CF03811104C0109375
:1048B000CF030E94B50F62E370E080E090E00E94B9
:1048C0009903E114F10409F46DCE0E946E0488236B
:1048D00009F468CE0E94000065CE1092CF03EBCFA2
:1048E0008CE891E09093FB048093FA048091AA02F3
:1048F0009091AB028A5F944071F4E0910D05F091C4
:104900000E05908180910F058095892380831092F8
:10491000AB021092AA0280912F059091300500976A
:1049200011F00E948C2A80913F05909140050097DC
:1049300039F0DC01ED91FC910280F381E02D0995C5
:104940008091410590914205009739F0DC01ED918D
:10495000FC910280F381E02D099583E495E00E94AB
:10496000FA0C89E495E00C94FA0CEF920F931F93E4
:10497000CF93DF93E80134E047FD34E1042E000CCF
:10498000550B57FF03C0519541955109E32E022F56
:10499000242FAE010E94F924CE01DF91CF911F9107
:1049A0000F91EF900895FC0188279927E8942191B1
:1049B0002032E9F3293010F02E30C8F32B3241F0C9
:1049C0002D3239F4689404C00E94F124820F911DA5
:1049D000219120532A30C0F31EF4909581959F4F6A
:1049E00008957AE0979F902D879F802D910D112437
:1049F0000895A9E0B0E0EFEFF4E20C9470286A01AA
:104A0000F22EB02E102FFBE3AF2EA01608F41BE3FE
:104A10001F5F012F27E0AE014F5F5F4F0E945826B6
:104A2000BC018981982F9970913009F43FC09BE2B5
:104A3000E1FC04C09E2D9170E0FC3AC05E2D5071E7
:104A4000E82FE87083FF46C084E0911101C083E045
:104A5000EF2DE81B8F1508F0E0E0D6018E2F20E245
:104A6000552351F1992329F0D6019C93C601019653
:104A70006C0196012D5F3F4FE2FE24C08EE4D6010B
:104A80008C9391E411969C93119712968C93D90173
:104A90008E2F90E281111BC0E20FF32FF11D1082C7
:104AA0008EEF9FEF2996ECE00C948C289DE2C6CF08
:104AB00090E2C4CF2D9381508111FCCFCE0ED11C3A
:104AC000E0E0D0CF8EE6D6018C9391E6DBCF9D93CC
:104AD0008150E0CF482F447082FF3DC084E09111A7
:104AE00001C083E08F1510F4EF2DE81BD6018E2F47
:104AF00020E2552309F1992329F0D6019C93C601A0
:104B000001966C0196012D5F3F4FE2FE1BC089E4C8
:104B1000D6018C938EE411968C93119786E41296AD
:104B20008C93D9018E2F90E2882309F4B5CF9D9301
:104B30008150FACF2D9381508111FCCFCE0ED11C24
:104B4000E0E0D9CF89E6D6018C938EE611968C935E
:104B5000119786E6E4CF9B0177FF02C030E020E0AA
:104B6000A1E0B0E0911102C0B0E0A0E0F9013196FF
:104B7000AE0FBF1F8B2C912CBB2009F461C05401D8
:104B8000EFEFAE1ABE0AAA0DBB1DFA161B0619F0EE
:104B900014F04F2D4A1B511188C0E3FC59C0760117
:104BA000A42FB0E2A1114FC0C40ED11C992309F467
:104BB0005BC040E0D6011196F60190836D0155234C
:104BC00009F448C0012F060F9A81582F507184FFB5
:104BD00003C0913309F4015010160CF047C009309E
:104BE00008F008E0EEE2FE2E5B01A01AB108850194
:104BF0009194819491082F3F320729F4D601FC92B9
:104C0000F60131966F016217730794F102171307CB
:104C10007CF5DB01A21BB30BAA24A394B12CAC0E30
:104C2000BD1EAA0DBB1D11968C9121503109D601D4
:104C3000119628153905F4F0F60180836D01DBCF5C
:104C4000B12CA12CA0CFF701B1937F01A150AACF25
:104C50009111B0CFD601942F50E302C05D939150D3
:104C60009111FCCFC40ED11C40E0ACCF01E0BACF13
:104C700080E3DBCF6217730731F4963388F4953302
:104C800011F4552369F0F6018083FD01842F90E231
:104C9000811108C0A40FB11D1C9290E080E002CFEA
:104CA00081E3F1CF91938150F3CF911183CF8ACFDC
:104CB000283008F027E03327DA01990F311D87FDEE
:104CC000916000966105710539F432602E5F3D9365
:104CD00030E32A95E1F708959F3F30F08038710561
:104CE000610509F03C5F3C5F3D93913008F08068BE
:104CF000911DDF93CF931F930F93FF92EF92192F84
:104D0000987F9695E92F96959695E90FFF27EE5394
:104D1000FF4F99273327EE24FF24A701E7010590D1
:104D20000894079428F4360FE71EF81E491F511DFA
:104D3000660F771F881F991F0694A1F705900794A7
:104D400028F4E70EF81E491F561FC11D770F881F54
:104D5000991F661F0694A1F70590079428F4F80E92
:104D6000491F561FC71FD11D880F991F661F771F28
:104D70000694A1F70590079420F4490F561FC71F0A
:104D8000D81F990F661F771F881F0694A9F7849173
:104D90001095177041F0D695C79557954795F7949C
:104DA000E7941A95C1F7E8E6F0E06894159015913C
:104DB00035916591959105907FE27395E118F10A1F
:104DC000430B560BC90BD009C0F7E10CF11E431F72
:104DD000561FC91FD01D7EF4703311F48A95E6CF9B
:104DE000E894015030F0080F0AF40027021708F485
:104DF000202F2395022F7A3328F079E37D932A958B
:104E0000E9F710C07D932A9589F6069497956795E2
:104E1000379517951794E118F10A430B560BC90BF8
:104E2000D00998F023957E9173957A3308F070E35A
:104E30007C932013B8F77E9170617D9330F0839559
:104E400071E37D9370E32A95E1F71124EF90FF90D1
:104E50000F911F91CF91DF91992787FD909508952C
:104E60000E94722708F481E00895E89409C097FB36
:104E70003EF490958095709561957F4F8F4F9F4F31
:104E80009923A9F0F92F96E9BB279395F695879575
:104E900077956795B795F111F8CFFAF4BB0F11F438
:104EA00060FF1BC06F5F7F4F8F4F9F4F16C08823DF
:104EB00011F096E911C0772321F09EE8872F762F15
:104EC00005C0662371F096E8862F70E060E02AF056
:104ED0009A95660F771F881FDAF7880F9695879542
:104EE00097F90895990F0008550FAA0BE0E8FEEF17
:104EF00016161706E807F907C0F012161306E4079E
:104F0000F50798F0621B730B840B950B39F40A2696
:104F100061F0232B242B252B21F408950A2609F474
:104F2000A140A6958FEF811D811D08950E94A9279C
:104F30000C941A280E940C2838F00E94132820F0A4
:104F4000952311F00C9403280C94092811240C9437
:104F50004E280E942B2870F3959FC1F3950F50E0C7
:104F6000551F629FF001729FBB27F00DB11D639F1B
:104F7000AA27F00DB11DAA1F649F6627B00DA11DC1
:104F8000661F829F2227B00DA11D621F739FB00D67
:104F9000A11D621F839FA00D611D221F749F3327D7
:104FA000A00D611D231F849F600D211D822F762F70
:104FB0006A2F11249F5750409AF0F1F088234AF04D
:104FC000EE0FFF1FBB1F661F771F881F91505040B9
:104FD000A9F79E3F510580F00C9403280C944E28AD
:104FE0005F3FE4F3983ED4F3869577956795B79540
:104FF000F795E7959F5FC1F7FE2B880F911D96955A
:10500000879597F9089597F99F6780E870E060E0C9
:1050100008959FEF80EC089500240A941616170651
:1050200018060906089500240A9412161306140699
:1050300005060895092E0394000C11F4882352F0FC
:10504000BB0F40F4BF2B11F460FF04C06F5F7F4FB4
:105050008F4F9F4F089557FD9058440F551F59F09B
:105060005F3F71F04795880F97FB991F61F09F3F55
:1050700079F087950895121613061406551FF2CF7E
:105080004695F1DF08C0161617061806991FF1CFCE
:1050900086957105610508940895E894BB276627F5
:1050A0007727CB0197F90895F999FECF92BD81BD7D
:1050B000F89A992780B50895262FF999FECF1FBA3F
:1050C00092BD81BD20BD0FB6F894FA9AF99A0FBE31
:1050D000019608952F923F924F925F926F927F9226
:1050E0008F929F92AF92BF92CF92DF92EF92FF92F8
:1050F0000F931F93CF93DF93CDB7DEB7CA1BDB0BA4
:105100000FB6F894DEBF0FBECDBF09942A88398848
:1051100048885F846E847D848C849B84AA84B9844F
:10512000C884DF80EE80FD800C811B81AA81B9815B
:10513000CE0FD11D0FB6F894DEBF0FBECDBFED016F
:105140000895A1E21A2EAA1BBB1BFD010DC0AA1FC8
:10515000BB1FEE1FFF1FA217B307E407F50720F0E0
:10516000A21BB30BE40BF50B661F771F881F991F5B
:105170001A9469F760957095809590959B01AC01A4
:10518000BD01CF010895A29FB001B39FC001A39FAD
:10519000700D811D1124911DB29F700D811D112470
:1051A000911D08955058BB27AA270E94EA280C9405
:1051B0001A280E940C2838F00E94132820F039F495
:1051C0009F3F19F426F40C9409280EF4E095E7FBB0
:1051D0000C940328E92F0E942B2858F3BA17620772
:1051E00073078407950720F079F4A6F50C944D28F1
:1051F0000EF4E0950B2EBA2FA02D0B01B9019001F2
:105200000C01CA01A0011124FF27591B99F0593F35
:1052100050F4503E68F11A16F040A22F232F342F7D
:105220004427585FF3CF469537952795A795F040CB
:105230005395C9F77EF41F16BA0B620B730B840BE0
:10524000BAF09150A1F0FF0FBB1F661F771F881F98
:10525000C2F70EC0BA0F621F731F841F48F48795F0
:1052600077956795B795F7959E3F08F0B0CF9395E2
:10527000880F08F09927EE0F9795879508950E945B
:1052800053290C941A280E94132858F00E940C28C5
:1052900040F029F45F3F29F00C94032851110C943D
:1052A0004E280C9409280E942B2868F39923B1F307
:1052B000552391F3951B550BBB27AA27621773073C
:1052C000840738F09F5F5F4F220F331F441FAA1FD0
:1052D000A9F335D00E2E3AF0E0E832D0915050408C
:1052E000E695001CCAF72BD0FE2F29D0660F771F3A
:1052F000881FBB1F261737074807AB07B0E809F020
:10530000BB0B802DBF01FF2793585F4F3AF09E3FA4
:10531000510578F00C9403280C944E285F3FE4F379
:10532000983ED4F3869577956795B795F7959F5FE7
:10533000C9F7880F911D9695879597F90895E1E033
:10534000660F771F881FBB1F621773078407BA0792
:1053500020F0621B730B840BBA0BEE1F88F7E095ED
:1053600008950E94332888F09F5798F0B92F992705
:10537000B751B0F0E1F0660F771F881F991F1AF040
:10538000BA95C9F714C0B13091F00E944D28B1E030
:1053900008950C944D28672F782F8827B85F39F02F
:1053A000B93FCCF3869577956795B395D9F73EF4D9
:1053B00090958095709561957F4F8F4F9F4F089581
:1053C0000E94722708F48FEF08950E947227880BBD
:1053D000990B0895EE0FFF1F0590F491E02D0994AD
:1053E0000F931F93CF93DF938230910510F482E0E7
:1053F00090E0E0915105F091520530E020E0B0E0FE
:10540000A0E0309799F42115310509F44AC0281B12
:10541000390B24303105D8F58A819B8161157105DE
:1054200089F1FB0193838283FE0111C04081518188
:105430000281138148175907E0F04817590799F47A
:10544000109761F012960C93129713961C93329654
:10545000CF01DF91CF911F910F91089500935105D6
:1054600010935205F4CF2115310551F0421753071F
:1054700038F0A901DB019A01BD01DF01F801C1CFBC
:10548000EF01F9CF9093520580935105CDCFFE01E6
:10549000E20FF31F819391932250310939832883BE
:1054A000D7CF20914F0530915005232B41F4209107
:1054B0000201309103013093500520934F05209154
:1054C0000001309101012115310541F42DB73EB79E
:1054D0004091040150910501241B350BE0914F05CB
:1054E000F0915005E217F307A0F42E1B3F0B28178D
:1054F000390778F0AC014E5F5F4F2417350748F04D
:105500004E0F5F1F5093500540934F058193919329
:105510009FCFF0E0E0E09CCFCF93DF930097E9F0DE
:10552000FC01329713821282A0915105B09152056D
:10553000ED0130E020E01097A1F420813181820F4D
:10554000931F20914F05309150052817390709F016
:1055500061C0F0935005E0934F05DF91CF9108951E
:10556000EA01CE17DF07E8F54A815B819E0141150C
:105570005105B1F7E901FB83EA8349915991C40FC1
:10558000D51FEC17FD0761F4808191810296840F8D
:10559000951FE90199838883828193819B838A8304
:1055A000F0E0E0E012968D919C9113970097B9F589
:1055B0002D913C911197CD010296820F931F20915E
:1055C0004F05309150052817390739F6309751F5B6
:1055D0001092520510925105B0935005A0934F05BB
:1055E000BCCFD383C28340815181840F951FC817DC
:1055F000D90761F44E5F5F4F88819981480F591F29
:10560000518340838A819B81938382832115310555
:1056100009F0B0CFF0935205E09351059ECFFD0104
:10562000DC01C0CF13821282D7CFB0E0A0E0EBE163
:10563000FBE20C946C288C01009751F4CB010E9482
:10564000F0298C01C801CDB7DEB7E0E10C948828C1
:10565000FC01E60FF71F9C0122503109E217F30706
:1056600008F49DC0D901CD91DC911197C617D707D9
:1056700098F0C530D10530F3CE010497861797070F
:1056800008F3C61BD70B2297C193D1936D937C93DC
:10569000CF010E948C2AD6CF5B01AC1ABD0A4C0107
:1056A0008C0E9D1EA0915105B0915205512C412C9C
:1056B000F12CE12C109731F580914F059091500518
:1056C0008815990509F05CC04616570608F058C0C1
:1056D0008091000190910101009741F48DB79EB730
:1056E0004091040150910501841B950BE817F907BF
:1056F00008F055C0F0935005E0934F05F901718310
:105700006083A0CF8D919C91119712966C90129707
:1057100013967C901397A815B90559F56C0142E0D2
:10572000C40ED11CCA14DB0420F1AC014A195B0978
:10573000DA011296159780F062827382518340835A
:10574000D9016D937C93E114F10471F0D7011396A4
:10575000FC93EE93129776CF22968C0F9D1FF90142
:1057600091838083F301EFCFF0935205E0935105CD
:1057700069CF4816590608F42C017D01D3019ACF50
:10578000CB010E94F0297C01009749F0AE01B801DD
:105790000E94D22BC8010E948C2A870153CF10E0AF
:1057A00000E050CFFB01DC0102C001900D9241509E
:1057B0005040D8F70895FB01DC0101900D920020C4
:1057C000E1F70895FB01DC014150504048F00190A1
:1057D0000D920020C9F701C01D9241505040E0F7E2
:1057E0000895AEE0B0E0E7EFFBE20C9478280D8975
:1057F0001E898F89988D26E02C831A83098397FF51
:1058000002C080E090E801979E838D83AE01455EE3
:105810005F4F698D7A8DCE0101960E94442C4D8197
:105820005E8157FD0AC02F813885421753070CF45B
:105830009A01020F131FF80110822E96E4E00C94D7
:105840009428AEE0B0E0E7E2FCE20C9478280D8901
:105850001E8986E08C831A8309838FEF9FE79E83DE
:105860008D83AE01475E5F4F6F89788DCE010196C3
:105870000E94442C2F813885020F131FF8011082DB
:105880002E96E4E00C949428ABE0B0E0EAE4FCE26D
:105890000C946A287C013B018A01FC011782168264
:1058A000838181FFC8C1CE0101965C01F70193811C
:1058B000F30193FD859193FF81913F01882309F4C2
:1058C00053C1853239F493FD859193FF81913F0156
:1058D000853229F4B70190E00E94342EE7CF912C55
:1058E000212C312CFFE1F31538F08B3211F190F4BB
:1058F000803209F1833229F137FC3CC020ED280FBA
:105900002A3050F536FE20C08AE0989E200D1124E2
:10591000922E06C08D3291F0803371F7689430F882
:10592000F30193FD859193FF81913F018111DACFBE
:1059300021C0689431F8689432F8F2CF689433F853
:10594000EFCF689434F8ECCFEAE02E9E200D1124BE
:10595000222E689435F8E4CF8E3229F436FC04C147
:10596000689436F8DDCF8C3619F4689437F8D8CFC0
:105970008836B1F2982F9F7D95549330E0F08336AE
:10598000A1F18337C1F1833509F063C02801F2E04A
:105990004F0E511CF801C080D180692D70E036FC9B
:1059A00002C06FEF7FEFC6010E941E2E4C0168946B
:1059B00037F882010AC00C5F1F4FFFE3F983882488
:1059C0008394912C6501E89437F833FE2DC0522C56
:1059D0008114910471F5552009F468CFB70180E274
:1059E00090E00E94342E5A94F6CFF801808189838A
:1059F0000E5F1F4FE4CF2801F2E04F0E511CF8015B
:105A0000C080D180692D70E036FC02C06FEF7FEF5F
:105A1000C6010E94292E4C018201D5CFB70180E238
:105A200090E00E94342E2A942814190409F0B0F74B
:105A3000CECFF60137FC859137FE81916F01B7011A
:105A400090E00E94342E51105A94F1E08F1A910880
:105A5000BFCF843619F0893609F077C0F80137FED8
:105A60006BC060817181828193810C5F1F4FF32D28
:105A7000FF763F2E97FF09C09095809570956195B0
:105A80007F4F8F4F9F4F689437F82AE030E0A50191
:105A90000E94642EC82ECA188C2C432C36FE0CC0D3
:105AA000E89440F8C91440F434FE05C032FC03C049
:105AB000F32DFE7E4F2E892C44FE95C0FE01EC0D89
:105AC000F11D8081803309F087C0242D297E422E6C
:105AD000842D8870582E43FC95C040FE8FC09C2CAE
