:100000000C9403020C942B020C942B020C94C11F31
:100010000C94C11F0C94C11F0C942B020C942B0246
:100020000C942B020C942B020C942B020C945D1F4D
:100030000C942B020C942B020C942B020C942B028C
:100040000C94BB1E0C942B020C942B1F0C94051FBC
:100050000C942B020C942B020C942B020C942B026C
:100060000C9439200C942B0200407A10F35A00A013
:10007000724E18090010A5D4E80000E87648170071
:1000800000E40B54020000CA9A3B000000E1F505B1
:10009000000080969800000040420F000000A086FB
:1000A00001000000102700000000E803000000002D
:1000B0006400000000000A000000000001000000D1
:1000C00000002C76D888DC674F0823DFC1DFAE59EB
:1000D000E1B1B796E5E3E453C63AE651997696E87E
:1000E000E6C28426EB898C9B62ED407C6FFCEFBC02
:1000F0009C9F40F2BAA56FA5F490055A2AF75C932D
:100100006B6CF9676DC11BFCE0E40D47FEF520E662
:10011000B500D0ED902E0300943577050080841E45
:10012000080000204E0A000000C80C333333330FA0
:10013000986E12831141EF8D2114893BE65516CF3D
:10014000FEE6DB18D1844B381BF77C1D901DA4BB49
:10015000E424203284725E228100C9F124ECA1E5FE
:100160003D273E524F4B23003E524F4B230023006E
:100170003E0023003E00230024003A003E41542D5F
:10018000506F776572426F783A00230024003A007E
:100190003E41542D506F776572426F783A002300CC
:1001A0003E0023003E0023003E0023003E00436F3C
:1001B0006E666967204D6F646500456E74657220D8
:1001C000415420436F6D6D616E647300506C6561C6
:1001D000736520756E7061697220426C7565746F0D
:1001E0006F7468206669727374004E6F20426C757C
:1001F00065746F6F7468206D6F64756C6520666FD1
:10020000756E64206F722069742069732070616953
:10021000726564003E554F4B23003E554F4B230003
:100220003E414F4B23003E414F4B23003E4F4F4B2F
:1002300023003E4F4F4B23003E4F45525223003E7A
:100240004F45525223003E4F45525223003E4F45E8
:10025000525223003E4345525223003E43455252E0
:1002600023003E434F4B23003E434F4B23003E4E63
:100270004F4B23003E4E4F4B23003E4E45525223E0
:10028000003E4E4552522300230023003A003A001C
:100290003E003E003E5645525223003E56455252C5
:1002A000230023003E0023003E00230023003100F2
:1002B00031003E003E0023003E0023003E002300AC
:1002C0002400230024003A003A003A003A003A00A1
:1002D0003A003A003A00240024003E003E00230089
:1002E00023003E003E002300580058455252230090
:1002F0002300580058455252230023005800584507
:100300005252230023004C004C455252230023003C
:100310004C004C455252230023004C004C45525295
:1003200023003E534F4B23003E534F4B23003E537D
:1003300045525223003E53455252230023002300CE
:10034000240024003E003E00230023003E003E0027
:100350003E4D45525223003E4D455252230023004C
:100360003A003A003E0023003A003A003E003E4583
:1003700023003E45230023003A003A003E002300BC
:100380003A003A003E0023003E493A0023003E492D
:100390003A00454F4B2300444F4B23003E464F4B02
:1003A00023003E464F4B230000000000240027009E
:1003B0002A000000000800020100000304070000FA
:1003C00000000000000000000000230026002900BB
:1003D00000000000250028002B000404040404048D
:1003E00004040202020202020303030303030102E4
:1003F00004081020408001020408102001020408B3
:10040000102066217F2611241FBECFEFD8E0DEBF6B
:10041000CDBF11E0A0E0B1E0E8E0F2E602C0059057
:100420000D92A03EB107D9F725E0A0EEB1E001C0E2
:100430001D92A038B207E1F712E0C2E0D2E004C09A
:100440002197FE010E941F2CC130D107C9F70E94DD
:1004500063220C94F7300C94000008950895FC0179
:100460009081909528E030E081E397FF03C0990FD9
:10047000982701C0990F21503109B9F78181892747
:1004800028E030E091E387FF03C0880F892701C08F
:10049000880F21503109B9F70895833081F028F48D
:1004A000813099F08230A9F008958730A9F0883022
:1004B000C9F08430B1F4809180008F7D03C08091B9
:1004C00080008F7780938000089584B58F7784BDF6
:1004D000089584B58F7DFBCF8091B0008F77809396
:1004E000B00008958091B0008F7DF9CFCF93DF9356
:1004F000282F30E0F901EE54FC4F8491F901E251CC
:10050000FC4FD491F901E652FC4FC491CC23A1F0E9
:1005100081110E944D02EC2FF0E0EE0FFF1FEA5315
:10052000FC4FA591B491EC91ED2381E090E009F4AA
:1005300080E0DF91CF91089580E090E0FACF1F93A3
:10054000CF93DF93282F30E0F901EE54FC4F8491D4
:10055000F901E251FC4FD491F901E652FC4FC491EC
:10056000CC23A9F0162F81110E944D02EC2FF0E050
:10057000EE0FFF1FE053FC4FA591B4918FB7F89495
:10058000EC91111108C0D095DE23DC938FBFDF9171
:10059000CF911F910895DE2BF8CFCF93DF9390E09A
:1005A000FC01E251FC4F249186529C4FFC01849146
:1005B0008823C9F090E0880F991FFC01E855FC4F93
:1005C000A591B491FC01E053FC4FC591D491611108
:1005D0000DC09FB7F8948C91209582238C938881CD
:1005E000282328839FBFDF91CF910895623051F473
:1005F0009FB7F8943C91822F809583238C93E88158
:100600002E2BEFCF8FB7F894EC912E2B2C938FBF1E
:10061000EACF1F93CF93DF93182FEB0161E00E9485
:10062000CD02209739F460E0812FDF91CF911F91A7
:100630000C949F02CF3FD10511F461E0F5CFE12F7B
:10064000F0E0EE54FC4FE491E33031F140F4E1305E
:10065000B1F0E230E1F0C038D1057CF7E4CFE7300B
:1006600029F1E83059F1E430B1F7809180008062DF
:1006700080938000D0938B00C0938A0004C084B51F
:10068000806884BDC7BDDF91CF911F91089584B567
:10069000806284BDC8BDF7CF809180008068809360
:1006A0008000D0938900C0938800EDCF8091B00086
:1006B00080688093B000C093B300E5CF8091B00014
:1006C00080628093B000C093B400DDCF8E3008F01C
:1006D0008E508770806480937C0080917A00806463
:1006E00080937A0080917A0086FDFCCF809178001B
:1006F0009091790008953FB7F894809110049091FB
:100700001104A0911204B091130426B5A89B05C052
:100710002F3F19F00196A11DB11D3FBFBA2FA92F80
:10072000982F8827BC01CD01620F711D811D911D7D
:1007300042E0660F771F881F991F4A95D1F70895E9
:100740008F929F92AF92BF92CF92DF92EF92FF92E1
:100750004B015C010E947B036B017C010E947B03C7
:100760006C197D098E099F09683E734081059105CA
:10077000A8F321E0821A9108A108B10888EEC80EFA
:1007800083E0D81EE11CF11C81149104A104B10482
:1007900029F7FF90EF90DF90CF90BF90AF909F90A0
:1007A0008F900895DC01ED91FC910190F081E02D96
:1007B0000994EF92FF920F931F93CF93DF938C01D5
:1007C0007B01D0E0C0E0F701EC0FFD1F64916623D0
:1007D00061F0D801ED91FC910190F081E02DC8010C
:1007E0000995892B11F02196EECFCE01DF91CF91A3
:1007F0001F910F91FF90EF900895AF92BF92CF920B
:10080000DF92EF92FF920F931F93CF93DF936C01D0
:100810007B018B01040F151FEB015E01AE18BF08B1
:10082000C017D10759F06991D601ED91FC91019063
:10083000F081E02DC6010995892B79F7C501DF917B
:10084000CF911F910F91FF90EF90DF90CF90BF90CD
:10085000AF900895FC01538D448D252F30E0842FF7
:1008600090E0821B930B541710F0CF9608950197D8
:100870000895FC01918D828D981761F0A28DAE0FC5
:10088000BF2FB11D5D968C91928D9F5F9F73928F4C
:1008900090E008958FEF9FEF0895FC01918D828D78
:1008A000981731F0828DE80FF11D858D90E0089545
:1008B0008FEF9FEF0895FC01918D228D892F90E09D
:1008C000805C9F4F821B91098F73992708958AE856
:1008D00094E00E945B0421E0892B09F420E0822F40
:1008E000089580E090E0892B29F00E94670481112F
:1008F0000C9400000895FC01A48DA80FB92FB11D20
:10090000A35ABF4F2C91848D90E001968F73992745
:10091000848FA689B7892C93A089B1898C91837023
:1009200080648C93938D848D981306C00288F3891C
:10093000E02D80818F7D80830895EF92FF920F9349
:100940001F93CF93DF93EC0181E0888F9B8D8C8D7B
:1009500098131AC0E889F989808185FF15C09FB76F
:10096000F894EE89FF896083E889F9898081837032
:10097000806480839FBF81E090E0DF91CF911F91E1
:100980000F91FF90EF900895F62E0B8D10E00F5F02
:100990001F4F0F731127E02E8C8D8E110CC00FB6D8
:1009A00007FCFACFE889F989808185FFF5CFCE0170
:1009B0000E947B04F1CFEB8DEC0FFD2FF11DE35A6C
:1009C000FF4FF0829FB7F8940B8FEA89FB898081F3
:1009D0008062CFCFCF93DF93EC01888D8823B9F06D
:1009E000AA89BB89E889F9898C9185FD03C080813A
:1009F00086FD0DC00FB607FCF7CF8C9185FFF2CFB7
:100A0000808185FFEDCFCE010E947B04E9CFDF918D
:100A1000CF9108952091BA023091BB02281739076F
:100A200071F49091B8028091B902981741F0E09169
:100A3000B802F0E0ED5AFD4F808190E008958FEF0D
:100A40009FEF08950895EF92FF920F931F93CF9316
:100A5000DF93DC015C96ED90FC905D97E114F1046E
:100A600079F481E090E013969C938E93129790E036
:100A700080E0DF91CF911F910F91FF90EF9008954B
:100A80005196ED91FC91529750968C915097982FDA
:100A900090950FB75E962C915E97122F127021FDE4
:100AA0006095F8942081112319F1282B2083E70108
:100AB0002197F1F728E0462F50E0308160FF1AC0FF
:100AC000382B3083E7012197F1F7BA0175956795C7
:100AD000215089F7112381F08081892380830FBF02
:100AE0005C968D919C910197F1F781E090E0C1CFE8
:100AF0002923DCCF3923E5CF9081892BEFCF2091BB
:100B0000BA023091BB022817390761F48091B9020B
:100B10002091B80290E0805C9F4F821B91098F73F7
:100B20009927089590E080E008952091BA023091CD
:100B3000BB0228173907B9F49091B8028091B90225
:100B4000981789F0E091B802F0E0ED5AFD4F8081EE
:100B50002091B80230E02F5F3F4F2F73332720934F
:100B6000B80290E008958FEF9FEF089508950895DB
:100B700020913002260F3327331F21323105ECF448
:100B800020916004FC0190E080E0243069F082E074
:100B90000895A09130022191AC01405F5D4FA40FF8
:100BA000B52FB11D2C930196861798F380913002D2
:100BB000680F6093300280E0089581E008951092FC
:100BC000600481E080935F0410923A0461E082E166
:100BD0000E949F0261E083E10E949F02E9EBF0E046
:100BE00080818E7F808380818D7F808388E4809365
:100BF000B80085E48093BC00089510921904109207
:100C0000180410926704109289040E94DF058DE297
:100C100092E090931704809316048EE292E09093F2
:100C20001504809314040895CF93DF9391E090937B
:100C30000F028823B9F0C091B800D091BA0080911A
:100C4000BC008A7B8093BC0060E082E10E949F022E
:100C500060E083E10E949F020E94DF05D093BA000A
:100C6000C093B800DF91CF9108958F929F92AF9279
:100C7000BF92CF92DF92EF92FF920F931F93CF9389
:100C8000DF93D0918904D13208F0D7C0182FC091DA
:100C900088040E947B036B017C01809160048111B8
:100CA0006BC082E08093600410935F048FEF8093A9
:100CB0005E0410925D04D0935C04A8E6B4E0ECE31B
:100CC000F4E080E0D81391C010923B0480913B0483
:100CD000CC0FC82BC0933B0480913A04813009F0BB
:100CE00088C010923A040E947B036B017C018091C2
:100CF0003B048093BB008091620490916304A091B7
:100D00006404B0916504892B8A2B8B2BA1F00E947F
:100D10007B0300916204109163042091640430917C
:100D200065046C197D098E099F09061717072807A6
:100D3000390708F442C08091BC0083FDD8CF85EC10
:100D40008093BC000E947B036B017C018091600456
:100D5000823009F450C080915E048F3F09F46FC067
:100D600080915E04803209F46CC080915E0480330F
:100D700009F469C084E026C0809162049091630404
:100D8000A0916404B0916504892B8A2B8B2B09F404
:100D900084CF0E947B038090620490906304A090B3
:100DA0006404B09065046C197D098E099F0986164C
:100DB0009706A806B90608F070CF809161040E94DA
:100DC000140685E01092670410928904109266045C
:100DD000DF91CF911F910F91FF90EF90DF90CF9017
:100DE000BF90AF909F908F9008959D9191938F5F4A
:100DF00069CF85EEA5CF8091620490916304A091A4
:100E00006404B0916504892B8A2B8B2B09F49ECF47
:100E10000E947B030091620410916304209164049A
:100E2000309165046C197D098E099F090617170713
:100E30002807390708F08ACFC0CF81E0C3CF80E010
:100E4000C1CF82E0BFCF83E0BDCFCF93DF93EC0172
:100E50008B818823A1F0888191E090936604809330
:100E60008804109267041092890481E00E9435067C
:100E700091E0811190E0892FDF91CF9108950E9438
:100E8000FD0581E08B83CE010E942507982F8111FB
:100E9000E2CFF1CFE091190480911804E81730F403
:100EA000F0E0E65EFB4F808190E008958FEF9FEFCA
:100EB000089590911904809118042FEF3FEF98172F
:100EC00048F4E92FF0E0E65EFB4F208130E09F5FC1
:100ED00090931904C9010895809118049091190400
:100EE000891B990B0895CF92DF92EF92FF920F9397
:100EF0001F93CF93DF937C01CB018A01209166047D
:100F0000222389F0EB016B01C40ED51ECC15DD0543
:100F100069F06991D701ED91FC910190F081E02D8C
:100F2000C7010995F3CF642F0E94B805C801DF916E
:100F3000CF911F910F91FF90EF90DF90CF90089588
:100F4000CF93DF931F92CDB7DEB7698320916604FC
:100F50002223F9F020918904203258F021E030E07A
:100F6000FC013383228390E080E00F90DF91CF91EA
:100F7000089580916704E82FF0E0E859FB4F9981CC
:100F800090838F5F809367048093890481E090E071
:100F9000ECCF61E0CE0101960E94B805F7CF90E05A
:100FA00080E0089520ED37E0DC010E94182C2EE04F
:100FB00031E040E050E00E94792ADA01C9018C500A
:100FC0009E4FAF4FBF4F0895CF93DF93EC0161E089
:100FD00083E00E949F02C230D10538F0CC0FDD1FA4
:100FE000CC0FDD1F25972197F1F760E083E0DF91BB
:100FF000CF910C949F0291E09093660480938804B3
:10100000109267041092890481E00E94350691E0F5
:10101000811190E0892F0895CF93DF93DC0114961E
:101020002D913C912417350710F490E01EC0EA0181
:10103000FC0181819281208131E03093660420930C
:1010400088041092670410928904DC01ED91FC91F0
:101050000280F381E02D0995C817D90731F781E0A7
:101060000E94350691E08111E0CF892FDF91CF9169
:101070000895CF93DF9300D0CDB7DEB799838A83ED
:1010800042E050E0BE016F5F7F4F80915C05909120
:101090005D050E940C080F900F90DF91CF9108958D
:1010A0002F923F924F925F926F927F928F929F9278
:1010B000AF92BF92CF92DF92EF92FF920F931F9366
:1010C000CF93DF935C011B016A01F12CE12CD50168
:1010D00014968D919C9186010E191F098017910716
:1010E00008F48C01F501D0810E947B032B013C01A7
:1010F00080916004811172C0C02F013208F0C0E2FB
:10110000F1E0F093600421E0C601801B910BE8162A
:10111000F90608F420E020935F048FEF80935E04CB
:1011200010925D048C0F80935C04A1E0A0933B04BB
:1011300080913B04DD0FD82BD0933B0480913A047F
:10114000813009F090C010923A040E947B032B0179
:101150003C0180913B048093BB008091620490919C
:101160006304A0916404B0916504892B8A2B8B2BB6
:10117000A1F00E947B0320916204309163044091AE
:101180006404509165046419750986099709261746
:1011900037074807590708F442C08091BC0083FD17
:1011A000D8CFB5ECB093BC000E947B032B013C016F
:1011B00080916004813009F45AC080915D048C17DD
:1011C00010F4C0915D04ACE3B4E0EAE1F4E080E047
:1011D0008C1751F19D9191938F5FFACF80916204AA
:1011E00090916304A0916404B0916504892B8A2BCB
:1011F0008B2B09F47DCF0E947B03209162043091F8
:10120000630440916404509165046419750986096A
:101210009709261737074807590708F069CF8091C3
:1012200061040E941406C0E010921904C0931804CF
:10123000C017110609F057C041018E0C9F1CE40134
:10124000CE01881999098017910798F5D501119653
:101250008D919C91DC01ED91FC910284F385E02D50
:1012600009958993EDCFE5EEE093BC009DCF809189
:10127000620490916304A0916404B0916504892B89
:101280008A2B8B2B09F494CF0E947B03209162045C
:1012900030916304409164045091650464197509A8
:1012A00086099709261737074807590708F080CF9E
:1012B000B6CFE00EF11EEC14FD0408F408CF81E077
:1012C000DF91CF911F910F91FF90EF90DF90CF9022
:1012D000BF90AF909F908F907F906F905F904F9056
:1012E0003F902F90089580E0EBCF0F931F93CF9303
:1012F000DF9300D000D000D0CDB7DEB764E170E05E
:1013000080E090E00E94A00346E050E0BE016F5FE5
:101310007F4F80915C0590915D050E945008182FC9
:10132000882309F452C00B81CE0101960E942F023E
:10133000081357C00E81CE0104960E942F02081395
:1013400050C029813A81322723273227A7E1B1E112
:101350000E94F12A2EE095958795779567952A95B5
:10136000D1F764597141810991090E94462920E011
:1013700030E048EC52E40E946D2B60935605709368
:10138000570580935805909359052C813D8132274C
:1013900023273227A1E7B2E00E94F12A3CE096958C
:1013A0008795779567953A95D1F70E94442920E073
:1013B00030E048EC52E40E946D2B6093520570932C
:1013C00053058093540590935505812F26960FB6AB
:1013D000F894DEBF0FBECDBFDF91CF911F910F916B
:1013E000089510E0F2CF80E094E20E943908811164
:1013F00005C060E070E080EC9FE708950E947509E9
:101400008823B9F36091560570915705809158056E
:1014100090915905089580E094E20E943908811165
:1014200005C060E070E080EC9FE708950E947509B8
:101430008823B9F36091520570915305809154054A
:10144000909155050895CF93DF931F92CDB7DEB7E6
:1014500041E050E0BE016F5F7F4FFC0184859585C0
:101460000E945008882329F089810F90DF91CF9145
:1014700008958FEFFACF4F925F926F927F92AF9263
:10148000BF92CF92DF92EF92FF920F931F93CF9371
:10149000DF93CDB7DEB729970FB6F894DEBF0FBE46
:1014A000CDBF8C017B016A018FB7F89440900C048A
:1014B00050900D0460900E0470900F048FBF8091C7
:1014C0000A0190910B01A0910C018F839887A98745
:1014D00043E050E0BE01695F7F4FD8011C968D91BB
:1014E0009C910E940C08811117C0B12C8B2D29965C
:1014F0000FB6F894DEBF0FBECDBFDF91CF911F9125
:101500000F91FF90EF90DF90CF90BF90AF907F90C2
:101510006F905F904F900895C8010E94230A87FF43
:1015200007C06AE070E080E090E00E94A003F4CF82
:1015300046E050E0BE016F5F7F4FF80184859585DE
:101540000E945008B82E882381F26A817B81762719
:1015500067277627CB01B0E0A0E09C01AD0184E0D5
:10156000220F331F441F551F8A95D1F7AC808A2D57
:1015700090E064E0959587956A95E1F7092E000C57
:10158000AA0BBB0BBC01CD01622B732B842B952BBB
:101590000E94442920E030E048EC52E40E94A52952
:1015A00020E030E040E855E30E94A529D8011496D8
:1015B0006D937D938D939C9317976A2D6F7070E058
:1015C00090E080E0982F872F762F66272D81622B61
:1015D000982F872F762F66272E81622B0E94442911
:1015E00020E030E048E453E40E94A52920E030E008
:1015F00040E855E30E94A52920E030E048E452E4A9
:101600000E94002BF8016083718382839383C1144D
:10161000D10481F1F601349680E2DF011D928A95B2
:10162000E9F784E290E0A0E0B0E0F60180839183E6
:10163000A283B383D8011A968D919C91B0E0A0E06B
:1016400084839583A683B7838DE090E0A0E0B0E02B
:1016500080879187A287B387408A518A628A738A7A
:10166000F80180819181A281B381F601848B958BF1
:10167000A68BB78BE114F10409F438CFF701349647
:1016800080E2DF011D928A95E9F784E290E0A0E014
:10169000B0E0F70180839183A283B383D8011896C9
:1016A0008D919C91B0E0A0E084839583A683B7835D
:1016B0008DE090E0A0E0B0E080879187A287B387BB
:1016C000408A518A628A738AF80184819581A68151
:1016D000B781F701848B958BA68BB78B07CFAB01B6
:1016E00070E060E0FC01848195810E943B0A81E00A
:1016F000089550E040E0FC01848195810E943B0AFE
:1017000081E00895FC0180819181009711F00C9493
:10171000C12C08950C94C12C0C94C12CFF920F93F2
:101720001F93CF93DF9300D01F92CDB7DEB7F82E73
:1017300062E082E10E94CD0261E083E10E94CD027D
:1017400009E010E061E083E10E949F0265E070E043
:1017500080E090E00E94A00360E083E10E949F028D
:1017600065E070E080E090E00E94A0030150110964
:1017700049F70E94FD050E94FD0560E082E10E949C
:10178000CD0260E083E10E94CD0282E10E947602F8
:10179000892B11F480E055C083E10E947602892BE9
:1017A000C9F38F2D0E94FB078F2D0E94FB07882312
:1017B00089F380915C0590915D05009711F00E947E
:1017C000C12C86E090E00E94252C8C0180915A0566
:1017D00090915B05F801F08292838183138280E20D
:1017E00090E09583848310935D0500935C050E94CF
:1017F000FD0581E0F8018383C8010E942507882345
:1018000049F282EA90E30E9439086AE070E080E0E1
:1018100090E00E94A0038DE293EF0E94390843E01C
:1018200050E0BE016F5F7F4F80915C0590915D0538
:101830000E94500829813A8181E02F3F3F4F09F4EF
:10184000A9CF0F900F900F90DF91CF911F910F9123
:10185000FF9008950F931F93CF93DF93EC0188813E
:101860009981009759F02A813B812617370730F07C
:1018700081E0DF91CF911F910F9108958B016F5FF0
:101880007F4F0E944A2D009759F0998388831B83CC
:101890000A832C813D81232B59F7FC011082E8CF6C
:1018A00080E0E7CFFB0101900020E9F73197AF011D
:1018B000461B570BDC01ED91FC910280F381E02D7A
:1018C0000994CF93DF93BC018AE894E00E94D90386
:1018D000EC0167EA71E08AE894E00E94520C8C0FF8
:1018E0009D1FDF91CF9108958F929F92AF92BF92EB
:1018F000EF92FF920F931F93CF93DF93CDB7DEB795
:10190000A1970FB6F894DEBF0FBECDBF7C01FA01E0
:10191000CB0119A2223008F42AE08E010F5D1F4F7F
:10192000822E912CB12CA12CBF01A50194010E9403
:10193000CF2AF901CA016A300CF5605DD8016E93B7
:101940008D01232B242B252B79F790E080E0109735
:1019500021F0BD01C7010E94520CA1960FB6F89468
:10196000DEBF0FBECDBFDF91CF911F910F91FF90D2
:10197000EF90BF90AF909F908F900895695CDECFFD
:10198000CF92DF92EF92FF920F931F93CF93DF934B
:101990006B01770FEE08FF08F7FE1BC0EC016DE24C
:1019A0000E94D2038C0144275527BA014C195D09C6
:1019B0006E097F092AE0CE010E94740C800F911FEE
:1019C000DF91CF911F910F91FF90EF90DF90CF901B
:1019D00008952AE0B701A601DF91CF911F910F91E1
:1019E000FF90EF90DF90CF900C94740C8F929F92A9
:1019F000AF92BF92CF92DF92EF92FF920F931F931D
:101A0000CF93DF93EC016A017B01AB019601CB011F
:101A1000B6010E94132C6AEA71E0811126C04601CA
:101A20005701E894B7F82FEF3FEF4FE75FE7C501A5
:101A3000B4010E94132C81110CC02FEF3FEF4FE730
:101A40005FE7C501B4010E943F296EEA71E01816F4
:101A500064F02FEF3FEF4FE75FE4C701B6010E944C
:101A60000E2C18168CF462EB71E0CE01DF91CF9151
:101A70001F910F91FF90EF90DF90CF90BF90AF90AC
:101A80009F908F900C94520C2FEF3FEF4FE75FEC3D
:101A9000C701B6010E943F2987FDE5CF20E030E075
:101AA000A901C701B6010E943F2910E000E087FFAD
:101AB00009C06DE2CE010E94D2038C01F7FAF094C6
:101AC000F7F8F0942AE037ED43EA5BE3C701B6018B
:101AD0000E94012B6B017C010E94DF2B4B015C01FA
:101AE0000E9444299B01AC01C701B6010E94002B52
:101AF0006B017C012AE0B501A401CE010E94740CA7
:101B0000080F191F6EE2CE010E94D203080F191FA1
:101B100020E030E040E251E4C701B6010E94A5296F
:101B20004B015C010E94DF2B6B01F12CE12C2AE0C0
:101B3000B701A601CE010E94740C080F191FC7013E
:101B4000B6010E9444299B01AC01C501B4010E9469
:101B5000002B20E030E040E251E40E94A5290E94E1
:101B6000DF2BAB0170E060E02AE0CE010E94740C34
:101B7000800F911FDF91CF911F910F91FF90EF90F8
:101B8000DF90CF90BF90AF909F908F9008950C946E
:101B9000520CEF92FF920F931F93CF93DF93EC01C0
:101BA0007B01198218821B821A821D821C82FB0112
:101BB00001900020E9F731978F01061B170BB80140
:101BC0000E942A0C28813981811113C02115310509
:101BD00019F0C9010E94C12C198218821D821C8231
:101BE0001B821A82DF91CF911F910F91FF90EF908E
:101BF00008951D830C83B701C901DF91CF911F9117
:101C00000F91FF90EF900C94102E0F931F93CF9392
:101C1000DF938C01EB0188E2FB0111928A95E9F7D1
:101C20004BE050E066EB71E0CE010E94172E1B8660
:101C300081E090E0A0E0B0E08C879D87AE87BF8711
:101C4000F80182819381092E000CAA0BBB0B888BB3
:101C5000998BAA8BBB8B8DE090E0A0E0B0E08C8BE1
:101C60009D8BAE8BBF8B1CA21DA21EA21FA280E06B
:101C700090E0A0E2B2EC8C8F9D8FAE8FBF8F80E0A2
:101C800090E0AAEAB2E4888F998FAA8FBB8F8AE985
:101C900099E9A9E9BEE388A399A3AAA3BBA3DF910D
:101CA000CF911F910F9108950F931F93CF93DF93BF
:101CB0008C01EB0188E2FB0111928A95E9F74BE078
:101CC00050E06EEB71E0CE010E94172E1B8681E082
:101CD00090E0A0E0B0E08C879D87AE87BF87F801D9
:101CE00082819381092E000CAA0BBB0B888B998BE8
:101CF000AA8BBB8B8CE090E0A0E0B0E08C8B9D8B3E
:101D0000AE8BBF8B1CA21DA21EA21FA21C8E1D8EFD
:101D10001E8E1F8E80E090E0A8ECB2E4888F998F31
:101D2000AA8FBB8F80E090E0A0E0B0E488A399A3E5
:101D3000AAA3BBA3DF91CF911F910F910895EF92BA
:101D4000FF920F931F93CF93DF93CDB7DEB72C97FE
:101D50000FB6F894DEBF0FBECDBF2EE1269F7001F7
:101D6000279FF00C112430E020E0F901EE0DFF1D5B
:101D7000E75EFC4F15822F5F3F4F2B303105A9F7EF
:101D8000FC010481158101151105C1F419824BE094
:101D900050E0BE016F5F7F4FC701825E9C4F0E9483
:101DA000172E2C960FB6F894DEBF0FBECDBFDF9175
:101DB000CF911F910F91FF90EF9008950B30110577
:101DC00010F00BE010E0FC0160817181A801CE01F0
:101DD00001960E94172EE1E0F0E0EC0FFD1FE00FEE
:101DE000F11F1082D4CF85ED8093BC0080916204F6
:101DF00090916304A0916404B09165040796A11DBD
:101E0000B11D23E0B695A795979587952A95D1F7AB
:101E10002091BC0024FD03C01092600408954091FD
:101E20006204509163046091640470916504452BD1
:101E3000462B472B69F30097A105B10541F02AE233
:101E40002A95F1F700C00197A109B109E1CF80916E
:101E500061040C9414060C946B2ACF93DF93EC016D
:101E60008130910531F58091000190910101019738
:101E7000E9F1D0930101C0930001C091C8028091A3
:101E8000C7029C2F0E94D2070E94E4076C2F8CEEA1
:101E900093E00E942B0F6091C7028CEE93E00E94AA
:101EA0002B0F68EE73E080E090E0DF91CF910C940F
:101EB000A003892BD9F48091000190910101892B15
:101EC000A9F01092010110920001C09103018091CC
:101ED00002019C2F0E94D2070E94E4076C2F8CEE17
:101EE00093E00E942B0F60910201D7CFD0930101A4
:101EF000C09300016D2F8CEE93E00E942B0F6C2F8E
:101F0000CCCF8F929F92AF92BF92CF92DF92EF92FF
:101F1000FF920F931F93CF93DF938C017B016A0194
:101F20004C01B12CA12CE80109900020E9F7219780
:101F3000C01BD10BAC16BD0660F4F40161914F01DA
:101F4000C7018A0D9B1D0E942B0FFFEFAF1ABF0A1E
:101F5000EACFF80101900020E9F73197E01BF10B7F
:101F6000C6018E1B9F0BC817D90740F460E0C7015C
:101F70008C0F9D1F0E942B0F2196EBCFDF91CF91ED
:101F80001F910F91FF90EF90DF90CF90BF90AF9097
:101F90009F908F900895CF93DF93D0E0C0E060E0F2
:101FA000CE010E942B0F2196C13082E0D807B9F7ED
:101FB00060E088EE93E00E942B0F60E089EE93E0F2
:101FC0000E942B0F61E08AEE93E00E942B0F6EE0DF
:101FD0008BEE93E00E942B0F60E08CEE93E00E946A
:101FE0002B0F60E08DEE93E00E942B0F60E08FEFEF
:101FF00093E00E942B0F80910A04882341F062E64F
:1020000071E087E295E0DF91CF910C94D90368E607
:1020100071E08AE894E0F7CF1F93CF93DF93EC0150
:10202000162F0E94632A181739F0612FCE01DF9115
:10203000CF911F910C946B2ADF91CF911F9108953E
:10204000DF92EF92FF920F931F93CF93DF93D82EDF
:10205000C1E6D1E089ECE82E82E0F82E09E113E038
:102060008881229670E060E00E94090360E0F70139
:10207000828193810E940C1060E0F7018481958138
:102080000E940C10F801148E138E128EFAE0EF0EDF
:10209000F11C025E1F4F81E0CD36D80709F7DD2025
:1020A000B1F080910A04882369F06CE973E087E25B
:1020B00095E0DF91CF911F910F91FF90EF90DF900E
:1020C0000C94D90362EA73E08AE894E0F2CFDF91DE
:1020D000CF911F910F91FF90EF90DF9008950C9496
:1020E000632ACF92DF92EF92FF920F931F93CF93C9
:1020F000DF9300D0CDB7DEB78C016B01FC011182FC
:102100001082138212821582148270E060E00E94B5
:102110002A0CF80120813181811133C0211531054C
:1021200019F0C9010E94C12CF80111821082158298
:10213000148213821282C6010E946F10882349F113
:1021400089831A82F801E480F580FFEFEF1AFF0A15
:10215000B701C8010E942A0C882379F0F801208178
:10216000318184819581BE016F5F7F4F820F931F04
:102170000E94102EF801F582E482FFEFCF1ADF0AE9
:10218000DACF1582148269EA71E0C9010E94102E2B
:10219000D2CFC8010F900F90DF91CF911F910F9177
:1021A000FF90EF90DF90CF9008952F923F924F9243
:1021B0005F926F927F928F929F92AF92BF92CF92D7
:1021C000DF92EF92FF920F931F93CF93DF9300D094
:1021D00000D0CDB7DEB78C018EE1809FF001819FEA
:1021E000F00D1124E75EFC4F858D882369F0C8014E
:1021F000880F991F9B838A83FC01E35DFE4F8081DA
:1022000091818531910549F505E012E022E044E035
:1022100060E070E0CB010E94C4260BEF11E022E0E9
:1022200044E060E070E0CB010E94C4260F900F9064
:102230000F900F90DF91CF911F910F91FF90EF9032
:10224000DF90CF90BF90AF909F908F907F906F90D6
:102250005F904F903F902F900895EA81FB81E35E5D
:10226000FE4F60810E949F0280E10E946603BC01D4
:10227000990F880B990B0E94462920E731E640EA26
:102280005BE30E94A52920E030E54CE556E40E947E
:10229000A52920E030EE42E955E40E946D2B6B0148
:1022A0007C0181E10E946603BC01990F880B990BA8
:1022B0000E94462920E731E640EA5BE30E94A52917
:1022C00028E539E340E250E40E94002B2CE437E398
:1022D00049E85DE30E946D2B4B015C0120E030E09A
:1022E000A9010E943F2987FF03C0812C912C540132
:1022F0002AE939E949E95EE3C501B4010E94012BED
:102300004B015C018EE1809FF001819FF00D112453
:10231000E75EFC4F848102E310E0803509F05FC086
:10232000412C512C612C712CEA81FB81E35FFE4F23
:10233000F081F98389810E946603BC01990F880BA3
:10234000990B0E9446291B018C839A839201A30159
:102350000E940E2C18161CF421016C807A8061E01A
:1023600070E080E090E00E94A0030150110911F795
:102370002AE038E240EA5BE3B201C3010E94A529EA
:1023800020E030E54AEA55E40E94A52920E030EC3F
:102390004CE854E40E946D2B2B013C0120E030E01E
:1023A000A9010E943F2987FF03C0412C512C320113
:1023B00001EF11E022E044E0C501B4010E94C4260F
:1023C00005E012E022E044E0C701B6010E94C42605
:1023D0000BEF11E022E044E0C301B20125CF412C14
:1023E000512C32018A819B81835F9E4FFC01F081D9
:1023F000F98389810E946603BC01990F880B990BB0
:102400000E9446299B01AC01C301B2010E94012B2D
:102410002B013C0161E070E080E090E00E94A003AD
:102420000150110931F720E030E048E452E4C301E3
:10243000B2010E946D2B2AE038E240EA5BE39ECFB6
:102440000F931F93CF93DF93CDB7DEB76E970FB681
:10245000F894DEBF0FBECDBF2BEF31E03F932F933B
:1024600025E032E03F932F932EE1289FF001299F32
:10247000F00D1124E75EFC4F848D8F93838D8F9335
:10248000828D1F928F9386EC91E09F938F938E01A4
:102490000F5F1F4F1F930F930E94562E0FB6F89495
:1024A000DEBF0FBECDBF80910A04B801882379F04A
:1024B00087E295E00E94C70D6E960FB6F894DEBFD6
:1024C0000FBECDBFDF91CF911F910F9108958AE884
:1024D00094E0F0CFCF92DF92EF92FF920F931F9391
:1024E000CF93DF93CDB7DEB78A01CDB6DEB64F5FAF
:1024F0005F4FEDB7FEB7E41BF50B0FB6F894FEBFC8
:102500000FBEEDBF4DB75EB74F5F5F4F7A01680FEB
:10251000791FA901C7010E94172EF701E00FF11FD3
:102520001082C7010E94E2260FB6F894DEBE0FBEED
:10253000CDBEDF91CF911F910F91FF90EF90DF9073
:10254000CF9008958F929F92AF92BF92CF92DF92D9
:10255000EF92FF920F931F93CF93DF93CDB7DEB728
:102560004B01ADB6BEB6FC010481158198012F5F09
:102570003F4F4DB75EB7421B530B0FB6F8945EBF8B
:102580000FBE4DBFEDB7FEB731967F01232B21F073
:1025900001151105D9F410828EE1889D6001899D95
:1025A000D00C11244AE050E0B701C601875D9C4F72
:1025B0000E94172E0A301105A0F4F601E00FF11F5A
:1025C000E75EFC4F108A0F5F1F4FF4CFFC01608164
:1025D0007181A801C7010E94172EF701E00FF11FBA
:1025E000DACF0FB6F894BEBE0FBEADBEDF91CF916D
:1025F0001F910F91FF90EF90DF90CF90BF90AF9021
:102600009F908F9008957F928F929F92AF92BF92EA
:10261000CF92DF92EF92FF920F931F93CF93DF93AE
:10262000CDB7DEB7C854D1090FB6F894DEBF0FBEE0
:10263000CDBF8332F9F08E33C9F08D3011F00C9498
:10264000A51EC85BDF4F0FB6F894DEBF0FBECDBF2F
:10265000DF91CF911F910F91FF90EF90DF90CF907E
:10266000BF90AF909F908F907F9008951092F0014F
:102670001092EF01E2EEF1E0A091EF01B091F001D4
:10268000AE51BE4F1C928091E201813539F40E9417
:10269000CB0F1092F0011092EF01D3CF843509F0E7
:1026A000ACC18091BC029091BD022091BE02222358
:1026B00009F419C1029769F78090C3029090C4028F
:1026C000A090C502B090C602C090BF02D090C002D8
:1026D000E090C102F090C2020E94F3096093C3022D
:1026E0007093C4028093C5029093C6020E940B0AA5
:1026F0006093BF027093C0028093C1029093C202A4
:1027000005E010E06091C3027091C4028091C5029F
:102710009091C6029B01AC010E94132C81110EC046
:102720006091BF027091C0028091C1029091C2027B
:102730009B01AC010E94132C8823B9F00E94F3097D
:102740006093C3027093C4028093C5029093C60243
:102750000E940B0A6093BF027093C0028093C10273
:102760009093C2020150110969F66091C302709101
:10277000C4028091C5029091C6029B01AC010E94E7
:10278000132C81110EC06091BF027091C002809124
:10279000C1029091C2029B01AC010E94132C8823BC
:1027A00081F08092C3029092C402A092C502B092BE
:1027B000C602C092BF02D092C002E092C102F09263
:1027C000C2022091BF023091C0024091C1025091DB
:1027D000C20260E070E088EC92E40E94002B20E0EE
:1027E00030E040EA50E40E946D2B9B01AC01609107
:1027F000C3027091C4028091C5029091C6020E94EA
:10280000002B6B017C0180910A048823B9F164E8F4
:1028100073E087E295E00E94D9034091C302509192
:10282000C4026091C5027091C60287E295E00E94E1
:10283000F60C62E873E087E295E00E94D9034091CC
:10284000BF025091C0026091C1027091C20287E242
:1028500095E00E94F60C60E873E087E295E00E9444
:10286000D903B701A60187E295E00E94F60C6EE756
:1028700073E087E295E00E94D9030BCF6CE773E029
:102880008AE894E00E94D9034091C3025091C402A7
:102890006091C5027091C6028AE894E00E94F60C2D
:1028A0006AE773E08AE894E00E94D9034091BF028E
:1028B0005091C0026091C1027091C2028AE894E016
:1028C0000E94F60C68E773E08AE894E00E94D9035E
:1028D000B701A6018AE894E00E94F60C66E773E06F
:1028E0008AE894E0C8CF019709F07EC0AE014F5F3F
:1028F0005F4FBE016B5D7F4F8EE595E00E943B0A06
:1029000029AD3AAD4BAD5CAD60E070E088EC92E48F
:102910000E94002B20E030E040EA50E40E946D2B42
:102920009B01AC016D897E898F89988D0E94002B57
:102930006B017C0180910A04882359F16CE673E0F5
:1029400087E295E00E94D9034D895E896F89788D71
:1029500087E295E00E94F60C6AE673E087E295E074
:102960000E94D90349AD5AAD6BAD7CAD87E295E0CD
:102970000E94F60C68E673E087E295E00E94D903B6
:10298000B701A60187E295E00E94F60C66E673E0C7
:1029900070CF64E673E08AE894E00E94D9034D8921
:1029A0005E896F89788D8AE894E00E94F60C62E671
:1029B00073E08AE894E00E94D90349AD5AAD6BAD4B
:1029C0007CAD8AE894E00E94F60C60E673E08AE849
:1029D00094E00E94D903B701A6018AE894E00E941E
:1029E000F60C6EE573E07CCF80910A0462E773E039
:1029F00081113FCF6EE673E073CF8D3409F0C7C00D
:102A000001900020E9F7E35EF140329708F45DC0E1
:102A100022E030E041E050E061E070E082EE91E0E1
:102A20000E946A12FC01E75AFE4F2081213449F4CA
:102A300080910A0467E573E081111BCF60E573E0C4
:102A40004FCF0E94D5108E010F5F1F4F84E1F80118
:102A500011928A95E9F780910A04882351F16EE476
:102A600073E087E295E00E94D9038BEF91E09F939A
:102A70008F9385E092E09F938F938CEC91E09F93EE
:102A80008F931F9284E18F931F930F930E94262EA2
:102A90000FB6F894DEBF0FBECDBF80910A04B80117
:102AA000882361F087E295E00E94C70D6AE473E035
:102AB000E0CE6CE473E08AE894E0D5CF8AE894E055
:102AC0000E94C70D68E473E00BCF80910A0488234D
:102AD00009F44FC066E473E087E295E00E94D903F1
:102AE00010E000E064E1762ECE0101967C017BEFE0
:102AF000C72E71E0D72EE5E0AE2EE2E0BE2EFCEC54
:102B00008F2EF1E09F2EC8010E94D510F701272DCE
:102B100011922A95E9F7DF92CF92BF92AF929F92DE
:102B20008F921F927F92FF92EF920E94262E0FB6F5
:102B3000F894DEBF0FBECDBF80910A04B701882391
:102B4000E9F087E295E00E94C70D62E473E087E256
:102B500095E00E94D9030F5F1F4F0630110599F6CB
:102B600080910A046EE373E0811183CE6CE373E01D
:102B7000B7CE64E473E08AE894E0B0CF8AE894E0EA
:102B80000E94C70D60E473E08AE894E0E2CF8335E9
:102B900009F0B7C022E030E041E050E061E070E0D1
:102BA00082EE91E00E946A126C0123E030E043E083
:102BB00050E062E070E082EE91E00E946A127C01D7
:102BC0008EE18C9D80018D9D100D1124075E1C4FA0
:102BD000F8018481803579F5FFEFEF16F10411F0EB
:102BE00008F053C0F601EE0FFF1FEF59FE4FB7017B
:102BF00080810E9409032AE02C9DC0012D9D900D2B
:102C000011249C0127533D4F69016E2DF9018481E8
:102C100095810E940C106E2DF601828193810E9495
:102C20000C10F801F48EE38E81E0EF2809F480E0C7
:102C3000F801828F2AC0823509F05AC0E114F104EC
:102C400069F5F601EE0FFF1FEF59FE4F70E060E0EF
:102C500080810E9409032AE02C9DC0012D9D900DCA
:102C600011249C0127533D4F790160E0F9018281D5
:102C700093810E940C1060E0F701848195810E948D
:102C80000C10F801148E138E128E80910A0468E2E3
:102C900073E08111EECD62E273E022CE1E141F04B8
:102CA000A4F7F601EE0FFF1FEF59FE4F6FEF70E034
:102CB00080810E9409032AE02C9DC0012D9D900D6A
:102CC00011249C0127533D4F79016FEFF901828157
:102CD00093810E940C106FEFF701848195810E940F
:102CE0000C108FEF90E0F801948F838F81E0A1CFDB
:102CF00080910A0465E373E08111BBCD6EE273E05D
:102D0000EFCD843439F481E090E00E942D0F67E923
:102D100073E0E6CD853439F490E080E00E942D0F19
:102D200062E973E0DDCD8C3409F0EDC00190002044
:102D3000E9F7E35EF140329708F4ABCC22E030E0F3
:102D400041E050E061E070E082EE91E00E946A12A2
:102D50008C0123E030E043E050E062E070E090E07E
:102D600080E00E946A128F3F910551F048F082E0A6
:102D700090E090930101809300016CE173E0B0CD8D
:102D800001151105B1F59093C8028093C7020E9406
:102D9000D2070E94E40760E088EE93E00E942B0FC8
:102DA0006091C70289EE93E00E942B0F6091C802E8
:102DB0008CEE93E00E942B0F6091C7028CEE93E0A3
:102DC0000E942B0F82E090E090930101809300011C
:102DD0006AE173E08AE894E00E94D9036091C70237
:102DE0007091C8028AE894E00E94C00C68E173E028
:102DF00077CD0130110509F042C08091C702909152
:102E0000C802059662E173E08F3F910511F008F06A
:102E100067CD9093C8028093C7020E94D2070E9498
:102E2000E40760E088EE93E00E942B0F6091C702F8
:102E300089EE93E00E942B0F6091C8028CEE93E024
:102E40000E942B0F6091C7028CEE93E00E942B0F23
:102E500082E090E0909301018093000160E173E0D3
:102E60008AE894E00E94D9036091C7027091C80279
:102E70008AE894E00E94C00C6EE073E031CD02302D
:102E8000110509F006CC8091C7029091C802059700
:102E900068E073E08F3F910511F008F021CD909329
:102EA000C8028093C7020E94D2070E94E40760E034
:102EB00088EE93E00E942B0F6091C70289EE93E0A9
:102EC0000E942B0F6091C8028CEE93E00E942B0FA2
:102ED0006091C7028CEE93E00E942B0F10930101CA
:102EE0000093000166E073E08AE894E00E94D90351
:102EF0006091C7027091C8028AE894E00E94C00CF9
:102F000064E073E0EDCC883509F0F3C00190002057
:102F1000E9F7E35EF140329708F4BBCB22E030E002
:102F200041E050E061E070E082EE91E00E946A12C0
:102F30007C0123E030E043E050E062E070E090E0AC
:102F400080E00E946A128F3F910551F048F082E0C4
:102F500090E090930101809300016EEF72E0C0CC8D
:102F6000E114F104B1F590930301809302010E94F2
:102F7000D2070E94E40760E08AEE93E00E942B0FE4
:102F8000609102018BEE93E00E942B0F6091030190
:102F90008CEE93E00E942B0F609102018CEE93E087
:102FA0000E942B0F82E090E090930101809300013A
:102FB0006CEF72E08AE894E00E94D903609102010C
:102FC000709103018AE894E00E94C00C6AEF72E0FD
:102FD00087CCF1E0EF16F10409F044C00091020142
:102FE000109103010B5F1F4F64EF72E0093121E084
:102FF000120708F075CC1093030100930201C80179
:103000000E94D2070E94E407612F8AEE93E00E949B
:103010002B0F609102018BEE93E00E942B0F6091C9
:1030200003018CEE93E00E942B0F609102018CEE65
:1030300093E00E942B0F82E090E090930101809337
:10304000000162EF72E08AE894E00E94D903609187
:103050000201709103018AE894E00E94C00C60EFC5
:1030600072E03ECC32E0E316F10409F012CB00919D
:10307000020110910301055011096AEE72E0093155
:1030800081E0180708F02CCC109303010093020193
:10309000C8010E94D2070E94E407612F8AEE93E0E4
:1030A0000E942B0F609102018BEE93E00E942B0F88
:1030B000609103018CEE93E00E942B0F609102015E
:1030C0008CEE93E00E942B0FF0920101E092000140
:1030D00068EE72E08AE894E00E94D90360910201F0
:1030E000709103018AE894E00E94C00C66EE72E0E1
:1030F000F7CB803509F007C201900020E9F7E35EC5
:10310000F140329740F122E030E041E050E061E0F0
:1031100070E082EE91E00E946A128C010E94D5104C
:1031200080910A04882391F064EE72E087E295E0D2
:103130000E94D903C8010E94201280910A0460EE07
:1031400072E0811196CB6EED72E0CACB62EE72E056
:103150008AE894E0EDCF80910A04882309F42EC117
:103160006CED72E087E295E00E94D90310E000E088
:10317000C8010E94D510C8010E94201280910A0443
:10318000882309F420C168ED72E087E295E00E948F
:10319000D9030F5F1F4F0830110551F78091BC0212
:1031A0009091BD02892B09F4F5C08091BE0288235D
:1031B00009F432C18090C3029090C402A090C5026D
:1031C000B090C602C090BF02D090C002E090C10291
:1031D000F090C2020E94F3096093C3027093C4028C
:1031E0008093C5029093C6020E940B0A6093BF02AF
:1031F0007093C0028093C1029093C20205E010E078
:103200006091C3027091C4028091C5029091C60280
:103210009B01AC010E94132C81110EC06091BF0272
:103220007091C0028091C1029091C2029B01AC01D9
:103230000E94132C8823B9F00E94F3096093C30203
:103240007093C4028093C5029093C6020E940B0A39
:103250006093BF027093C0028093C1029093C20238
:103260000150110969F66091C3027091C402809106
:10327000C5029091C6029B01AC010E94132C8111E2
:103280000EC06091BF027091C0028091C102909106
:10329000C2029B01AC010E94132C882381F0809212
:1032A000C3029092C402A092C502B092C602C0921C
:1032B000BF02D092C002E092C102F092C202C0905E
:1032C000C302D090C402E090C502F090C6022091E3
:1032D000BF023091C0024091C1025091C20260E031
:1032E00070E088EC92E40E94002B20E030E040EA9D
:1032F00050E40E946D2B9B01AC01C701B6010E94F6
:10330000002B4B015C0180910A04B701A6018823C0
:1033100009F45EC087E295E00E94F60C64ED72E06D
:1033200087E295E00E94D9034091BF025091C0020C
:103330006091C1027091C20287E295E00E94F60C92
:1033400062ED72E087E295E00E94D903B501A40125
:1033500087E295E00E94F60C8091E1018F30A8F0A1
:103360008091E00191E089278093E001882309F4AE
:1033700050C08DE690E30E94390861E070E080E083
:1033800090E00E94A0031092E1018091E1018F5F23
:103390008093E10180910A04882309F4A5C064ECBC
:1033A00072E087E295E00E94D90361EF71E087E265
:1033B00095E00E94C70D62EC72E05BCA6AED72E0B4
:1033C0008AE894E0D1CE66ED72E08AE894E0DFCE40
:1033D0008AE894E00E94F60C60ED72E08AE894E0DE
:1033E0000E94D9034091BF025091C0026091C10276
:1033F0007091C2028AE894E00E94F60C6EEC72E0D2
:103400008AE894E00E94D903B501A4018AE894E017
:10341000A1CF86E690E3AFCFAE014F5F5F4FBE0115
:103420006B5D7F4F8EE595E00E943B0ACD88DE887C
:10343000EF88F88C29AD3AAD4BAD5CAD60E070E043
:1034400088EC92E40E94002B20E030E040EA50E457
:103450000E946D2B9B01AC01C701B6010E94002B9D
:103460004B015C0180910A04B701A6018823F9F0A1
:1034700087E295E00E94F60C6CEC72E087E295E042
:103480000E94D90349AD5AAD6BAD7CAD87E295E0A2
:103490000E94F60C6AEC72E087E295E00E94D90384
:1034A000B501A40187E295E00E94F60C73CF8AE88B
:1034B00094E00E94F60C68EC72E08AE894E00E94C6
:1034C000D90349AD5AAD6BAD7CAD8AE894E00E945A
:1034D000F60C66EC72E08AE894E00E94D903B5012C
:1034E000A4018AE894E0E0CF60EC72E08AE894E01E
:1034F0000E94D90361EF71E08AE894E00E94C70D51
:103500006EEB72E0EDC9823409F095C082EE91E075
:10351000FC0101900020E9F7CF01835E91401091FA
:103520000A040297D8F122E030E041E050E061E087
:1035300070E082EE91E00E946A127C011123B9F0E2
:103540006CEB72E087E295E00E94D9038EE18E9DDC
:10355000F0018F9DF00D1124E75EFC4F628D70E04D
:1035600087E295E00E94C00C6AEB72E082C968EBCA
:1035700072E08AE894E00E94D9038EE18E9DF0010A
:103580008F9DF00D1124E75EFC4F628D70E08AE89C
:1035900094E00E94C00C66EB72E0A2C964EB72E09A
:1035A00087E295E0111104C062EB72E08AE894E0D2
:1035B0000E94D90309E113E02DECE22E23E0F22E64
:1035C000F801628D70E080910A04882389F187E216
:1035D00095E00E94C00C025E1F4FE016F10681F7D5
:1035E00080910A0481111AC06EEA72E08AE894E0C0
:1035F0000E94D90380910A04811115C06EEA72E01D
:103600008AE894E00E94D90380910A046AEA72E091
:10361000882309F465C96CEA72E02BC960EB72E09B
:1036200087E295E0E5CF60EB72E087E295E0EACFD4
:103630008AE894E0CECF863509F097C082EE91E01B
:10364000FC0101900020E9F7CF01835E91401091C9
:103650000A04029708F44FC022E030E041E050E055
:1036600061E070E082EE91E00E946A127C018EE1DE
:103670008E9DF0018F9DF00D1124E75EFC4F84813B
:10368000803511F0863581F51123B9F068EA72E0D2
:1036900087E295E00E94D9038EE18E9DF0018F9D17
:1036A000F00D1124E75EFC4F638D748D87E295E089
:1036B0000E94C00C66EA72E0DCC864EA72E08AE844
:1036C00094E00E94D9038EE18E9DF0018F9DF00D54
:1036D0001124E75EFC4F638D748D8AE894E00E94AC
:1036E000C00C62EA72E0FCC86BE972E01111C1C85B
:1036F00064E972E0F5C862E972E087E295E01111D1
:1037000004C060E972E08AE894E00E94D90309E10C
:1037100013E0F8018481803581F4638D748D80918C
:103720000A048823C9F087E295E00E94C00C6EE885
:1037300072E087E295E00E94D903025E1F4FF3E03A
:103740000D3C1F0731F780910A046AE872E081118D
:1037500090C868E872E0C4C88AE894E00E94C00C8F
:103760006CE872E08AE894E0E6CF8E3409F05CC041
:1037700022E030E041E050E061E070E082EE91E074
:103780000E946A128C010997BCF5FE0131968EE108
:10379000809F6001819FD00C112490E080E07F0128
:1037A000DC01AC0DBD1DA75EBC4F15961C9211929D
:1037B00001968B309105A1F74BE050E064EE71E08B
:1037C000C7010E94172E4CE050E064EE71E0C60184
:1037D000825E9C4F0E94172E8AE0809FF001819F9D
:1037E000F00D1124E753FD4F668177814CE050E0E6
:1037F000C7010E94810F0AC080910A04882379F0D2
:1038000061E872E087E295E00E94D90380910A04A2
:1038100064E772E081112DC86EE672E061C86AE764
:1038200072E08AE894E0F0CF833409F048C022E0E7
:1038300030E041E050E061E070E082EE91E00E9413
:103840006A128C0109974CF080910A046BE572E0D2
:1038500081110FC864E572E043C84DE050E064EEAA
:1038600071E0CE0101960E94172E1E862EE1209F48
:10387000C001219F900D11244AE050E0BE016F5F0E
:103880007F4F875D9C4F0E94172E8AE0809FF0013A
:10389000819FF00D1124E753FD4F608571854DE048
:1038A00050E0CE0101960E94810F80910A0468E6E3
:1038B00072E081110C94391462E672E011C88F3401
:1038C00009F056C022E030E041E050E061E070E0F5
:1038D00082EE91E00E946A12893091056CF42EE12B
:1038E000289FF001299FF00D1124E75EFC4F2381F2
:1038F000203569F0263559F080910A046DE472E0B4
:1039000081110C94391466E472E00C947014609187
:10391000E401262F2D7F203559F080910A046FE3B2
:1039200072E081110C94391468E372E00C94701405
:103930002EE1289FF001299FF00D1124E75EFC4F36
:1039400064832AE0289FF001299FF00D1124E7539A
:10395000FD4F808191810E940C1080910A0462E3E6
:1039600072E081110C9439146CE272E00C947014C2
:103970008134D9F501E611E089ECC82E82E0D82E19
:1039800099E1E92E93E0F92EBB24B394F8018081EC
:103990000E5F1F4F6FEF70E00E9409036FEFF6019B
:1039A000828193810E940C106FEFF60184819581D2
:1039B0000E940C108FEF90E0F701948F838FB28EEE
:1039C000FAE0CF0ED11C2EE1E20EF11C31E00D36F3
:1039D0001307E1F680910A0460E272E081110C9411
:1039E000391466E272E00C947014863429F481E094
:1039F0000E9420100C944913823529F4F0E0E0E095
:103A000009950C944913853559F480910A0464E1B1
:103A100072E081110C9439146AE172E00C94701414
:103A2000893509F05CC062ED71E087E295E00E94A3
:103A3000520C68EE73E080E090E00E94A00387E201
:103A400095E00E947F05892B09F43FC087E295E04D
:103A50000E9495058F349105C1F58EEA91E00E9490
:103A6000610C87E295E00E947F05892B59F087E27F
:103A700095E00E94950561E070E080E090E00E9492
:103A8000A003EFCF8AEB91E00E94610C87E295E002
:103A90000E947F05892B49F087E295E00E949505F9
:103AA000682F8AE894E00E949D048AE894E00E94CE
:103AB0005B04892B59F38AE894E00E943904682F4B
:103AC00087E295E00E942305E1CF8AEE91E00E9413
:103AD000610C8CEC91E00E94610C0C9449138734CA
:103AE000A1F522E030E041E050E061E070E082EEDC
:103AF00091E00E946A122EE1289F8001299F100DFB
:103B00001124025E1C4F80910A04882379F06CEA2C
:103B100071E087E295E00E94D903B80187E295E061
:103B20000E94C70D6AEA71E00C94391468EA71E0EA
:103B30008AE894E00E94D903B8018AE894E00E94E0
:103B4000C70D66EA71E00C9470148834A1F522E088
:103B500030E041E050E061E070E082EE91E00E94F0
:103B60006A122EE1289F8001299F100D1124075D04
:103B70001C4F80910A04882379F064EA71E087E29F
:103B800095E00E94D903B80187E295E00E94C70D35
:103B900062EA71E00C94391460EA71E08AE894E01A
:103BA0000E94D903B8018AE894E00E94C70D6EE92B
:103BB00071E00C9470148B3409F065C08E010F5FB6
:103BC0001F4F89E0F80111928A95E9F7E9E1F3E0E6
:103BD000D80189E094E024812D937E968E179F076B
:103BE000D1F780910A04882339F160E971E087E216
:103BF00095E00E94D90366E775E087E295E00E94B0
:103C000058216EE871E087E295E00E94D90360E7F1
:103C100075E087E295E00E9458216CE871E087E248
:103C200095E00E94D903B80187E295E00E94C70D94
:103C30006AE871E00C9439146CE771E08AE894E06A
:103C40000E94D90366E775E08AE894E00E94582153
:103C50006AE771E08AE894E00E94D90360E775E0C2
:103C60008AE894E00E94582168E771E08AE894E0CD
:103C70000E94D903B8018AE894E00E94C70D66E764
:103C800071E00C9470148A34A1F58E010F5F1F4F00
:103C900088E0F80111928A95E9F7E9E1F3E0D801AB
:103CA00083818D937E9624E0E930F207C9F78091F5
:103CB0000A04882379F064E771E087E295E00E94C6
:103CC000D903B80187E295E00E94C70D62E771E071
:103CD0000C94391460E771E08AE894E00E94D903FB
:103CE000B8018AE894E00E94C70D6EE671E00C947A
:103CF0007014893411F00C94491380910A048823BC
:103D000091F06EE873E087E295E00E94D90360913C
:103D1000BC027091BD0287E295E00E94C00C6CE885
:103D200073E00C94391468E873E08AE894E00E9428
:103D3000D9036091BC027091BD028AE894E00E94B0
:103D4000C00C66E873E00C9470142091EF01309180
:103D5000F0012C30310510F00C942113A9014F5FB4
:103D60005F4F5093F0014093EF012E513E4FF90108
:103D700080830C9421131F920F920FB60F9211247F
:103D80002F933F938F939F93AF93BF9380910C0496
:103D900090910D04A0910E04B0910F0430910B048A
:103DA00023E0230F2D3758F50196A11DB11D209357
:103DB0000B0480930C0490930D04A0930E04B09315
:103DC0000F048091100490911104A0911204B091FD
:103DD00013040196A11DB11D80931004909311044A
:103DE000A0931204B0931304BF91AF919F918F9150
:103DF0003F912F910F900FBE0F901F90189526E8BE
:103E0000230F0296A11DB11DD2CF1F920F920FB6A4
:103E10000F9211242F933F934F935F936F937F9350
:103E20008F939F93AF93BF93EF93FF938AE894E0B0
:103E30000E947B04FF91EF91BF91AF919F918F9171
:103E40007F916F915F914F913F912F910F900FBE96
:103E50000F901F9018951F920F920FB60F9211247A
:103E60002F938F939F93EF93FF93E0919A04F09198
:103E70009B048081E091A004F091A10482FD1BC00D
:103E800090818091A3048F5F8F732091A404821787
:103E900041F0E091A304F0E0E657FB4F958F80934B
:103EA000A304FF91EF919F918F912F910F900FBEDF
:103EB0000F901F9018958081F4CF1F920F920FB62C
:103EC0000F9211242F933F938F939F93EF93FF9320
:103ED0008091B70287FF1FC0109285001092840066
:103EE0008091B7028F5F8093B7028091B70287FFFE
:103EF00004C08091B7028C30ACF080918400909126
:103F00008500049680349C4990F1809184009091C2
:103F1000850004962EC08091B70287FFE1CF809183
:103F2000B702DECF2091840030918500E091B70286
:103F30008E2FEE0F990BFC01EE0FFF1FE80FF91FFC
:103F4000ED56FD4F81819281820F931F90938900DE
:103F5000809388008091B702FF91EF919F918F919C
:103F60003F912F910F900FBE0F901F90189580E4F6
:103F70009CE990938900809388008FEF8093B7022B
:103F8000EBCF1F920F920FB60F9211242F933F93F6
:103F90004F935F936F937F938F939F93AF93BF9351
:103FA000EF93FF93E091BA02F091BB02309749F092
:103FB000A685B7858585968D91FF14C09C91892330
:103FC000A1F4FF91EF91BF91AF919F918F917F915C
:103FD0006F915F914F913F912F910F900FBE0F9076
:103FE0001F9018959C91892361F7A389B4899C91AE
:103FF0008589809589238C93868997890197F1F724
:10400000608D718DA685B785558538E020E0CB01A0
:104010000197F1F7822F90E095958795282F4C9185
:10402000452309F02068315091F7868D81FD209558
:104030008091B90290E001968F7399273091B80270
:10404000381799F0A091B902B0E0AD5ABD4F2C934A
:104050008093B902828D938D0197F1F7A389B4897A
:104060008C919589892B8C93ACCF868D8160868FBE
:10407000F1CF1F920F920FB60F9211242F933F93FF
:104080004F935F936F937F938F939F93AF93BF9360
:10409000EF93FF938091B900887F803609F44AC07E
:1040A000F0F5883209F4A7C018F5803109F49BC0F7
:1040B000B8F4882309F4F9C0883009F494C0FF915A
:1040C000EF91BF91AF919F918F917F916F915F9190
:1040D0004F913F912F910F900FBE0F901F90189509
:1040E000883109F488C0803251F780935E0414C08F
:1040F000803409F49DC040F48033B9F38833F9F675
:1041000080935E0485ECB0C0803509F485C08835A5
:1041100009F496C0883499F60E94F30ED0CF8839FE
:1041200009F48CC038F5883729F050F4883611F03E
:10413000803729F683E0809360041092520257C0C2
:10414000883809F47BC0803919F0803809F0B7CF7E
:1041500080915202803208F071C0E091520281E0F9
:104160008E0F809352028091BB00F0E0EE5CFD4F19
:1041700080833DC0803B39F0E0F4803A09F479C097
:10418000883A09F09CCF84E0809360041092310259
:1041900010923002E0911604F09117040995809175
:1041A000300281110FC081E0809330021092100222
:1041B00009C0803C09F4A6CF883C09F4A3CF883B12
:1041C00009F07DCFE091310281E08E0F80933102C2
:1041D000F0E0E05FFD4F80818093BB009091310261
:1041E0008091300229C080913B048093BB0085EC14
:1041F0008093BC0064CF90915D0480915C0498171B
:1042000058F5E0915D0481E08E0F80935D04F0E04D
:10421000E45CFB4F8081E9CFE0915D0481E08E0F8B
:1042200080935D048091BB00F0E0E45CFB4F8083F1
:1042300090915D0480915C049817C8F285E8D8CF0E
:10424000E0915D0481E08E0F80935D048091BB005E
:10425000F0E0E45CFB4F808380915F0481115CCFD0
:1042600081E080933A0484EA8093BC001092600459
:1042700026CF85EC8093BC0010926004809152029E
:10428000803230F4E0915202F0E0EE5CFD4F10829B
:104290006091520270E0E0911404F091150482E301
:1042A00092E00995109252020ACF10925E0434CF28
:1042B000DB0114964D915C9115976D917C91DC0119
:1042C000ED91FC910280F381E02D0994CF92DF9271
:1042D000EF92FF9210928D0410928C0498EEC92EEA
:1042E00093E0D92EE12CF12CC0928E04D0928F0451
:1042F000E0929004F092910485E791E090938B0412
:1043000080938A0485EC90E09093970480939604C0
:1043100084EC90E0909399048093980480EC90E072
:1043200090939B0480939A0481EC90E090939D0479
:1043300080939C0482EC90E090939F0480939E0471
:1043400086EC90E09093A1048093A0041092A304C3
:104350001092A4041092A5041092A604109249058C
:1043600010924805C0924A05D0924B05E0924C0548
:10437000F0924D0587E891E09093470580934605BC
:1043800065ED71E086E795E00E94C90D69ED71E089
:1043900080E795E00E94C90D10926B0510926A05A6
:1043A00010926D0510926C0510926F0510926E05BB
:1043B00010925D0510925C0586E495E090935B0594
:1043C00080935A0580E090E0A0ECBFE7809352050F
:1043D00090935305A0935405B093550580935605CB
:1043E00090935705A0935805B093590510922A054C
:1043F00010922905C0922B05D0922C05E0922D0534
:10440000F0922E0589E991E0909328058093270585
:1044100010923E0510923D051092400510923F0506
:1044200010924205109241051092440510924305E6
:10443000609145056E7F6D7F60934505669561705F
:1044400081E0682782E00E949F0261E082E00E9492
:10445000CD02E0EFF3E0E491E0933705ECEDF3E01B
:10446000E491F0E0EE0FFF1FE053FC4F8591949133
:10447000909339058093380560E083E00E94CD0277
:104480008091450581FD04C061E083E00E949F02A8
:1044900083E080933305E1EFF3E0E491E0933405AA
:1044A000EDEDF3E0E491F0E0EE0FFF1FEA53FC4F77
:1044B000859194919093360580933505FF90EF9008
:1044C000DF90CF900895CF93DF93CDB7DEB72C97D1
:1044D0000FB6F894DEBF0FBECDBF789484B582606E
:1044E00084BD84B5816084BD85B5826085BD85B598
:1044F000816085BD80916E00816080936E00109216
:104500008100809181008260809381008091810090
:104510008160809381008091800081608093800021
:104520008091B10084608093B1008091B00081607F
:104530008093B00080917A00846080937A008091AB
:104540007A00826080937A0080917A008160809303
:104550007A0080917A00806880937A001092C1007E
:10456000E0919A04F0919B0482E08083E0919604AC
:10457000F09197041082E0919804F09199048FECE7
:1045800080831092A204E0919E04F0919F0486E043
:104590008083E0919C04F0919D0480818061808300
:1045A000E0919C04F0919D04808188608083E0917B
:1045B0009C04F0919D04808180688083E0919C043C
:1045C000F0919D0480818F7D80831092420510922E
:1045D00041051092400510923F0510923E05109241
:1045E0003D058DE991E090934405809343059091BA
:1045F0003305963108F047C02DEB30E030933E058F
:1046000020933D052BE931E03093400520933F0591
:104610002CE231E03093420520934105209168005F
:1046200084E0983048F031E09E3008F430E081E0DA
:1046300001C0880F3A95EAF7822B809368002DE637
:1046400030E0983050F02BE630E09E3030F02CE631
:1046500030E0963110F030E020E030933B052093BD
:104660003A05292F30E0983008F0EBC181E001C015
:10467000880F9A95EAF780933C05809143059091C5
:1046800044050197F1F78091410590914205892BEE
:1046900049F1E091BA02F091BB0285E0E732F807F8
:1046A00009F1309739F0A389B4899C918589809567
:1046B00089238C93809145058E7F809345051092C8
:1046C000B9021092B80287E295E09093BB02809302
:1046D000BA02E0913A05F0913B05808190913C054A
:1046E000892B808351E6A52E51E0B52E6DE6E62E8E
:1046F00061E0F62E8501D8018C910E5F1F4F70E0AE
:1047000060E00E940903E016F106A9F78FEF93E03D
:104710000E946F10883581F0482F50E070E060E013
:104720002AE08AE894E00E94740C0E94CB0F68E5AE
:104730008FEF93E00E942B0F49ECC42E42E0D42E61
:10474000F60190E080E0918380839C012F5F3F4FD2
:10475000338322832E5F3F4F358324832D5F3F4F6A
:1047600037832683255F3F4F318720874C963A96C3
:10477000803E910541F784E40E948E0B882309F462
:1047800094C10E94F3096093C3027093C4028093A2
:10479000C5029093C6020E940B0A6093BF027093F9
:1047A000C0028093C1029093C20205E010E06091C4
:1047B000C3027091C4028091C5029091C6029B0110
:1047C000AC010E94132C811149C16091BF0270910C
:1047D000C0028091C1029091C2029B01AC010E9473
:1047E000132C811145C16091C3027091C402809164
:1047F000C5029091C6029B01AC010E94132C81114D
:1048000054C16091BF027091C0028091C102909129
:10481000C2029B01AC010E94132C811146C181E0B0
:104820008093BE0282E090E09093BD028093BC0230
:10483000E9E1F3E080EFDF011D928A95E9F78F014E
:1048400099E5692E91E0792EF12CE12C22E5522E8A
:1048500030E5332E44244394F501819191915F0119
:10486000D8018D939C938E30910508F4BAC10E97B0
:10487000089708F0B8C181E4F8018283D6018D91D0
:104880009C910E946F10F30191913F01882309F4DC
:10489000ACC1D80114968C93F8018481863509F057
:1048A000B5C15482F8019383D60112968D919C91E3
:1048B0000E946F10F8019481913409F0ACC1428ECE
:1048C000D60114968D919C910E946F1090E0F80192
:1048D000948F838FD60116968D909C90B401CE0153
:1048E00001960E9471108D819E81892B09F499C1D6
:1048F000E981FA818081882309F493C1B401CE0152
:1049000007960E9471108B859C8522242394892B05
:1049100039F0EF81F8852224239480818111212CA4
:10492000CE0107960E94820BCE0101960E94820B57
:10493000222009F479C16DED71E0CE0101960E944B
:10494000C90DB701CE0101960E949F0ECE010196BE
:104950000E94820BF60180849184B401CE010196FD
:104960000E9471108D819E81892B09F463C1E981B8
:10497000FA818081882309F45DC1B401CE010796D4
:104980000E9471108B859C8522242394892B39F0F9
:10499000EF81F8852224239480818111212CCE017E
:1049A00007960E94820BCE0101960E94820B222064
:1049B00009F443C16DED71E0CE0101960E94C90D6D
:1049C000B701CE0101960E94A212CE0101960E946B
:1049D000820BD80114968C91813481F0F5013297C5
:1049E000908061E0892D0E94CD02F801638D748D65
:1049F000892D0E940903D8015D964C92BFEFEB1AF6
:104A0000FB0A025E1F4FEAE0CE0ED11CF8E0EF1663
:104A1000F10409F021CF80E0E82E80E0F82E11E0CB
:104A20008AE894E00E945B04181619060CF00BC18A
:104A300010920A048AE894E00E9439040E94031349
:104A4000EFCF9E3040F42850310981E001C0880F3B
:104A50002A95EAF710CE2E503109F7CF0E94F309BC
:104A60006093C3027093C4028093C5029093C60200
:104A70006091BF027091C0028091C1029091C20208
:104A80009B01AC010E94132C882351F00E940B0A59
:104A90006093BF027093C0028093C1029093C202E0
:104AA0000150110909F083CE9ECE88E30E948E0B3F
:104AB000882309F4BDCE64E170E080E090E00E94BC
:104AC000A00380916A0590916B05009711F00E94F8
:104AD000C12C86E090E00E94252C8C0188E3F8012F
:104AE000808386E495E092838183138280E290E064
:104AF0009583848310936B0500936A050E94FD05DE
:104B000081E0D80113968C93C8010E942507882361
:104B100009F48ECE8AEB898341E050E0BE016F5FDD
:104B20007F4F80916A0590916B050E940C08882345
:104B300009F47ECE64E170E080E090E00E94A00382
:104B400081EE898388E08A831B8243E050E0BE01C6
:104B50006F5F7F4F80916A0590916B050E940C08F2
:104B6000882309F465CE8EE595E00E94230A87FF2D
:104B700007C06AE070E080E090E00E94A003F3CFFD
:104B80008EE595E00E94230A83FF52CE86E090E0F6
:104B90000E94252CFC018FE491E09183808380E0CA
:104BA00091E0938382830EE515E015830483F093EF
:104BB0006F05E0936E0586E090E00E94252CFC01D5
:104BC00081E491E09183808381E091E0938382830B
:104BD00015830483F0936D05E0936C0581E090E00C
:104BE00023CE84E449CE8EE447CE963519F4F801FD
:104BF000548252CE963421F4D80114963C924CCE75
:104C00009035A9F3D80114969C9346CE863409F0CA
:104C100049CE348247CE882311F0428E51CE128E77
:104C20004FCE2224239480CEB401CE0101960E945F
:104C3000711087CE22242394B6CEB401CE01019602
:104C40000E947110BDCE87E295E00E947F05181684
:104C500019064CF410930A0487E295E00E9495052A
:104C60000E940313F0CF80E10E946603BC01990FFC
:104C7000880B990B0E94462920E731E640EA5BE366
:104C80000E94A52920E030E54CE556E40E94A529C4
:104C900020E030EE42E955E40E946D2B4B015C01AF
:104CA00023E333E34BE651E40E940E2C181654F034
:104CB0002DEC3CEC4CE151E4C501B4010E943F29CC
:104CC00087FF1AC080910904811104C01093090460
:104CD0000E94201062E370E080E090E00E94A00358
:104CE000E114F10409F49CCE0E946704882309F4BE
:104CF00097CE0E94000094CE10920904EBCF89E970
:104D000091E090932805809327058091BA029091B5
:104D1000BB028752954071F4E0913A05F0913B0552
:104D2000908180913C058095892380831092BB02FD
:104D30001092BA0280915C0590915D05009711F088
:104D40000E94C12C80916C0590916D05009739F0FF
:104D5000DC01ED91FC910280F381E02D09958091B9
:104D60006E0590916F05009739F0DC01ED91FC9193
:104D70000280F381E02D099580E795E00E94820B87
:104D800086E795E00C94820BEF920F931F93CF93DD
:104D9000DF93E80134E047FD34E1042E000C550BAD
:104DA00057FF03C0519541955109E32E022F242F3F
:104DB000AE010E940827CE01DF91CF911F910F9184
:104DC000EF900895FC0188279927E89421912032DB
:104DD000E9F3293010F02E30C8F32B3241F02D3298
:104DE00039F4689404C00E940027820F911D21911C
:104DF00020532A30C0F31EF4909581959F4F08955B
:104E00007AE0979F902D879F802D910D1124089512
:104E1000A9E0B0E0EEE0F7E20C949E2A6A01F22EDF
:104E2000B02E102FFBE3AF2EA01608F41BE31F5F7C
:104E3000012F27E0AE014F5F5F4F0E946728BC0142
:104E40008981982F9970913009F43FC09BE2E1FC71
:104E500004C09E2D9170E0FC3AC05E2D5071E82F89
:104E6000E87083FF46C084E0911101C083E0EF2D1C
:104E7000E81B8F1508F0E0E0D6018E2F20E25523C5
:104E800051F1992329F0D6019C93C60101966C013A
:104E900096012D5F3F4FE2FE24C08EE4D6018C9335
:104EA00091E411969C93119712968C93D9018E2FB1
:104EB00090E281111BC0E20FF32FF11D10828EEFE3
:104EC0009FEF2996ECE00C94BA2A9DE2C6CF90E2BF
:104ED000C4CF2D9381508111FCCFCE0ED11CE0E0C8
:104EE000D0CF8EE6D6018C9391E6DBCF9D93815097
:104EF000E0CF482F447082FF3DC084E0911101C093
:104F000083E08F1510F4EF2DE81BD6018E2F20E2E1
:104F1000552309F1992329F0D6019C93C6010196E6
:104F20006C0196012D5F3F4FE2FE1BC089E4D60164
:104F30008C938EE411968C93119786E412968C9341
:104F4000D9018E2F90E2882309F4B5CF9D9381502B
:104F5000FACF2D9381508111FCCFCE0ED11CE0E011
:104F6000D9CF89E6D6018C938EE611968C93119752
:104F700086E6E4CF9B0177FF02C030E020E0A1E0AD
:104F8000B0E0911102C0B0E0A0E0F9013196AE0F9F
:104F9000BF1F8B2C912CBB2009F461C05401EFEF93
:104FA000AE1ABE0AAA0DBB1DFA161B0619F014F0A4
:104FB0004F2D4A1B511188C0E3FC59C07601A42F24
:104FC000B0E2A1114FC0C40ED11C992309F45BC0FB
:104FD00040E0D6011196F60190836D01552309F446
:104FE00048C0012F060F9A81582F507184FF03C0CB
:104FF000913309F4015010160CF047C0093008F045
:1050000008E0EEE2FE2E5B01A01AB1088501919442
:10501000819491082F3F320729F4D601FC92F601C2
:1050200031966F016217730794F1021713077CF52D
:10503000DB01A21BB30BAA24A394B12CAC0EBD1EA2
:10504000AA0DBB1D11968C9121503109D6011196E4
:1050500028153905F4F0F60180836D01DBCFB12C02
:10506000A12CA0CFF701B1937F01A150AACF91113C
:10507000B0CFD601942F50E302C05D9391509111AF
:10508000FCCFC40ED11C40E0ACCF01E0BACF80E32E
:10509000DBCF6217730731F4963388F4953311F43C
:1050A000552369F0F6018083FD01842F90E2811180
:1050B00008C0A40FB11D1C9290E080E002CF81E3F4
:1050C000F1CF91938150F3CF911183CF8ACF2830C4
:1050D00008F027E03327DA01990F311D87FD916031
:1050E00000966105710539F432602E5F3D9330E31F
:1050F0002A95E1F708959F3F30F0803871056105EA
:1051000009F03C5F3C5F3D93913008F08068911D51
:10511000DF93CF931F930F93FF92EF92192F987FF6
:105120009695E92F96959695E90FFF27EE53FF4F39
:1051300099273327EE24FF24A701E701059008945F
:10514000079428F4360FE71EF81E491F511D660FFD
:10515000771F881F991F0694A1F70590079428F4DC
:10516000E70EF81E491F561FC11D770F881F991F94
:10517000661F0694A1F70590079428F4F80E491FBE
:10518000561FC71FD11D880F991F661F771F0694D2
:10519000A1F70590079420F4490F561FC71FD81F89
:1051A000990F661F771F881F0694A9F784911095A1
:1051B000177041F0D695C79557954795F794E794A2
:1051C0001A95C1F7E8E6F0E06894159015913591CD
:1051D0006591959105907FE27395E118F10A430B73
:1051E000560BC90BD009C0F7E10CF11E431F561F27
:1051F000C91FD01D7EF4703311F48A95E6CFE89470
:10520000015030F0080F0AF40027021708F4202F8D
:105210002395022F7A3328F079E37D932A95E9F7D5
:1052200010C07D932A9589F60694979567953795D2
:1052300017951794E118F10A430B560BC90BD009C7
:1052400098F023957E9173957A3308F070E37C9300
:105250002013B8F77E9170617D9330F0839571E3F0
:105260007D9370E32A95E1F71124EF90FF900F9161
:105270001F91CF91DF91992787FD909508950E9406
:10528000812908F481E00895E89409C097FB3EF471
:1052900090958095709561957F4F8F4F9F4F992383
:1052A000A9F0F92F96E9BB279395F6958795779501
:1052B0006795B795F111F8CFFAF4BB0F11F460FFC1
:1052C0001BC06F5F7F4F8F4F9F4F16C0882311F019
:1052D00096E911C0772321F09EE8872F762F05C02D
:1052E000662371F096E8862F70E060E02AF09A95C8
:1052F000660F771F881FDAF7880F9695879597F9BD
:105300000895990F0008550FAA0BE0E8FEEF161656
:105310001706E807F907C0F012161306E407F507A9
:1053200098F0621B730B840B950B39F40A2661F01D
:10533000232B242B252B21F408950A2609F4A140C0
:10534000A6958FEF811D811D08950E94B8290C94A8
:10535000292A0E941B2A38F00E94222A20F0952335
:1053600011F00C94122A0C94182A11240C945D2A22
:105370000E943A2A70F3959FC1F3950F50E0551F94
:10538000629FF001729FBB27F00DB11D639FAA279A
:10539000F00DB11DAA1F649F6627B00DA11D661FE9
:1053A000829F2227B00DA11D621F739FB00DA11D0A
:1053B000621F839FA00D611D221F749F3327A00DC4
:1053C000611D231F849F600D211D822F762F6A2F60
:1053D00011249F5750409AF0F1F088234AF0EE0FC5
:1053E000FF1FBB1F661F771F881F91505040A9F7F2
:1053F0009E3F510580F00C94122A0C945D2A5F3F69
:10540000E4F3983ED4F3869577956795B795F7952D
:10541000E7959F5FC1F7FE2B880F911D96958795A5
:1054200097F9089597F99F6780E870E060E0089524
:105430009FEF80EC089500240A94161617061806AC
:105440000906089500240A94121613061406050688
:105450000895092E0394000C11F4882352F0BB0F19
:1054600040F4BF2B11F460FF04C06F5F7F4F8F4F7C
:105470009F4F089557FD9058440F551F59F05F3FB7
:1054800071F04795880F97FB991F61F09F3F79F066
:1054900087950895121613061406551FF2CF4695E8
:1054A000F1DF08C0161617061806991FF1CF86956A
:1054B0007105610508940895E894BB27662777274E
:1054C000CB0197F90895F999FECF92BD81BDF89A65
:1054D000992780B50895262FF999FECF1FBA92BD5E
:1054E00081BD20BD0FB6F894FA9AF99A0FBE0196C5
:1054F0000895052E97FB1EF400940E94902A57FDF4
:1055000007D00E94CF2A07FC03D04EF40C94902AB7
:1055100050954095309521953F4F4F4F5F4F0895DF
:1055200090958095709561957F4F8F4F9F4F08950F
:105530002F923F924F925F926F927F928F929F92A3
:10554000AF92BF92CF92DF92EF92FF920F931F9391
:10555000CF93DF93CDB7DEB7CA1BDB0B0FB6F89442
:10556000DEBF0FBECDBF09942A88398848885F8482
:105570006E847D848C849B84AA84B984C884DF80F3
:10558000EE80FD800C811B81AA81B981CE0FD11DD7
:105590000FB6F894DEBF0FBECDBFED010895A1E2B6
:1055A0001A2EAA1BBB1BFD010DC0AA1FBB1FEE1F9D
:1055B000FF1FA217B307E407F50720F0A21BB30BE8
:1055C000E40BF50B661F771F881F991F1A9469F764
:1055D00060957095809590959B01AC01BD01CF01C0
:1055E0000895A29FB001B39FC001A39F700D811DBC
:1055F0001124911DB29F700D811D1124911D0895DC
:105600005058BB27AA270E94182B0C94292A0E94C5
:105610001B2A38F00E94222A20F039F49F3F19F407
:1056200026F40C94182A0EF4E095E7FB0C94122A49
:10563000E92F0E943A2A58F3BA17620773078407C2
:10564000950720F079F4A6F50C945C2A0EF4E09509
:105650000B2EBA2FA02D0B01B90190010C01CA012C
:10566000A0011124FF27591B99F0593F50F4503ED7
:1056700068F11A16F040A22F232F342F4427585FC9
:10568000F3CF469537952795A795F0405395C9F7E1
:105690007EF41F16BA0B620B730B840BBAF0915099
:1056A000A1F0FF0FBB1F661F771F881FC2F70EC038
:1056B000BA0F621F731F841F48F48795779567950B
:1056C000B795F7959E3F08F0B0CF9395880F08F0F7
:1056D0009927EE0F9795879508950E94812B0C943A
:1056E000292A0E94222A58F00E941B2A40F029F4FD
:1056F0005F3F29F00C94122A51110C945D2A0C94EE
:10570000182A0E943A2A68F39923B1F3552391F39A
:10571000951B550BBB27AA2762177307840738F020
:105720009F5F5F4F220F331F441FAA1FA9F335D07D
:105730000E2E3AF0E0E832D091505040E695001C31
:10574000CAF72BD0FE2F29D0660F771F881FBB1FEB
:10575000261737074807AB07B0E809F0BB0B802DC9
:10576000BF01FF2793585F4F3AF09E3F510578F0F5
:105770000C94122A0C945D2A5F3FE4F3983ED4F314
:10578000869577956795B795F7959F5FC9F7880FC9
:10579000911D9695879597F90895E1E0660F771F1B
:1057A000881FBB1F621773078407BA0720F0621BAC
:1057B000730B840BBA0BEE1F88F7E09508950E94D7
:1057C000422A88F09F5798F0B92F9927B751B0F027
:1057D000E1F0660F771F881F991F1AF0BA95C9F775
:1057E00014C0B13091F00E945C2AB1E008950C948D
:1057F0005C2A672F782F8827B85F39F0B93FCCF340
:10580000869577956795B395D9F73EF490958095F1
:10581000709561957F4F8F4F9F4F08950E9481290A
:1058200008F48FEF08950E948129880B990B089541
:105830000E94F12AB7FF0895821B930B0895EE0F83
:10584000FF1F0590F491E02D09940F931F93CF93C0
:10585000DF938230910510F482E090E0E0917E05C4
:10586000F0917F0530E020E0B0E0A0E0309799F4BF
:105870002115310509F44AC0281B390B24303105A4
:10588000D8F58A819B816115710589F1FB019383AC
:105890008283FE0111C0408151810281138148172A
:1058A0005907E0F04817590799F4109761F01296DC
:1058B0000C93129713961C933296CF01DF91CF91E0
:1058C0001F910F91089500937E0510937F05F4CFEB
:1058D0002115310551F04217530738F0A901DB01BA
:1058E0009A01BD01DF01F801C1CFEF01F9CF90931B
:1058F0007F0580937E05CDCFFE01E20FF31F8193DC
:1059000091932250310939832883D7CF20917C0588
:1059100030917D05232B41F4209106013091070140
:1059200030937D0520937C05209104013091050181
:105930002115310541F42DB73EB740910801509132
:105940000901241B350BE0917C05F0917D05E217E0
:10595000F307A0F42E1B3F0B2817390778F0AC0192
:105960004E5F5F4F2417350748F04E0F5F1F50936F
:105970007D0540937C05819391939FCFF0E0E0E01B
:105980009CCFCF93DF930097E9F0FC01329713820D
:105990001282A0917E05B0917F05ED0130E020E0FC
:1059A0001097A1F420813181820F931F20917C05F3
:1059B00030917D052817390709F061C0F0937D0506
:1059C000E0937C05DF91CF910895EA01CE17DF07C0
:1059D000E8F54A815B819E0141155105B1F7E90166
:1059E000FB83EA8349915991C40FD51FEC17FD073A
:1059F00061F4808191810296840F951FE90199835A
:105A00008883828193819B838A83F0E0E0E0129611
:105A10008D919C9113970097B9F52D913C91119719
:105A2000CD010296820F931F20917C0530917D0558
:105A30002817390739F6309751F510927F051092E3
:105A40007E05B0937D05A0937C05BCCFD383C28334
:105A500040815181840F951FC817D90761F44E5FAB
:105A60005F4F88819981480F591F518340838A81F4
:105A70009B81938382832115310509F0B0CFF09388
:105A80007F05E0937E059ECFFD01DC01C0CF138230
:105A90001282D7CFB0E0A0E0E0E5FDE20C949A2AB4
:105AA0008C01009751F4CB010E94252C8C01C80178
:105AB000CDB7DEB7E0E10C94B62AFC01E60FF71F84
:105AC0009C0122503109E217F30708F49DC0D90167
:105AD000CD91DC911197C617D70798F0C530D10545
