:100000000C94FC010C9424020C9424020C94591DB1
:100010000C94591D0C94591D0C9424020C94240228
:100020000C9424020C9424020C9424020C94F51CCD
:100030000C9424020C9424020C9424020C942402A8
:100040000C94531C0C9424020C94C31C0C949D1C03
:100050000C9424020C9424020C9424020C94240288
:100060000C94D11D0C94240200407A10F35A00A085
:10007000724E18090010A5D4E80000E87648170071
:1000800000E40B54020000CA9A3B000000E1F505B1
:10009000000080969800000040420F000000A086FB
:1000A00001000000102700000000E803000000002D
:1000B0006400000000000A000000000001000000D1
:1000C00000002C76D888DC674F0823DFC1DFAE59EB
:1000D000E1B1B796E5E3E453C63AE651997696E87E
:1000E000E6C28426EB898C9B62ED407C6FFCEFBC02
:1000F0009C9F40F2BAA56FA5F490055A2AF75C932D
:100100006B6CF9676DC11BFCE0E40D47FEF520E662
:10011000B500D0ED902E0300943577050080841E45
:10012000080000204E0A000000C80C333333330FA0
:10013000986E12831141EF8D2114893BE65516CF3D
:10014000FEE6DB18D1844B381BF77C1D901DA4BB49
:10015000E424203284725E228100C9F124ECA1E5FE
:100160003D273E524F4B23003E524F4B230023006E
:100170003E0023003E00230024003A003E41542D5F
:10018000506F776572426F783A00230024003A007E
:100190003E41542D506F776572426F783A003E4869
:1001A000455252230023003E0023003E003E4845B6
:1001B000525223003E47455252230023003E002363
:1001C000003E003E474552522300436F6E6669670A
:1001D000204D6F646500456E746572204154204364
:1001E0006F6D6D616E647300506C65617365207531
:1001F0006E7061697220426C7565746F6F746820EF
:100200006669727374004E6F20426C7565746F6F0F
:100210007468206D6F64756C6520666F756E642000
:100220006F7220697420697320706169726564005F
:100230003E554F4B23003E554F4B23003E414F4B05
:1002400023003E414F4B23003E4F4F4B23003E4F78
:100250004F4B23003E4F45525223003E4F455252D2
:1002600023003E4F45525223003E4F455252230039
:100270003E4345525223003E4345525223003E43E3
:100280004F4B23003E434F4B23003E4E4F4B23002A
:100290003E4E4F4B23003E4E45525223003E4E45AC
:1002A00052522300230023003A003A003E003E0051
:1002B0003E5645525223003E5645525223002300DB
:1002C0003E0023003E0023002300310031003E00A9
:1002D0003E0023003E0023003E00230024002300B4
:1002E00024003A003A003A003A003A003A003A0054
:1002F0003A00240024003E003E00230023003E007C
:100300003E003E534F4B23003E534F4B23003E5382
:1003100045525223003E5345525223003E5345520C
:100320005223003E53455252230023002300240051
:1003300024003E003E00230023003E003E003E4DD0
:1003400045525223003E4D45525223003E4D4552E8
:100350005223003E4D455252230023003A003A00FA
:100360003E0023003A003A003E003E4523003E4551
:10037000230023003A003A003E0023003A003A00EE
:100380003E0023003E493A0023003E493A003E46E3
:100390004F4B23003E464F4B23000000000024003B
:1003A00027002A00000000080002010000030407E3
:1003B00000000000000000000000000023002600F4
:1003C000290000000000250028002B00040404047C
:1003D00004040404020202020202030303030303EF
:1003E00001020408102040800102040810200102CC
:1003F00004081020F01E522411241FBECFEFD8E0B5
:10040000DEBFCDBF11E0A0E0B1E0E2E6FDE502C055
:1004100005900D92AE3DB107D9F725E0AEEDB1E004
:1004200001C01D92AD37B207E1F711E0CBEFD1E08B
:1004300004C02197FE010E94CC29CA3FD107C9F709
:100440000E94ED1F0C94A42E0C94000008950895B2
:10045000FC019081909528E030E081E397FF03C094
:10046000990F982701C0990F21503109B9F781815F
:10047000892728E030E091E387FF03C0880F8927B0
:1004800001C0880F21503109B9F70895833081F0F8
:1004900028F4813099F08230A9F008958730A9F0CE
:1004A0008830C9F08430B1F4809180008F7D03C022
:1004B000809180008F7780938000089584B58F7736
:1004C00084BD089584B58F7DFBCF8091B0008F7778
:1004D0008093B00008958091B0008F7DF9CFCF93C5
:1004E000DF93282F30E0F901EC55FC4F8491F9019E
:1004F000E052FC4FD491F901E453FC4FC491CC235A
:10050000A1F081110E944602EC2FF0E0EE0FFF1FD8
:10051000E854FC4FA591B491EC91ED2381E090E07B
:1005200009F480E0DF91CF91089580E090E0FACF68
:100530001F93CF93DF93282F30E0F901EC55FC4F48
:100540008491F901E052FC4FD491F901E453FC4F3E
:10055000C491CC23A9F0162F81110E944602EC2FE2
:10056000F0E0EE0FFF1FEE53FC4FA591B4918FB753
:10057000F894EC91111108C0D095DE23DC938FBF65
:10058000DF91CF911F910895DE2BF8CFCF93DF93AA
:1005900090E0FC01E052FC4F249184539C4FFC01FD
:1005A00084918823C9F090E0880F991FFC01E656DA
:1005B000FC4FA591B491FC01EE53FC4FC591D49131
:1005C00061110DC09FB7F8948C91209582238C9374
:1005D0008881282328839FBFDF91CF9108956230BF
:1005E00051F49FB7F8943C91822F809583238C938C
:1005F000E8812E2BEFCF8FB7F894EC912E2B2C9314
:100600008FBFEACF1F93CF93DF93182FEB0161E0E9
:100610000E94C602209739F460E0812FDF91CF91CC
:100620001F910C949802CF3FD10511F461E0F5CFF2
:10063000E12FF0E0EC55FC4FE491E33031F140F470
:10064000E130B1F0E230E1F0C038D1057CF7E4CF21
:10065000E73029F1E83059F1E430B1F780918000BA
:10066000806280938000D0938B00C0938A0004C086
:1006700084B5806884BDC7BDDF91CF911F91089577
:1006800084B5806284BDC8BDF7CF8091800080684A
:1006900080938000D0938900C0938800EDCF809133
:1006A000B00080688093B000C093B300E5CF809124
:1006B000B00080628093B000C093B400DDCF8E3074
:1006C00008F08E508770806480937C0080917A005F
:1006D000806480937A0080917A0086FDFCCF8091BF
:1006E00078009091790008953FB7F89480910004C4
:1006F00090910104A0910204B091030426B5A89B37
:1007000005C02F3F19F00196A11DB11D3FBFBA2FA3
:10071000A92F982F8827BC01CD01620F711D811D63
:10072000911D42E0660F771F881F991F4A95D1F7E8
:1007300008958F929F92AF92BF92CF92DF92EF92E5
:10074000FF924B015C010E9474036B017C010E94CB
:1007500074036C197D098E099F09683E73408105F9
:100760009105A8F321E0821A9108A108B10888EE4A
:10077000C80E83E0D81EE11CF11C81149104A10471
:10078000B10429F7FF90EF90DF90CF90BF90AF902A
:100790009F908F900895DC01ED91FC910190F08184
:1007A000E02D0994DB0114964D915C9115976D91A4
:1007B0007C91DC01ED91FC910280F381E02D0994A4
:1007C000EF92FF920F931F93CF93DF938C017B01E6
:1007D000D0E0C0E0F701EC0FFD1F6491662361F0EB
:1007E000D801ED91FC910190F081E02DC8010995AF
:1007F000892B11F02196EECFCE01DF91CF911F9181
:100800000F91FF90EF900895AF92BF92CF92DF9239
:10081000EF92FF920F931F93CF93DF936C017B01B5
:100820008B01040F151FEB015E01AE18BF08C01746
:10083000D10759F06991D601ED91FC910190F081B9
:10084000E02DC6010995892B79F7C501DF91CF917C
:100850001F910F91FF90EF90DF90CF90BF90AF90DE
:100860000895FC01538D448D252F30E0842F90E0B6
:10087000821B930B541710F0CF960895019708959B
:10088000FC01918D828D981761F0A28DAE0FBF2F64
:10089000B11D5D968C91928D9F5F9F73928F90E0BA
:1008A00008958FEF9FEF0895FC01918D828D981729
:1008B00031F0828DE80FF11D858D90E008958FEF66
:1008C0009FEF0895FC01918D228D892F90E0805C2F
:1008D0009F4F821B91098F739927089587E894E0B1
:1008E0000E94620421E0892B09F420E0822F089500
:1008F00080E090E0892B29F00E946E0481110C9415
:1009000000000895FC01A48DA80FB92FB11DA35AB2
:10091000BF4F2C91848D90E001968F739927848F1F
:10092000A689B7892C93A089B1898C918370806442
:100930008C93938D848D981306C00288F389E02DE3
:1009400080818F7D80830895EF92FF920F931F9394
:10095000CF93DF93EC0181E0888F9B8D8C8D981372
:100960001AC0E889F989808185FF15C09FB7F8947E
:10097000EE89FF896083E889F989808183708064CA
:1009800080839FBF81E090E0DF91CF911F910F9115
:10099000FF90EF900895F62E0B8D10E00F5F1F4F24
:1009A0000F731127E02E8C8D8E110CC00FB607FC33
:1009B000FACFE889F989808185FFF5CFCE010E94C1
:1009C0008204F1CFEB8DEC0FFD2FF11DE35AFF4FA9
:1009D000F0829FB7F8940B8FEA89FB89808180624F
:1009E000CFCFCF93DF93EC01888D8823B9F0AA890C
:1009F000BB89E889F9898C9185FD03C0808186FDDA
:100A00000DC00FB607FCF7CF8C9185FFF2CF808128
:100A100085FFEDCFCE010E948204E9CFDF91CF9117
:100A200008952091AC023091AD022817390771F476
:100A30009091AA028091AB02981741F0E091AA022E
:100A4000F0E0EB5BFD4F808190E008958FEF9FEF2A
:100A500008950895EF92FF920F931F93CF93DF9322
:100A6000DC015C96ED90FC905D97E114F10479F463
:100A700081E090E013969C938E93129790E080E033
:100A8000DF91CF911F910F91FF90EF9008955196B4
:100A9000ED91FC91529750968C915097982F90958C
:100AA0000FB75E962C915E97122F127021FD609504
:100AB000F8942081112319F1282B2083E701219735
:100AC000F1F728E0462F50E0308160FF1AC0382B44
:100AD0003083E7012197F1F7BA01759567952150A9
:100AE00089F7112381F08081892380830FBF5C9671
:100AF0008D919C910197F1F781E090E0C1CF29237E
:100B0000DCCF3923E5CF9081892BEFCF2091AC0248
:100B10003091AD022817390761F48091AB02209122
:100B2000AA0290E0805C9F4F821B91098F739927E6
:100B3000089590E080E008952091AC023091AD02DC
:100B400028173907B9F49091AA028091AB0298173F
:100B500089F0E091AA02F0E0EB5BFD4F80812091EB
:100B6000AA0230E02F5F3F4F2F7333272093AA0252
:100B700090E008958FEF9FEF0895089508952091D4
:100B80002202260F3327331F21323105ECF4209146
:100B90005D04FC0190E080E0243069F082E008957B
:100BA000A09122022191AC014E5F5D4FA40FB52FA1
:100BB000B11D2C930196861798F380912202680F3D
:100BC0006093220280E0089581E0089510925D0410
:100BD00081E080935C041092370461E082E10E941E
:100BE000980261E083E10E949802E9EBF0E08081E5
:100BF0008E7F808380818D7F808388E48093B8009E
:100C000085E48093BC000895109216041092150498
:100C100010926404109286040E94E60586E292E037
:100C2000909314048093130487E292E0909312044B
:100C3000809311040895CF93DF9391E09093010284
:100C40008823B9F0C091B800D091BA008091BC005F
:100C50008A7B8093BC0060E082E10E94980260E0A1
:100C600083E10E9498020E94E605D093BA00C093E7
:100C7000B800DF91CF9108958F929F92AF92BF926B
:100C8000CF92DF92EF92FF920F931F93CF93DF9358
:100C9000D0918604D13208F0D7C0182FC0918504B6
:100CA0000E9474036B017C0180915D0481116BC013
:100CB00082E080935D0410935C048FEF80935B046B
:100CC00010925A04D0935904A5E6B4E0E9E3F4E0A5
:100CD00080E0D81391C01092380480913804CC0F72
:100CE000C82BC093380480913704813009F088C044
:100CF000109237040E9474036B017C0180913804C8
:100D00008093BB0080915F0490916004A091610486
:100D1000B0916204892B8A2B8B2BA1F00E94740363
:100D200000915F041091600420916104309162048D
:100D30006C197D098E099F090617170728073907BF
:100D400008F442C08091BC0083FDD8CF85EC80932D
:100D5000BC000E9474036B017C0180915D048230B1
:100D600009F450C080915B048F3F09F46FC08091FB
:100D70005B04803209F46CC080915B04803309F419
:100D800069C084E026C080915F0490916004A091C6
:100D90006104B0916204892B8A2B8B2B09F484CFD8
:100DA0000E94740380905F0490906004A09061049E
:100DB000B09062046C197D098E099F09861697060A
:100DC000A806B90608F070CF80915E040E941B0649
:100DD00085E0109264041092860410926304DF91FF
:100DE000CF911F910F91FF90EF90DF90CF90BF9028
:100DF000AF909F908F9008959D9191938F5F69CF51
:100E000085EEA5CF80915F0490916004A09161046C
:100E1000B0916204892B8A2B8B2B09F49ECF0E9400
:100E2000740300915F04109160042091610430917B
:100E300062046C197D098E099F0906171707280798
:100E4000390708F08ACFC0CF81E0C3CF80E0C1CF9F
:100E500082E0BFCF83E0BDCFCF93DF93EC018B81E6
:100E60008823A1F0888191E09093630480938504A6
:100E7000109264041092860481E00E943C0691E086
:100E8000811190E0892FDF91CF9108950E9404068F
:100E900081E08B83CE010E942C07982F8111E2CF35
:100EA000F1CFE091160480911504E81730F4F0E0DA
:100EB000E95EFB4F808190E008958FEF9FEF0895EA
:100EC00090911604809115042FEF3FEF981748F486
:100ED000E92FF0E0E95EFB4F208130E09F5F9093C7
:100EE0001604C90108958091150490911604891B78
:100EF000990B0895CF92DF92EF92FF920F931F9379
:100F0000CF93DF937C01CB018A01209163042223DC
:100F100089F0EB016B01C40ED51ECC15DD0569F01F
:100F20006991D701ED91FC910190F081E02DC7010D
:100F30000995F3CF642F0E94BF05C801DF91CF91BF
:100F40001F910F91FF90EF90DF90CF900895CF9376
:100F5000DF931F92CDB7DEB769832091630422230C
:100F6000F9F020918604203258F021E030E0FC01B5
:100F70003383228390E080E00F90DF91CF9108953A
:100F800080916404E82FF0E0EB59FB4F9981908346
:100F90008F5F809364048093860481E090E0ECCFBF
:100FA00061E0CE0101960E94BF05F7CF90E080E09E
:100FB00008950F931F93CF93DF932EE1269FA001F7
:100FC000279F500D1124475F5C4F30E020E0FA016D
:100FD000E20FF31F108A2F5F3F4F2A303105B9F718
:100FE000DC011496ED91FC91C9E0D0E0E930F10507
:100FF00008F4EF0130E020E02C173D07C4F42E1771
:101000003F0740F4DC010D911C91D801A20FB31FE2
:10101000012B21F41092DE01AEEDB1E01C91DA015A
:10102000A20FB31F50961C932F5F3F4FE5CF8EE169
:10103000869FF001879FF00D1124E75FFC4FEC0FB6
:10104000FD1F108ADF91CF911F910F9108950F938B
:101050001F93CF93DF932EE1269FA001279F500D72
:101060001124475F5C4F30E020E0FA01E20FF31FEC
:1010700015822F5F3F4F2B303105B9F7DC011496F5
:10108000ED91FC91CAE0D0E0EA30F10508F4EF01FF
:1010900030E020E02C173D07C4F42E173F0740F442
:1010A000DC010D911C91D801A20FB31F012B21F47B
:1010B0001092DE01AEEDB1E01C91DA01A20FB31F78
:1010C00015961C932F5F3F4FE5CF8EE1869FF00171
:1010D000879FF00D1124E75FFC4FEC0FFD1F158279
:1010E000DF91CF911F910F910895CF93DF93DC0192
:1010F00014962D913C912417350710F490E01EC0F2
:10110000EA01FC0181819281208131E03093630406
:10111000209385041092640410928604DC01ED9102
:10112000FC910280F381E02D0995C817D90731F7AA
:1011300081E00E943C0691E08111E0CF892FDF9190
:10114000CF910895CF93DF9300D0CDB7DEB79983C9
:101150008A8342E050E0BE016F5F7F4F8091590566
:1011600090915A050E9475080F900F90DF91CF91D2
:1011700008952F923F924F925F926F927F928F923B
:101180009F92AF92BF92CF92DF92EF92FF920F9316
:101190001F93CF93DF935C011B016A01F12CE12CBB
:1011A000D50114968D919C9186010E191F09801707
:1011B000910708F48C01F501D0810E9474032B0182
:1011C0003C0180915D04811172C0C02F013208F092
:1011D000C0E2F1E0F0935D0421E0C601801B910BB9
:1011E000E816F90608F420E020935C048FEF809362
:1011F0005B0410925A048C0F80935904A1E0A093D1
:10120000380480913804DD0FD82BD09338048091B6
:101210003704813009F090C0109237040E947403A3
:101220002B013C01809138048093BB0080915F04C6
:1012300090916004A0916104B0916204892B8A2B83
:101240008B2BA1F00E94740320915F043091600405
:1012500040916104509162046419750986099709E7
:10126000261737074807590708F442C08091BC0089
:1012700083FDD8CFB5ECB093BC000E9474032B0162
:101280003C0180915D04813009F45AC080915A0478
:101290008C1710F4C0915A04A9E3B4E0E7E1F4E03C
:1012A00080E08C1751F19D9191938F5FFACF8091DF
:1012B0005F0490916004A0916104B0916204892B55
:1012C0008A2B8B2B09F47DCF0E94740320915F043D
:1012D0003091600440916104509162046419750971
:1012E00086099709261737074807590708F069CF75
:1012F00080915E040E941B06C0E010921604C09309
:101300001504C017110609F057C041018E0C9F1C2F
:10131000E401CE01881999098017910798F5D50144
:1013200011968D919C91DC01ED91FC910284F385E5
:10133000E02D09958993EDCFE5EEE093BC009DCFBC
:1013400080915F0490916004A0916104B091620467
:10135000892B8A2B8B2B09F494CF0E947403209144
:101360005F043091600440916104509162046419FB
:10137000750986099709261737074807590708F09E
:1013800080CFB6CFE00EF11EEC14FD0408F408CFB8
:1013900081E0DF91CF911F910F91FF90EF90DF904F
:1013A000CF90BF90AF909F908F907F906F905F9005
:1013B0004F903F902F90089580E0EBCF0F931F93B5
:1013C000CF93DF9300D000D000D0CDB7DEB764E17B
:1013D00070E080E090E00E94990346E050E0BE019A
:1013E0006F5F7F4F8091590590915A050E94B9080F
:1013F000182F882309F452C00B81CE0101960E9458
:101400002802081357C00E81CE0104960E942802BC
:10141000081350C029813A81322723273227A7E1B8
:10142000B1E10E94A5282EE095958795779567955F
:101430002A95D1F764597141810991090E941927B0
:1014400020E030E048EC52E40E94212960935305EB
:101450007093540580935505909356052C813D81DA
:10146000322723273227A1E7B2E00E94A5283CE0DB
:1014700096958795779567953A95D1F70E941727A6
:1014800020E030E048EC52E40E94212960934F05AF
:10149000709350058093510590935205812F2696A5
:1014A0000FB6F894DEBF0FBECDBFDF91CF911F9175
:1014B0000F91089510E0F2CF80E094E20E94A2081C
:1014C000811105C060E070E080EC9FE708950E9404
:1014D000DE098823B9F3609153057091540580911A
:1014E000550590915605089580E094E20E94A20867
:1014F000811105C060E070E080EC9FE708950E94D4
:10150000DE098823B9F360914F05709150058091F1
:101510005105909152050895CF93DF931F92CDB757
:10152000DEB741E050E0BE016F5F7F4FFC01848574
:1015300095850E94B908882329F089810F90DF9151
:10154000CF9108958FEFFACFCF92DF92EF92FF9273
:101550000F931F93CF93DF93CDB7DEB78B01CDB63B
:10156000DEB69B012F5F3F4F6DB77EB7621B730BDB
:101570000FB6F8947EBF0FBE6DBF2DB73EB72F5F7D
:101580003F4F7901BC016C5F7B4FC9010E94C42BA6
:10159000F701E00FF11F1082C7010E94B5240FB6BA
:1015A000F894DEBE0FBECDBEDF91CF911F910F919B
:1015B000FF90EF90DF90CF9008950F931F93CF93FC
:1015C000DF938C01EB0188E2FB0111928A95E9F728
:1015D0004BE050E063EA71E0CE010E94C42B1B8611
:1015E00081E090E0A0E0B0E08C879D87AE87BF8768
:1015F000F80182819381092E000CAA0BBB0B888B0A
:10160000998BAA8BBB8B8DE090E0A0E0B0E08C8B37
:101610009D8BAE8BBF8B1CA21DA21EA21FA280E0C1
:1016200090E0A0E2B2EC8C8F9D8FAE8FBF8F80E0F8
:1016300090E0AAEAB2E4888F998FAA8FBB8F8AE9DB
:1016400099E9A9E9BEE388A399A3AAA3BBA3DF9163
:10165000CF911F910F9108950F931F93CF93DF9315
:101660008C01EB0188E2FB0111928A95E9F74BE0CE
:1016700050E06BEA71E0CE010E94C42B1B8681E032
:1016800090E0A0E0B0E08C879D87AE87BF87F8012F
:1016900082819381092E000CAA0BBB0B888B998B3E
:1016A000AA8BBB8B8CE090E0A0E0B0E08C8B9D8B94
:1016B000AE8BBF8B1CA21DA21EA21FA21C8E1D8E54
:1016C0001E8E1F8E80E090E0A8ECB2E4888F998F88
:1016D000AA8FBB8F80E090E0A0E0B0E488A399A33C
:1016E000AAA3BBA3DF91CF911F910F9108954F92B1
:1016F0005F926F927F92AF92BF92CF92DF92EF9202
:10170000FF920F931F93CF93DF93CDB7DEB7299747
:101710000FB6F894DEBF0FBECDBF8C017B016A010E
:101720008FB7F8944090FC035090FD036090FE0347
:101730007090FF038FBF8091060190910701A091E7
:1017400008018F839887A98743E050E0BE01695F55
:101750007F4FD8011C968D919C910E947508811134
:1017600017C0B12C8B2D29960FB6F894DEBF0FBE93
:10177000CDBFDF91CF911F910F91FF90EF90DF9040
:10178000CF90BF90AF907F906F905F904F900895F3
:10179000C8010E948C0A87FF07C06AE070E080E001
:1017A00090E00E949903F4CF46E050E0BE016F5FE5
:1017B0007F4FF801848595850E94B908B82E88234B
:1017C00081F26A817B81762767277627CB01B0E09B
:1017D000A0E09C01AD0184E0220F331F441F551F80
:1017E0008A95D1F7AC808A2D90E064E09595879535
:1017F0006A95E1F7092E000CAA0BBB0BBC01CD01C9
:10180000622B732B842B952B0E94172720E030E04E
:1018100048EC52E40E94782720E030E040E855E3AD
:101820000E947827D80114966D937D938D939C9395
:1018300017976A2D6F7070E090E080E0982F872FE7
:10184000762F66272D81622B982F872F762F66277C
:101850002E81622B0E94172720E030E048E453E4F9
:101860000E94782720E030E040E855E30E94782786
:1018700020E030E048E452E40E94B428F80160839C
:10188000718382839383C114D10481F1F60134966C
:1018900080E2DF011D928A95E9F784E290E0A0E002
:1018A000B0E0F60180839183A283B383D8011A96B6
:1018B0008D919C91B0E0A0E084839583A683B7834B
:1018C0008DE090E0A0E0B0E080879187A287B387A9
:1018D000408A518A628A738AF80180819181A2814B
:1018E000B381F601848B958BA68BB78BE114F10441
:1018F00009F438CFF701349680E2DF011D928A9512
:10190000E9F784E290E0A0E0B0E0F7018083918302
:10191000A283B383D80118968D919C91B0E0A0E08A
:1019200084839583A683B7838DE090E0A0E0B0E048
:1019300080879187A287B387408A518A628A738A97
:10194000F80184819581A681B781F701848B958BFD
:10195000A68BB78B07CFAB0170E060E0FC01848100
:1019600095810E94770B81E0089550E040E0FC01F2
:10197000848195810E94770B81E008950C946E2AF2
:10198000FC0180819181009711F00C946E2A0895DA
:101990000C946E2AFF920F931F93CF93DF9300D086
:1019A0001F92CDB7DEB7F82E62E082E10E94C60238
:1019B00061E083E10E94C60209E010E061E083E19A
:1019C0000E94980265E070E080E090E00E94990338
:1019D00060E083E10E94980265E070E080E090E0C2
:1019E0000E9499030150110949F70E94040660E022
:1019F00082E10E94C60260E083E10E94C60282E1A9
:101A00000E946F02892B11F480E05AC083E10E948A
:101A10006F02892BC9F381E080936304F0928504FF
:101A200010926404109286040E943C068111ECCF4F
:101A30008091590590915A05009711F00E946E2AE5
:101A400086E090E00E94D2298C0180915705909108
:101A50005805F801F08292838183138280E290E03E
:101A60009583848310935A05009359050E940406B8
:101A700081E0F8018383C8010E942C07882321F2AA
:101A800082EA90E30E94A2086AE070E080E090E0C1
:101A90000E9499038DE293EF0E94A20843E050E078
:101AA000BE016F5F7F4F8091590590915A050E944A
:101AB000B90829813A8181E02F3F3F4F09F4A4CF33
:101AC0000F900F900F90DF91CF911F910F91FF908A
:101AD00008950F931F93CF93DF93EC018881998131
:101AE000009759F02A813B812617370730F081E0B3
:101AF000DF91CF911F910F9108958B016F5F7F4F01
:101B00000E94F72A009759F0998388831B830A83E0
:101B10002C813D81232B59F7FC011082E8CF80E016
:101B2000E7CFFB0101900020E9F73197AF01461B99
:101B3000570BDC01ED91FC910280F381E02D0994BB
:101B4000CF93DF93BC0187E894E00E94E003EC01AF
:101B500063EB71E087E894E00E94910D8C0F9D1F6C
:101B6000DF91CF9108958F929F92AF92BF92EF92A3
:101B7000FF920F931F93CF93DF93CDB7DEB7A1975B
:101B80000FB6F894DEBF0FBECDBF7C01FA01CB01CA
:101B900019A2223008F42AE08E010F5D1F4F822E19
:101BA000912CB12CA12CBF01A50194010E94832886
:101BB000F901CA016A300CF5605DD8016E938D01A0
:101BC000232B242B252B79F790E080E0109721F030
:101BD000BD01C7010E94910DA1960FB6F894DEBF1A
:101BE0000FBECDBFDF91CF911F910F91FF90EF906E
:101BF000BF90AF909F908F900895695CDECFCF9299
:101C0000DF92EF92FF920F931F93CF93DF936B01BD
:101C1000770FEE08FF08F7FE1BC0EC016DE20E9493
:101C2000CB038C0144275527BA014C195D096E0975
:101C30007F092AE0CE010E94B30D800F911FDF9132
:101C4000CF911F910F91FF90EF90DF90CF9008956B
:101C50002AE0B701A601DF91CF911F910F91FF906C
:101C6000EF90DF90CF900C94B30D8F929F92AF9234
:101C7000BF92CF92DF92EF92FF920F931F93CF9379
:101C8000DF93EC016A017B01AB019601CB01B60148
:101C90000E94C72966EB71E0811126C046015701F9
:101CA000E894B7F82FEF3FEF4FE75FE7C501B401C6
:101CB0000E94C72981110CC02FEF3FEF4FE75FE76C
:101CC000C501B4010E9412276AEB71E0181664F096
:101CD0002FEF3FEF4FE75FE4C701B6010E94C22933
:101CE00018168CF46EEB71E0CE01DF91CF911F914D
:101CF0000F91FF90EF90DF90CF90BF90AF909F90AB
:101D00008F900C94910D2FEF3FEF4FE75FECC701E1
:101D1000B6010E94122787FDE5CF20E030E0A9013F
:101D2000C701B6010E94122710E000E087FF09C03A
:101D30006DE2CE010E94CB038C01F7FAF094F7F824
:101D4000F0942AE037ED43EA5BE3C701B6010E9455
:101D5000B5286B017C010E9493294B015C010E9414
:101D600017279B01AC01C701B6010E94B4286B0183
:101D70007C012AE0B501A401CE010E94B30D080F39
:101D8000191F6EE2CE010E94CB03080F191F20E03D
:101D900030E040E251E4C701B6010E9478274B01D0
:101DA0005C010E9493296B01F12CE12C2AE0B70120
:101DB000A601CE010E94B30D080F191FC701B6017D
:101DC0000E9417279B01AC01C501B4010E94B428F1
:101DD00020E030E040E251E40E9478270E949329FD
:101DE000AB0170E060E02AE0CE010E94B30D800FED
:101DF000911FDF91CF911F910F91FF90EF90DF9096
:101E0000CF90BF90AF909F908F9008950C94910DBC
:101E1000EF92FF920F931F93CF93DF93EC017B011F
:101E2000198218821B821A821D821C82FB0101907A
:101E30000020E9F731978F01061B170BB8010E94AC
:101E4000690D28813981811113C02115310519F0DF
:101E5000C9010E946E2A198218821D821C821B826F
:101E60001A82DF91CF911F910F91FF90EF9008950B
:101E70001D830C83B701C901DF91CF911F910F9191
:101E8000FF90EF900C94BD2B85ED8093BC0080916A
:101E90005F0490916004A0916104B0916204079680
:101EA000A11DB11D23E0B695A795979587952A9515
:101EB000D1F72091BC0024FD03C010925D04089569
:101EC00040915F04509160046091610470916204DC
:101ED000452B462B472B69F30097A105B10541F02F
:101EE0002AE22A95F1F700C00197A109B109E1CFD3
:101EF00080915E040C941B060C943E288F929F9256
:101F0000AF92BF92CF92DF92EF92FF920F931F9307
:101F1000CF93DF937B016A01FC0101900020E9F778
:101F200031978F01081B190B4C01D0E0C0E05A011A
:101F300081E0A81AB108C017D10769F0CA15DB05FE
:101F400050F4F40161914F01C7018C0F9D1F0E9455
:101F50007C0F2196F0CFCC15DD0540F460E0C70181
:101F60008C0F9D1F0E947C0F2196F5CFDF91CF91A2
:101F70001F910F91FF90EF90DF90CF90BF90AF90A7
:101F80009F908F900895CF93DF93D0E0C0E060E002
:101F9000CE010E947C0F2196C11582E0D807B9F7C7
:101FA00060E088EE93E00E947C0F60E089EE93E0B1
:101FB0000E947C0F61E08AEE93E00E947C0F6EE04D
:101FC0008BEE93E00E947C0F60E08CEE93E00E9429
:101FD0007C0F60E08DEE93E00E947C0F60E08FEF5D
:101FE00093E00E947C0F8091FA03882341F062E61F
:101FF00071E084E295E0DF91CF910C94E00368E614
:1020000071E087E894E0F7CF1F93CF93DF93EC0163
:10201000162F0E943628181739F0612FCE01DF9154
:10202000CF911F910C943E28DF91CF911F9108957D
:10203000DF92EF92FF920F931F93CF93DF93D82EEF
:10204000CDE5D1E089EBE82E82E0F82E09E013E03F
:102050008881229670E060E00E94020360E0F70150
:10206000828193810E94041060E0F7018481958150
:102070000E940410F801148E138E128EFAE0EF0EF7
:10208000F11C025E1F4F81E0C936D80709F7DD2039
:10209000B1F08091FA03882369F06EE873E084E27E
:1020A00095E0DF91CF911F910F91FF90EF90DF901E
:1020B0000C94E00364E973E087E894E0F2CFDF91E9
:1020C000CF911F910F91FF90EF90DF9008950C94A6
:1020D0003628AF92BF92CF92DF92EF92FF920F938A
:1020E0001F93CF93DF9300D0CDB7DEB78C017B0178
:1020F000FC0111821082138212821582148270E018
:1021000060E00E94690DF8012081318181114BC08E
:102110002115310519F0C9010E946E2AF8011182BA
:10212000108215821482138212825701F2E3AF0EDD
:10213000B11CE11484E0F80644F5C7010E9436287A
:10214000882319F189831A82F801C480D580FFEFB2
:10215000CF1ADF0AB601C8010E94690D882379F001
:10216000F8012081318184819581BE016F5F7F4FAD
:10217000820F931F0E94BD2BF801D582C482FFEF0E
:10218000EF1AFF0AEA14FB04A1F6C8010F900F90A2
:10219000DF91CF911F910F91FF90EF90DF90CF9043
:1021A000BF90AF9008951582148265EB71E0C9016C
:1021B0000E94BD2BBACF2F923F924F925F926F92A7
:1021C0007F928F929F92AF92BF92CF92DF92EF92C7
:1021D000FF920F931F93CF93DF9300D000D0CDB722
:1021E000DEB78C0108974CF107EF11E022E044E0E4
:1021F00060E070E0CB010E9497240DEE11E022E038
:1022000044E060E070E0CB010E9497240F900F90B3
:102210000F900F90DF91CF911F910F91FF90EF9052
:10222000DF90CF90BF90AF909F908F907F906F90F6
:102230005F904F903F902F9008958EE1809FF00126
:10224000819FF00D1124E75FFC4F858D882361F29B
:10225000C801880F991F9B838A83FC01EB5BFE4FAB
:10226000E080F18095E1E916F10409F4BDCFEFEFCC
:10227000EE16FE0661F061E08E2D0E94C602EA8134
:10228000FB81EB5CFE4F60818E2D0E94980280E105
:102290000E945F03BC01990F880B990B0E941927BC
:1022A00020E731E640EA5BE30E94782720E030E552
:1022B0004CE556E40E94782720E030EE42E955E4F0
:1022C0000E9421296B017C0181E10E945F03BC0116
:1022D000990F880B990B0E94192720E731E640EAF5
:1022E0005BE30E94782728E539E340E250E40E944E
:1022F000B4282CE437E349E85DE30E9421294B012F
:102300005C0120E030E0A9010E94122787FF03C092
:10231000812C912C54012AE939E949E95EE3C50190
:10232000B4010E94B5284B015C018EE1809FF00151
:10233000819FF00D1124E75FFC4F848102E310E0E0
:10234000803509F060C0412C512C612C712C8A81A0
:102350009B81875F9E4FFC01F081F98389810E94F8
:102360005F03BC01990F880B990B0E9419271B0171
:102370008C839A839201A3010E94C22918161CF42F
:1023800021016C807A8061E070E080E090E00E9442
:1023900099030150110911F72AE038E240EA5BE3A2
:1023A000B201C3010E94782720E030E54AEA55E4F3
:1023B0000E94782720E030EC4CE854E40E94212968
:1023C0002B013C0120E030E0A9010E94122787FF89
:1023D00003C0412C512C320103EE11E022E044E015
:1023E000C501B4010E94972407EF11E022E044E008
:1023F000C701B6010E9497240DEE11E022E044E0EF
:10240000C301B20101CF412C512C32018A819B8141
:10241000875F9E4FFC01F081F98389810E945F03F1
:10242000BC01990F880B990B0E9419279B01AC01E5
:10243000C301B2010E94B5282B013C0161E070E0AC
:1024400080E090E00E9499030150110931F720E0EB
:1024500030E048E452E4C301B2010E9421292AE09D
:1024600038E240EA5BE39ECF0F931F93CF93DF9355
:10247000CDB7DEB76E970FB6F894DEBF0FBECDBFF7
:102480002DEE31E03F932F9327EF31E03F932F93D1
:102490002EE1289FF001299FF00D1124E75FFC4FEA
:1024A000848D8F93838D8F93828D1F928F9382EC77
:1024B00091E09F938F938E010F5F1F4F1F930F9398
:1024C0000E94032C0FB6F894DEBF0FBECDBF8091E3
:1024D000FA03B801882379F084E295E00E94060FA0
:1024E0006E960FB6F894DEBF0FBECDBFDF91CF91D1
:1024F0001F910F91089587E894E0F0CF7F928F921B
:102500009F92AF92BF92CF92DF92EF92FF920F9382
:102510001F93CF93DF93CDB7DEB7C854D1090FB661
:10252000F894DEBF0FBECDBF8332D9F08E3341F1B8
:102530008D3011F00C943D1CC85BDF4F0FB6F89442
:10254000DEBF0FBECDBFDF91CF911F910F91FF90E6
:10255000EF90DF90CF90BF90AF909F908F907F9043
:102560000895E4E0F4E0A091E101B091E201AC5FF4
:10257000BB4F1C9280910404813539F40E94C30F33
:102580001092E2011092E101D7CF843509F0B2C177
:102590008091AE029091AF022091B002222309F403
:1025A0001FC1029769F78090B5029090B602A09083
:1025B000B702B090B802C090B102D090B202E090E1
:1025C000B302F090B4020E945C0A6093B50270936B
:1025D000B6028093B7029093B8020E94740A609387
:1025E000B1027093B2028093B3029093B40205E0FB
:1025F00010E06091B5027091B6028091B70290919F
:10260000B8029B01AC010E94C72981110EC06091E4
:10261000B1027091B2028091B3029091B4029B0119
:10262000AC010E94C7298823E9F00E945C0A6093EC
:10263000B5027093B6028093B7029093B8020E94DD
:10264000740A6093B1027093B2028093B3029093C4
:10265000B4026AE070E080E090E00E9499030150CB
:10266000110939F66091B5027091B6028091B702F6
:102670009091B8029B01AC010E94C72981110EC044
:102680006091B1027091B2028091B3029091B40254
:102690009B01AC010E94C729882381F08092B5027A
:1026A0009092B602A092B702B092B802C092B10264
:1026B000D092B202E092B302F092B4022091B10241
:1026C0003091B2024091B3025091B40260E070E0E8
:1026D00088EC92E40E94B42820E030E040EA50E424
:1026E0000E9421299B01AC016091B5027091B60254
:1026F0008091B7029091B8020E94B4286B017C01CE
:102700008091FA038823B9F160E873E084E295E0F0
:102710000E94E0034091B5025091B6026091B70269
:102720007091B80284E295E00E94350E6EE773E086
:1027300084E295E00E94E0034091B1025091B20220
:102740006091B3027091B40284E295E00E94350E6C
:102750006CE773E084E295E00E94E003B701A60114
:1027600084E295E00E94350E6AE773E084E295E02A
:102770000E94E00305CF68E773E087E894E00E94D9
:10278000E0034091B5025091B6026091B70270919A
:10279000B80287E894E00E94350E66E773E087E8A8
:1027A00094E00E94E0034091B1025091B202609126
:1027B000B3027091B40287E894E00E94350E64E79A
:1027C00073E087E894E00E94E003B701A60187E880
:1027D00094E00E94350E62E773E087E894E0C8CF8A
:1027E000019709F07EC0AE014F5F5F4FBE016B5D88
:1027F0007F4F8BE595E00E94770B29AD3AAD4BAD4D
:102800005CAD60E070E088EC92E40E94B42820E0C7
:1028100030E040EA50E40E9421299B01AC016D891F
:102820007E898F89988D0E94B4286B017C018091EC
:10283000FA03882359F168E673E084E295E00E9488
:10284000E0034D895E896F89788D84E295E00E946E
:10285000350E66E673E084E295E00E94E00349AD40
:102860005AAD6BAD7CAD84E295E00E94350E64E616
:1028700073E084E295E00E94E003B701A60184E2E0
:1028800095E00E94350E62E673E070CF60E673E07B
:1028900087E894E00E94E0034D895E896F89788D16
:1028A00087E894E00E94350E6EE573E087E894E0D7
:1028B0000E94E00349AD5AAD6BAD7CAD87E894E072
:1028C0000E94350E6CE573E087E894E00E94E00317
:1028D000B701A60187E894E00E94350E6AE573E02F
:1028E0007CCF8091FA036EE673E081113FCF6AE6F8
:1028F00073E073CF8D3409F0D1C001900020E9F767
:10290000E550F440329708F467C042E050E061E0DF
:1029100070E081E090E00E94A40A883091054CF0BC
:102920008091FA0363E573E0811120CF6CE473E0DA
:1029300054CFFC01EB5AFE4F2081213449F48091A1
:10294000FA0365E473E0811111CF6EE373E045CFC4
:102950000E94DB108E010F5F1F4F84E1F80111927E
:102960008A95E9F78091FA03882351F16CE373E0CB
:1029700084E295E00E94E0038DEE91E09F938F93B7
:1029800087EF91E09F938F9388EC91E09F938F93D3
:102990001F9284E18F931F930F930E94D32B0FB646
:1029A000F894DEBF0FBECDBF8091FA03B801882333
:1029B00061F084E295E00E94060F68E373E0D6CEF2
:1029C0006AE373E087E894E0D5CF87E894E00E945B
:1029D000060F66E373E001CF8091FA03882309F4C0
:1029E0004FC064E373E084E295E00E94E00310E0EE
:1029F00000E064E1762ECE0101967C017DEEC72ECB
:102A000071E0D72EE7EFAE2EE1E0BE2EF8EC8F2E70
:102A1000F1E09F2EC8010E94DB10F701272D1192D3
:102A20002A95E9F7DF92CF92BF92AF929F928F9251
:102A30001F927F92FF92EF920E94D32B0FB6F894D1
:102A4000DEBF0FBECDBF8091FA03B7018823E9F046
:102A500084E295E00E94060F60E373E084E295E073
:102A60000E94E0030F5F1F4F0630110599F6809119
:102A7000FA036CE273E0811179CE6AE273E0ADCEC5
:102A800062E373E087E894E0B0CF87E894E00E94C7
:102A9000060F6EE273E087E894E0E2CF833509F039
:102AA000C5C042E050E061E070E081E090E00E944B
:102AB000A40A8C0143E050E063E070E082E090E023
:102AC0000E94A40A7C01083011054CF08091FA03A1
:102AD00063E273E081114ACE6CE173E07ECE2EE1B9
:102AE000209FC001219F900D1124FC01E75FFC4F46
:102AF0006F018481803571F5FFEFEF16F10411F05D
:102B000008F051C0F801EE0FFF1FE35AFE4FB70166
:102B100080810E9402032AE0209FC001219F900D26
:102B200011248C0107541D4F6E2DF801848195816D
:102B30000E9404106E2DF801828193810E9404107E
:102B4000F601F48EE38E81E0EF2809F480E0F601CF
:102B5000828F29C0823509F060C0E114F10461F56B
:102B6000F801EE0FFF1FE35AFE4F70E060E0808136
:102B70000E9402032AE0209FC001219F900D112492
:102B80008C0107541D4F60E0F801828193810E94FF
:102B9000041060E0F801848195810E940410F60120
:102BA000148E138E128E8091FA0368E073E0811107
:102BB000DDCD62E073E011CE1E141F04A4F7F8010E
:102BC000EE0FFF1FE35AFE4F6FEF70E080810E940F
:102BD00002032AE0209FC001219F900D11249C0137
:102BE00027543D4F79016FEFF901828193810E9453
:102BF00004106FEFF701848195810E9404108EE12B
:102C0000809FF001819FF00D1124E75FFC4F8FEF53
:102C100090E0948F838F81E09BCF8091FA0365E1F0
:102C200073E08111A3CD6EE073E0D7CD803509F05C
:102C30000BC201900020E9F7E550F440329730F1E3
:102C400042E050E061E070E081E090E00E94A40A80
:102C50008C010E94DB108091FA03882391F060E0E0
:102C600073E084E295E00E94E003C8010E94341200
:102C70008091FA036CEF72E0811178CD6AEF72E017
:102C8000ACCD6EEF72E087E894E0EDCF8091FA036F
:102C9000882309F434C168EF72E084E295E00E9471
:102CA000E00310E000E0C8010E94DB10C8010E94B0
:102CB00034128091FA03882309F426C164EF72E08C
:102CC00084E295E00E94E0030F5F1F4F083011057A
:102CD00051F78091AE029091AF02892B09F4FBC0AD
:102CE0008091B002882309F438C18090B502909099
:102CF000B602A090B702B090B802C090B102D090D6
:102D0000B202E090B302F090B4020E945C0A6093B9
:102D1000B5027093B6028093B7029093B8020E94F6
:102D2000740A6093B1027093B2028093B3029093DD
:102D3000B40205E010E06091B5027091B602809196
:102D4000B7029091B8029B01AC010E94C729811182
:102D50000EC06091B1027091B2028091B302909165
:102D6000B4029B01AC010E94C7298823E9F00E94AC
:102D70005C0A6093B5027093B6028093B702909399
:102D8000B8020E94740A6093B1027093B2028093F9
:102D9000B3029093B4026AE070E080E090E00E9499
:102DA00099030150110939F66091B5027091B6028C
:102DB0008091B7029091B8029B01AC010E94C72993
:102DC00081110EC06091B1027091B2028091B30284
:102DD0009091B4029B01AC010E94C729882381F025
:102DE0008092B5029092B602A092B702B092B80259
:102DF000C092B102D092B202E092B302F092B40259
:102E0000C090B502D090B602E090B702F090B80240
:102E10002091B1023091B2024091B3025091B402BC
:102E200060E070E088EC92E40E94B42820E030E09A
:102E300040EA50E40E9421299B01AC01C701B60180
:102E40000E94B4284B015C018091FA03B701A601EE
:102E5000882309F45EC084E295E00E94350E60EF9D
:102E600072E084E295E00E94E0034091B10250914B
:102E7000B2026091B3027091B40284E295E00E94C4
:102E8000350E6EEE72E084E295E00E94E003B5013B
:102E9000A40184E295E00E94350E8091E0018F301C
:102EA000A8F08091DF0191E089278093DF018823DA
:102EB00009F450C08DE690E30E94A20861E070E042
:102EC00080E090E00E9499031092E0018091E0017F
:102ED0008F5F8093E0018091FA03882309F4A5C0F5
:102EE00060EE72E084E295E00E94E00363EE71E040
:102EF00084E295E00E94060F6EED72E037CC66EF3B
:102F000072E087E894E0CBCE62EF72E087E894E06D
:102F1000D9CE87E894E00E94350E6CEE72E087E827
:102F200094E00E94E0034091B1025091B20260919E
:102F3000B3027091B40287E894E00E94350E6AEE05
:102F400072E087E894E00E94E003B501A40187E8FD
:102F500094E0A1CF86E690E3AFCFAE014F5F5F4F25
:102F6000BE016B5D7F4F8BE595E00E94770BCD88AE
:102F7000DE88EF88F88C29AD3AAD4BAD5CAD60E0F2
:102F800070E088EC92E40E94B42820E030E040EA4F
:102F900050E40E9421299B01AC01C701B6010E94A7
:102FA000B4284B015C018091FA03B701A601882384
:102FB000F9F084E295E00E94350E68EE72E084E25A
:102FC00095E00E94E00349AD5AAD6BAD7CAD84E263
:102FD00095E00E94350E66EE72E084E295E00E9474
:102FE000E003B501A40184E295E00E94350E73CFA1
:102FF00087E894E00E94350E64EE72E087E894E082
:103000000E94E00349AD5AAD6BAD7CAD87E894E01A
:103010000E94350E62EE72E087E894E00E94E003C1
:10302000B501A40187E894E0E0CF6CED72E087E899
:1030300094E00E94E00363EE71E087E894E00E9470
:10304000060F6AED72E0C9CB823409F08FC001909F
:103050000020E9F7E550F4401091FA033297C8F1E7
:1030600042E050E061E070E081E090E00E94A40A5C
:103070007C011123B9F068ED72E084E295E00E94D2
:10308000E0038EE18E9DF0018F9DF00D1124E75F2E
:10309000FC4F628D70E084E295E00E94FF0D66EDCA
:1030A00072E064CB64ED72E087E894E00E94E00394
:1030B0008EE18E9DF0018F9DF00D1124E75FFC4F96
:1030C000628D70E087E894E00E94FF0D62ED72E08F
:1030D00084CB60ED72E084E295E0111104C06EECE7
:1030E00072E087E894E00E94E00309E013E02DEB32
:1030F000E22E23E0F22EF801628D70E08091FA0357
:10310000882389F184E295E00E94FF0D025E1F4F43
:10311000E016F10681F78091FA0381111AC06AEC7A
:1031200072E087E894E00E94E0038091FA03811145
:1031300015C06AEC72E087E894E00E94E003809199
:10314000FA0366EC72E0882309F447CB68EC72E07E
:103150000DCB6CEC72E084E295E0E5CF6CEC72E0B4
:1031600084E295E0EACF87E894E0CECF863509F097
:1031700091C001900020E9F7E550F4401091FA0366
:10318000329708F44DC042E050E061E070E081E029
:1031900090E00E94A40A7C018EE18E9DF0018F9D3B
:1031A000F00D1124E75FFC4F8481803511F08635E6
:1031B00081F51123B9F064EC72E084E295E00E949D
:1031C000E0038EE18E9DF0018F9DF00D1124E75FED
:1031D000FC4F638D748D84E295E00E94FF0D62ECDC
:1031E00072E0C4CA60EC72E087E894E00E94E003F9
:1031F0008EE18E9DF0018F9DF00D1124E75FFC4F55
:10320000638D748D87E894E00E94FF0D6EEB72E091
:10321000E4CA67EB72E01111A9CA60EB72E0DDCA83
:103220006EEA72E084E295E0111104C06CEA72E08B
:1032300087E894E00E94E00309E013E0F80184814C
:10324000803581F4638D748D8091FA038823C9F0F1
:1032500084E295E00E94FF0D6AEA72E084E295E064
:103260000E94E003025E1F4FF3E00D3B1F0731F7A2
:103270008091FA0366EA72E0811178CA64EA72E02A
:10328000ACCA87E894E00E94FF0D68EA72E087E824
:1032900094E0E6CF8E3409F064C042E050E061E093
:1032A00070E081E090E00E94A40A8C0109970CF084
:1032B00040C0FE0131968EE1809F6001819FD00C5D
:1032C000112490E080E07F01DC01AC0DBD1DA75F03
:1032D000BC4F15961C92119201968B309105A1F767
:1032E0004BE050E066E074E0C7010E94C42B4BE065
:1032F00050E066E074E0C601825F9C4F0E94C42BE0
:103300008EE1809FF001819FF00D1124E75FFC4F5B
:1033100017868AE0809FF001819FF00D1124E75409
:10332000FD4F668177814BE050E0C7010E947E0F20
:103330000AC08091FA03882379F06DE972E084E293
:1033400095E00E94E0038091FA0360E972E0811148
:103350000DCA6AE872E041CA66E972E087E894E063
:10336000F0CF833409F045C042E050E061E070E006
:1033700081E090E00E94A40A8C0109974CF08091B2
:10338000FA0367E772E08111F1C960E772E025CACC
:103390004DE050E066E074E0CE0101960E94C42B3F
:1033A0001E862EE1209FC001219F900D11244AE02E
:1033B00050E0BE016F5F7F4F875E9C4F0E94C42B21
:1033C0008AE0809FF001819FF00D1124E754FD4FAA
:1033D000608571854DE050E0CE0101960E947E0F20
:1033E0008091FA0364E872E08111C0C96EE772E06F
:1033F000F4C98F3409F04EC042E050E061E070E063
:1034000081E090E00E94A40A893091056CF42EE1DD
:10341000289FF001299FF00D1124E75FFC4F2381C5
:10342000203559F0263549F08091FA0369E672E0BB
:1034300081119CC962E672E0D0C960910604262F12
:103440002D7F203549F08091FA036BE572E0811100
:103450008DC964E572E0C1C92EE1289FF001299F62
:10346000F00D1124E75FFC4F64832AE0289FF001F0
:10347000299FF00D1124E754FD4F808191810E9416
:1034800004108091FA036EE472E081116FC968E460
:1034900072E0A3C98134C9F50DE511E089EBC82EAE
:1034A00082E0D82E99E0E92E93E0F92EBB24B39464
:1034B000F80180810E5F1F4F6FEF70E00E940203E2
:1034C0006FEFF601828193810E9404106FEFF60185
:1034D000848195810E9404108FEF90E0F701948F12
:1034E000838FB28EFAE0CF0ED11C2EE1E20EF11CDA
:1034F00031E009361307E1F68091FA036CE372E0DC
:10350000811134C962E472E068C9863421F481E033
:103510000E94181035C8823521F4F0E0E0E00995EA
:103520002FC8853549F48091FA0360E372E0811178
:103530001DC966E372E051C9893509F05CC06EECC3
:1035400071E084E295E00E94910D68EE73E080E006
:1035500090E00E94990384E295E00E948605892B01
:1035600009F43FC084E295E00E949C058F349105E8
:10357000C1F58AEC91E00E94A00D84E295E00E94E2
:103580008605892B59F084E295E00E949C0561E054
:1035900070E080E090E00E949903EFCF86ED91E02B
:1035A0000E94A00D84E295E00E948605892B49F0D7
:1035B00084E295E00E949C05682F87E894E00E94D1
:1035C000A40487E894E00E946204892B59F387E8F9
:1035D00094E00E944004682F84E295E00E942A054E
:1035E000E1CF86E092E00E94A00D88EE91E00E947B
:1035F000A00D0C94C0128734D9F542E050E061E090
:1036000070E081E090E00E94A40A9C019091FA038E
:10361000283031053CF064EB71E09111A7C863ECF0
:1036200071E0DBC88EE1829F8001839F100D112421
:10363000025F1C4F992371F061EC71E084E295E028
:103640000E94E003B80184E295E00E94060F6FEB50
:1036500071E08CC86DEB71E087E894E00E94E003B4
:10366000B80187E894E00E94060F6BEB71E0B5C8E3
:103670008834D9F542E050E061E070E081E090E00C
:103680000E94A40A9C019091FA03283031053CF075
:103690006EE971E091116AC86DEA71E09EC88EE131
:1036A000829F8001839F100D1124075E1C4F992378
:1036B00071F06BEA71E084E295E00E94E003B801EA
:1036C00084E295E00E94060F69EA71E04FC867EA5C
:1036D00071E087E894E00E94E003B80187E894E095
:1036E0000E94060F65EA71E078C88B3409F065C066
:1036F0008E010F5F1F4F89E0F80111928A95E9F75B
:10370000E9E0F3E0D80189EF93E024812D937E96E0
:103710008E179F07D1F78091FA03882339F160E96A
:1037200071E084E295E00E94E00363E775E084E2E3
:1037300095E00E94D2036EE871E084E295E00E9479
:10374000E0036DE675E084E295E00E94D2036CE848
:1037500071E084E295E00E94E003B80184E295E024
:103760000E94060F6AE871E00C94B6136CE771E0F2
:1037700087E894E00E94E00363E775E087E894E05F
:103780000E94D2036AE771E087E894E00E94E003B8
:103790006DE675E087E894E00E94D20368E771E087
:1037A00087E894E00E94E003B80187E894E00E9473
:1037B000060F66E771E00C94ED138A3491F51986D3
:1037C00080E589838A8392E59B839C838D838E83A6
:1037D00081E48F8388878091FA03882389F064E7E6
:1037E00071E084E295E00E94E003BE016F5F7F4FCD
:1037F00084E295E00E94060F62E771E00C94B61334
:1038000060E771E087E894E00E94E003BE016F5F2B
:103810007F4F87E894E00E94060F6EE671E00C94FB
:10382000ED13893411F00C94C0128091FA038823AF
:1038300091F06AE873E084E295E00E94E003609111
:10384000AE027091AF0284E295E00E94FF0D68E83D
:1038500073E00C94B61364E873E087E894E00E9488
:10386000E0036091AE027091AF0287E894E00E949D
:10387000FF0D62E873E00C94ED132091E1013091AB
:10388000E2012C30310510F00C949C12A9014F5F1D
:103890005F4F5093E2014093E1012C5F3B4FF901F0
:1038A00080830C949C121F920F920FB60F921124DA
:1038B0002F933F938F939F93AF93BF938091FC037C
:1038C0009091FD03A091FE03B091FF033091FB03A3
:1038D00023E0230F2D3758F50196A11DB11D20932C
:1038E000FB038093FC039093FD03A093FE03B0932E
:1038F000FF038091000490910104A0910204B09113
:1039000003040196A11DB11D80930004909301044E
:10391000A0930204B0930304BF91AF919F918F9144
:103920003F912F910F900FBE0F901F90189526E892
:10393000230F0296A11DB11DD2CF1F920F920FB679
:103940000F9211242F933F934F935F936F937F9325
:103950008F939F93AF93BF93EF93FF9387E894E088
:103960000E948204FF91EF91BF91AF919F918F913F
:103970007F916F915F914F913F912F910F900FBE6B
:103980000F901F9018951F920F920FB60F9211244F
:103990002F938F939F93EF93FF93E0919704F09170
:1039A00098048081E0919D04F0919E0482FD1BC0EB
:1039B00090818091A0048F5F8F732091A104821762
:1039C00041F0E091A004F0E0E957FB4F958F809320
:1039D000A004FF91EF919F918F912F910F900FBEB7
:1039E0000F901F9018958081F4CF1F920F920FB601
:1039F0000F9211242F933F938F939F93EF93FF93F5
:103A00008091A90287FF1FC0109285001092840048
:103A10008091A9028F5F8093A9028091A90287FFFC
:103A200004C08091A9028C30ACF080918400909108
:103A30008500049680349C4990F180918400909197
:103A4000850004962EC08091A90287FFE1CF809166
:103A5000A902DECF2091840030918500E091A90277
:103A60008E2FEE0F990BFC01EE0FFF1FE80FF91FD1
:103A7000EB57FD4F81819281820F931F90938900B4
:103A8000809388008091A902FF91EF919F918F917F
:103A90003F912F910F900FBE0F901F90189580E4CB
:103AA0009CE990938900809388008FEF8093A9020E
:103AB000EBCF1F920F920FB60F9211242F933F93CB
:103AC0004F935F936F937F938F939F93AF93BF9326
:103AD000EF93FF93E091AC02F091AD02309749F083
:103AE000A685B7858585968D91FF14C09C91892305
:103AF000A1F4FF91EF91BF91AF919F918F917F9131
:103B00006F915F914F913F912F910F900FBE0F904A
:103B10001F9018959C91892361F7A389B4899C9182
:103B20008589809589238C93868997890197F1F7F8
:103B3000608D718DA685B785558538E020E0CB0175
:103B40000197F1F7822F90E095958795282F4C915A
:103B5000452309F02068315091F7868D81FD20952D
:103B60008091AB0290E001968F7399273091AA0261
:103B7000381799F0A091AB02B0E0AB5BBD4F2C932E
:103B80008093AB02828D938D0197F1F7A389B4895D
:103B90008C919589892B8C93ACCF868D8160868F93
:103BA000F1CF1F920F920FB60F9211242F933F93D4
:103BB0004F935F936F937F938F939F93AF93BF9335
:103BC000EF93FF938091B900887F803609F44AC053
:103BD000F0F5883209F4A7C018F5803109F49BC0CC
:103BE000B8F4882309F4F9C0883009F494C0FF912F
:103BF000EF91BF91AF919F918F917F916F915F9165
:103C00004F913F912F910F900FBE0F901F901895DD
:103C1000883109F488C0803251F780935B0414C066
:103C2000803409F49DC040F48033B9F38833F9F649
:103C300080935B0485ECB0C0803509F485C088357D
:103C400009F496C0883499F60E94440FD0CF883981
:103C500009F48CC038F5883729F050F4883611F013
:103C6000803729F683E080935D041092440257C0A8
:103C7000883809F47BC0803919F0803809F0B7CF53
:103C800080914402803208F071C0E091440281E0EA
:103C90008E0F809344028091BB00F0E0EC5DFD4FFD
:103CA00080833DC0803B39F0E0F4803A09F479C06C
:103CB000883A09F09CCF84E080935D04109223023F
:103CC00010922202E0911304F0911404099580915E
:103CD000220281110FC081E0809322021092020221
:103CE00009C0803C09F4A6CF883C09F4A3CF883BE7
:103CF00009F07DCFE091230281E08E0F80932302B3
:103D0000F0E0EE5FFD4F80818093BB009091230235
:103D10008091220229C0809138048093BB0085ECF9
:103D20008093BC0064CF90915A04809159049817F5
:103D300058F5E0915A0481E08E0F80935A04F0E028
:103D4000E75CFB4F8081E9CFE0915A0481E08E0F60
:103D500080935A048091BB00F0E0E75CFB4F8083C6
:103D600090915A04809159049817C8F285E8D8CFE9
:103D7000E0915A0481E08E0F80935A048091BB0039
:103D8000F0E0E75CFB4F808380915C0481115CCFA5
:103D900081E08093370484EA8093BC0010925D0434
:103DA00026CF85EC8093BC0010925D048091440284
:103DB000803230F4E0914402F0E0EC5DFD4F10827F
:103DC0006091440270E0E0911104F091120484E2E9
:103DD00092E00995109244020ACF10925B0434CF0E
:103DE000CF92DF92EF92FF9210928A041092890490
:103DF00098EEC92E93E0D92EE12CF12CC0928B04C1
:103E0000D0928C04E0928D04F0928E0481E791E0D0
:103E1000909388048093870485EC90E090939404B9
:103E20008093930484EC90E090939604809395049F
:103E300080EC90E0909398048093970481EC90E05C
:103E400090939A048093990482EC90E090939C0460
:103E500080939B0486EC90E090939E0480939D0455
:103E60001092A0041092A1041092A2041092A30434
:103E70001092460510924505C0924705D09248051C
:103E8000E0924905F0924A0583E891E09093440559
:103E90008093430561ED71E083E795E00E94080F90
:103EA00065ED71E08DE695E00E94080F10926805BF
:103EB0001092670510926A051092690510926C05C0
:103EC00010926B0510925A051092590583E495E003
:103ED000909358058093570580E090E0A0ECBFE7F1
:103EE00080934F0590935005A0935105B0935205D0
:103EF0008093530590935405A0935505B0935605B0
:103F00001092270510922605C0922805D092290507
:103F1000E0922A05F0922B0585E991E09093250522
:103F20008093240510923B0510923A0510923D05AE
:103F300010923C0510923F0510923E0510924105EB
:103F400010924005609142056E7F6D7F609342053F
:103F50006695617081E0682782E00E94980261E0C6
:103F600082E00E94C602E2EEF3E0E491E0933405C1
:103F7000EEECF3E0E491F0E0EE0FFF1FEE53FC4FA8
:103F800085919491909336058093350560E083E0A8
:103F90000E94C6028091420581FD04C061E083E079
:103FA0000E94980283E080933005E3EEF3E0E49111
:103FB000E0933105EFECF3E0E491F0E0EE0FFF1F4A
:103FC000E854FC4F8591949190933305809332058A
:103FD000FF90EF90DF90CF900895CF93DF93CDB710
:103FE000DEB72E970FB6F894DEBF0FBECDBF789424
:103FF00084B5826084BD84B5816084BD85B58260EE
:1040000085BD85B5816085BD80916E00816080939E
:104010006E00109281008091810082608093810007
:104020008091810081608093810080918000816017
:10403000809380008091B10084608093B100809172
:10404000B00081608093B00080917A00846080939A
:104050007A0080917A00826080937A0080917A0061
:10406000816080937A0080917A00806880937A00E2
:104070001092C100E0919704F091980482E080834F
:10408000E0919304F09194041082E0919504F091F2
:1040900096048FEC808310929F04E0919B04F09132
:1040A0009C0486E08083E0919904F0919A048081D9
:1040B00080618083E0919904F0919A048081886006
:1040C0008083E0919904F0919A04808180688083D4
:1040D000E0919904F0919A0480818F7D8083109201
:1040E0003F0510923E0510923D0510923C0510923E
:1040F0003B0510923A058DE991E09093410580933C
:10410000400590913005963108F047C02DEB30E026
:1041100030933B0520933A052BE931E030933D0580
:1041200020933C052CE231E030933F0520933E057F
:104130002091680084E0983048F031E09E3008F427
:1041400030E081E001C0880F3A95EAF7822B809336
:1041500068002DE630E0983050F02BE630E09E30DD
:1041600030F02CE630E0963110F030E020E0309373
:10417000380520933705292F30E0983008F028C201
:1041800081E001C0880F9A95EAF780933905809104
:104190004005909141050197F1F780913E0590917E
:1041A0003F05892B49F1E091AC02F091AD0285E029
:1041B000E432F80709F1309739F0A389B4899C916A
:1041C0008589809589238C93809142058E7F809389
:1041D00042051092AB021092AA0284E295E09093FD
:1041E000AD028093AC02E0913705F09138058081F3
:1041F00090913905892B80838EEF93E00E946710A0
:10420000823481F00E94C30F62E48EEF93E00E943B
:104210007C0F64EF71E080E090E00E949903F0E091
:10422000E0E009956DE5662E61E0762E79E6E72EF1
:1042300071E0F72E8301D8018C910E5F1F4F70E063
:1042400060E00E940203E016F106A9F78FEF93E009
:104250000E946710883581F0482F50E070E060E0E0
:104260002AE087E894E00E94B30D0E94C30F68E53E
:104270008FEF93E00E947C0F59EBC52E52E0D52EB4
:10428000F60190E080E0918380839C012F5F3F4F97
:10429000338322832E5F3F4F358324832D5F3F4F2F
:1042A00037832683255F3F4F318720874C963A9688
:1042B000803E910541F784E40E94CA0C882309F4EA
:1042C000C1C10E945C0A6093B5027093B6028093EC
:1042D000B7029093B8020E94740A6093B10270937F
:1042E000B2028093B3029093B40205E010E06091B3
:1042F000B5027091B6028091B7029091B8029B010D
:10430000AC010E94C729811170C16091B102709106
:10431000B2028091B3029091B4029B01AC010E9461
:10432000C72981116CC16091B5027091B60280916C
:10433000B7029091B8029B01AC010E94C72981117C
:1043400081C16091B1027091B2028091B3029091EB
:10435000B4029B01AC010E94C729811173C181E0A5
:104360008093B00282E090E09093AF028093AE021F
:10437000E9E0F3E080EFDF011D928A95E9F78F0114
:1043800025E4822E21E0922EE5E5F1E0FE87ED871F
:10439000F12CE12C32E5432E40E5242E5524539494
:1043A000D3018D919D913D01F801918380838E30E1
:1043B000910508F4E7C10E97089708F0E5C181E47C
:1043C000D80112968C93F601808191810E9467102A
:1043D000AD85BE859D91BE87AD87882309F4D6C182
:1043E000F8018483D80114968C911497863509F0CE
:1043F000DDC114964C92D80113969C93F6018281EC
:1044000093810E946710D80114969C91149791345F
:1044100009F0D2C15A965C92F601848195810E947E
:10442000671090E0D8015C969C938E935B97F601A1
:10443000A680B780B501CE0101960E9469108D81DA
:104440009E81892B09F4C0C1E981FA81808188238A
:1044500009F4BAC1B501CE0107960E9469108B8597
:104460009C8533243394892B39F0EF81F8853324EC
:10447000339480818111312CCE0107960E94C00CAB
:10448000CE0101960E94C00C332009F4A0C16BED4F
:1044900071E0CE0101960E94080FB701CE0101968E
:1044A0000E942708CE0101960E94C00CD6011896E2
:1044B000AD90BC90B501CE0101960E9469108D812E
:1044C0009E81892B09F489C1E981FA818081882341
:1044D00009F483C1B501CE0107960E9469108B854E
:1044E0009C8533243394892B39F0EF81F88533246C
:1044F000339480818111312CCE0107960E94C00C2B
:10450000CE0101960E94C00C332009F469C16BED05
:1045100071E0CE0101960E94080FB701CE0101960D
:104520000E94D907CE0101960E94C00CF801848137
:10453000813441F1F3013297B08061E08B2D0E940C
:10454000C602D8015B966D917C918B2D0E9402036F
:10455000F801558ED401AD90BC90BFEFAB16BB06F1
:1045600089F0E5E1AE16B10469F061E08A2D0E94A0
:10457000C602F701EE0FFF1FEB5CFE4F60818A2D34
:104580000E949802FFEFEF1AFF0A025E1F4F82E0BF
:10459000880E911C9AE0C90ED11CA8E0EA16F1041D
:1045A00009F0FECE80E0E82E80E0F82E11E087E8EA
:1045B00094E00E946204181619060CF017C11092BC
:1045C000FA0387E894E00E9440040E947E12EFCF35
:1045D0009E3040F42850310981E001C0880F2A95AF
:1045E000EAF7D3CD2E503109F7CF0E945C0A6093D1
:1045F000B5027093B6028093B7029093B8026091AF
:10460000B1027091B2028091B3029091B4029B0109
:10461000AC010E94C729882351F00E94740A60935C
:10462000B1027093B2028093B3029093B4026AE035
:1046300070E080E090E00E9499030150110909F0B8
:1046400056CE71CE88E30E94CA0C882309F495C027
:1046500064E170E080E090E00E949903809167053A
:1046600090916805009711F00E946E2A86E090E014
:104670000E94D2298C0188E3F801808383E495E0CD
:1046800092838183138280E290E0958384831093E8
:104690006805009367050E94040681E0D80113961F
:1046A0008C93C8010E942C07882309F466C08AEB0A
:1046B000898341E050E0BE016F5F7F4F80916705C5
:1046C000909168050E947508882309F456C064E13A
:1046D00070E080E090E00E94990381EE898388E099
:1046E0008A831B8243E050E0BE016F5F7F4F809161
:1046F0006705909168050E9475088823F1F18BE5A4
:1047000095E00E948C0A87FF07C06AE070E080E0B5
:1047100090E00E949903F3CF8BE595E00E948C0A0C
:1047200083FF2BC086E090E00E94D229FC018BE23F
:1047300091E09183808380E091E0938382830BE515
:1047400015E015830483F0936C05E0936B0586E018
:1047500090E00E94D229FC018DE191E09183808359
:1047600081E091E09383828315830483F0936A054B
:10477000E093690581E090E0F7CD1092AF021092CE
:10478000AE02F6CD84E41CCE8EE41ACE963521F42A
:10479000D80114964C9226CE963419F4F80124824E
:1047A00021CE9035A9F3F80194831CCE863409F00C
:1047B00022CEF80124821FCE882319F0F801528EF0
:1047C0002BCE5A961C9228CE3324339459CEB50161
:1047D000CE0101960E94691060CE3324339490CEAE
:1047E000B501CE0101960E94691097CE84E295E052
:1047F0000E948605181619064CF41093FA0384E2F9
:1048000095E00E949C050E947E12F0CF80E10E94FC
:104810005F03BC01990F880B990B0E94192720E7B1
:1048200031E640EA5BE30E94782720E030E54CE582
:1048300056E40E94782720E030EE42E955E40E94D9
:1048400021294B015C0123E333E34BE651E40E9451
:10485000C229181654F02DEC3CEC4CE151E4C50192
:10486000B4010E94122787FF1AC08091F9038111B9
:1048700004C01093F9030E94181062E370E080E016
:1048800090E00E949903E114F10409F490CE0E9493
:104890006E04882309F48BCE0E94000088CE10920B
:1048A000F903EBCF85E991E09093250580932405EA
:1048B0008091AC029091AD028452954071F4E091E8
:1048C0003705F091380590818091390580958923CD
:1048D00080831092AD021092AC02809159059091A4
:1048E0005A05009711F00E946E2A809169059091F7
:1048F0006A05009739F0DC01ED91FC910280F381AB
:10490000E02D099580916B0590916C05009739F029
:10491000DC01ED91FC910280F381E02D09958DE69B
:1049200095E00E94C00C83E795E00C94C00CEF92D8
:104930000F931F93CF93DF93E80134E047FD34E1F9
:10494000042E000C550B57FF03C05195419551099A
:10495000E32E022F242FAE010E94DB24CE01DF9133
:10496000CF911F910F91EF900895FC01882799270F
:10497000E89421912032E9F3293010F02E30C8F369
:104980002B3241F02D3239F4689404C00E94D324B4
:10499000820F911D219120532A30C0F31EF490956F
:1049A00081959F4F08957AE0979F902D879F802D46
:1049B000910D11240895A9E0B0E0E1EEF4E20C9429
:1049C00052286A01F22EB02E102FFBE3AF2EA01654
:1049D00008F41BE31F5F012F27E0AE014F5F5F4F1D
:1049E0000E943A26BC018981982F9970913009F470
:1049F0003FC09BE2E1FC04C09E2D9170E0FC3AC0F8
:104A00005E2D5071E82FE87083FF46C084E091115D
:104A100001C083E0EF2DE81B8F1508F0E0E0D60120
:104A20008E2F20E2552351F1992329F0D6019C9332
:104A3000C60101966C0196012D5F3F4FE2FE24C036
:104A40008EE4D6018C9391E411969C931197129663
:104A50008C93D9018E2F90E281111BC0E20FF32FAE
:104A6000F11D10828EEF9FEF2996ECE00C946E28DA
:104A70009DE2C6CF90E2C4CF2D9381508111FCCF2F
:104A8000CE0ED11CE0E0D0CF8EE6D6018C9391E61D
:104A9000DBCF9D938150E0CF482F447082FF3DC013
:104AA00084E0911101C083E08F1510F4EF2DE81B15
:104AB000D6018E2F20E2552309F1992329F0D60142
:104AC0009C93C60101966C0196012D5F3F4FE2FE5B
:104AD0001BC089E4D6018C938EE411968C931197B8
:104AE00086E412968C93D9018E2F90E2882309F4E4
:104AF000B5CF9D938150FACF2D9381508111FCCF7A
:104B0000CE0ED11CE0E0D9CF89E6D6018C938EE69B
:104B100011968C93119786E6E4CF9B0177FF02C034
:104B200030E020E0A1E0B0E0911102C0B0E0A0E0F0
:104B3000F9013196AE0FBF1F8B2C912CBB2009F4CD
:104B400061C05401EFEFAE1ABE0AAA0DBB1DFA16E2
:104B50001B0619F014F04F2D4A1B511188C0E3FCBD
:104B600059C07601A42FB0E2A1114FC0C40ED11CD0
:104B7000992309F45BC040E0D6011196F6019083B9
:104B80006D01552309F448C0012F060F9A81582F53
:104B9000507184FF03C0913309F4015010160CF0DA
:104BA00047C0093008F008E0EEE2FE2E5B01A01AD3
:104BB000B10885019194819491082F3F320729F41F
:104BC000D601FC92F60131966F016217730794F1DA
:104BD000021713077CF5DB01A21BB30BAA24A394D5
:104BE000B12CAC0EBD1EAA0DBB1D11968C9121508F
:104BF0003109D601119628153905F4F0F6018083A4
:104C00006D01DBCFB12CA12CA0CFF701B1937F01B7
:104C1000A150AACF9111B0CFD601942F50E302C07A
:104C20005D9391509111FCCFC40ED11C40E0ACCFEC
:104C300001E0BACF80E3DBCF6217730731F496331C
:104C400088F4953311F4552369F0F6018083FD0152
:104C5000842F90E2811108C0A40FB11D1C9290E036
:104C600080E002CF81E3F1CF91938150F3CF911196
:104C700083CF8ACF283008F027E03327DA01990F55
:104C8000311D87FD916000966105710539F4326030
:104C90002E5F3D9330E32A95E1F708959F3F30F072
:104CA00080387105610509F03C5F3C5F3D939130B0
:104CB00008F08068911DDF93CF931F930F93FF92AD
:104CC000EF92192F987F9695E92F96959695E90F73
:104CD000FF27EE53FF4F99273327EE24FF24A70128
:104CE000E70105900894079428F4360FE71EF81E94
:104CF000491F511D660F771F881F991F0694A1F742
:104D00000590079428F4E70EF81E491F561FC11D91
:104D1000770F881F991F661F0694A1F705900794C7
:104D200028F4F80E491F561FC71FD11D880F991F61
:104D3000661F771F0694A1F70590079420F4490F8A
:104D4000561FC71FD81F990F661F771F881F06940D
:104D5000A9F784911095177041F0D695C79557958E
:104D60004795F794E7941A95C1F7E8E6F0E0689460
:104D70001590159135916591959105907FE2739508
:104D8000E118F10A430B560BC90BD009C0F7E10C2F
:104D9000F11E431F561FC91FD01D7EF4703311F43E
:104DA0008A95E6CFE894015030F0080F0AF4002706
:104DB000021708F4202F2395022F7A3328F079E385
:104DC0007D932A95E9F710C07D932A9589F606947C
:104DD00097956795379517951794E118F10A430B46
:104DE000560BC90BD00998F023957E9173957A33B1
:104DF00008F070E37C932013B8F77E9170617D9387
:104E000030F0839571E37D9370E32A95E1F71124E7
:104E1000EF90FF900F911F91CF91DF91992787FD20
:104E2000909508950E94542708F481E00895E8942D
:104E300009C097FB3EF490958095709561957F4FE2
:104E40008F4F9F4F9923A9F0F92F96E9BB27939590
:104E5000F695879577956795B795F111F8CFFAF4A0
:104E6000BB0F11F460FF1BC06F5F7F4F8F4F9F4FD1
:104E700016C0882311F096E911C0772321F09EE82F
:104E8000872F762F05C0662371F096E8862F70E095
:104E900060E02AF09A95660F771F881FDAF7880F6F
:104EA0009695879597F90895990F0008550FAA0BC5
:104EB000E0E8FEEF16161706E807F907C0F012162D
:104EC0001306E407F50798F0621B730B840B950B30
:104ED00039F40A2661F0232B242B252B21F4089585
:104EE0000A2609F4A140A6958FEF811D811D089522
:104EF0000E948B270C94FC270E94EE2738F00E941A
:104F0000F52720F0952311F00C94E5270C94EB275E
:104F100011240C9430280E940D2870F3959FC1F342
:104F2000950F50E0551F629FF001729FBB27F00D57
:104F3000B11D639FAA27F00DB11DAA1F649F6627AC
:104F4000B00DA11D661F829F2227B00DA11D621FFB
:104F5000739FB00DA11D621F839FA00D611D221FB5
:104F6000749F3327A00D611D231F849F600D211D99
:104F7000822F762F6A2F11249F5750409AF0F1F01C
:104F800088234AF0EE0FFF1FBB1F661F771F881F85
:104F900091505040A9F79E3F510580F00C94E527B1
:104FA0000C9430285F3FE4F3983ED4F386957795D0
:104FB0006795B795F795E7959F5FC1F7FE2B880F2B
:104FC000911D9695879597F9089597F99F6780E8C1
:104FD00070E060E008959FEF80EC089500240A944B
:104FE0001616170618060906089500240A941216C4
:104FF0001306140605060895092E0394000C11F4F7
:10500000882352F0BB0F40F4BF2B11F460FF04C0A3
:105010006F5F7F4F8F4F9F4F089557FD9058440FFC
:10502000551F59F05F3F71F04795880F97FB991F07
:1050300061F09F3F79F087950895121613061406C4
:10504000551FF2CF4695F1DF08C016161706180651
:10505000991FF1CF86957105610508940895E8942C
:10506000BB2766277727CB0197F90895F999FECFDB
:1050700092BD81BDF89A992780B50895262FF99998
:10508000FECF1FBA92BD81BD20BD0FB6F894FA9A2B
:10509000F99A0FBE019608952F923F924F925F9218
:1050A0006F927F928F929F92AF92BF92CF92DF9238
:1050B000EF92FF920F931F93CF93DF93CDB7DEB79D
:1050C000CA1BDB0B0FB6F894DEBF0FBECDBF099431
:1050D0002A88398848885F846E847D848C849B8488
:1050E000AA84B984C884DF80EE80FD800C811B8196
:1050F000AA81B981CE0FD11D0FB6F894DEBF0FBEC5
:10510000CDBFED010895A1E21A2EAA1BBB1BFD0124
:105110000DC0AA1FBB1FEE1FFF1FA217B307E40796
:10512000F50720F0A21BB30BE40BF50B661F771FEE
:10513000881F991F1A9469F76095709580959095CE
:105140009B01AC01BD01CF010895A29FB001B39FA7
:10515000C001A39F700D811D1124911DB29F700D80
:10516000811D1124911D08955058BB27AA270E9424
:10517000CC280C94FC270E94EE2738F00E94F527DB
:1051800020F039F49F3F19F426F40C94EB270EF429
:10519000E095E7FB0C94E527E92F0E940D2858F3D2
:1051A000BA17620773078407950720F079F4A6F50C
:1051B0000C942F280EF4E0950B2EBA2FA02D0B0186
:1051C000B90190010C01CA01A0011124FF27591B4C
:1051D00099F0593F50F4503E68F11A16F040A22F52
:1051E000232F342F4427585FF3CF469537952795C3
:1051F000A795F0405395C9F77EF41F16BA0B620BC2
:10520000730B840BBAF09150A1F0FF0FBB1F661F08
:10521000771F881FC2F70EC0BA0F621F731F841F4B
:1052200048F4879577956795B795F7959E3F08F071
:10523000B0CF9395880F08F09927EE0F9795879533
:1052400008950E9435290C94FC270E94F52758F0F8
:105250000E94EE2740F029F45F3F29F00C94E527E7
:1052600051110C9430280C94EB270E940D2868F300
:105270009923B1F3552391F3951B550BBB27AA270F
:1052800062177307840738F09F5F5F4F220F331F49
:10529000441FAA1FA9F335D00E2E3AF0E0E832D011
:1052A00091505040E695001CCAF72BD0FE2F29D014
:1052B000660F771F881FBB1F261737074807AB07E6
:1052C000B0E809F0BB0B802DBF01FF2793585F4F5B
:1052D0003AF09E3F510578F00C94E5270C94302865
:1052E0005F3FE4F3983ED4F3869577956795B7953D
:1052F000F7959F5FC9F7880F911D9695879597F948
:105300000895E1E0660F771F881FBB1F62177307C0
:105310008407BA0720F0621B730B840BBA0BEE1FD5
:1053200088F7E09508950E94152888F09F5798F017
:10533000B92F9927B751B0F0E1F0660F771F881F9A
:10534000991F1AF0BA95C9F714C0B13091F00E94B4
:105350002F28B1E008950C942F28672F782F8827E5
:10536000B85F39F0B93FCCF3869577956795B395DB
:10537000D9F73EF490958095709561957F4F8F4F4A
:105380009F4F08950E94542708F48FEF08950E94BC
:105390005427880B990B0895EE0FFF1F0590F49189
:1053A000E02D09940F931F93CF93DF9382309105E3
:1053B00010F482E090E0E0917B05F0917C0530E014
:1053C00020E0B0E0A0E0309799F42115310509F410
:1053D0004AC0281B390B24303105D8F58A819B81BE
:1053E0006115710589F1FB0193838283FE0111C070
:1053F000408151810281138148175907E0F0481715
:10540000590799F4109761F012960C93129713961E
:105410001C933296CF01DF91CF911F910F91089588
:1054200000937B0510937C05F4CF2115310551F0D5
:105430004217530738F0A901DB019A01BD01DF01D2
:10544000F801C1CFEF01F9CF90937C0580937B05E4
:10545000CDCFFE01E20FF31F8193919322503109CA
:1054600039832883D7CF2091790530917A05232B72
:1054700041F4209102013091030130937A05209389
:10548000790520910001309101012115310541F488
:105490002DB73EB74091040150910501241B350BF7
:1054A000E0917905F0917A05E217F307A0F42E1B3D
:1054B0003F0B2817390778F0AC014E5F5F4F241778
:1054C000350748F04E0F5F1F50937A0540937905DA
:1054D000819391939FCFF0E0E0E09CCFCF93DF9357
:1054E0000097E9F0FC01329713821282A0917B05AC
:1054F000B0917C05ED0130E020E01097A1F420810F
:105500003181820F931F2091790530917A052817F8
:10551000390709F061C0F0937A05E0937905DF91CE
:10552000CF910895EA01CE17DF07E8F54A815B8144
:105530009E0141155105B1F7E901FB83EA834991C9
:105540005991C40FD51FEC17FD0761F4808191813B
:105550000296840F951FE901998388838281938144
:105560009B838A83F0E0E0E012968D919C911397E3
:105570000097B9F52D913C911197CD010296820FBC
:10558000931F2091790530917A052817390739F64C
:10559000309751F510927C0510927B05B0937A05F7
:1055A000A0937905BCCFD383C28340815181840FFE
:1055B000951FC817D90761F44E5F5F4F88819981A5
:1055C000480F591F518340838A819B819383828333
:1055D0002115310509F0B0CFF0937C05E0937B05F0
:1055E0009ECFFD01DC01C0CF13821282D7CFB0E085
:1055F000A0E0EDEFFAE20C944E288C01009751F4F4
:10560000CB010E94D2298C01C801CDB7DEB7E0E101
:105610000C946A28FC01E60FF71F9C012250310907
:10562000E217F30708F49DC0D901CD91DC911197E1
:10563000C617D70798F0C530D10530F3CE010497CF
:105640008617970708F3C61BD70B2297C193D193F0
:105650006D937C93CF010E946E2AD6CF5B01AC1A6A
:10566000BD0A4C018C0E9D1EA0917B05B0917C055E
:10567000512C412CF12CE12C109731F580917905BA
:1056800090917A058815990509F05CC04616570671
:1056900008F058C08091000190910101009741F4F9
:1056A0008DB79EB74091040150910501841B950B65
:1056B000E817F90708F055C0F0937A05E0937905EB
:1056C000F90171836083A0CF8D919C9111971296FF
:1056D0006C90129713967C901397A815B90559F5FD
:1056E0006C0142E0C40ED11CCA14DB0420F1AC01F1
:1056F0004A195B09DA011296159780F0628273826B
:1057000051834083D9016D937C93E114F10471F0CE
:10571000D7011396FC93EE93129776CF22968C0FB7
:105720009D1FF90191838083F301EFCFF0937C05F6
:10573000E0937B0569CF4816590608F42C017D01DA
:10574000D3019ACFCB010E94D2297C01009749F066
:10575000AE01B8010E94B42BC8010E946E2A8701D5
:1057600053CF10E000E050CFFB01DC0102C00190FC
:105770000D9241505040D8F70895FB01DC01019093
:105780000D920020E1F70895FB01DC0141505040EB
:1057900048F001900D920020C9F701C01D924150C0
:1057A0005040E0F70895AEE0B0E0E9EDFBE20C9484
:1057B0005A280D891E898F89988D26E02C831A839B
:1057C000098397FF02C080E090E801979E838D8354
:1057D000AE01455E5F4F698D7A8DCE0101960E94C4
:1057E000262C4D815E8157FD0AC02F8138854217D6
:1057F00053070CF49A01020F131FF80110822E9622
:10580000E4E00C947628AEE0B0E0E9E0FCE20C9431
:105810005A280D891E8986E08C831A8309838FEFAD
:105820009FE79E838D83AE01475E5F4F6F89788DC2
:10583000CE0101960E94262C2F813885020F131F5E
:10584000F80110822E96E4E00C947628ABE0B0E0EC
:10585000ECE2FCE20C944C287C013B018A01FC0147
:1058600017821682838181FFC8C1CE0101965C0137
:10587000F7019381F30193FD859193FF81913F019E
:10588000882309F453C1853239F493FD859193FF40
:1058900081913F01853229F4B70190E00E94162ED4
:1058A000E7CF912C212C312CFFE1F31538F08B320E
:1058B00011F190F4803209F1833229F137FC3CC0B8
:1058C00020ED280F2A3050F536FE20C08AE0989E41
:1058D000200D1124922E06C08D3291F0803371F785
:1058E000689430F8F30193FD859193FF81913F0116
:1058F0008111DACF21C0689431F8689432F8F2CF80
:10590000689433F8EFCF689434F8ECCFEAE02E9E39
:10591000200D1124222E689435F8E4CF8E3229F41C
:1059200036FC04C1689436F8DDCF8C3619F46894DF
:1059300037F8D8CF8836B1F2982F9F7D95549330A1
:10594000E0F08336A1F18337C1F1833509F063C0FC
:105950002801F2E04F0E511CF801C080D180692D62
:1059600070E036FC02C06FEF7FEFC6010E94002E90
:105970004C01689437F882010AC00C5F1F4FFFE3A7
:10598000F98388248394912C6501E89437F833FED9
:105990002DC0522C8114910471F5552009F468CF63
:1059A000B70180E290E00E94162E5A94F6CFF801DB
:1059B000808189830E5F1F4FE4CF2801F2E04F0EF4
:1059C000511CF801C080D180692D70E036FC02C006
:1059D0006FEF7FEFC6010E940B2E4C018201D5CFE5
:1059E000B70180E290E00E94162E2A942814190430
:1059F00009F0B0F7CECFF60137FC859137FE8191E3
:105A00006F01B70190E00E94162E51105A94F1E0F8
:105A10008F1A9108BFCF843619F0893609F077C004
:105A2000F80137FE6BC060817181828193810C5FC8
:105A30001F4FF32DFF763F2E97FF09C0909580955D
:105A4000709561957F4F8F4F9F4F689437F82AE08C
:105A500030E0A5010E94462EC82ECA188C2C432C7B
:105A600036FE0CC0E89440F8C91440F434FE05C07A
:105A700032FC03C0F32DFE7E4F2E892C44FE95C0D0
:105A8000FE01EC0DF11D8081803309F087C0242DCB
:105A9000297E422E842D8870582E43FC95C040FEEE
:105AA0008FC09C2C821418F42C0C922C981844FE55
:105AB00091C0B70180E390E00E94162E42FE09C01B
:105AC00088E790E041FE02C088E590E0B7010E94BF
:105AD000162EC91408F48AC0CA94D12C9FEFC91A93
