:100000000C9403020C942B020C942B020C94C11F31
:100010000C94C11F0C94C11F0C942B020C942B0246
:100020000C942B020C942B020C942B020C945D1F4D
:100030000C942B020C942B020C942B020C942B028C
:100040000C94BB1E0C942B020C942B1F0C94051FBC
:100050000C942B020C942B020C942B020C942B026C
:100060000C9439200C942B0200407A10F35A00A013
:10007000724E18090010A5D4E80000E87648170071
:1000800000E40B54020000CA9A3B000000E1F505B1
:10009000000080969800000040420F000000A086FB
:1000A00001000000102700000000E803000000002D
:1000B0006400000000000A000000000001000000D1
:1000C00000002C76D888DC674F0823DFC1DFAE59EB
:1000D000E1B1B796E5E3E453C63AE651997696E87E
:1000E000E6C28426EB898C9B62ED407C6FFCEFBC02
:1000F0009C9F40F2BAA56FA5F490055A2AF75C932D
:100100006B6CF9676DC11BFCE0E40D47FEF520E662
:10011000B500D0ED902E0300943577050080841E45
:10012000080000204E0A000000C80C333333330FA0
:10013000986E12831141EF8D2114893BE65516CF3D
:10014000FEE6DB18D1844B381BF77C1D901DA4BB49
:10015000E424203284725E228100C9F124ECA1E5FE
:100160003D273E524F4B23003E524F4B230023006E
:100170003E0023003E00230024003A003E41542D5F
:10018000506F776572426F783A00230024003A007E
:100190003E41542D506F776572426F783A002300CC
:1001A0003E0023003E0023003E0023003E00436F3C
:1001B0006E666967204D6F646500456E74657220D8
:1001C000415420436F6D6D616E647300506C6561C6
:1001D000736520756E7061697220426C7565746F0D
:1001E0006F7468206669727374004E6F20426C757C
:1001F00065746F6F7468206D6F64756C6520666FD1
:10020000756E64206F722069742069732070616953
:10021000726564003E554F4B23003E554F4B230003
:100220003E414F4B23003E414F4B23003E4F4F4B2F
:1002300023003E4F4F4B23003E4F45525223003E7A
:100240004F45525223003E4F45525223003E4F45E8
:10025000525223003E4345525223003E43455252E0
:1002600023003E434F4B23003E434F4B23003E4E63
:100270004F4B23003E4E4F4B23003E4E45525223E0
:10028000003E4E4552522300230023003A003A001C
:100290003E003E003E5645525223003E56455252C5
:1002A000230023003E0023003E00230023003100F2
:1002B00031003E003E0023003E0023003E002300AC
:1002C0002400230024003A003A003A003A003A00A1
:1002D0003A003A003A00240024003E003E00230089
:1002E00023003E003E002300580058455252230090
:1002F0002300580058455252230023005800584507
:100300005252230023004C004C455252230023003C
:100310004C004C455252230023004C004C45525295
:1003200023003E534F4B23003E534F4B23003E537D
:1003300045525223003E53455252230023002300CE
:10034000240024003E003E00230023003E003E0027
:100350003E4D45525223003E4D455252230023004C
:100360003A003A003E0023003A003A003E003E4583
:1003700023003E45230023003A003A003E002300BC
:100380003A003A003E0023003E493A0023003E492D
:100390003A00454F4B2300444F4B23003E464F4B02
:1003A00023003E464F4B230000000000240027009E
:1003B0002A000000000800020100000304070000FA
:1003C00000000000000000000000230026002900BB
:1003D00000000000250028002B000404040404048D
:1003E00004040202020202020303030303030102E4
:1003F00004081020408001020408102001020408B3
:10040000102066217F2611241FBECFEFD8E0DEBF6B
:10041000CDBF11E0A0E0B1E0E8E0F2E602C0059057
:100420000D92AE3DB107D9F725E0AEEDB1E001C0C8
:100430001D92A635B207E1F712E0C2E0D2E004C097
:100440002197FE010E941F2CC130D107C9F70E94DD
:1004500063220C94F7300C94000008950895FC0179
:100460009081909528E030E081E397FF03C0990FD9
:10047000982701C0990F21503109B9F78181892747
:1004800028E030E091E387FF03C0880F892701C08F
:10049000880F21503109B9F70895833081F028F48D
:1004A000813099F08230A9F008958730A9F0883022
:1004B000C9F08430B1F4809180008F7D03C08091B9
:1004C00080008F7780938000089584B58F7784BDF6
:1004D000089584B58F7DFBCF8091B0008F77809396
:1004E000B00008958091B0008F7DF9CFCF93DF9356
:1004F000282F30E0F901EE54FC4F8491F901E251CC
:10050000FC4FD491F901E652FC4FC491CC23A1F0E9
:1005100081110E944D02EC2FF0E0EE0FFF1FEA5315
:10052000FC4FA591B491EC91ED2381E090E009F4AA
:1005300080E0DF91CF91089580E090E0FACF1F93A3
:10054000CF93DF93282F30E0F901EE54FC4F8491D4
:10055000F901E251FC4FD491F901E652FC4FC491EC
:10056000CC23A9F0162F81110E944D02EC2FF0E050
:10057000EE0FFF1FE053FC4FA591B4918FB7F89495
:10058000EC91111108C0D095DE23DC938FBFDF9171
:10059000CF911F910895DE2BF8CFCF93DF9390E09A
:1005A000FC01E251FC4F249186529C4FFC01849146
:1005B0008823C9F090E0880F991FFC01E855FC4F93
:1005C000A591B491FC01E053FC4FC591D491611108
:1005D0000DC09FB7F8948C91209582238C938881CD
:1005E000282328839FBFDF91CF910895623051F473
:1005F0009FB7F8943C91822F809583238C93E88158
:100600002E2BEFCF8FB7F894EC912E2B2C938FBF1E
:10061000EACF1F93CF93DF93182FEB0161E00E9485
:10062000CD02209739F460E0812FDF91CF911F91A7
:100630000C949F02CF3FD10511F461E0F5CFE12F7B
:10064000F0E0EE54FC4FE491E33031F140F4E1305E
:10065000B1F0E230E1F0C038D1057CF7E4CFE7300B
:1006600029F1E83059F1E430B1F7809180008062DF
:1006700080938000D0938B00C0938A0004C084B51F
:10068000806884BDC7BDDF91CF911F91089584B567
:10069000806284BDC8BDF7CF809180008068809360
:1006A0008000D0938900C0938800EDCF8091B00086
:1006B00080688093B000C093B300E5CF8091B00014
:1006C00080628093B000C093B400DDCF8E3008F01C
:1006D0008E508770806480937C0080917A00806463
:1006E00080937A0080917A0086FDFCCF809178001B
:1006F0009091790008953FB7F8948091E603909126
:10070000E703A091E803B091E90326B5A89B05C0D3
:100710002F3F19F00196A11DB11D3FBFBA2FA92F80
:10072000982F8827BC01CD01620F711D811D911D7D
:1007300042E0660F771F881F991F4A95D1F70895E9
:100740008F929F92AF92BF92CF92DF92EF92FF92E1
:100750004B015C010E947B036B017C010E947B03C7
:100760006C197D098E099F09683E734081059105CA
:10077000A8F321E0821A9108A108B10888EEC80EFA
:1007800083E0D81EE11CF11C81149104A104B10482
:1007900029F7FF90EF90DF90CF90BF90AF909F90A0
:1007A0008F900895DC01ED91FC910190F081E02D96
:1007B0000994EF92FF920F931F93CF93DF938C01D5
:1007C0007B01D0E0C0E0F701EC0FFD1F64916623D0
:1007D00061F0D801ED91FC910190F081E02DC8010C
:1007E0000995892B11F02196EECFCE01DF91CF91A3
:1007F0001F910F91FF90EF900895AF92BF92CF920B
:10080000DF92EF92FF920F931F93CF93DF936C01D0
:100810007B018B01040F151FEB015E01AE18BF08B1
:10082000C017D10759F06991D601ED91FC91019063
:10083000F081E02DC6010995892B79F7C501DF917B
:10084000CF911F910F91FF90EF90DF90CF90BF90CD
:10085000AF900895FC01538D448D252F30E0842FF7
:1008600090E0821B930B541710F0CF9608950197D8
:100870000895FC01918D828D981761F0A28DAE0FC5
:10088000BF2FB11D5D968C91928D9F5F9F73928F4C
:1008900090E008958FEF9FEF0895FC01918D828D78
:1008A000981731F0828DE80FF11D858D90E0089545
:1008B0008FEF9FEF0895FC01918D228D892F90E09D
:1008C000805C9F4F821B91098F739927089580E662
:1008D00094E00E945B0421E0892B09F420E0822F40
:1008E000089580E090E0892B29F00E94670481112F
:1008F0000C9400000895FC01A48DA80FB92FB11D20
:10090000A35ABF4F2C91848D90E001968F73992745
:10091000848FA689B7892C93A089B1898C91837023
:1009200080648C93938D848D981306C00288F3891C
:10093000E02D80818F7D80830895EF92FF920F9349
:100940001F93CF93DF93EC0181E0888F9B8D8C8D7B
:1009500098131AC0E889F989808185FF15C09FB76F
:10096000F894EE89FF896083E889F9898081837032
:10097000806480839FBF81E090E0DF91CF911F91E1
:100980000F91FF90EF900895F62E0B8D10E00F5F02
:100990001F4F0F731127E02E8C8D8E110CC00FB6D8
:1009A00007FCFACFE889F989808185FFF5CFCE0170
:1009B0000E947B04F1CFEB8DEC0FFD2FF11DE35A6C
:1009C000FF4FF0829FB7F8940B8FEA89FB898081F3
:1009D0008062CFCFCF93DF93EC01888D8823B9F06D
:1009E000AA89BB89E889F9898C9185FD03C080813A
:1009F00086FD0DC00FB607FCF7CF8C9185FFF2CFB7
:100A0000808185FFEDCFCE010E947B04E9CFDF918D
:100A1000CF9108952091B8023091B9022817390773
:100A200071F49091B6028091B702981741F0E0916D
:100A3000B602F0E0EF5AFD4F808190E008958FEF0D
:100A40009FEF08950895EF92FF920F931F93CF9316
:100A5000DF93DC015C96ED90FC905D97E114F1046E
:100A600079F481E090E013969C938E93129790E036
:100A700080E0DF91CF911F910F91FF90EF9008954B
:100A80005196ED91FC91529750968C915097982FDA
:100A900090950FB75E962C915E97122F127021FDE4
:100AA0006095F8942081112319F1282B2083E70108
:100AB0002197F1F728E0462F50E0308160FF1AC0FF
:100AC000382B3083E7012197F1F7BA0175956795C7
:100AD000215089F7112381F08081892380830FBF02
:100AE0005C968D919C910197F1F781E090E0C1CFE8
:100AF0002923DCCF3923E5CF9081892BEFCF2091BB
:100B0000B8023091B9022817390761F48091B70211
:100B10002091B60290E0805C9F4F821B91098F73F9
:100B20009927089590E080E008952091B8023091CF
:100B3000B90228173907B9F49091B6028091B7022B
:100B4000981789F0E091B602F0E0EF5AFD4F8081EE
:100B50002091B60230E02F5F3F4F2F733327209351
:100B6000B60290E008958FEF9FEF089508950895DD
:100B700020912E02260F3327331F21323105ECF44A
:100B800020913604FC0190E080E0243069F082E09E
:100B90000895A0912E022191AC01425F5D4FA40FF8
:100BA000B52FB11D2C930196861798F380912E02D4
:100BB000680F60932E0280E0089581E008951092FE
:100BC000360481E0809335041092100461E082E1E4
:100BD0000E949F0261E083E10E949F02E9EBF0E046
:100BE00080818E7F808380818D7F808388E4809365
:100BF000B80085E48093BC0008951092EF03109232
:100C0000EE0310923D0410925F040E94DF058DE216
:100C100092E09093ED038093EC038EE292E0909348
:100C2000EB038093EA030895CF93DF9391E09093D1
:100C30000D028823B9F0C091B800D091BA0080911C
:100C4000BC008A7B8093BC0060E082E10E949F022E
:100C500060E083E10E949F020E94DF05D093BA000A
:100C6000C093B800DF91CF9108958F929F92AF9279
:100C7000BF92CF92DF92EF92FF920F931F93CF9389
:100C8000DF93D0915F04D13208F0D7C0182FC09104
:100C90005E040E947B036B017C018091360481110C
:100CA0006BC082E080933604109335048FEF8093FD
:100CB000340410923304D0933204AEE3B4E0E2E1A2
:100CC000F4E080E0D81391C01092110480911104D7
:100CD000CC0FC82BC093110480911004813009F00F
:100CE00088C0109210040E947B036B017C018091EC
:100CF00011048093BB008091380490913904A09135
:100D00003A04B0913B04892B8A2B8B2BA1F00E94D3
:100D10007B03009138041091390420913A043091FA
:100D20003B046C197D098E099F09061717072807D0
:100D3000390708F442C08091BC0083FDD8CF85EC10
:100D40008093BC000E947B036B017C018091360480
:100D5000823009F450C0809134048F3F09F46FC091
:100D600080913404803209F46CC080913404803363
:100D700009F469C084E026C0809138049091390458
:100D8000A0913A04B0913B04892B8A2B8B2B09F458
:100D900084CF0E947B038090380490903904A09007
:100DA0003A04B0903B046C197D098E099F098616A0
:100DB0009706A806B90608F070CF809137040E9404
:100DC000140685E010923D0410925F0410923C04DA
:100DD000DF91CF911F910F91FF90EF90DF90CF9017
:100DE000BF90AF909F908F9008959D9191938F5F4A
:100DF00069CF85EEA5CF8091380490913904A091F8
:100E00003A04B0913B04892B8A2B8B2B09F49ECF9B
:100E10000E947B03009138041091390420913A0418
:100E200030913B046C197D098E099F09061717073D
:100E30002807390708F08ACFC0CF81E0C3CF80E010
:100E4000C1CF82E0BFCF83E0BDCFCF93DF93EC0172
:100E50008B818823A1F0888191E090933C0480935A
:100E60005E0410923D0410925F0481E00E943506FA
:100E700091E0811190E0892FDF91CF9108950E9438
:100E8000FD0581E08B83CE010E942507982F8111FB
:100E9000E2CFF1CFE091EF038091EE03E81730F459
:100EA000F0E0E051FC4F808190E008958FEF9FEFDC
:100EB00008959091EF038091EE032FEF3FEF981785
:100EC00048F4E92FF0E0E051FC4F208130E09F5FD3
:100ED0009093EF03C90108958091EE039091EF0381
:100EE000891B990B0895CF92DF92EF92FF920F9397
:100EF0001F93CF93DF937C01CB018A0120913C04A7
:100F0000222389F0EB016B01C40ED51ECC15DD0543
:100F100069F06991D701ED91FC910190F081E02D8C
:100F2000C7010995F3CF642F0E94B805C801DF916E
:100F3000CF911F910F91FF90EF90DF90CF90089588
:100F4000CF93DF931F92CDB7DEB7698320913C0426
:100F50002223F9F020915F04203258F021E030E0A4
:100F6000FC013383228390E080E00F90DF91CF91EA
:100F7000089580913D04E82FF0E0E25CFB4F9981F9
:100F800090838F5F80933D0480935F0481E090E0C5
:100F9000ECCF61E0CE0101960E94B805F7CF90E05A
:100FA00080E0089520ED37E0DC010E94182C2EE04F
:100FB00031E040E050E00E94792ADA01C9018C500A
:100FC0009E4FAF4FBF4F0895CF93DF93EC0161E089
:100FD00083E00E949F02C230D10538F0CC0FDD1FA4
:100FE000CC0FDD1F25972197F1F760E083E0DF91BB
:100FF000CF910C949F0291E090933C0480935E0407
:1010000010923D0410925F0481E00E94350691E049
:10101000811190E0892F0895CF93DF93DC0114961E
:101020002D913C912417350710F490E01EC0EA0181
:10103000FC0181819281208131E030933C04209336
:101040005E0410923D0410925F04DC01ED91FC916E
:101050000280F381E02D0995C817D90731F781E0A7
:101060000E94350691E08111E0CF892FDF91CF9169
:101070000895CF93DF9300D0CDB7DEB799838A83ED
:1010800042E050E0BE016F5F7F4F8091320590914A
:1010900033050E940C080F900F90DF91CF910895B7
:1010A0002F923F924F925F926F927F928F929F9278
:1010B000AF92BF92CF92DF92EF92FF920F931F9366
:1010C000CF93DF935C011B016A01F12CE12CD50168
:1010D00014968D919C9186010E191F098017910716
:1010E00008F48C01F501D0810E947B032B013C01A7
:1010F00080913604811172C0C02F013208F0C0E225
:10110000F1E0F093360421E0C601801B910BE81654
:10111000F90608F420E0209335048FEF809334041F
:10112000109233048C0F80933204A1E0A093110439
:1011300080911104DD0FD82BD093110480911004FD
:10114000813009F090C0109210040E947B032B01A3
:101150003C01809111048093BB00809138049091F0
:101160003904A0913A04B0913B04892B8A2B8B2B34
:10117000A1F00E947B032091380430913904409102
:101180003A0450913B04641975098609970926179A
:1011900037074807590708F442C08091BC0083FD17
:1011A000D8CFB5ECB093BC000E947B032B013C016F
:1011B00080913604813009F45AC0809133048C1731
:1011C00010F4C0913304A2E1B4E0E0EFF3E080E07A
:1011D0008C1751F19D9191938F5FFACF80913804D4
:1011E00090913904A0913A04B0913B04892B8A2B49
:1011F0008B2B09F47DCF0E947B0320913804309122
:10120000390440913A0450913B04641975098609E8
:101210009709261737074807590708F069CF8091C3
:1012200037040E941406C0E01092EF03C093EE034F
:10123000C017110609F057C041018E0C9F1CE40134
:10124000CE01881999098017910798F5D501119653
:101250008D919C91DC01ED91FC910284F385E02D50
:1012600009958993EDCFE5EEE093BC009DCF809189
:10127000380490913904A0913A04B0913B04892B31
:101280008A2B8B2B09F494CF0E947B032091380486
:101290003091390440913A0450913B046419750926
:1012A00086099709261737074807590708F080CF9E
:1012B000B6CFE00EF11EEC14FD0408F408CF81E077
:1012C000DF91CF911F910F91FF90EF90DF90CF9022
:1012D000BF90AF909F908F907F906F905F904F9056
:1012E0003F902F90089580E0EBCF0F931F93CF9303
:1012F000DF9300D000D000D0CDB7DEB764E170E05E
:1013000080E090E00E94A00346E050E0BE016F5FE5
:101310007F4F80913205909133050E945008182F1D
:10132000882309F452C00B81CE0101960E942F023E
:10133000081357C00E81CE0104960E942F02081395
:1013400050C029813A81322723273227A7E1B1E112
:101350000E94F12A2EE095958795779567952A95B5
:10136000D1F764597141810991090E94462920E011
:1013700030E048EC52E40E946D2B60932C05709392
:101380002D0580932E0590932F052C813D813227CA
:1013900023273227A1E7B2E00E94F12A3CE096958C
:1013A0008795779567953A95D1F70E94442920E073
:1013B00030E048EC52E40E946D2B60932805709356
:1013C000290580932A0590932B05812F26960FB629
:1013D000F894DEBF0FBECDBFDF91CF911F910F916B
:1013E000089510E0F2CF80E094E20E943908811164
:1013F00005C060E070E080EC9FE708950E947509E9
:101400008823B9F360912C0570912D0580912E05EC
:1014100090912F05089580E094E20E94390881118F
:1014200005C060E070E080EC9FE708950E947509B8
:101430008823B9F3609128057091290580912A05C8
:1014400090912B050895CF93DF931F92CDB7DEB710
:1014500041E050E0BE016F5F7F4FFC0184859585C0
:101460000E945008882329F089810F90DF91CF9145
:1014700008958FEFFACF4F925F926F927F92AF9263
:10148000BF92CF92DF92EF92FF920F931F93CF9371
:10149000DF93CDB7DEB729970FB6F894DEBF0FBE46
:1014A000CDBF8C017B016A018FB7F8944090E203B5
:1014B0005090E3036090E4037090E5038FBF809148
:1014C0000A0190910B01A0910C018F839887A98745
:1014D00043E050E0BE01695F7F4FD8011C968D91BB
:1014E0009C910E940C08811117C0B12C8B2D29965C
:1014F0000FB6F894DEBF0FBECDBFDF91CF911F9125
:101500000F91FF90EF90DF90CF90BF90AF907F90C2
:101510006F905F904F900895C8010E94230A87FF43
:1015200007C06AE070E080E090E00E94A003F4CF82
:1015300046E050E0BE016F5F7F4FF80184859585DE
:101540000E945008B82E882381F26A817B81762719
:1015500067277627CB01B0E0A0E09C01AD0184E0D5
:10156000220F331F441F551F8A95D1F7AC808A2D57
:1015700090E064E0959587956A95E1F7092E000C57
:10158000AA0BBB0BBC01CD01622B732B842B952BBB
:101590000E94442920E030E048EC52E40E94A52952
:1015A00020E030E040E855E30E94A529D8011496D8
:1015B0006D937D938D939C9317976A2D6F7070E058
:1015C00090E080E0982F872F762F66272D81622B61
:1015D000982F872F762F66272E81622B0E94442911
:1015E00020E030E048E453E40E94A52920E030E008
:1015F00040E855E30E94A52920E030E048E452E4A9
:101600000E94002BF8016083718382839383C1144D
:10161000D10481F1F601349680E2DF011D928A95B2
:10162000E9F784E290E0A0E0B0E0F60180839183E6
:10163000A283B383D8011A968D919C91B0E0A0E06B
:1016400084839583A683B7838DE090E0A0E0B0E02B
:1016500080879187A287B387408A518A628A738A7A
:10166000F80180819181A281B381F601848B958BF1
:10167000A68BB78BE114F10409F438CFF701349647
:1016800080E2DF011D928A95E9F784E290E0A0E014
:10169000B0E0F70180839183A283B383D8011896C9
:1016A0008D919C91B0E0A0E084839583A683B7835D
:1016B0008DE090E0A0E0B0E080879187A287B387BB
:1016C000408A518A628A738AF80184819581A68151
:1016D000B781F701848B958BA68BB78B07CFAB01B6
:1016E00070E060E0FC01848195810E943B0A81E00A
:1016F000089550E040E0FC01848195810E943B0AFE
:1017000081E00895FC0180819181009711F00C9493
:10171000C12C08950C94C12C0C94C12CFF920F93F2
:101720001F93CF93DF9300D01F92CDB7DEB7F82E73
:1017300062E082E10E94CD0261E083E10E94CD027D
:1017400009E010E061E083E10E949F0265E070E043
:1017500080E090E00E94A00360E083E10E949F028D
:1017600065E070E080E090E00E94A0030150110964
:1017700049F70E94FD050E94FD0560E082E10E949C
:10178000CD0260E083E10E94CD0282E10E947602F8
:10179000892B11F480E055C083E10E947602892BE9
:1017A000C9F38F2D0E94FB078F2D0E94FB07882312
:1017B00089F38091320590913305009711F00E94D2
:1017C000C12C86E090E00E94252C8C018091300590
:1017D00090913105F801F08292838183138280E237
:1017E00090E09583848310933305009332050E9423
:1017F000FD0581E0F8018383C8010E942507882345
:1018000049F282EA90E30E9439086AE070E080E0E1
:1018100090E00E94A0038DE293EF0E94390843E01C
:1018200050E0BE016F5F7F4F80913205909133058C
:101830000E94500829813A8181E02F3F3F4F09F4EF
:10184000A9CF0F900F900F90DF91CF911F910F9123
:10185000FF9008950F931F93CF93DF93EC0188813E
:101860009981009759F02A813B812617370730F07C
:1018700081E0DF91CF911F910F9108958B016F5FF0
:101880007F4F0E944A2D009759F0998388831B83CC
:101890000A832C813D81232B59F7FC011082E8CF6C
:1018A00080E0E7CFFB0101900020E9F73197AF011D
:1018B000461B570BDC01ED91FC910280F381E02D7A
:1018C0000994CF93DF93BC0180E694E00E94D90392
:1018D000EC016EE971E080E694E00E94520C8C0FFE
:1018E0009D1FDF91CF9108958F929F92AF92BF92EB
:1018F000EF92FF920F931F93CF93DF93CDB7DEB795
:10190000A1970FB6F894DEBF0FBECDBF7C01FA01E0
:10191000CB0119A2223008F42AE08E010F5D1F4F7F
:10192000822E912CB12CA12CBF01A50194010E9403
:10193000CF2AF901CA016A300CF5605DD8016E93B7
:101940008D01232B242B252B79F790E080E0109735
:1019500021F0BD01C7010E94520CA1960FB6F89468
:10196000DEBF0FBECDBFDF91CF911F910F91FF90D2
:10197000EF90BF90AF909F908F900895695CDECFFD
:10198000CF92DF92EF92FF920F931F93CF93DF934B
:101990006B01770FEE08FF08F7FE1BC0EC016DE24C
:1019A0000E94D2038C0144275527BA014C195D09C6
:1019B0006E097F092AE0CE010E94740C800F911FEE
:1019C000DF91CF911F910F91FF90EF90DF90CF901B
:1019D00008952AE0B701A601DF91CF911F910F91E1
:1019E000FF90EF90DF90CF900C94740C8F929F92A9
:1019F000AF92BF92CF92DF92EF92FF920F931F931D
:101A0000CF93DF93EC016A017B01AB019601CB011F
:101A1000B6010E94132C61EA71E0811126C04601D3
:101A20005701E894B7F82FEF3FEF4FE75FE7C501A5
:101A3000B4010E94132C81110CC02FEF3FEF4FE730
:101A40005FE7C501B4010E943F2965EA71E01816FD
:101A500064F02FEF3FEF4FE75FE4C701B6010E944C
:101A60000E2C18168CF469EA71E0CE01DF91CF914B
:101A70001F910F91FF90EF90DF90CF90BF90AF90AC
:101A80009F908F900C94520C2FEF3FEF4FE75FEC3D
:101A9000C701B6010E943F2987FDE5CF20E030E075
:101AA000A901C701B6010E943F2910E000E087FFAD
:101AB00009C06DE2CE010E94D2038C01F7FAF094C6
:101AC000F7F8F0942AE037ED43EA5BE3C701B6018B
:101AD0000E94012B6B017C010E94DF2B4B015C01FA
:101AE0000E9444299B01AC01C701B6010E94002B52
:101AF0006B017C012AE0B501A401CE010E94740CA7
:101B0000080F191F6EE2CE010E94D203080F191FA1
:101B100020E030E040E251E4C701B6010E94A5296F
:101B20004B015C010E94DF2B6B01F12CE12C2AE0C0
:101B3000B701A601CE010E94740C080F191FC7013E
:101B4000B6010E9444299B01AC01C501B4010E9469
:101B5000002B20E030E040E251E40E94A5290E94E1
:101B6000DF2BAB0170E060E02AE0CE010E94740C34
:101B7000800F911FDF91CF911F910F91FF90EF90F8
:101B8000DF90CF90BF90AF909F908F9008950C946E
:101B9000520CEF92FF920F931F93CF93DF93EC01C0
:101BA0007B01198218821B821A821D821C82FB0112
:101BB00001900020E9F731978F01061B170BB80140
:101BC0000E942A0C28813981811113C02115310509
:101BD00019F0C9010E94C12C198218821D821C8231
:101BE0001B821A82DF91CF911F910F91FF90EF908E
:101BF00008951D830C83B701C901DF91CF911F9117
:101C00000F91FF90EF900C94102E0F931F93CF9392
:101C1000DF938C01EB0188E2FB0111928A95E9F7D1
:101C20004BE050E06DEA71E0CE010E94172E1B865A
:101C300081E090E0A0E0B0E08C879D87AE87BF8711
:101C4000F80182819381092E000CAA0BBB0B888BB3
:101C5000998BAA8BBB8B8DE090E0A0E0B0E08C8BE1
:101C60009D8BAE8BBF8B1CA21DA21EA21FA280E06B
:101C700090E0A0E2B2EC8C8F9D8FAE8FBF8F80E0A2
:101C800090E0AAEAB2E4888F998FAA8FBB8F8AE985
:101C900099E9A9E9BEE388A399A3AAA3BBA3DF910D
:101CA000CF911F910F9108950F931F93CF93DF93BF
:101CB0008C01EB0188E2FB0111928A95E9F74BE078
:101CC00050E065EB71E0CE010E94172E1B8681E08B
:101CD00090E0A0E0B0E08C879D87AE87BF87F801D9
:101CE00082819381092E000CAA0BBB0B888B998BE8
:101CF000AA8BBB8B8CE090E0A0E0B0E08C8B9D8B3E
:101D0000AE8BBF8B1CA21DA21EA21FA21C8E1D8EFD
:101D10001E8E1F8E80E090E0A8ECB2E4888F998F31
:101D2000AA8FBB8F80E090E0A0E0B0E488A399A3E5
:101D3000AAA3BBA3DF91CF911F910F910895EF92BA
:101D4000FF920F931F93CF93DF93CDB7DEB72C97FE
:101D50000FB6F894DEBF0FBECDBF2EE1269F7001F7
:101D6000279FF00C112430E020E0F901EE0DFF1D5B
:101D7000E35FFC4F15822F5F3F4F2B303105A9F7F2
:101D8000FC010481158101151105C1F419824BE094
:101D900050E0BE016F5F7F4FC7018E5E9C4F0E9477
:101DA000172E2C960FB6F894DEBF0FBECDBFDF9175
:101DB000CF911F910F91FF90EF9008950B30110577
:101DC00010F00BE010E0FC0160817181A801CE01F0
:101DD00001960E94172EE1E0F0E0EC0FFD1FE00FEE
:101DE000F11F1082D4CF85ED8093BC008091380420
:101DF00090913904A0913A04B0913B040796A11D3B
:101E0000B11D23E0B695A795979587952A95D1F7AB
:101E10002091BC0024FD03C0109236040895409127
:101E200038045091390460913A0470913B04452B79
:101E3000462B472B69F30097A105B10541F02AE233
:101E40002A95F1F700C00197A109B109E1CF80916E
:101E500037040C9414060C946B2ACF93DF93EC0197
:101E60008130910531F58091000190910101019738
:101E7000E9F1D0930101C0930001C091C6028091A5
:101E8000C5029C2F0E94D2070E94E4076C2F8CEEA3
:101E900093E00E942B0F6091C5028CEE93E00E94AC
:101EA0002B0F68EE73E080E090E0DF91CF910C940F
:101EB000A003892BD9F48091000190910101892B15
:101EC000A9F01092010110920001C09103018091CC
:101ED00002019C2F0E94D2070E94E4076C2F8CEE17
:101EE00093E00E942B0F60910201D7CFD0930101A4
:101EF000C09300016D2F8CEE93E00E942B0F6C2F8E
:101F0000CCCF8F929F92AF92BF92CF92DF92EF92FF
:101F1000FF920F931F93CF93DF938C017B016A0194
:101F20004C01B12CA12CE80109900020E9F7219780
:101F3000C01BD10BAC16BD0660F4F40161914F01DA
:101F4000C7018A0D9B1D0E942B0FFFEFAF1ABF0A1E
:101F5000EACFF80101900020E9F73197E01BF10B7F
:101F6000C6018E1B9F0BC817D90740F460E0C7015C
:101F70008C0F9D1F0E942B0F2196EBCFDF91CF91ED
:101F80001F910F91FF90EF90DF90CF90BF90AF9097
:101F90009F908F900895CF93DF93D0E0C0E060E0F2
:101FA000CE010E942B0F2196C13082E0D807B9F7ED
:101FB00060E088EE93E00E942B0F60E089EE93E0F2
:101FC0000E942B0F61E08AEE93E00E942B0F6EE0DF
:101FD0008BEE93E00E942B0F60E08CEE93E00E946A
:101FE0002B0F60E08DEE93E00E942B0F60E08FEFEF
:101FF00093E00E942B0F8091E003882341F062E67A
:1020000071E08DEF94E0DF91CF910C94D90368E6F5
:1020100071E080E694E0F7CF1F93CF93DF93EC015C
:10202000162F0E94632A181739F0612FCE01DF9115
:10203000CF911F910C946B2ADF91CF911F9108953E
:10204000DF92EF92FF920F931F93CF93DF93D82EDF
:10205000CAE5D1E087ECE82E82E0F82E0DE013E02F
:102060008881229670E060E00E94090360E0F70139
:10207000828193810E940C1060E0F7018481958138
:102080000E940C10F801148E138E128EFAE0EF0EDF
:10209000F11C025E1F4F81E0C436D80709F7DD202E
:1020A000B1F08091E003882369F06CE973E08DEF73
:1020B00094E0DF91CF911F910F91FF90EF90DF900F
:1020C0000C94D90362EA73E080E694E0F2CFDF91EA
:1020D000CF911F910F91FF90EF90DF9008950C9496
:1020E000632ACF92DF92EF92FF920F931F93CF93C9
:1020F000DF9300D0CDB7DEB78C016B01FC011182FC
:102100001082138212821582148270E060E00E94B5
:102110002A0CF80120813181811133C0211531054C
:1021200019F0C9010E94C12CF80111821082158298
:10213000148213821282C6010E946F10882349F113
:1021400089831A82F801E480F580FFEFEF1AFF0A15
:10215000B701C8010E942A0C882379F0F801208178
:10216000318184819581BE016F5F7F4F820F931F04
:102170000E94102EF801F582E482FFEFCF1ADF0AE9
:10218000DACF1582148260EA71E0C9010E94102E34
:10219000D2CFC8010F900F90DF91CF911F910F9177
:1021A000FF90EF90DF90CF9008952F923F924F9243
:1021B0005F926F927F928F929F92AF92BF92CF92D7
:1021C000DF92EF92FF920F931F93CF93DF9300D094
:1021D00000D0CDB7DEB78C018EE1809FF001819FEA
:1021E000F00D1124E35FFC4F858D882369F0C80151
:1021F000880F991F9B838A83FC01E75DFE4F8081D6
:1022000091818531910549F503E012E022E044E037
:1022100060E070E0CB010E94C42609EF11E022E0EB
:1022200044E060E070E0CB010E94C4260F900F9064
:102230000F900F90DF91CF911F910F91FF90EF9032
:10224000DF90CF90BF90AF909F908F907F906F90D6
:102250005F904F903F902F900895EA81FB81E55E5B
:10226000FE4F60810E949F0284E10E946603BC01D0
:10227000990F880B990B0E94462920E731E640EA26
:102280005BE30E94A52920E030E54CE556E40E947E
:10229000A52920E030EE42E955E40E946D2B6B0148
:1022A0007C0185E10E946603BC01990F880B990BA4
:1022B0000E94462920E731E640EA5BE30E94A52917
:1022C00028E539E340E250E40E94002B2CE437E398
:1022D00049E85DE30E946D2B4B015C0120E030E09A
:1022E000A9010E943F2987FF03C0812C912C540132
:1022F0002AE939E949E95EE3C501B4010E94012BED
:102300004B015C018EE1809FF001819FF00D112453
:10231000E35FFC4F848102E310E0803509F05FC089
:10232000412C512C612C712CEA81FB81E35FFE4F23
:10233000F081F98389810E946603BC01990F880BA3
:10234000990B0E9446291B018C839A839201A30159
:102350000E940E2C18161CF421016C807A8061E01A
:1023600070E080E090E00E94A0030150110911F795
:102370002AE038E240EA5BE3B201C3010E94A529EA
:1023800020E030E54AEA55E40E94A52920E030EC3F
:102390004CE854E40E946D2B2B013C0120E030E01E
:1023A000A9010E943F2987FF03C0412C512C320113
:1023B0000FEE11E022E044E0C501B4010E94C42602
:1023C00003E012E022E044E0C701B6010E94C42607
:1023D00009EF11E022E044E0C301B20125CF412C16
:1023E000512C32018A819B81835F9E4FFC01F081D9
:1023F000F98389810E946603BC01990F880B990BB0
:102400000E9446299B01AC01C301B2010E94012B2D
:102410002B013C0161E070E080E090E00E94A003AD
:102420000150110931F720E030E048E452E4C301E3
:10243000B2010E946D2B2AE038E240EA5BE39ECFB6
:102440000F931F93CF93DF93CDB7DEB76E970FB681
:10245000F894DEBF0FBECDBF29EF31E03F932F933D
:1024600023E032E03F932F932EE1289FF001299F34
:10247000F00D1124E35FFC4F848D8F93838D8F9338
:10248000828D1F928F938DEB91E09F938F938E019E
:102490000F5F1F4F1F930F930E94562E0FB6F89495
:1024A000DEBF0FBECDBF8091E003B801882379F075
:1024B0008DEF94E00E94C70D6E960FB6F894DEBFC4
:1024C0000FBECDBFDF91CF911F910F91089580E690
:1024D00094E0F0CFCF92DF92EF92FF920F931F9391
:1024E000CF93DF93CDB7DEB78A01CDB6DEB64F5FAF
:1024F0005F4FEDB7FEB7E41BF50B0FB6F894FEBFC8
:102500000FBEEDBF4DB75EB74F5F5F4F7A01680FEB
:10251000791FA901C7010E94172EF701E00FF11FD3
:102520001082C7010E94E2260FB6F894DEBE0FBEED
:10253000CDBEDF91CF911F910F91FF90EF90DF9073
:10254000CF9008958F929F92AF92BF92CF92DF92D9
:10255000EF92FF920F931F93CF93DF93CDB7DEB728
:102560004B01ADB6BEB6FC010481158198012F5F09
:102570003F4F4DB75EB7421B530B0FB6F8945EBF8B
:102580000FBE4DBFEDB7FEB731967F01232B21F073
:1025900001151105D9F410828EE1889D6001899D95
:1025A000D00C11244AE050E0B701C601835E9C4F75
:1025B0000E94172E0A301105A0F4F601E00FF11F5A
:1025C000E35FFC4F108A0F5F1F4FF4CFFC01608167
:1025D0007181A801C7010E94172EF701E00FF11FBA
:1025E000DACF0FB6F894BEBE0FBEADBEDF91CF916D
:1025F0001F910F91FF90EF90DF90CF90BF90AF9021
:102600009F908F9008957F928F929F92AF92BF92EA
:10261000CF92DF92EF92FF920F931F93CF93DF93AE
:10262000CDB7DEB7C854D1090FB6F894DEBF0FBEE0
:10263000CDBF8332F9F08E33C9F08D3011F00C9498
:10264000A51EC85BDF4F0FB6F894DEBF0FBECDBF2F
:10265000DF91CF911F910F91FF90EF90DF90CF907E
:10266000BF90AF909F908F907F9008951092EE0151
:102670001092ED01E0EEF1E0A091ED01B091EE01DC
:10268000A052BE4F1C928091E001813539F40E9426
:10269000CB0F1092EE011092ED01D3CF843509F0EB
:1026A000ACC18091BA029091BB022091BC0222235E
:1026B00009F419C1029769F78090C1029090C20293
:1026C000A090C302B090C402C090BD02D090BE02E0
:1026D000E090BF02F090C0020E94F3096093C10233
:1026E0007093C2028093C3029093C4020E940B0AAB
:1026F0006093BD027093BE028093BF029093C002AC
:1027000005E010E06091C1027091C2028091C302A5
:102710009091C4029B01AC010E94132C81110EC048
:102720006091BD027091BE028091BF029091C00283
:102730009B01AC010E94132C8823B9F00E94F3097D
:102740006093C1027093C2028093C3029093C4024B
:102750000E940B0A6093BD027093BE028093BF0279
:102760009093C0020150110969F66091C102709105
:10277000C2028091C3029091C4029B01AC010E94ED
:10278000132C81110EC06091BD027091BE02809128
:10279000BF029091C0029B01AC010E94132C8823C0
:1027A00081F08092C1029092C202A092C302B092C4
:1027B000C402C092BD02D092BE02E092BF02F0926B
:1027C000C0022091BD023091BE024091BF025091E3
:1027D000C00260E070E088EC92E40E94002B20E0F0
:1027E00030E040EA50E40E946D2B9B01AC01609107
:1027F000C1027091C2028091C3029091C4020E94F2
:10280000002B6B017C018091E0038823B9F164E81F
:1028100073E08DEF94E00E94D9034091C102509182
:10282000C2026091C3027091C4028DEF94E00E94D5
:10283000F60C62E873E08DEF94E00E94D9034091BA
:10284000BD025091BE026091BF027091C0028DEF37
:1028500094E00E94F60C60E873E08DEF94E00E9433
:10286000D903B701A6018DEF94E00E94F60C6EE744
:1028700073E08DEF94E00E94D9030BCF6CE773E017
:1028800080E694E00E94D9034091C1025091C202B7
:102890006091C3027091C40280E694E00E94F60C3D
:1028A0006AE773E080E694E00E94D9034091BD029C
:1028B0005091BE026091BF027091C00280E694E028
:1028C0000E94F60C68E773E080E694E00E94D9036A
:1028D000B701A60180E694E00E94F60C66E773E07B
:1028E00080E694E0C8CF019709F07EC0AE014F5F4B
:1028F0005F4FBE016B5D7F4F84E395E00E943B0A12
:1029000029AD3AAD4BAD5CAD60E070E088EC92E48F
:102910000E94002B20E030E040EA50E40E946D2B42
:102920009B01AC016D897E898F89988D0E94002B57
:102930006B017C018091E003882359F16CE673E020
:102940008DEF94E00E94D9034D895E896F89788D5F
:102950008DEF94E00E94F60C6AE673E08DEF94E050
:102960000E94D90349AD5AAD6BAD7CAD8DEF94E0BB
:102970000E94F60C68E673E08DEF94E00E94D903A4
:10298000B701A6018DEF94E00E94F60C66E673E0B5
:1029900070CF64E673E080E694E00E94D9034D892D
:1029A0005E896F89788D80E694E00E94F60C62E67D
:1029B00073E080E694E00E94D90349AD5AAD6BAD57
:1029C0007CAD80E694E00E94F60C60E673E080E661
:1029D00094E00E94D903B701A60180E694E00E942A
:1029E000F60C6EE573E07CCF8091E00362E773E064
:1029F00081113FCF6EE673E073CF8D3409F0C7C00D
:102A000001900020E9F7E15EF140329708F45DC0E3
:102A100022E030E041E050E061E070E080EE91E0E3
:102A20000E946A12FC01ED5AFE4F2081213449F4C4
:102A30008091E00367E573E081111BCF60E573E0EF
:102A40004FCF0E94D5108E010F5F1F4F84E1F80118
:102A500011928A95E9F78091E003882351F16EE4A1
:102A600073E08DEF94E00E94D90389EF91E09F938A
:102A70008F9383E092E09F938F9383EC91E09F93F9
:102A80008F931F9284E18F931F930F930E94262EA2
:102A90000FB6F894DEBF0FBECDBF8091E003B80142
:102AA000882361F08DEF94E00E94C70D6AE473E023
:102AB000E0CE6CE473E080E694E0D5CF80E694E06D
:102AC0000E94C70D68E473E00BCF8091E003882378
:102AD00009F44FC066E473E08DEF94E00E94D903DF
:102AE00010E000E064E1762ECE0101967C0179EFE2
:102AF000C72E71E0D72EE3E0AE2EE2E0BE2EF3EC5F
:102B00008F2EF1E09F2EC8010E94D510F701272DCE
:102B100011922A95E9F7DF92CF92BF92AF929F92DE
:102B20008F921F927F92FF92EF920E94262E0FB6F5
:102B3000F894DEBF0FBECDBF8091E003B7018823BC
:102B4000E9F08DEF94E00E94C70D62E473E08DEF31
:102B500094E00E94D9030F5F1F4F0530110599F6CD
:102B60008091E0036EE373E0811183CE6CE373E048
:102B7000B7CE64E473E080E694E0B0CF80E694E002
:102B80000E94C70D60E473E080E694E0E2CF8335F5
:102B900009F0B7C022E030E041E050E061E070E0D1
:102BA00080EE91E00E946A126C0123E030E043E085
:102BB00050E062E070E080EE91E00E946A127C01D9
:102BC0008EE18C9D80018D9D100D1124035F1C4FA3
:102BD000F8018481803579F5FFEFEF16F10411F0EB
:102BE00008F053C0F601EE0FFF1FE65AFE4FB70183
:102BF00080810E9409032AE02C9DC0012D9D900D2B
:102C000011249C0129533D4F69016E2DF9018481E6
:102C100095810E940C106E2DF601828193810E9495
:102C20000C10F801F48EE38E81E0EF2809F480E0C7
:102C3000F801828F2AC0823509F05AC0E114F104EC
:102C400069F5F601EE0FFF1FE65AFE4F70E060E0F7
:102C500080810E9409032AE02C9DC0012D9D900DCA
:102C600011249C0129533D4F790160E0F9018281D3
:102C700093810E940C1060E0F701848195810E948D
:102C80000C10F801148E138E128E8091E00368E20E
:102C900073E08111EECD62E273E022CE1E141F04B8
:102CA000A4F7F601EE0FFF1FE65AFE4F6FEF70E03C
:102CB00080810E9409032AE02C9DC0012D9D900D6A
:102CC00011249C0129533D4F79016FEFF901828155
:102CD00093810E940C106FEFF701848195810E940F
:102CE0000C108FEF90E0F801948F838F81E0A1CFDB
:102CF0008091E00365E373E08111BBCD6EE273E088
:102D0000EFCD843439F481E090E00E942D0F67E923
:102D100073E0E6CD853439F490E080E00E942D0F19
:102D200062E973E0DDCD8C3409F0EDC00190002044
:102D3000E9F7E15EF140329708F4ABCC22E030E0F5
:102D400041E050E061E070E080EE91E00E946A12A4
:102D50008C0123E030E043E050E062E070E090E07E
:102D600080E00E946A128F3F910551F048F082E0A6
:102D700090E090930101809300016CE173E0B0CD8D
:102D800001151105B1F59093C6028093C5020E940A
:102D9000D2070E94E40760E088EE93E00E942B0FC8
:102DA0006091C50289EE93E00E942B0F6091C602EC
:102DB0008CEE93E00E942B0F6091C5028CEE93E0A5
:102DC0000E942B0F82E090E090930101809300011C
:102DD0006AE173E080E694E00E94D9036091C50245
:102DE0007091C60280E694E00E94C00C68E173E036
:102DF00077CD0130110509F042C08091C502909154
:102E0000C602059662E173E08F3F910511F008F06C
:102E100067CD9093C6028093C5020E94D2070E949C
:102E2000E40760E088EE93E00E942B0F6091C502FA
:102E300089EE93E00E942B0F6091C6028CEE93E026
:102E40000E942B0F6091C5028CEE93E00E942B0F25
:102E500082E090E0909301018093000160E173E0D3
:102E600080E694E00E94D9036091C5027091C60289
:102E700080E694E00E94C00C6EE073E031CD023039
:102E8000110509F006CC8091C5029091C602059704
:102E900068E073E08F3F910511F008F021CD909329
:102EA000C6028093C5020E94D2070E94E40760E038
:102EB00088EE93E00E942B0F6091C50289EE93E0AB
:102EC0000E942B0F6091C6028CEE93E00E942B0FA4
:102ED0006091C5028CEE93E00E942B0F10930101CC
:102EE0000093000166E073E080E694E00E94D9035D
:102EF0006091C5027091C60280E694E00E94C00C09
:102F000064E073E0EDCC883509F0F3C00190002057
:102F1000E9F7E15EF140329708F4BBCB22E030E004
:102F200041E050E061E070E080EE91E00E946A12C2
:102F30007C0123E030E043E050E062E070E090E0AC
:102F400080E00E946A128F3F910551F048F082E0C4
:102F500090E090930101809300016EEF72E0C0CC8D
:102F6000E114F104B1F590930301809302010E94F2
:102F7000D2070E94E40760E08AEE93E00E942B0FE4
:102F8000609102018BEE93E00E942B0F6091030190
:102F90008CEE93E00E942B0F609102018CEE93E087
:102FA0000E942B0F82E090E090930101809300013A
:102FB0006CEF72E080E694E00E94D9036091020118
:102FC0007091030180E694E00E94C00C6AEF72E009
:102FD00087CCF1E0EF16F10409F044C00091020142
:102FE000109103010B5F1F4F64EF72E0093121E084
:102FF000120708F075CC1093030100930201C80179
:103000000E94D2070E94E407612F8AEE93E00E949B
:103010002B0F609102018BEE93E00E942B0F6091C9
:1030200003018CEE93E00E942B0F609102018CEE65
:1030300093E00E942B0F82E090E090930101809337
:10304000000162EF72E080E694E00E94D903609193
:1030500002017091030180E694E00E94C00C60EFD1
:1030600072E03ECC32E0E316F10409F012CB00919D
:10307000020110910301055011096AEE72E0093155
:1030800081E0180708F02CCC109303010093020193
:10309000C8010E94D2070E94E407612F8AEE93E0E4
:1030A0000E942B0F609102018BEE93E00E942B0F88
:1030B000609103018CEE93E00E942B0F609102015E
:1030C0008CEE93E00E942B0FF0920101E092000140
:1030D00068EE72E080E694E00E94D90360910201FC
:1030E0007091030180E694E00E94C00C66EE72E0ED
:1030F000F7CB803509F007C201900020E9F7E15EC7
:10310000F140329740F122E030E041E050E061E0F0
:1031100070E080EE91E00E946A128C010E94D5104E
:103120008091E003882391F064EE72E08DEF94E0EB
:103130000E94D903C8010E9420128091E00360EE32
:1031400072E0811196CB6EED72E0CACB62EE72E056
:1031500080E694E0EDCF8091E003882309F42EC14E
:103160006CED72E08DEF94E00E94D90310E000E076
:10317000C8010E94D510C8010E9420128091E0036E
:10318000882309F420C168ED72E08DEF94E00E947D
:10319000D9030F5F1F4F0730110551F78091BA0215
:1031A0009091BB02892B09F4F5C08091BC02882361
:1031B00009F432C18090C1029090C202A090C30273
:1031C000B090C402C090BD02D090BE02E090BF0299
:1031D000F090C0020E94F3096093C1027093C20292
:1031E0008093C3029093C4020E940B0A6093BD02B5
:1031F0007093BE028093BF029093C00205E010E07E
:103200006091C1027091C2028091C3029091C40288
:103210009B01AC010E94132C81110EC06091BD0274
:103220007091BE028091BF029091C0029B01AC01DF
:103230000E94132C8823B9F00E94F3096093C10205
:103240007093C2028093C3029093C4020E940B0A3F
:103250006093BD027093BE028093BF029093C00240
:103260000150110969F66091C1027091C20280910A
:10327000C3029091C4029B01AC010E94132C8111E6
:103280000EC06091BD027091BE028091BF0290910C
:10329000C0029B01AC010E94132C882381F0809214
:1032A000C1029092C202A092C302B092C402C09224
:1032B000BD02D092BE02E092BF02F092C002C09066
:1032C000C102D090C202E090C302F090C4022091EB
:1032D000BD023091BE024091BF025091C00260E039
:1032E00070E088EC92E40E94002B20E030E040EA9D
:1032F00050E40E946D2B9B01AC01C701B6010E94F6
:10330000002B4B015C018091E003B701A6018823EB
:1033100009F45EC08DEF94E00E94F60C64ED72E05B
:103320008DEF94E00E94D9034091BD025091BE02FE
:103330006091BF027091C0028DEF94E00E94F60C84
:1033400062ED72E08DEF94E00E94D903B501A40113
:103350008DEF94E00E94F60C8091DF018F30A8F091
:103360008091DE0191E089278093DE01882309F4B2
:1033700050C08DE690E30E94390861E070E080E083
:1033800090E00E94A0031092DF018091DF018F5F27
:103390008093DF018091E003882309F4A5C064ECE9
:1033A00072E08DEF94E00E94D9036FEE71E08DEF33
:1033B00094E00E94C70D62EC72E05BCA6AED72E0B5
:1033C00080E694E0D1CE66ED72E080E694E0DFCE58
:1033D00080E694E00E94F60C60ED72E080E694E0F6
:1033E0000E94D9034091BD025091BE026091BF027C
:1033F0007091C00280E694E00E94F60C6EEC72E0E0
:1034000080E694E00E94D903B501A40180E694E02F
:10341000A1CF86E690E3AFCFAE014F5F5F4FBE0115
:103420006B5D7F4F84E395E00E943B0ACD88DE8888
:10343000EF88F88C29AD3AAD4BAD5CAD60E070E043
:1034400088EC92E40E94002B20E030E040EA50E457
:103450000E946D2B9B01AC01C701B6010E94002B9D
:103460004B015C018091E003B701A6018823F9F0CC
:103470008DEF94E00E94F60C6CEC72E08DEF94E01E
:103480000E94D90349AD5AAD6BAD7CAD8DEF94E090
:103490000E94F60C6AEC72E08DEF94E00E94D90372
:1034A000B501A4018DEF94E00E94F60C73CF80E685
:1034B00094E00E94F60C68EC72E080E694E00E94D2
:1034C000D90349AD5AAD6BAD7CAD80E694E00E9466
:1034D000F60C66EC72E080E694E00E94D903B50138
:1034E000A40180E694E0E0CF60EC72E080E694E036
:1034F0000E94D9036FEE71E080E694E00E94C70D50
:103500006EEB72E0EDC9823409F095C080EE91E077
:10351000FC0101900020E9F7CF01815E91401091FC
:10352000E0030297D8F122E030E041E050E061E0B2
:1035300070E080EE91E00E946A127C011123B9F0E4
:103540006CEB72E08DEF94E00E94D9038EE18E9DCA
:10355000F0018F9DF00D1124E35FFC4F628D70E050
:103560008DEF94E00E94C00C6AEB72E082C968EBB8
:1035700072E080E694E00E94D9038EE18E9DF00116
:103580008F9DF00D1124E35FFC4F628D70E080E6AB
:1035900094E00E94C00C66EB72E0A2C964EB72E09A
:1035A0008DEF94E0111104C062EB72E080E694E0CC
:1035B0000E94D9030DE013E023EAE22E23E0F22E6D
:1035C000F801628D70E08091E003882389F18DEF2E
:1035D00094E00E94C00C025E1F4FE016F10681F7D6
:1035E0008091E00381111AC06EEA72E080E694E0F7
:1035F0000E94D9038091E003811115C06EEA72E048
:1036000080E694E00E94D9038091E0036AEA72E0C8
:10361000882309F465C96CEA72E02BC960EB72E09B
:103620008DEF94E0E5CF60EB72E08DEF94E0EACFB0
:1036300080E694E0CECF863509F097C080EE91E029
:10364000FC0101900020E9F7CF01815E91401091CB
:10365000E003029708F44FC022E030E041E050E080
:1036600061E070E080EE91E00E946A127C018EE1E0
:103670008E9DF0018F9DF00D1124E35FFC4F84813E
:10368000803511F0863581F51123B9F068EA72E0D2
:103690008DEF94E00E94D9038EE18E9DF0018F9D05
:1036A000F00D1124E35FFC4F638D748D8DEF94E07A
:1036B0000E94C00C66EA72E0DCC864EA72E080E650
:1036C00094E00E94D9038EE18E9DF0018F9DF00D54
:1036D0001124E35FFC4F638D748D80E694E00E94BB
:1036E000C00C62EA72E0FCC86BE972E01111C1C85B
:1036F00064E972E0F5C862E972E08DEF94E01111BF
:1037000004C060E972E080E694E00E94D9030DE015
:1037100013E0F8018481803581F4638D748D80918C
:10372000E0038823C9F08DEF94E00E94C00C6EE89E
:1037300072E08DEF94E00E94D903025E1F4FF3E028
:10374000033A1F0731F78091E0036AE872E08111C4
:1037500090C868E872E0C4C880E694E00E94C00C9B
:103760006CE872E080E694E0E6CF8E3409F05CC04D
:1037700022E030E041E050E061E070E080EE91E076
:103780000E946A128C010897BCF5FE0131968EE109
:10379000809F6001819FD00C112490E080E07F0128
:1037A000DC01AC0DBD1DA35FBC4F15961C921192A0
:1037B00001968B309105A1F74BE050E062EE71E08D
:1037C000C7010E94172E4CE050E062EE71E0C60186
:1037D0008E5E9C4F0E94172E8AE0809FF001819F91
:1037E000F00D1124E953FD4F668177814CE050E0E4
:1037F000C7010E94810F0AC08091E003882379F0FD
:1038000061E872E08DEF94E00E94D9038091E003BB
:1038100064E772E081112DC86EE672E061C86AE764
:1038200072E080E694E0F0CF833409F048C022E0F3
:1038300030E041E050E061E070E080EE91E00E9415
:103840006A128C0108974CF08091E0036BE572E0FE
:1038500081110FC864E572E043C84DE050E062EEAC
:1038600071E0CE0101960E94172E1E862EE1209F48
:10387000C001219F900D11244AE050E0BE016F5F0E
:103880007F4F835E9C4F0E94172E8AE0809FF0013D
:10389000819FF00D1124E953FD4F608571854DE046
:1038A00050E0CE0101960E94810F8091E00368E60E
:1038B00072E081110C94391462E672E011C88F3401
:1038C00009F056C022E030E041E050E061E070E0F5
:1038D00080EE91E00E946A12883091056CF42EE12E
:1038E000289FF001299FF00D1124E35FFC4F2381F5
:1038F000203569F0263559F08091E0036DE472E0DF
:1039000081110C94391466E472E00C947014609187
:10391000E201262F2D7F203559F08091E0036FE3DF
:1039200072E081110C94391468E372E00C94701405
:103930002EE1289FF001299FF00D1124E35FFC4F39
:1039400064832AE0289FF001299FF00D1124E95398
:10395000FD4F808191810E940C108091E00362E311
:1039600072E081110C9439146CE272E00C947014C2
:103970008134D9F50AE511E087ECC82E82E0D82E13
:103980009DE0E92E93E0F92EBB24B394F8018081E9
:103990000E5F1F4F6FEF70E00E9409036FEFF6019B
:1039A000828193810E940C106FEFF60184819581D2
:1039B0000E940C108FEF90E0F701948F838FB28EEE
:1039C000FAE0CF0ED11C2EE1E20EF11C31E00436FC
:1039D0001307E1F68091E00360E272E081110C943C
:1039E000391466E272E00C947014863429F481E094
:1039F0000E9420100C944913823529F4F0E0E0E095
:103A000009950C944913853559F48091E00364E1DC
:103A100072E081110C9439146AE172E00C94701414
:103A2000893509F05CC069EC71E08DEF94E00E948B
:103A3000520C68EE73E080E090E00E94A0038DEFEE
:103A400094E00E947F05892B09F43FC08DEF94E03C
:103A50000E9495058F349105C1F58EEA91E00E9490
:103A6000610C8DEF94E00E947F05892B59F08DEF5A
:103A700094E00E94950561E070E080E090E00E9493
:103A8000A003EFCF8AEB91E00E94610C8DEF94E0F0
:103A90000E947F05892B49F08DEF94E00E949505E7
:103AA000682F80E694E00E949D0480E694E00E94E6
:103AB0005B04892B59F380E694E00E943904682F57
:103AC0008DEF94E00E942305E1CF8AEE91E00E9401
:103AD000610C8CEC91E00E94610C0C9449138734CA
:103AE000A1F522E030E041E050E061E070E080EEDE
:103AF00091E00E946A122EE1289F8001299F100DFB
:103B000011240E5E1C4F8091E003882379F06CEA4B
:103B100071E08DEF94E00E94D903B8018DEF94E03D
:103B20000E94C70D6AEA71E00C94391468EA71E0EA
:103B300080E694E00E94D903B80180E694E00E94F8
:103B4000C70D66EA71E00C9470148834A1F522E088
:103B500030E041E050E061E070E080EE91E00E94F2
:103B60006A122EE1289F8001299F100D1124035E07
:103B70001C4F8091E003882379F064EA71E08DEFB7
:103B800094E00E94D903B8018DEF94E00E94C70D24
:103B900062EA71E00C94391460EA71E080E694E026
:103BA0000E94D903B80180E694E00E94C70D6EE937
:103BB00071E00C9470148B3409F065C08E010F5FB6
:103BC0001F4F88E0F80111928A95E9F7EDE0F3E0E4
:103BD000D8018FED93E024812D937E968E179F0759
:103BE000D1F78091E003882339F160E971E08DEF2E
:103BF00094E00E94D9036CE475E08DEF94E00E949C
:103C000058216EE871E08DEF94E00E94D90366E4DC
:103C100075E08DEF94E00E9458216CE871E08DEF23
:103C200094E00E94D903B8018DEF94E00E94C70D83
:103C30006AE871E00C9439146CE771E080E694E076
:103C40000E94D9036CE475E080E694E00E9458215C
:103C50006AE771E080E694E00E94D90366E475E0CB
:103C600080E694E00E94582168E771E080E694E0E5
:103C70000E94D903B80180E694E00E94C70D66E770
:103C800071E00C9470148A34A1F58E010F5F1F4F00
:103C900087E0F80111928A95E9F7EDE0F3E0D801A9
:103CA00083818D937E9623E0EF3DF207C9F78091E3
:103CB000E003882379F064E771E08DEF94E00E94DF
:103CC000D903B8018DEF94E00E94C70D62E771E05F
:103CD0000C94391460E771E080E694E00E94D90307
:103CE000B80180E694E00E94C70D6EE671E00C9486
:103CF0007014893411F00C9449138091E0038823E7
:103D000091F06EE873E08DEF94E00E94D90360912A
:103D1000BA027091BB028DEF94E00E94C00C6CE877
:103D200073E00C94391468E873E080E694E00E9434
:103D3000D9036091BA027091BB0280E694E00E94C0
:103D4000C00C66E873E00C9470142091ED01309182
:103D5000EE012C30310510F00C942113A9014F5FB6
:103D60005F4F5093EE014093ED0120523E4FF90119
:103D700080830C9421131F920F920FB60F9211247F
:103D80002F933F938F939F93AF93BF938091E203C1
:103D90009091E303A091E403B091E5033091E10336
:103DA00023E0230F2D3758F50196A11DB11D209357
:103DB000E1038093E2039093E303A093E403B093C1
:103DC000E5038091E6039091E703A091E803B091A9
:103DD000E9030196A11DB11D8093E6039093E703CB
:103DE000A093E803B093E903BF91AF919F918F91A6
:103DF0003F912F910F900FBE0F901F90189526E8BE
:103E0000230F0296A11DB11DD2CF1F920F920FB6A4
:103E10000F9211242F933F934F935F936F937F9350
:103E20008F939F93AF93BF93EF93FF9380E694E0BC
:103E30000E947B04FF91EF91BF91AF919F918F9171
:103E40007F916F915F914F913F912F910F900FBE96
:103E50000F901F9018951F920F920FB60F9211247A
:103E60002F938F939F93EF93FF93E0917004F091C2
:103E700071048081E0917604F091770482FD1BC08B
:103E80009081809179048F5F8F7320917A048217DB
:103E900041F0E0917904F0E0E05AFB4F958F809378
:103EA0007904FF91EF919F918F912F910F900FBE09
:103EB0000F901F9018958081F4CF1F920F920FB62C
:103EC0000F9211242F933F938F939F93EF93FF9320
:103ED0008091B50287FF1FC0109285001092840068
:103EE0008091B5028F5F8093B5028091B50287FF04
:103EF00004C08091B5028C30ACF080918400909128
:103F00008500049680349C4990F1809184009091C2
:103F1000850004962EC08091B50287FFE1CF809185
:103F2000B502DECF2091840030918500E091B5028A
:103F30008E2FEE0F990BFC01EE0FFF1FE80FF91FFC
:103F4000EF56FD4F81819281820F931F90938900DC
:103F5000809388008091B502FF91EF919F918F919E
:103F60003F912F910F900FBE0F901F90189580E4F6
:103F70009CE990938900809388008FEF8093B5022D
:103F8000EBCF1F920F920FB60F9211242F933F93F6
:103F90004F935F936F937F938F939F93AF93BF9351
:103FA000EF93FF93E091B802F091B902309749F096
:103FB000A685B7858585968D91FF14C09C91892330
:103FC000A1F4FF91EF91BF91AF919F918F917F915C
:103FD0006F915F914F913F912F910F900FBE0F9076
:103FE0001F9018959C91892361F7A389B4899C91AE
:103FF0008589809589238C93868997890197F1F724
:10400000608D718DA685B785558538E020E0CB01A0
:104010000197F1F7822F90E095958795282F4C9185
:10402000452309F02068315091F7868D81FD209558
:104030008091B70290E001968F7399273091B60274
:10404000381799F0A091B702B0E0AF5ABD4F2C934A
:104050008093B702828D938D0197F1F7A389B4897C
:104060008C919589892B8C93ACCF868D8160868FBE
:10407000F1CF1F920F920FB60F9211242F933F93FF
:104080004F935F936F937F938F939F93AF93BF9360
:10409000EF93FF938091B900887F803609F44AC07E
:1040A000F0F5883209F4A7C018F5803109F49BC0F7
:1040B000B8F4882309F4F9C0883009F494C0FF915A
:1040C000EF91BF91AF919F918F917F916F915F9190
:1040D0004F913F912F910F900FBE0F901F90189509
:1040E000883109F488C0803251F78093340414C0B9
:1040F000803409F49DC040F48033B9F38833F9F675
:104100008093340485ECB0C0803509F485C08835CF
:1041100009F496C0883499F60E94F30ED0CF8839FE
:1041200009F48CC038F5883729F050F4883611F03E
:10413000803729F683E0809336041092500257C0EE
:10414000883809F47BC0803919F0803809F0B7CF7E
:1041500080915002803208F071C0E091500281E0FD
:104160008E0F809350028091BB00F0E0E05DFD4F28
:1041700080833DC0803B39F0E0F4803A09F479C097
:10418000883A09F09CCF84E08093360410922F0285
:1041900010922E02E091EC03F091ED0309958091CD
:1041A0002E0281110FC081E080932E0210920E0228
:1041B00009C0803C09F4A6CF883C09F4A3CF883B12
:1041C00009F07DCFE0912F0281E08E0F80932F02C6
:1041D000F0E0E25FFD4F80818093BB0090912F0261
:1041E00080912E0229C0809111048093BB0085EC40
:1041F0008093BC0064CF909133048091320498176F
:1042000058F5E091330481E08E0F80933304F0E0A1
:10421000EE5EFB4F8081E9CFE091330481E08E0FA9
:10422000809333048091BB00F0E0EE5EFB4F80830F
:1042300090913304809132049817C8F285E8D8CF62
:10424000E091330481E08E0F809333048091BB00B2
:10425000F0E0EE5EFB4F80838091350481115CCFEE
:1042600081E08093100484EA8093BC0010923604AD
:1042700026CF85EC8093BC001092360480915002CA
:10428000803230F4E0915002F0E0E05DFD4F1082AA
:104290006091500270E0E091EA03F091EB0380E35B
:1042A00092E00995109250020ACF1092340434CF54
:1042B000DB0114964D915C9115976D917C91DC0119
:1042C000ED91FC910280F381E02D0994CF92DF9271
:1042D000EF92FF92109263041092620498EEC92E3E
:1042E00093E0D92EE12CF12CC0926404D0926504A5
:1042F000E0926604F09267048CE691E0909361048A
:104300008093600485EC90E090936D0480936C043E
:1043100084EC90E090936F0480936E0480EC90E0C6
:10432000909371048093700481EC90E090937304F7
:104330008093720482EC90E09093750480937404EF
:1043400086EC90E090937704809376041092790441
:1043500010927A0410927B0410927C0410921F0534
:1043600010921E05C0922005D0922105E0922205F0
:10437000F09223058EE791E090931D0580931C0534
:104380006CEC71E08CE495E00E94C90D66ED71E083
:1043900086E495E00E94C90D1092410510924005F7
:1043A0001092430510924205109245051092440563
:1043B00010923305109232058CE195E0909331050F
:1043C0008093300580E090E0A0ECBFE78093280563
:1043D00090932905A0932A05B0932B0580932C0573
:1043E00090932D05A0932E05B0932F0510920005F4
:1043F0001092FF04C0920105D0920205E0920305DD
:10440000F092040580E991E09093FE048093FD040E
:1044100010921405109213051092160510921505AE
:10442000109218051092170510921A05109219058E
:1044300060911B056E7F6D7F60931B0566956170B3
:1044400081E0682782E00E949F0261E082E00E9492
:10445000CD02E0EFF3E0E491E0930D05ECEDF3E045
:10446000E491F0E0EE0FFF1FE053FC4F8591949133
:1044700090930F0580930E0560E083E00E94CD02CB
:1044800080911B0581FD04C061E083E00E949F02D2
:1044900083E080930905E1EFF3E0E491E0930A05FE
:1044A000EDEDF3E0E491F0E0EE0FFF1FEA53FC4F77
:1044B0008591949190930C0580930B05FF90EF905C
:1044C000DF90CF900895CF93DF93CDB7DEB72C97D1
:1044D0000FB6F894DEBF0FBECDBF789484B582606E
:1044E00084BD84B5816084BD85B5826085BD85B598
:1044F000816085BD80916E00816080936E00109216
:104500008100809181008260809381008091810090
:104510008160809381008091800081608093800021
:104520008091B10084608093B1008091B00081607F
:104530008093B00080917A00846080937A008091AB
:104540007A00826080937A0080917A008160809303
:104550007A0080917A00806880937A001092C1007E
:10456000E0917004F091710482E08083E0916C042A
:10457000F0916D041082E0916E04F0916F048FEC65
:10458000808310927804E0917404F091750486E0C1
:104590008083E0917204F091730480818061808354
:1045A000E0917204F0917304808188608083E091CF
:1045B0007204F0917304808180688083E0917204BA
:1045C000F091730480818F7D808310921805109282
:1045D00017051092160510921505109214051092E9
:1045E00013058DE991E090931A0580931905909138
:1045F0000905963108F047C02DEB30E030931405E3
:10460000209313052BE931E030931605209315050F
:104610002CE231E0309318052093170520916800B3
:1046200084E0983048F031E09E3008F430E081E0DA
:1046300001C0880F3A95EAF7822B809368002DE637
:1046400030E0983050F02BE630E09E3030F02CE631
:1046500030E0963110F030E020E0309311052093E7
:104660001005292F30E0983008F0EBC181E001C03F
:10467000880F9A95EAF78093120580911905909119
:104680001A050197F1F78091170590911805892B6C
:1046900049F1E091B802F091B90284E0ED3FF807EA
:1046A00009F1309739F0A389B4899C918589809567
:1046B00089238C9380911B058E7F80931B0510921C
:1046C000B7021092B6028DEF94E09093B9028093F6
:1046D000B802E0911005F0911105808190911205CA
:1046E000892B80835AE5A52E51E0B52E64E6E62E8F
:1046F00061E0F62E8501D8018C910E5F1F4F70E0AE
:1047000060E00E940903E016F106A9F78FEF93E03D
:104710000E946F10883581F0482F50E070E060E013
:104720002AE080E694E00E94740C0E94CB0F68E5BA
:104730008FEF93E00E942B0F47ECC42E42E0D42E63
:10474000F60190E080E0918380839C012F5F3F4FD2
:10475000338322832E5F3F4F358324832D5F3F4F6A
:1047600037832683255F3F4F318720874C963A96C3
:10477000843C910541F784E40E948E0B882309F460
:1047800094C10E94F3096093C1027093C2028093A6
:10479000C3029093C4020E940B0A6093BD027093FF
:1047A000BE028093BF029093C00205E010E06091CA
:1047B000C1027091C2028091C3029091C4029B0118
:1047C000AC010E94132C811149C16091BD0270910E
:1047D000BE028091BF029091C0029B01AC010E9479
:1047E000132C811145C16091C1027091C202809168
:1047F000C3029091C4029B01AC010E94132C811151
:1048000054C16091BD027091BE028091BF0290912F
:10481000C0029B01AC010E94132C811146C181E0B2
:104820008093BC0282E090E09093BB028093BA0236
:10483000EDE0F3E082EDDF011D928A95E9F78F014B
:1048400093E5692E91E0792EF12CE12C22E5522E90
:1048500030E5332E44244394F501819191915F0119
:10486000D8018D939C938E30910508F4BAC10E97B0
:10487000089708F0B8C181E4F8018283D6018D91D0
:104880009C910E946F10F30191913F01882309F4DC
:10489000ACC1D80114968C93F8018481863509F057
:1048A000B5C15482F8019383D60112968D919C91E3
:1048B0000E946F10F8019481913409F0ACC1428ECE
:1048C000D60114968D919C910E946F1090E0F80192
:1048D000948F838FD60116968D909C90B401CE0153
:1048E00001960E9471108D819E81892B09F499C1D6
:1048F000E981FA818081882309F493C1B401CE0152
:1049000007960E9471108B859C8522242394892B05
:1049100039F0EF81F8852224239480818111212CA4
:10492000CE0107960E94820BCE0101960E94820B57
:10493000222009F479C16AED71E0CE0101960E944E
:10494000C90DB701CE0101960E949F0ECE010196BE
:104950000E94820BF60180849184B401CE010196FD
:104960000E9471108D819E81892B09F463C1E981B8
:10497000FA818081882309F45DC1B401CE010796D4
:104980000E9471108B859C8522242394892B39F0F9
:10499000EF81F8852224239480818111212CCE017E
:1049A00007960E94820BCE0101960E94820B222064
:1049B00009F443C16AED71E0CE0101960E94C90D70
:1049C000B701CE0101960E94A212CE0101960E946B
:1049D000820BD80114968C91813481F0F5013297C5
:1049E000908061E0892D0E94CD02F801638D748D65
:1049F000892D0E940903D8015D964C92BFEFEB1AF6
:104A0000FB0A025E1F4FEAE0CE0ED11CF7E0EF1664
:104A1000F10409F021CF80E0E82E80E0F82E11E0CB
:104A200080E694E00E945B04181619060CF00BC196
:104A30001092E00380E694E00E9439040E94031380
:104A4000EFCF9E3040F42850310981E001C0880F3B
:104A50002A95EAF710CE2E503109F7CF0E94F309BC
:104A60006093C1027093C2028093C3029093C40208
:104A70006091BD027091BE028091BF029091C00210
:104A80009B01AC010E94132C882351F00E940B0A59
:104A90006093BD027093BE028093BF029093C002E8
:104AA0000150110909F083CE9ECE88E30E948E0B3F
:104AB000882309F4BDCE64E170E080E090E00E94BC
:104AC000A0038091400590914105009711F00E944C
:104AD000C12C86E090E00E94252C8C0188E3F8012F
:104AE00080838CE195E092838183138280E290E061
:104AF0009583848310934105009340050E94FD0532
:104B000081E0D80113968C93C8010E942507882361
:104B100009F48ECE8AEB898341E050E0BE016F5FDD
:104B20007F4F80914005909141050E940C08882399
:104B300009F47ECE64E170E080E090E00E94A00382
:104B400081EE898388E08A831B8243E050E0BE01C6
:104B50006F5F7F4F80914005909141050E940C0846
:104B6000882309F465CE84E395E00E94230A87FF39
:104B700007C06AE070E080E090E00E94A003F3CFFD
:104B800084E395E00E94230A83FF52CE86E090E002
:104B90000E94252CFC0189E491E09183808380E0D0
:104BA00091E09383828304E315E015830483F093FB
:104BB0004505E093440586E090E00E94252CFC0129
:104BC0008BE391E09183808381E091E09383828302
:104BD00015830483F0934305E093420581E090E060
:104BE00023CE84E449CE8EE447CE963519F4F801FD
:104BF000548252CE963421F4D80114963C924CCE75
:104C00009035A9F3D80114969C9346CE863409F0CA
:104C100049CE348247CE882311F0428E51CE128E77
:104C20004FCE2224239480CEB401CE0101960E945F
:104C3000711087CE22242394B6CEB401CE01019602
:104C40000E947110BDCE8DEF94E00E947F05181672
:104C500019064CF41093E0038DEF94E00E94950543
:104C60000E940313F0CF84E10E946603BC01990FF8
:104C7000880B990B0E94462920E731E640EA5BE366
:104C80000E94A52920E030E54CE556E40E94A529C4
:104C900020E030EE42E955E40E946D2B4B015C01AF
:104CA00023E333E34BE651E40E940E2C181654F034
:104CB0002DEC3CEC4CE151E4C501B4010E943F29CC
:104CC00087FF1AC08091DF03811104C01093DF03B6
:104CD0000E94201062E370E080E090E00E94A00358
:104CE000E114F10409F49CCE0E946704882309F4BE
:104CF00097CE0E94000094CE1092DF03EBCF80E9A4
:104D000091E09093FE048093FD048091B80290910D
:104D1000B9028D5F944071F4E0911005F091110596
:104D20009081809112058095892380831092B90229
:104D30001092B8028091320590913305009711F0DE
:104D40000E94C12C8091420590914305009739F053
:104D5000DC01ED91FC910280F381E02D09958091B9
:104D6000440590914505009739F0DC01ED91FC91E7
:104D70000280F381E02D099586E495E00E94820B84
:104D80008CE495E00C94820BEF920F931F93CF93DA
:104D9000DF93E80134E047FD34E1042E000C550BAD
:104DA00057FF03C0519541955109E32E022F242F3F
:104DB000AE010E940827CE01DF91CF911F910F9184
:104DC000EF900895FC0188279927E89421912032DB
:104DD000E9F3293010F02E30C8F32B3241F02D3298
:104DE00039F4689404C00E940027820F911D21911C
:104DF00020532A30C0F31EF4909581959F4F08955B
:104E00007AE0979F902D879F802D910D1124089512
:104E1000A9E0B0E0EEE0F7E20C949E2A6A01F22EDF
:104E2000B02E102FFBE3AF2EA01608F41BE31F5F7C
:104E3000012F27E0AE014F5F5F4F0E946728BC0142
:104E40008981982F9970913009F43FC09BE2E1FC71
:104E500004C09E2D9170E0FC3AC05E2D5071E82F89
:104E6000E87083FF46C084E0911101C083E0EF2D1C
:104E7000E81B8F1508F0E0E0D6018E2F20E25523C5
:104E800051F1992329F0D6019C93C60101966C013A
:104E900096012D5F3F4FE2FE24C08EE4D6018C9335
:104EA00091E411969C93119712968C93D9018E2FB1
:104EB00090E281111BC0E20FF32FF11D10828EEFE3
:104EC0009FEF2996ECE00C94BA2A9DE2C6CF90E2BF
:104ED000C4CF2D9381508111FCCFCE0ED11CE0E0C8
:104EE000D0CF8EE6D6018C9391E6DBCF9D93815097
:104EF000E0CF482F447082FF3DC084E0911101C093
:104F000083E08F1510F4EF2DE81BD6018E2F20E2E1
:104F1000552309F1992329F0D6019C93C6010196E6
:104F20006C0196012D5F3F4FE2FE1BC089E4D60164
:104F30008C938EE411968C93119786E412968C9341
:104F4000D9018E2F90E2882309F4B5CF9D9381502B
:104F5000FACF2D9381508111FCCFCE0ED11CE0E011
:104F6000D9CF89E6D6018C938EE611968C93119752
:104F700086E6E4CF9B0177FF02C030E020E0A1E0AD
:104F8000B0E0911102C0B0E0A0E0F9013196AE0F9F
:104F9000BF1F8B2C912CBB2009F461C05401EFEF93
:104FA000AE1ABE0AAA0DBB1DFA161B0619F014F0A4
:104FB0004F2D4A1B511188C0E3FC59C07601A42F24
:104FC000B0E2A1114FC0C40ED11C992309F45BC0FB
:104FD00040E0D6011196F60190836D01552309F446
:104FE00048C0012F060F9A81582F507184FF03C0CB
:104FF000913309F4015010160CF047C0093008F045
:1050000008E0EEE2FE2E5B01A01AB1088501919442
:10501000819491082F3F320729F4D601FC92F601C2
:1050200031966F016217730794F1021713077CF52D
:10503000DB01A21BB30BAA24A394B12CAC0EBD1EA2
:10504000AA0DBB1D11968C9121503109D6011196E4
:1050500028153905F4F0F60180836D01DBCFB12C02
:10506000A12CA0CFF701B1937F01A150AACF91113C
:10507000B0CFD601942F50E302C05D9391509111AF
:10508000FCCFC40ED11C40E0ACCF01E0BACF80E32E
:10509000DBCF6217730731F4963388F4953311F43C
:1050A000552369F0F6018083FD01842F90E2811180
:1050B00008C0A40FB11D1C9290E080E002CF81E3F4
:1050C000F1CF91938150F3CF911183CF8ACF2830C4
:1050D00008F027E03327DA01990F311D87FD916031
:1050E00000966105710539F432602E5F3D9330E31F
:1050F0002A95E1F708959F3F30F0803871056105EA
:1051000009F03C5F3C5F3D93913008F08068911D51
:10511000DF93CF931F930F93FF92EF92192F987FF6
:105120009695E92F96959695E90FFF27EE53FF4F39
:1051300099273327EE24FF24A701E701059008945F
:10514000079428F4360FE71EF81E491F511D660FFD
:10515000771F881F991F0694A1F70590079428F4DC
:10516000E70EF81E491F561FC11D770F881F991F94
:10517000661F0694A1F70590079428F4F80E491FBE
:10518000561FC71FD11D880F991F661F771F0694D2
:10519000A1F70590079420F4490F561FC71FD81F89
:1051A000990F661F771F881F0694A9F784911095A1
:1051B000177041F0D695C79557954795F794E794A2
:1051C0001A95C1F7E8E6F0E06894159015913591CD
:1051D0006591959105907FE27395E118F10A430B73
:1051E000560BC90BD009C0F7E10CF11E431F561F27
:1051F000C91FD01D7EF4703311F48A95E6CFE89470
:10520000015030F0080F0AF40027021708F4202F8D
:105210002395022F7A3328F079E37D932A95E9F7D5
:1052200010C07D932A9589F60694979567953795D2
:1052300017951794E118F10A430B560BC90BD009C7
:1052400098F023957E9173957A3308F070E37C9300
:105250002013B8F77E9170617D9330F0839571E3F0
:105260007D9370E32A95E1F71124EF90FF900F9161
:105270001F91CF91DF91992787FD909508950E9406
:10528000812908F481E00895E89409C097FB3EF471
:1052900090958095709561957F4F8F4F9F4F992383
:1052A000A9F0F92F96E9BB279395F6958795779501
:1052B0006795B795F111F8CFFAF4BB0F11F460FFC1
:1052C0001BC06F5F7F4F8F4F9F4F16C0882311F019
:1052D00096E911C0772321F09EE8872F762F05C02D
:1052E000662371F096E8862F70E060E02AF09A95C8
:1052F000660F771F881FDAF7880F9695879597F9BD
:105300000895990F0008550FAA0BE0E8FEEF161656
:105310001706E807F907C0F012161306E407F507A9
:1053200098F0621B730B840B950B39F40A2661F01D
:10533000232B242B252B21F408950A2609F4A140C0
:10534000A6958FEF811D811D08950E94B8290C94A8
:10535000292A0E941B2A38F00E94222A20F0952335
:1053600011F00C94122A0C94182A11240C945D2A22
:105370000E943A2A70F3959FC1F3950F50E0551F94
:10538000629FF001729FBB27F00DB11D639FAA279A
:10539000F00DB11DAA1F649F6627B00DA11D661FE9
:1053A000829F2227B00DA11D621F739FB00DA11D0A
:1053B000621F839FA00D611D221F749F3327A00DC4
:1053C000611D231F849F600D211D822F762F6A2F60
:1053D00011249F5750409AF0F1F088234AF0EE0FC5
:1053E000FF1FBB1F661F771F881F91505040A9F7F2
:1053F0009E3F510580F00C94122A0C945D2A5F3F69
:10540000E4F3983ED4F3869577956795B795F7952D
:10541000E7959F5FC1F7FE2B880F911D96958795A5
:1054200097F9089597F99F6780E870E060E0089524
:105430009FEF80EC089500240A94161617061806AC
:105440000906089500240A94121613061406050688
:105450000895092E0394000C11F4882352F0BB0F19
:1054600040F4BF2B11F460FF04C06F5F7F4F8F4F7C
:105470009F4F089557FD9058440F551F59F05F3FB7
:1054800071F04795880F97FB991F61F09F3F79F066
:1054900087950895121613061406551FF2CF4695E8
:1054A000F1DF08C0161617061806991FF1CF86956A
:1054B0007105610508940895E894BB27662777274E
:1054C000CB0197F90895F999FECF92BD81BDF89A65
:1054D000992780B50895262FF999FECF1FBA92BD5E
:1054E00081BD20BD0FB6F894FA9AF99A0FBE0196C5
:1054F0000895052E97FB1EF400940E94902A57FDF4
:1055000007D00E94CF2A07FC03D04EF40C94902AB7
:1055100050954095309521953F4F4F4F5F4F0895DF
:1055200090958095709561957F4F8F4F9F4F08950F
:105530002F923F924F925F926F927F928F929F92A3
:10554000AF92BF92CF92DF92EF92FF920F931F9391
:10555000CF93DF93CDB7DEB7CA1BDB0B0FB6F89442
:10556000DEBF0FBECDBF09942A88398848885F8482
:105570006E847D848C849B84AA84B984C884DF80F3
:10558000EE80FD800C811B81AA81B981CE0FD11DD7
:105590000FB6F894DEBF0FBECDBFED010895A1E2B6
:1055A0001A2EAA1BBB1BFD010DC0AA1FBB1FEE1F9D
:1055B000FF1FA217B307E407F50720F0A21BB30BE8
:1055C000E40BF50B661F771F881F991F1A9469F764
:1055D00060957095809590959B01AC01BD01CF01C0
:1055E0000895A29FB001B39FC001A39F700D811DBC
:1055F0001124911DB29F700D811D1124911D0895DC
:105600005058BB27AA270E94182B0C94292A0E94C5
:105610001B2A38F00E94222A20F039F49F3F19F407
:1056200026F40C94182A0EF4E095E7FB0C94122A49
:10563000E92F0E943A2A58F3BA17620773078407C2
:10564000950720F079F4A6F50C945C2A0EF4E09509
:105650000B2EBA2FA02D0B01B90190010C01CA012C
:10566000A0011124FF27591B99F0593F50F4503ED7
:1056700068F11A16F040A22F232F342F4427585FC9
:10568000F3CF469537952795A795F0405395C9F7E1
:105690007EF41F16BA0B620B730B840BBAF0915099
:1056A000A1F0FF0FBB1F661F771F881FC2F70EC038
:1056B000BA0F621F731F841F48F48795779567950B
:1056C000B795F7959E3F08F0B0CF9395880F08F0F7
:1056D0009927EE0F9795879508950E94812B0C943A
:1056E000292A0E94222A58F00E941B2A40F029F4FD
:1056F0005F3F29F00C94122A51110C945D2A0C94EE
:10570000182A0E943A2A68F39923B1F3552391F39A
:10571000951B550BBB27AA2762177307840738F020
:105720009F5F5F4F220F331F441FAA1FA9F335D07D
:105730000E2E3AF0E0E832D091505040E695001C31
:10574000CAF72BD0FE2F29D0660F771F881FBB1FEB
:10575000261737074807AB07B0E809F0BB0B802DC9
:10576000BF01FF2793585F4F3AF09E3F510578F0F5
:105770000C94122A0C945D2A5F3FE4F3983ED4F314
:10578000869577956795B795F7959F5FC9F7880FC9
:10579000911D9695879597F90895E1E0660F771F1B
:1057A000881FBB1F621773078407BA0720F0621BAC
:1057B000730B840BBA0BEE1F88F7E09508950E94D7
:1057C000422A88F09F5798F0B92F9927B751B0F027
:1057D000E1F0660F771F881F991F1AF0BA95C9F775
:1057E00014C0B13091F00E945C2AB1E008950C948D
:1057F0005C2A672F782F8827B85F39F0B93FCCF340
:10580000869577956795B395D9F73EF490958095F1
:10581000709561957F4F8F4F9F4F08950E9481290A
:1058200008F48FEF08950E948129880B990B089541
:105830000E94F12AB7FF0895821B930B0895EE0F83
:10584000FF1F0590F491E02D09940F931F93CF93C0
:10585000DF938230910510F482E090E0E0915405EE
:10586000F091550530E020E0B0E0A0E0309799F4E9
:105870002115310509F44AC0281B390B24303105A4
:10588000D8F58A819B816115710589F1FB019383AC
:105890008283FE0111C0408151810281138148172A
:1058A0005907E0F04817590799F4109761F01296DC
:1058B0000C93129713961C933296CF01DF91CF91E0
:1058C0001F910F9108950093540510935505F4CF3F
:1058D0002115310551F04217530738F0A901DB01BA
:1058E0009A01BD01DF01F801C1CFEF01F9CF90931B
:1058F000550580935405CDCFFE01E20FF31F819330
:1059000091932250310939832883D7CF20915205B2
:1059100030915305232B41F420910601309107016A
:1059200030935305209352052091040130910501D5
:105930002115310541F42DB73EB740910801509132
:105940000901241B350BE0915205F0915305E21734
:10595000F307A0F42E1B3F0B2817390778F0AC0192
:105960004E5F5F4F2417350748F04E0F5F1F50936F
:10597000530540935205819391939FCFF0E0E0E06F
:105980009CCFCF93DF930097E9F0FC01329713820D
:105990001282A0915405B0915505ED0130E020E050
:1059A0001097A1F420813181820F931F209152051D
:1059B000309153052817390709F061C0F09353055A
:1059C000E0935205DF91CF910895EA01CE17DF07EA
:1059D000E8F54A815B819E0141155105B1F7E90166
:1059E000FB83EA8349915991C40FD51FEC17FD073A
:1059F00061F4808191810296840F951FE90199835A
:105A00008883828193819B838A83F0E0E0E0129611
:105A10008D919C9113970097B9F52D913C91119719
:105A2000CD010296820F931F2091520530915305AC
:105A30002817390739F6309751F51092550510920D
:105A40005405B0935305A0935205BCCFD383C283B2
:105A500040815181840F951FC817D90761F44E5FAB
:105A60005F4F88819981480F591F518340838A81F4
:105A70009B81938382832115310509F0B0CFF09388
:105A80005505E09354059ECFFD01DC01C0CF138284
:105A90001282D7CFB0E0A0E0E0E5FDE20C949A2AB4
:105AA0008C01009751F4CB010E94252C8C01C80178
:105AB000CDB7DEB7E0E10C94B62AFC01E60FF71F84
:105AC0009C0122503109E217F30708F49DC0D90167
:105AD000CD91DC911197C617D70798F0C530D10545
