:100000000C9403020C942B020C942B020C94C21E31
:100010000C94C21E0C94C21E0C942B020C942B0246
:100020000C942B020C942B020C942B020C945E1E4D
:100030000C942B020C942B020C942B020C942B028C
:100040000C94BC1D0C942B020C942C1E0C94061EBC
:100050000C942B020C942B020C942B020C942B026C
:100060000C943A1F0C942B0200407A10F35A00A013
:10007000724E18090010A5D4E80000E87648170071
:1000800000E40B54020000CA9A3B000000E1F505B1
:10009000000080969800000040420F000000A086FB
:1000A00001000000102700000000E803000000002D
:1000B0006400000000000A000000000001000000D1
:1000C00000002C76D888DC674F0823DFC1DFAE59EB
:1000D000E1B1B796E5E3E453C63AE651997696E87E
:1000E000E6C28426EB898C9B62ED407C6FFCEFBC02
:1000F0009C9F40F2BAA56FA5F490055A2AF75C932D
:100100006B6CF9676DC11BFCE0E40D47FEF520E662
:10011000B500D0ED902E0300943577050080841E45
:10012000080000204E0A000000C80C333333330FA0
:10013000986E12831141EF8D2114893BE65516CF3D
:10014000FEE6DB18D1844B381BF77C1D901DA4BB49
:10015000E424203284725E228100C9F124ECA1E5FE
:100160003D273E524F4B23003E524F4B230023006E
:100170003E0023003E00230024003A003E41542D5F
:10018000506F776572426F783A00230024003A007E
:100190003E41542D506F776572426F783A002300CC
:1001A0003E0023003E0023003E0023003E00436F3C
:1001B0006E666967204D6F646500456E74657220D8
:1001C000415420436F6D6D616E647300506C6561C6
:1001D000736520756E7061697220426C7565746F0D
:1001E0006F7468206669727374004E6F20426C757C
:1001F00065746F6F7468206D6F64756C6520666FD1
:10020000756E64206F722069742069732070616953
:10021000726564003E554F4B23003E554F4B230003
:100220003E414F4B23003E414F4B23003E4F4F4B2F
:1002300023003E4F4F4B23003E4F45525223003E7A
:100240004F45525223003E4F45525223003E4F45E8
:10025000525223003E4345525223003E43455252E0
:1002600023003E434F4B23003E434F4B23003E4E63
:100270004F4B23003E4E4F4B23003E4E45525223E0
:10028000003E4E4552522300230023003A003A001C
:100290003E003E003E5645525223003E56455252C5
:1002A000230023003E0023003E00230023003100F2
:1002B00031003E003E0023003E0023003E002300AC
:1002C0002400230024003A003A003A003A003A00A1
:1002D0003A003A003A00240024003E003E00230089
:1002E00023003E003E002300580058455252230090
:1002F0002300580058455252230023005800584507
:100300005252230023004C004C455252230023003C
:100310004C004C455252230023004C004C45525295
:1003200023003E534F4B23003E534F4B23003E537D
:1003300045525223003E53455252230023002300CE
:10034000240024003E003E00230023003E003E0027
:100350003E4D45525223003E4D455252230023004C
:100360003A003A003E0023003A003A003E003E4583
:1003700023003E45230023003A003A003E002300BC
:100380003A003A003E0023003E493A0023003E492D
:100390003A00454F4B2300444F4B23003E464F4B02
:1003A00023003E464F4B230000000000240027009E
:1003B0002A000000000800020100000304070000FA
:1003C00000000000000000000000230026002900BB
:1003D00000000000250028002B000404040404048D
:1003E00004040202020202020303030303030102E4
:1003F00004081020408001020408102001020408B3
:1004000010206720D52511241FBECFEFD8E0DEBF16
:10041000CDBF11E0A0E0B1E0E4EBF0E602C0059052
:100420000D92A23EB107D9F725E0A2EEB1E001C0DE
:100430001D92A238B207E1F712E0C2E0D2E004C098
:100440002197FE010E94752BC130D107C9F70E9488
:1004500064210C944D300C940000FC019081909527
:1004600028E030E081E397FF03C0990F982701C08F
:10047000990F21503109B9F78181892728E030E0AF
:1004800091E387FF03C0880F892701C0880F21509F
:100490003109B9F708950895089590E0FC01EE54EC
:1004A000FC4F2491FC01E251FC4F3491FC01E652D7
:1004B000FC4FE491EE23C9F0222339F0233001F1FF
:1004C000A8F4213019F1223029F1F0E0EE0FFF1FDE
:1004D000E053FC4FA591B4918FB7F894EC91611162
:1004E00026C030953E233C938FBF08952730A9F056
:1004F0002830C9F0243049F7809180008F7D03C0F7
:10050000809180008F7780938000DFCF84B58F77D4
:1005100084BDDBCF84B58F7DFBCF8091B0008F771A
:100520008093B000D2CF8091B0008F7DF9CF3E2B69
:10053000DACFCF93DF9390E0FC01E251FC4F24919E
:1005400086529C4FFC0184918823D1F090E0880F63
:10055000991FFC01E855FC4FA591B491FC01E053B3
:10056000FC4FC591D49161110EC09FB7F8948C9146
:10057000E22FE0958E238C932881E223E8839FBFAE
:10058000DF91CF9108958FB7F894EC91E22BEC9323
:100590008FBFF6CF1F93CF93DF93182FEB0161E04E
:1005A0000E949902209739F460E0812FDF91CF916A
:1005B0001F910C944D02CF3FD10511F461E0F5CFAE
:1005C000E12FF0E0EE54FC4FE491E33031F140F4E0
:1005D000E130B1F0E230E1F0C038D1057CF7E4CF92
:1005E000E73029F1E83059F1E430B1F7809180002B
:1005F000806280938000D0938B00C0938A0004C0F7
:1006000084B5806884BDC7BDDF91CF911F910895E7
:1006100084B5806284BDC8BDF7CF809180008068BA
:1006200080938000D0938900C0938800EDCF8091A3
:10063000B00080688093B000C093B300E5CF809194
:10064000B00080628093B000C093B400DDCF8E30E4
:1006500008F08E508770806480937C0080917A00CF
:10066000806480937A0080917A0086FDFCCF80912F
:1006700078009091790008953FB7F8948091120422
:1006800090911304A0911404B091150426B5A89B71
:1006900005C02F3F19F00196A11DB11D3FBFBA2F14
:1006A000A92F982F8827BC01CD01620F711D811DD4
:1006B000911D42E0660F771F881F991F4A95D1F759
:1006C00008958F929F92AF92BF92CF92DF92EF9256
:1006D000FF924B015C010E943C036B017C010E9474
:1006E0003C036C197D098E099F09683E73408105A2
:1006F0009105A8F321E0821A9108A108B10888EEBB
:10070000C80E83E0D81EE11CF11C81149104A104E1
:10071000B10429F7FF90EF90DF90CF90BF90AF909A
:100720009F908F900895DC01ED91FC910190F081F4
:10073000E02D0994EF92FF920F931F93CF93DF93D5
:100740008C017B01D0E0C0E0F701EC0FFD1F64914C
:10075000662361F0D801ED91FC910190F081E02DCC
:10076000C8010995892B11F02196EECFCE01DF91BA
:10077000CF911F910F91FF90EF900895AF92BF928C
:10078000CF92DF92EF92FF920F931F93CF93DF935D
:100790006C017B018B01040F151FEB015E01AE188C
:1007A000BF08C017D10759F06991D601ED91FC91AE
:1007B0000190F081E02DC6010995892B79F7C501DB
:1007C000DF91CF911F910F91FF90EF90DF90CF902D
:1007D000BF90AF900895FC01538D448D252F30E0DC
:1007E000842F90E0821B930B541710F0CF9608953E
:1007F00001970895FC01918D828D981761F0A28D6B
:10080000AE0FBF2FB11D5D968C91928D9F5F9F7330
:10081000928F90E008958FEF9FEF0895FC01918DE6
:10082000828D981731F0828DE80FF11D858D90E053
:1008300008958FEF9FEF0895FC01918D228D892FF0
:1008400090E0805C9F4F821B91098F7399270895D8
:100850008CE894E00E941C0421E0892B09F420E03C
:10086000822F089580E090E0892B29F00E942804CF
:1008700081110C9400000895FC01A48DA80FB92FDC
:10088000B11DA35ABF4F2C91848D90E001968F73B8
:100890009927848FA689B7892C93A089B1898C91D7
:1008A000837080648C93938D848D981306C0028826
:1008B000F389E02D80818F7D80830895EF92FF92F0
:1008C0000F931F93CF93DF93EC0181E0888F9B8D73
:1008D0008C8D98131AC0E889F989808185FF15C02D
:1008E0009FB7F894EE89FF896083E889F989808150
:1008F0008370806480839FBF81E090E0DF91CF911F
:100900001F910F91FF90EF900895F62E0B8D10E040
:100910000F5F1F4F0F731127E02E8C8D8E110CC0AF
:100920000FB607FCFACFE889F989808185FFF5CFFA
:10093000CE010E943C04F1CFEB8DEC0FFD2FF11D99
:10094000E35AFF4FF0829FB7F8940B8FEA89FB8937
:1009500080818062CFCFCF93DF93EC01888D882395
:10096000B9F0AA89BB89E889F9898C9185FD03C012
:10097000808186FD0DC00FB607FCF7CF8C9185FFF7
:10098000F2CF808185FFEDCFCE010E943C04E9CFFC
:10099000DF91CF9108952091BC023091BD022817BC
:1009A000390771F49091BA028091BB02981741F017
:1009B000E091BA02F0E0EB5AFD4F808190E008959B
:1009C0008FEF9FEF08950895EF92FF920F931F937B
:1009D000CF93DF93DC015C96ED90FC905D97E11482
:1009E000F10479F481E090E013969C938E93129732
:1009F00090E080E0DF91CF911F910F91FF90EF90F9
:100A000008955196ED91FC91529750968C91509784
:100A1000982F90950FB75E962C915E97122F1270BB
:100A200021FD6095F8942081112319F1282B208352
:100A3000E7012197F1F728E0462F50E0308160FF71
:100A40001AC0382B3083E7012197F1F7BA01759569
:100A50006795215089F7112381F080818923808354
:100A60000FBF5C968D919C910197F1F781E090E02A
:100A7000C1CF2923DCCF3923E5CF9081892BEFCF5C
:100A80002091BC023091BD022817390761F4809192
:100A9000BB022091BA0290E0805C9F4F821B9109BB
:100AA0008F739927089590E080E008952091BC020B
:100AB0003091BD0228173907B9F49091BA0280919C
:100AC000BB02981789F0E091BA02F0E0EB5AFD4FB3
:100AD00080812091BA0230E02F5F3F4F2F73332780
:100AE0002093BA0290E008958FEF9FEF0895089544
:100AF000089520913202260F3327331F213231050A
:100B0000ECF420916204FC0190E080E0243069F074
:100B100082E00895A09132022191AC014E5E5D4FBA
:100B2000A40FB52FB11D2C930196861798F38091D1
:100B30003202680F6093320280E0089581E00895E8
:100B40001092620481E08093610410923C0461E0A1
:100B500082E10E944D0261E083E10E944D02E9EBD7
:100B6000F0E080818E7F808380818D7F808388E428
:100B70008093B80085E48093BC000895CF93DF9301
:100B800091E0909311028823B9F0C091B800D09100
:100B9000BA008091BC008A7B8093BC0060E082E157
:100BA0000E944D0260E083E10E944D020E94A00578
:100BB000D093BA00C093B800DF91CF9108958F927F
:100BC0009F92AF92BF92CF92DF92EF92FF920F93DC
:100BD0001F93CF93DF93D0918B04D13208F0D7C00D
:100BE000182FC0918A040E943C036B017C01809104
:100BF000620481116BC082E08093620410936104EF
:100C00008FEF8093600410925F04D0935E04AAE695
:100C1000B4E0EEE3F4E080E0D81391C010923D041C
:100C200080913D04CC0FC82BC0933D0480913C04BF
:100C3000813009F088C010923C040E943C036B0193
:100C40007C0180913D048093BB008091640490916D
:100C50006504A0916604B0916704892B8A2B8B2BC5
:100C6000A1F00E943C03009164041091650420915E
:100C70006604309167046C197D098E099F09061777
:100C800017072807390708F442C08091BC0083FD8C
:100C9000D8CF85EC8093BC000E943C036B017C01A3
:100CA00080916204823009F450C0809160048F3FCB
:100CB00009F46FC080916004803209F46CC08091A7
:100CC0006004803309F469C084E026C08091640424
:100CD00090916504A0916604B0916704892B8A2BDA
:100CE0008B2B09F484CF0E943C0380906404909085
:100CF0006504A0906604B09067046C197D098E09A4
:100D00009F0986169706A806B90608F070CF80914D
:100D100063040E94BE0585E01092690410928B0462
:100D200010926804DF91CF911F910F91FF90EF9087
:100D3000DF90CF90BF90AF909F908F9008959D913E
:100D400091938F5F69CF85EEA5CF809164049091D8
:100D50006504A0916604B0916704892B8A2B8B2BC4
:100D600009F49ECF0E943C03009164041091650435
:100D700020916604309167046C197D098E099F09E2
:100D8000061717072807390708F08ACFC0CF81E078
:100D9000C3CF80E0C1CF82E0BFCF83E0BDCFCF9390
:100DA000DF93EC0110921B0410921A041092690454
:100DB00010928B040E94A0058BE492E0909319049A
:100DC000809318048CE492E09093170480931604A7
:100DD00081E08B8398818093680490938A040E94B9
:100DE000DF0591E0811190E0892FDF91CF91089587
:100DF000E0911B0480911A04E81730F4F0E0E45EFF
:100E0000FB4F808190E008958FEF9FEF08959091C0
:100E10001B0480911A042FEF3FEF981748F4E92F35
:100E2000F0E0E45EFB4F208130E09F5F90931B0475
:100E3000C901089580911A0490911B04891B990B94
:100E40000895CF92DF92EF92FF920F931F93CF936B
:100E5000DF937C01CB018A0120916804222389F071
:100E6000EB016B01C40ED51ECC15DD0569F069914F
:100E7000D701ED91FC910190F081E02DC70109951A
:100E8000F3CF642F0E947905C801DF91CF911F91A4
:100E90000F91FF90EF90DF90CF900895CF93DF9365
:100EA0001F92CDB7DEB76983209168042223F9F041
:100EB00020918B04203258F021E030E0FC01338394
:100EC000228390E080E00F90DF91CF910895809190
:100ED0006904E82FF0E0E659FB4F998190838F5F1A
:100EE0008093690480938B0481E090E0ECCF61E013
:100EF000CE0101960E947905F7CF90E080E0089539
:100F000020ED37E0DC010E946E2B2EE031E040E066
:100F100050E00E94CF29DA01C9018C509E4FAF4F9B
:100F2000BF4F0895CF93DF93EC0161E083E00E940F
:100F30004D02C230D10538F0CC0FDD1FCC0FDD1FC4
:100F400025972197F1F760E083E0DF91CF910C9432
:100F50004D022F923F924F925F926F927F928F92AB
:100F60009F92AF92BF92CF92DF92EF92FF920F9338
:100F70001F93CF93DF935C011B016A01F12CE12CDD
:100F8000D50114968D919C9186010E191F09801729
:100F9000910708F48C01F501D0810E943C032B01DC
:100FA0003C0180916204811172C0C02F013208F0AF
:100FB000C0E2F1E0F093620421E0C601801B910BD6
:100FC000E816F90608F420E0209361048FEF80937F
:100FD000600410925F048C0F80935E04A1E0A093E4
:100FE0003D0480913D04DD0FD82BD0933D048091CA
:100FF0003C04813009F090C010923C040E943C03F4
:101000002B013C0180913D048093BB0080916404DE
:1010100090916504A0916604B0916704892B8A2B96
:101020008B2BA1F00E943C03209164043091650455
:1010300040916604509167046419750986099709FF
:10104000261737074807590708F442C08091BC00AB
:1010500083FDD8CFB5ECB093BC000E943C032B01BC
:101060003C0180916204813009F45AC080915F0490
:101070008C1710F4C0915F04AEE3B4E0ECE1F4E04F
:1010800080E08C1751F19D9191938F5FFACF809101
:10109000640490916504A0916604B0916704892B63
:1010A0008A2B8B2B09F47DCF0E943C032091640492
:1010B0003091650440916604509167046419750984
:1010C00086099709261737074807590708F069CF97
:1010D000809163040E94BE05C0E010921B04C0937F
:1010E0001A04C017110609F057C041018E0C9F1C4D
:1010F000E401CE01881999098017910798F5D50167
:1011000011968D919C91DC01ED91FC910284F38507
:10111000E02D09958993EDCFE5EEE093BC009DCFDE
:101120008091640490916504A0916604B091670475
:10113000892B8A2B8B2B09F494CF0E943C0320919E
:101140006404309165044091660450916704641909
:10115000750986099709261737074807590708F0C0
:1011600080CFB6CFE00EF11EEC14FD0408F408CFDA
:1011700081E0DF91CF911F910F91FF90EF90DF9071
:10118000CF90BF90AF909F908F907F906F905F9027
:101190004F903F902F90089580E0EBCF0F931F93D7
:1011A000CF93DF9300D000D000D0CDB7DEB764E19D
:1011B00070E080E090E00E94610346E050E0BE01F4
:1011C0006F5F7F4F80915E0590915F050E94A90738
:1011D000182F882309F452C00B81CE0101960E947A
:1011E0002D02081357C00E81CE0104960E942D02D5
:1011F000081350C029813A81322723273227A7E1DB
:10120000B1E10E94472A2EE09595879577956795DD
:101210002A95D1F764597141810991090E949C284E
:1012200020E030E048EC52E40E94C32A6093580565
:101230007093590580935A0590935B052C813D81ED
:10124000322723273227A1E7B2E00E94472A3CE059
:1012500096958795779567953A95D1F70E949A2844
:1012600020E030E048EC52E40E94C32A6093540529
:10127000709355058093560590935705812F2696B8
:101280000FB6F894DEBF0FBECDBFDF91CF911F9197
:101290000F91089510E0F2CFCF93DF931F92CDB757
:1012A000DEB741E050E0BE016F5F7F4FFC018485F7
:1012B00095850E94A907882329F089810F90DF91E5
:1012C000CF9108958FEFFACFCF93DF93DC0114967F
:1012D0002D913C912417350710F490E01EC0EA01CF
:1012E000FC0181819281208131E030936804209358
:1012F0008A041092690410928B04DC01ED91FC9138
:101300000280F381E02D0995C817D90731F781E0F4
:101310000E94DF0591E08111E0CF892FDF91CF910D
:101320000895CF93DF9300D0CDB7DEB799838A833A
:1013300042E050E0BE016F5F7F4F80915E0590916B
:101340005F050E9464090F900F90DF91CF9108957F
:1013500080E094E20E949109811105C060E070E094
:1013600080EC9FE708950E94CE088823B9F360912E
:101370005405709155058091560590915705089533
:1013800080E094E20E949109811105C060E070E064
:1013900080EC9FE708950E94CE088823B9F36091FE
:1013A00058057091590580915A0590915B050895F3
:1013B0004F925F926F927F92AF92BF92CF92DF92E5
:1013C000EF92FF920F931F93CF93DF93CDB7DEB7CA
:1013D00029970FB6F894DEBF0FBECDBF8C017B01FD
:1013E0006A018FB7F89440900E0450900F046090FB
:1013F0001004709011048FBF80910A0190910B012D
:10140000A0910C018F839887A98743E050E0BE012B
:10141000695F7F4FD8011C968D919C910E94640951
:10142000811117C0B12C8B2D29960FB6F894DEBF11
:101430000FBECDBFDF91CF911F910F91FF90EF9025
:10144000DF90CF90BF90AF907F906F905F904F9064
:101450000895C8010E944C0987FF07C06AE070E048
:1014600080E090E00E946103F4CF46E050E0BE01CE
:101470006F5F7F4FF801848595850E94A907B82E7C
:10148000882381F26A817B81762767277627CB01C3
:10149000B0E0A0E09C01AD0184E0220F331F441FA7
:1014A000551F8A95D1F7AC808A2D90E064E0959520
:1014B00087956A95E1F7092E000CAA0BBB0BBC01BE
:1014C000CD01622B732B842B952B0E949A2820E050
:1014D00030E048EC52E40E94FB2820E030E040E895
:1014E00055E30E94FB28D80114966D937D938D934C
:1014F0009C9317976A2D6F7070E090E080E0982FB2
:10150000872F762F66272D81622B982F872F762F96
:1015100066272E81622B0E949A2820E030E048E462
:1015200053E40E94FB2820E030E040E855E30E94AD
:10153000FB2820E030E048E452E40E94562AF801FB
:101540006083718382839383C114D10481F1F60196
:10155000349680E2DF011D928A95E9F784E290E0FB
:10156000A0E0B0E0F60180839183A283B383D80129
:101570001A968D919C91B0E0A0E084839583A68318
:10158000B7838DE090E0A0E0B0E080879187A287EC
:10159000B387408A518A628A738AF8018081918177
:1015A000A281B381F601848B958BA68BB78BE11456
:1015B000F10409F438CFF701349680E2DF011D927F
:1015C0008A95E9F784E290E0A0E0B0E0F70180833B
:1015D0009183A283B383D80118968D919C91B0E03A
:1015E000A0E084839583A683B7838DE090E0A0E09C
:1015F000B0E080879187A287B387408A518A628A48
:10160000738AF80184819581A681B781F701848B63
:10161000958BA68BB78B07CFAB0170E060E0FC0128
:10162000848195810E94D80981E0089550E040E0CE
:10163000FC01848195810E94D80981E008950C9471
:10164000172CFC0180819181009711F00C94172CCC
:1016500008950C94172C0F931F93CF93DF93EC01F5
:1016600088819981009759F02A813B812617370795
:1016700030F081E0DF91CF911F910F9108958B01A0
:101680006F5F7F4F0E94A02C009759F09983888349
:101690001B830A832C813D81232B59F7FC01108287
:1016A000E8CF80E0E7CFFB0101900020E9F7319718
:1016B000AF01461B570BDC01ED91FC910280F381D9
:1016C000E02D0994CF93DF93BC018CE894E00E9455
:1016D0009A03EC0167EA71E08CE894E00E94530BF6
:1016E0008C0F9D1FDF91CF9108958F929F92AF92A3
:1016F000BF92EF92FF920F931F93CF93DF93CDB7DB
:10170000DEB7A1970FB6F894DEBF0FBECDBF7C0148
:10171000FA01CB0119A2223008F42AE08E010F5DF4
:101720001F4F822E912CB12CA12CBF01A501940139
:101730000E94252AF901CA016A300CF5605DD801C2
:101740006E938D01232B242B252B79F790E080E0DD
:10175000109721F0BD01C7010E94530BA1960FB64F
:10176000F894DEBF0FBECDBFDF91CF911F910F91D7
:10177000FF90EF90BF90AF909F908F900895695C1D
:10178000DECFCF92DF92EF92FF920F931F93CF9312
:10179000DF936B01770FEE08FF08F7FE1BC0EC012B
:1017A0006DE20E9493038C0144275527BA014C191E
:1017B0005D096E097F092AE0CE010E94750B800F3A
:1017C000911FDF91CF911F910F91FF90EF90DF90CC
:1017D000CF9008952AE0B701A601DF91CF911F9124
:1017E0000F91FF90EF90DF90CF900C94750B8F923C
:1017F0009F92AF92BF92CF92DF92EF92FF920F93A0
:101800001F93CF93DF93EC016A017B01AB0196013B
:10181000CB01B6010E94692B6AEA71E0811126C0F2
:1018200046015701E894B7F82FEF3FEF4FE75FE726
:10183000C501B4010E94692B81110CC02FEF3FEF4D
:101840004FE75FE7C501B4010E9495286EEA71E099
:10185000181664F02FEF3FEF4FE75FE4C701B601C2
:101860000E94642B18168CF462EB71E0CE01DF91BC
:10187000CF911F910F91FF90EF90DF90CF90BF908D
:10188000AF909F908F900C94530B2FEF3FEF4FE74B
:101890005FECC701B6010E94952887FDE5CF20E0E7
:1018A00030E0A901C701B6010E94952810E000E0D0
:1018B00087FF09C06DE2CE010E9493038C01F7FA05
:1018C000F094F7F8F0942AE037ED43EA5BE3C701C0
:1018D000B6010E94572A6B017C010E94352B4B01F7
:1018E0005C010E949A289B01AC01C701B6010E94CD
:1018F000562A6B017C012AE0B501A401CE010E94A9
:10190000750B080F191F6EE2CE010E949303080F9A
:10191000191F20E030E040E251E4C701B6010E9407
:10192000FB284B015C010E94352B6B01F12CE12C53
:101930002AE0B701A601CE010E94750B080F191FFE
:10194000C701B6010E949A289B01AC01C501B401F0
:101950000E94562A20E030E040E251E40E94FB2839
:101960000E94352BAB0170E060E02AE0CE010E94BE
:10197000750B800F911FDF91CF911F910F91FF90F9
:10198000EF90DF90CF90BF90AF909F908F90089591
:101990000C94530BEF92FF920F931F93CF93DF930F
:1019A000EC017B01198218821B821A821D821C8223
:1019B000FB0101900020E9F731978F01061B170BFF
:1019C000B8010E942B0B28813981811113C0211588
:1019D000310519F0C9010E94172C198218821D8245
:1019E0001C821B821A82DF91CF911F910F91FF9071
:1019F000EF9008951D830C83B701C901DF91CF914A
:101A00001F910F91FF90EF900C94662D0F931F93F1
:101A1000CF93DF938C01EB0188E2FB0111928A9551
:101A2000E9F74BE050E066EB71E0CE010E946D2DCE
:101A30001B8681E090E0A0E0B0E08C879D87AE87B8
:101A4000BF87F80182819381092E000CAA0BBB0B82
:101A5000888B998BAA8BBB8B8DE090E0A0E0B0E0E7
:101A60008C8B9D8BAE8BBF8B1CA21DA21EA21FA2B6
:101A700080E090E0A0E2B2EC8C8F9D8FAE8FBF8FA4
:101A800080E090E0AAEAB2E4888F998FAA8FBB8F9A
:101A90008AE999E9A9E9BEE388A399A3AAA3BBA30C
:101AA000DF91CF911F910F9108950F931F93CF93C3
:101AB000DF938C01EB0188E2FB0111928A95E9F733
:101AC0004BE050E06EEB71E0CE010E946D2D1B8665
:101AD00081E090E0A0E0B0E08C879D87AE87BF8773
:101AE000F80182819381092E000CAA0BBB0B888B15
:101AF000998BAA8BBB8B8CE090E0A0E0B0E08C8B44
:101B00009D8BAE8BBF8B1CA21DA21EA21FA21C8E82
:101B10001D8E1E8E1F8E80E090E0A8ECB2E4888FB0
:101B2000998FAA8FBB8F80E090E0A0E0B0E488A3FB
:101B300099A3AAA3BBA3DF91CF911F910F91089501
:101B4000EF92FF920F931F93CF93DF93CDB7DEB742
:101B50002C970FB6F894DEBF0FBECDBF2EE1269FA7
:101B60007001279FF00C112430E020E0F901EE0D08
:101B7000FF1DE55EFC4F15822F5F3F4F2B30310577
:101B8000A9F7FC010481158101151105C1F4198221
:101B90004BE050E0BE016F5F7F4FC701805E9C4FFE
:101BA0000E946D2D2C960FB6F894DEBF0FBECDBFF0
:101BB000DF91CF911F910F91FF90EF9008950B301F
:101BC000110510F00BE010E0FC0160817181A801AB
:101BD000CE0101960E946D2DE1E0F0E0EC0FFD1FBB
:101BE000E00FF11F1082D4CF85ED8093BC0080916F
:101BF000640490916504A0916604B091670407960F
:101C0000A11DB11D23E0B695A795979587952A95B7
:101C1000D1F72091BC0024FD03C010926204089506
:101C2000409164045091650460916604709167046A
:101C3000452B462B472B69F30097A105B10541F0D1
:101C40002AE22A95F1F700C00197A109B109E1CF75
:101C5000809163040C94BE050C94C129CF93DF934B
:101C6000EC018130910531F58091000190910101E5
:101C70000197E9F1D0930101C0930001C091CA021C
:101C80008091C9029C2F0E9480070E9492076C2FAE
:101C90008CEE93E00E942C0E6091C9028CEE93E0D2
:101CA0000E942C0E68EE73E080E090E0DF91CF910F
:101CB0000C946103892BD9F480910001909101016A
:101CC000892BA9F01092010110920001C09103012B
:101CD000809102019C2F0E9480070E9492076C2F26
:101CE0008CEE93E00E942C0E60910201D7CFD0932E
:101CF0000101C09300016D2F8CEE93E00E942C0E29
:101D00006C2FCCCF8F929F92AF92BF92CF92DF92E7
:101D1000EF92FF920F931F93CF93DF938C017B0180
:101D20006A014C01B12CA12CE80109900020E9F7CF
:101D30002197C01BD10BAC16BD0660F4F401619174
:101D40004F01C7018A0D9B1D0E942C0EFFEFAF1A99
:101D5000BF0AEACFF80101900020E9F73197E01BB4
:101D6000F10BC6018E1B9F0BC817D90740F460E02A
:101D7000C7018C0F9D1F0E942C0E2196EBCFDF9187
:101D8000CF911F910F91FF90EF90DF90CF90BF9078
:101D9000AF909F908F900895CF93DF93D0E0C0E0F5
:101DA00060E0CE010E942C0E2196C13082E0D8075F
:101DB000B9F760E088EE93E00E942C0E60E089EEB7
:101DC00093E00E942C0E61E08AEE93E00E942C0EBC
:101DD0006EE08BEE93E00E942C0E60E08CEE93E0C0
:101DE0000E942C0E60E08DEE93E00E942C0E60E0CD
:101DF0008FEF93E00E942C0E80910C04882341F019
:101E000062E671E089E295E0DF91CF910C949A034C
:101E100068E671E08CE894E0F7CF1F93CF93DF93EF
:101E2000EC01162F0E94B929181739F0612FCE0145
:101E3000DF91CF911F910C94C129DF91CF911F9118
:101E40000895DF92EF92FF920F931F93CF93DF934A
:101E5000D82EC1E6D1E08BECE82E82E0F82E0BE123
:101E600013E08881229670E060E00E94CA0260E080
:101E7000F701828193810E940D0F60E0F701848158
:101E800095810E940D0FF801148E138E128EFAE0C8
:101E9000EF0EF11C025E1F4F81E0CD36D80709F727
:101EA000DD20B1F080910C04882369F06CE973E0C7
:101EB00089E295E0DF91CF911F910F91FF90EF9014
:101EC000DF900C949A0362EA73E08CE894E0F2CF1E
:101ED000DF91CF911F910F91FF90EF90DF900895C8
:101EE0000C94B929CF92DF92EF92FF920F931F9338
:101EF000CF93DF9300D0CDB7DEB78C016B01FC012F
:101F000011821082138212821582148270E060E0C6
:101F10000E942B0BF80120813181811133C02115E2
:101F2000310519F0C9010E94172CF80111821082A5
:101F30001582148213821282C6010E94700F8823B8
:101F400049F189831A82F801E480F580FFEFEF1AE6
:101F5000FF0AB701C8010E942B0B882379F0F80112
:101F60002081318184819581BE016F5F7F4F820F17
:101F7000931F0E94662DF801F582E482FFEFCF1ACD
:101F8000DF0ADACF1582148269EA71E0C9010E9482
:101F9000662DD2CFC8010F900F90DF91CF911F9186
:101FA0000F91FF90EF90DF90CF9008952F923F9286
:101FB0004F925F926F927F928F929F92AF92BF9259
:101FC000CF92DF92EF92FF920F931F93CF93DF9305
:101FD00000D000D0CDB7DEB78C018EE1809FF0013C
:101FE000819FF00D1124E55EFC4F858D882369F0FB
:101FF000C801880F991F9B838A83FC01E35DFE4F14
:10200000808191818531910549F507E012E022E058
:1020100044E060E070E0CB010E941A260DEF11E071
:1020200022E044E060E070E0CB010E941A260F90AD
:102030000F900F900F90DF91CF911F910F91FF9014
:10204000EF90DF90CF90BF90AF909F908F907F9058
:102050006F905F904F903F902F900895EA81FB81A1
:10206000E35EFE4F60810E944D0280E10E942703E3
:10207000BC01990F880B990B0E949C2820E731E640
:1020800040EA5BE30E94FB2820E030E54CE556E4A3
:102090000E94FB2820E030EE42E955E40E94C32A6A
:1020A0006B017C0181E10E942703BC01990F880B21
:1020B000990B0E949C2820E731E640EA5BE30E94EE
:1020C000FB2828E539E340E250E40E94562A2CE43C
:1020D00037E349E85DE30E94C32A4B015C0120E03D
:1020E00030E0A9010E94952887FF03C0812C912C24
:1020F00054012AE939E949E95EE3C501B4010E94C6
:10210000572A4B015C018EE1809FF001819FF00D09
:102110001124E55EFC4F848102E310E0803509F074
:102120005FC0412C512C612C712CEA81FB81E35F53
:10213000FE4FF081F98389810E942703BC01990F2A
:10214000880B990B0E949C281B018C839A83920117
:10215000A3010E94642B18161CF421016C807A8064
:1021600061E070E080E090E00E946103015011099D
:1021700011F72AE038E240EA5BE3B201C3010E94B2
:10218000FB2820E030E54AEA55E40E94FB2820E0E5
:1021900030EC4CE854E40E94C32A2B013C0120E0BF
:1021A00030E0A9010E94952887FF03C0412C512CE3
:1021B000320103EF11E022E044E0C501B4010E94C6
:1021C0001A2607E012E022E044E0C701B6010E94AF
:1021D0001A260DEF11E022E044E0C301B20125CF41
:1021E000412C512C32018A819B81835F9E4FFC01DF
:1021F000F081F98389810E942703BC01990F880B24
:10220000990B0E949C289B01AC01C301B2010E9462
:10221000572A2B013C0161E070E080E090E00E94D1
:1022200061030150110931F720E030E048E452E445
:10223000C301B2010E94C32A2AE038E240EA5BE30C
:102240009ECF0F931F93CF93DF93CDB7DEB76E97DB
:102250000FB6F894DEBF0FBECDBF2DEF31E03F9338
:102260002F9327E032E03F932F932EE1289FF00138
:10227000299FF00D1124E55EFC4F848D8F93838D93
:102280008F93828D1F928F9386EC91E09F938F9313
:102290008E010F5F1F4F1F930F930E94AC2D0FB63F
:1022A000F894DEBF0FBECDBF80910C04B801882327
:1022B00079F089E295E00E94C80C6E960FB6F8940A
:1022C000DEBF0FBECDBFDF91CF911F910F9108955B
:1022D0008CE894E0F0CFCF92DF92EF92FF920F93D1
:1022E0001F93CF93DF93CDB7DEB78A01CDB6DEB6AD
:1022F0004F5F5F4FEDB7FEB7E41BF50B0FB6F894D9
:10230000FEBF0FBEEDBF4DB75EB74F5F5F4F7A01A7
:10231000680F791FA901C7010E946D2DF701E00F19
:10232000F11F1082C7010E9438260FB6F894DEBE56
:102330000FBECDBEDF91CF911F910F91FF90EF9017
:10234000DF90CF9008958F929F92AF92BF92CF92DD
:10235000DF92EF92FF920F931F93CF93DF93CDB74E
:10236000DEB74B01ADB6BEB6FC0104811581980104
:102370002F5F3F4F4DB75EB7421B530B0FB6F8941C
:102380005EBF0FBE4DBFEDB7FEB731967F01232B69
:1023900021F001151105D9F410828EE1889D6001AC
:1023A000899DD00C11244AE050E0B701C601855D3B
:1023B0009C4F0E946D2D0A301105A0F4F601E00F2C
:1023C000F11FE55EFC4F108A0F5F1F4FF4CFFC0139
:1023D00060817181A801C7010E946D2DF701E00F96
:1023E000F11FDACF0FB6F894BEBE0FBEADBEDF91BF
:1023F000CF911F910F91FF90EF90DF90CF90BF9002
:10240000AF909F908F9008957F928F929F92AF92FE
:10241000BF92CF92DF92EF92FF920F931F93CF93D1
:10242000DF93CDB7DEB7C854D1090FB6F894DEBF3D
:102430000FBECDBF8332F9F08E33C9F08D3011F06D
:102440000C94A61DC85BDF4F0FB6F894DEBF0FBE1D
:10245000CDBFDF91CF911F910F91FF90EF90DF9053
:10246000CF90BF90AF909F908F907F9008951092E3
:10247000F2011092F101E4EEF1E0A091F101B091CE
:10248000F201AC51BE4F1C928091E401813539F4C8
:102490000E94CC0E1092F2011092F101D3CF84353C
:1024A00009F0ACC18091BE029091BF022091C002A0
:1024B000222309F419C1029769F78090C502909010
:1024C000C602A090C702B090C802C090C102D090CE
:1024D000C202E090C302F090C4020E94C00960935F
:1024E000C5027093C6028093C7029093C8020E94EF
:1024F000A8096093C1027093C2028093C3029093B3
:10250000C40205E010E06091C5027091C60280919E
:10251000C7029091C8029B01AC010E94692B8111F6
:102520000EC06091C1027091C2028091C30290916D
:10253000C4029B01AC010E94692B8823B9F00E9460
:10254000C0096093C5027093C6028093C70290933E
:10255000C8020E94A8096093C1027093C2028093CE
:10256000C3029093C4020150110969F66091C5023B
:102570007091C6028091C7029091C8029B01AC0184
:102580000E94692B81110EC06091C1027091C2023C
:102590008091C3029091C4029B01AC010E94692BFF
:1025A000882381F08092C5029092C602A092C70251
:1025B000B092C802C092C102D092C202E092C3029D
:1025C000F092C4022091C1023091C2024091C30234
:1025D0005091C40260E070E088EC92E40E94562AB8
:1025E00020E030E040EA50E40E94C32A9B01AC01A5
:1025F0006091C5027091C6028091C7029091C80295
:102600000E94562A6B017C0180910C048823B9F149
:1026100064E873E089E295E00E949A034091C50264
:102620005091C6026091C7027091C80289E295E09C
:102630000E94F70B62E873E089E295E00E949A033A
:102640004091C1025091C2026091C3027091C402D4
:1026500089E295E00E94F70B60E873E089E295E07B
:102660000E949A03B701A60189E295E00E94F70B48
:102670006EE773E089E295E00E949A030BCF6CE766
:1026800073E08CE894E00E949A034091C502509157
:10269000C6026091C7027091C8028CE894E00E9463
:1026A000F70B6AE773E08CE894E00E949A0340918C
:1026B000C1025091C2026091C3027091C4028CE8C1
:1026C00094E00E94F70B68E773E08CE894E00E94C6
:1026D0009A03B701A6018CE894E00E94F70B66E725
:1026E00073E08CE894E0C8CF019709F07EC0AE019A
:1026F0004F5F5F4FBE016B5D7F4F80E695E00E94AC
:10270000D80929AD3AAD4BAD5CAD60E070E088EC26
:1027100092E40E94562A20E030E040EA50E40E9411
:10272000C32A9B01AC016D897E898F89988D0E9497
:10273000562A6B017C0180910C04882359F16CE6C8
:1027400073E089E295E00E949A034D895E896F8962
:10275000788D89E295E00E94F70B6AE673E089E2E2
:1027600095E00E949A0349AD5AAD6BAD7CAD89E20C
:1027700095E00E94F70B68E673E089E295E00E941D
:102780009A03B701A60189E295E00E94F70B66E67D
:1027900073E070CF64E673E08CE894E00E949A03E3
:1027A0004D895E896F89788D8CE894E00E94F70BE3
:1027B00062E673E08CE894E00E949A0349AD5AAD5A
:1027C0006BAD7CAD8CE894E00E94F70B60E673E0A3
:1027D0008CE894E00E949A03B701A6018CE894E08B
:1027E0000E94F70B6EE573E07CCF80910C0462E7EA
:1027F00073E081113FCF6EE673E073CF8D3409F043
:10280000C7C001900020E9F7E55EF140329708F477
:102810005DC022E030E041E050E061E070E084EE35
:1028200091E00E946B11FC01E75AFE4F2081213498
:1028300049F480910C0467E573E081111BCF60E5DA
:1028400073E04FCF0E94D60F8E010F5F1F4F84E1C0
:10285000F80111928A95E9F780910C04882351F1CF
:102860006EE473E089E295E00E949A038DEF91E0B7
:102870009F938F9387E092E09F938F938CEC91E0EE
:102880009F938F931F9284E18F931F930F930E94C6
:102890007C2D0FB6F894DEBF0FBECDBF80910C0427
:1028A000B801882361F089E295E00E94C80C6AE4CF
:1028B00073E0E0CE6CE473E08CE894E0D5CF8CE874
:1028C00094E00E94C80C68E473E00BCF80910C0484
:1028D000882309F44FC066E473E089E295E00E9422
:1028E0009A0310E000E064E1762ECE0101967C01AF
:1028F0007DEFC72E71E0D72EE7E0AE2EE2E0BE2ED0
:10290000FCEC8F2EF1E09F2EC8010E94D60FF7013C
:10291000272D11922A95E9F7DF92CF92BF92AF92BD
:102920009F928F921F927F92FF92EF920E947C2D36
:102930000FB6F894DEBF0FBECDBF80910C04B70177
:102940008823E9F089E295E00E94C80C62E473E014
:1029500089E295E00E949A030F5F1F4F0630110530
:1029600099F680910C046EE373E0811183CE6CE3E1
:1029700073E0B7CE64E473E08CE894E0B0CF8CE809
:1029800094E00E94C80C60E473E08CE894E0E2CF2D
:10299000833509F0B7C022E030E041E050E061E06B
:1029A00070E084EE91E00E946B116C0123E030E056
:1029B00043E050E062E070E084EE91E00E946B1131
:1029C0007C018EE18C9D80018D9D100D1124055E92
:1029D0001C4FF8018481803579F5FFEFEF16F10483
:1029E00011F008F053C0F601EE0FFF1FEF59FE4F34
:1029F000B70180810E94CA022AE02C9DC0012D9D52
:102A0000900D11249C0125533D4F69016E2DF90154
:102A1000848195810E940D0F6E2DF6018281938134
:102A20000E940D0FF801F48EE38E81E0EF2809F487
:102A300080E0F801828F2AC0823509F05AC0E11483
:102A4000F10469F5F601EE0FFF1FEF59FE4F70E03C
:102A500060E080810E94CA022AE02C9DC0012D9D69
:102A6000900D11249C0125533D4F790160E0F9013F
:102A7000828193810E940D0F60E0F701848195812E
:102A80000E940D0FF801148E138E128E80910C048B
:102A900068E273E08111EECD62E273E022CE1E1493
:102AA0001F04A4F7F601EE0FFF1FEF59FE4F6FEF63
:102AB00070E080810E94CA022AE02C9DC0012D9DF9
:102AC000900D11249C0125533D4F79016FEFF901C1
:102AD000828193810E940D0F6FEFF70184819581B0
:102AE0000E940D0F8FEF90E0F801948F838F81E0AB
:102AF000A1CF80910C0465E373E08111BBCD6EE240
:102B000073E0EFCD843439F481E090E00E942E0E22
:102B100067E973E0E6CD853439F490E080E00E9407
:102B20002E0E62E973E0DDCD8C3409F0EDC001902A
:102B30000020E9F7E55EF140329708F4ABCC22E0E3
:102B400030E041E050E061E070E084EE91E00E940E
:102B50006B118C0123E030E043E050E062E070E074
:102B600090E080E00E946B118F3F910551F048F09A
:102B700082E090E090930101809300016CE173E0AA
:102B8000B0CD01151105B1F59093CA028093C90229
:102B90000E9480070E94920760E088EE93E00E9406
:102BA0002C0E6091C90289EE93E00E942C0E609178
:102BB000CA028CEE93E00E942C0E6091C9028CEE4A
:102BC00093E00E942C0E82E090E0909301018093AC
:102BD00000016AE173E08CE894E00E949A0360913E
:102BE000C9027091CA028CE894E00E94C10B68E1AE
:102BF00073E077CD0130110509F042C08091C90220
:102C00009091CA02059662E173E08F3F910511F041
:102C100008F067CD9093CA028093C9020E94800792
:102C20000E94920760E088EE93E00E942C0E609173
:102C3000C90289EE93E00E942C0E6091CA028CEECC
:102C400093E00E942C0E6091C9028CEE93E00E94EA
:102C50002C0E82E090E0909301018093000160E1EE
:102C600073E08CE894E00E949A036091C90270912D
:102C7000CA028CE894E00E94C10B6EE073E031CD93
:102C80000230110509F006CC8091C9029091CA0268
:102C9000059768E073E08F3F910511F008F021CDB2
:102CA0009093CA028093C9020E9480070E949207F3
:102CB00060E088EE93E00E942C0E6091C90289EEDC
:102CC00093E00E942C0E6091CA028CEE93E00E9469
:102CD0002C0E6091C9028CEE93E00E942C0E109392
:102CE00001010093000166E073E08CE894E00E942B
:102CF0009A036091C9027091CA028CE894E00E9424
:102D0000C10B64E073E0EDCC883509F0F3C00190AD
:102D10000020E9F7E55EF140329708F4BBCB22E0F2
:102D200030E041E050E061E070E084EE91E00E942C
:102D30006B117C0123E030E043E050E062E070E0A2
:102D400090E080E00E946B118F3F910551F048F0B8
:102D500082E090E090930101809300016EEF72E0B9
:102D6000C0CCE114F104B1F590930301809302010A
:102D70000E9480070E94920760E08AEE93E00E9422
:102D80002C0E609102018BEE93E00E942C0E60915C
:102D900003018CEE93E00E942C0E609102018CEEF8
:102DA00093E00E942C0E82E090E0909301018093CA
:102DB00000016CEF72E08CE894E00E949A0360914D
:102DC0000201709103018CE894E00E94C10B6AEF4C
:102DD00072E087CCF1E0EF16F10409F044C00091F5
:102DE0000201109103010B5F1F4F64EF72E0093184
:102DF00021E0120708F075CC109303010093020143
:102E0000C8010E9480070E949207612F8AEE93E01A
:102E10000E942C0E609102018BEE93E00E942C0E1A
:102E2000609103018CEE93E00E942C0E60910201F0
:102E30008CEE93E00E942C0E82E090E090930101D2
:102E40008093000162EF72E08CE894E00E949A03A4
:102E500060910201709103018CE894E00E94C10B23
:102E600060EF72E03ECC32E0E316F10409F012CBE1
:102E70000091020110910301055011096AEE72E000
:102E8000093181E0180708F02CCC1093030100935E
:102E90000201C8010E9480070E949207612F8AEEFA
:102EA00093E00E942C0E609102018BEE93E00E9451
:102EB0002C0E609103018CEE93E00E942C0E609129
:102EC00002018CEE93E00E942C0EF0920101E09240
:102ED000000168EE72E08CE894E00E949A03609131
:102EE0000201709103018CE894E00E94C10B66EE30
:102EF00072E0F7CB803509F007C201900020E9F7B6
:102F0000E55EF140329740F122E030E041E050E0F0
:102F100061E070E084EE91E00E946B118C010E94F0
:102F2000D60F80910C04882391F064EE72E089E260
:102F300095E00E949A03C8010E94211180910C041F
:102F400060EE72E0811196CB6EED72E0CACB62EE5C
:102F500072E08CE894E0EDCF80910C04882309F4B2
:102F60002EC16CED72E089E295E00E949A0310E0B8
:102F700000E0C8010E94D60FC8010E942111809173
:102F80000C04882309F420C168ED72E089E295E021
:102F90000E949A030F5F1F4F0830110551F780916F
:102FA000BE029091BF02892B09F4F5C08091C00246
:102FB000882309F432C18090C5029090C602A09087
:102FC000C702B090C802C090C102D090C202E09087
:102FD000C302F090C4020E94C0096093C5027093BE
:102FE000C6028093C7029093C8020E94A80960930A
:102FF000C1027093C2028093C3029093C40205E0A1
:1030000010E06091C5027091C6028091C702909154
:10301000C8029B01AC010E94692B81110EC0609116
:10302000C1027091C2028091C3029091C4029B01BF
:10303000AC010E94692B8823B9F00E94C0096093FB
:10304000C5027093C6028093C7029093C8020E9483
:10305000A8096093C1027093C2028093C302909347
:10306000C4020150110969F66091C5027091C6024F
:103070008091C7029091C8029B01AC010E94692B0C
:1030800081110EC06091C1027091C2028091C30291
:103090009091C4029B01AC010E94692B882381F0AE
:1030A0008092C5029092C602A092C702B092C80256
:1030B000C092C102D092C202E092C302F092C40256
:1030C000C090C502D090C602E090C702F090C8023E
:1030D0002091C1023091C2024091C3025091C402BA
:1030E00060E070E088EC92E40E94562A20E030E034
:1030F00040EA50E40E94C32A9B01AC01C701B6011B
:103100000E94562A4B015C0180910C04B701A60174
:10311000882309F45EC089E295E00E94F70B64ED14
:1031200072E089E295E00E949A034091C1025091B9
:10313000C2026091C3027091C40289E295E00E94CC
:10314000F70B62ED72E089E295E00E949A03B50107
:10315000A40189E295E00E94F70B8091E3018F3092
:10316000A8F08091E20191E089278093E201882311
:1031700009F450C08DE690E30E94910961E070E08F
:1031800080E090E00E9461031092E3018091E301EE
:103190008F5F8093E30180910C04882309F4A5C01C
:1031A00064EC72E089E295E00E949A0363EF71E0BB
:1031B00089E295E00E94C80C62EC72E05BCA6AED9D
:1031C00072E08CE894E0D1CE66ED72E08CE894E099
:1031D000DFCE8CE894E00E94F70B60ED72E08CE8A3
:1031E00094E00E949A034091C1025091C202609102
:1031F000C3027091C4028CE894E00E94F70B6EEC5D
:1032000072E08CE894E00E949A03B501A4018CE876
:1032100094E0A1CF86E690E3AFCFAE014F5F5F4F62
:10322000BE016B5D7F4F80E695E00E94D809CD8896
:10323000DE88EF88F88C29AD3AAD4BAD5CAD60E02F
:1032400070E088EC92E40E94562A20E030E040EAE8
:1032500050E40E94C32A9B01AC01C701B6010E9441
:10326000562A4B015C0180910C04B701A60188230A
:10327000F9F089E295E00E94F70B6CEC72E089E2CC
:1032800095E00E949A0349AD5AAD6BAD7CAD89E2E1
:1032900095E00E94F70B6AEC72E089E295E00E94EB
:1032A0009A03B501A40189E295E00E94F70B73CF60
:1032B0008CE894E00E94F70B68EC72E08CE894E0F4
:1032C0000E949A0349AD5AAD6BAD7CAD8CE894E099
:1032D0000E94F70B66EC72E08CE894E00E949A037F
:1032E000B501A4018CE894E0E0CF60EC72E08CE8DA
:1032F00094E00E949A0363EF71E08CE894E00E94EE
:10330000C80C6EEB72E0EDC9823409F095C084EE12
:1033100091E0FC0101900020E9F7CF01855E91402A
:1033200010910C040297D8F122E030E041E050E027
:1033300061E070E084EE91E00E946B117C0111234A
:10334000B9F06CEB72E089E295E00E949A038EE19D
:103350008E9DF0018F9DF00D1124E55EFC4F628D76
:1033600070E089E295E00E94C10B6AEB72E082C9CD
:1033700068EB72E08CE894E00E949A038EE18E9DE7
:10338000F0018F9DF00D1124E55EFC4F628D70E021
:103390008CE894E00E94C10B66EB72E0A2C964EB7A
:1033A00072E089E295E0111104C062EB72E08CE8F2
:1033B00094E00E949A030BE113E02FECE22E23E04D
:1033C000F22EF801628D70E080910C04882389F15F
:1033D00089E295E00E94C10B025E1F4FE016F106E4
:1033E00081F780910C0481111AC06EEA72E08CE8BA
:1033F00094E00E949A0380910C04811115C06EEA3A
:1034000072E08CE894E00E949A0380910C046AEACE
:1034100072E0882309F465C96CEA72E02BC960EB9D
:1034200072E089E295E0E5CF60EB72E089E295E039
:10343000EACF8CE894E0CECF863509F097C084EED1
:1034400091E0FC0101900020E9F7CF01855E9140F9
:1034500010910C04029708F44FC022E030E041E0E4
:1034600050E061E070E084EE91E00E946B117C011D
:103470008EE18E9DF0018F9DF00D1124E55EFC4FD5
:103480008481803511F0863581F51123B9F068EA21
:1034900072E089E295E00E949A038EE18E9DF00130
:1034A0008F9DF00D1124E55EFC4F638D748D89E2D4
:1034B00095E00E94C10B66EA72E0DCC864EA72E043
:1034C0008CE894E00E949A038EE18E9DF0018F9D1E
:1034D000F00D1124E55EFC4F638D748D8CE894E053
:1034E0000E94C10B62EA72E0FCC86BE972E0111144
:1034F000C1C864E972E0F5C862E972E089E295E06A
:10350000111104C060E972E08CE894E00E949A0313
:103510000BE113E0F8018481803581F4638D748DB3
:1035200080910C048823C9F089E295E00E94C10BC8
:103530006EE872E089E295E00E949A03025E1F4FF6
:10354000F3E00F3C1F0731F780910C046AE872E04A
:10355000811190C868E872E0C4C88CE894E00E94C9
:10356000C10B6CE872E08CE894E0E6CF8E3409F091
:103570005CC022E030E041E050E061E070E084EEC9
:1035800091E00E946B118C010997BCF5FE01319608
:103590008EE1809F6001819FD00C112490E080E03B
:1035A0007F01DC01AC0DBD1DA55EBC4F15961C92C4
:1035B000119201968B309105A1F74BE050E066EE39
:1035C00071E0C7010E946D2D4CE050E066EE71E0A5
:1035D000C601805E9C4F0E946D2D8AE0809FF001A5
:1035E000819FF00D1124E553FD4F668177814CE0FA
:1035F00050E0C7010E94820E0AC080910C0488230B
:1036000079F061E872E089E295E00E949A03809186
:103610000C0464E772E081112DC86EE672E061C8A7
:103620006AE772E08CE894E0F0CF833409F048C098
:1036300022E030E041E050E061E070E084EE91E0B3
:103640000E946B118C0109974CF080910C046BE582
:1036500072E081110FC864E572E043C84DE050E0AC
:1036600066EE71E0CE0101960E946D2D1E862EE160
:10367000209FC001219F900D11244AE050E0BE011F
:103680006F5F7F4F855D9C4F0E946D2D8AE0809F0C
:10369000F001819FF00D1124E553FD4F6085718588
:1036A0004DE050E0CE0101960E94820E80910C0404
:1036B00068E672E081110C943A1362E672E011C878
:1036C0008F3409F056C022E030E041E050E061E084
:1036D00070E084EE91E00E946B11893091056CF4EA
:1036E0002EE1289FF001299FF00D1124E55EFC4F8B
:1036F0002381203569F0263559F080910C046DE462
:1037000072E081110C943A1366E472E00C94711328
:103710006091E601262F2D7F203559F080910C0411
:103720006FE372E081110C943A1368E372E00C9439
:1037300071132EE1289FF001299FF00D1124E55E01
:10374000FC4F64832AE0289FF001299FF00D11248B
:10375000E553FD4F808191810E940D0F80910C04F3
:1037600062E372E081110C943A136CE272E00C9403
:1037700071138134D9F501E611E08BECC82E82E09B
:10378000D82E9BE1E92E93E0F92EBB24B394F801E7
:1037900080810E5F1F4F6FEF70E00E94CA026FEFD3
:1037A000F601828193810E940D0F6FEFF6018481F3
:1037B00095810E940D0F8FEF90E0F701948F838F1A
:1037C000B28EFAE0CF0ED11C2EE1E20EF11C31E0F8
:1037D0000D361307E1F680910C0460E272E081116E
:1037E0000C943A1366E272E00C947113863429F457
:1037F00081E00E94210F0C944A12823529F4F0E0F6
:10380000E0E009950C944A12853559F480910C0436
:1038100064E172E081110C943A136AE172E00C9455
:103820007113893509F05CC062ED71E089E295E0C1
:103830000E94530B68EE73E080E090E00E94610309
:1038400089E295E00E944005892B09F43FC089E296
:1038500095E00E9456058F349105C1F58EEA91E0FE
:103860000E94620B89E295E00E944005892B59F085
:1038700089E295E00E94560561E070E080E090E00A
:103880000E946103EFCF8AEB91E00E94620B89E214
:1038900095E00E944005892B49F089E295E00E945D
:1038A0005605682F8CE894E00E945E048CE894E052
:1038B0000E941C04892B59F38CE894E00E94FA03BF
:1038C000682F89E295E00E94E404E1CF8AEE91E05E
:1038D0000E94620B8CEC91E00E94620B0C944A12E5
:1038E0008734A1F522E030E041E050E061E070E093
:1038F00084EE91E00E946B112EE1289F8001299FA8
:10390000100D1124005E1C4F80910C04882379F067
:103910006CEA71E089E295E00E949A03B80189E2BD
:1039200095E00E94C80C6AEA71E00C943A1368EAC8
:1039300071E08CE894E00E949A03B8018CE894E06E
:103940000E94C80C66EA71E00C9471138834A1F5EA
:1039500022E030E041E050E061E070E084EE91E090
:103960000E946B112EE1289F8001299F100D1124C8
:10397000055D1C4F80910C04882379F064EA71E0A6
:1039800089E295E00E949A03B80189E295E00E94DD
:10399000C80C62EA71E00C943A1360EA71E08CE8BA
:1039A00094E00E949A03B8018CE894E00E94C80C4D
:1039B0006EE971E00C9471138B3409F065C08E01CF
:1039C0000F5F1F4F89E0F80111928A95E9F7EBE14B
:1039D000F3E0D8018BE094E024812D937E968E173E
:1039E0009F07D1F780910C04882339F160E971E0D9
:1039F00089E295E00E949A0368E775E089E295E024
:103A00000E9459206EE871E089E295E00E949A03D5
:103A100062E775E089E295E00E9459206CE871E068
:103A200089E295E00E949A03B80189E295E00E943C
:103A3000C80C6AE871E00C943A136CE771E08CE80A
:103A400094E00E949A0368E775E08CE894E00E9495
:103A500059206AE771E08CE894E00E949A0362E7DB
:103A600075E08CE894E00E94592068E771E08CE8EA
:103A700094E00E949A03B8018CE894E00E94C80C7C
:103A800066E771E00C9471138A34A1F58E010F5F23
:103A90001F4F88E0F80111928A95E9F7EBE1F3E016
:103AA000D80183818D937E9624E0EB30F207C9F72D
:103AB00080910C04882379F064E771E089E295E055
:103AC0000E949A03B80189E295E00E94C80C62E75F
:103AD00071E00C943A1360E771E08CE894E00E9486
:103AE0009A03B8018CE894E00E94C80C6EE671E07D
:103AF0000C947113893411F00C944A1280910C04C7
:103B0000882391F06EE873E089E295E00E949A03C1
:103B10006091BE027091BF0289E295E00E94C10BE4
:103B20006CE873E00C943A1368E873E08CE894E076
:103B30000E949A036091BE027091BF028CE894E0EB
:103B40000E94C10B66E873E00C9471132091F1019F
:103B50003091F2012C30310510F00C942212A901A1
:103B60004F5F5F4F5093F2014093F1012C513E4F54
:103B7000F90180830C9422121F920F920FB60F92BC
:103B800011242F933F938F939F93AF93BF93809173
:103B90000E0490910F04A0911004B0911104309183
:103BA0000D0423E0230F2D3758F50196A11DB11DFB
:103BB00020930D0480930E0490930F04A09310049F
:103BC000B09311048091120490911304A0911404F5
:103BD000B09115040196A11DB11D8093120490931C
:103BE0001304A0931404B0931504BF91AF919F9157
:103BF0008F913F912F910F900FBE0F901F901895AE
:103C000026E8230F0296A11DB11DD2CF1F920F925D
:103C10000FB60F9211242F933F934F935F936F939F
:103C20007F938F939F93AF93BF93EF93FF938CE812
:103C300094E00E943C04FF91EF91BF91AF919F915E
:103C40008F917F916F915F914F913F912F910F9045
:103C50000FBE0F901F9018951F920F920FB60F92E4
:103C600011242F938F939F93EF93FF93E0919C04E4
:103C7000F0919D048081E091A204F091A30482FD63
:103C80001BC090818091A5048F5F8F732091A60443
:103C9000821741F0E091A504F0E0E457FB4F958FC7
:103CA0008093A504FF91EF919F918F912F910F9099
:103CB0000FBE0F901F9018958081F4CF1F920F9226
:103CC0000FB60F9211242F933F938F939F93EF93EF
:103CD000FF938091B90287FF1FC010928500109258
:103CE00084008091B9028F5F8093B9028091B902FC
:103CF00087FF04C08091B9028C30ACF080918400C1
:103D000090918500049680349C4990F180918400C4
:103D10009091850004962EC08091B90287FFE1CF73
:103D20008091B902DECF2091840030918500E0912E
:103D3000B9028E2FEE0F990BFC01EE0FFF1FE80F5B
:103D4000F91FEB56FD4F81819281820F931F909353
:103D50008900809388008091B902FF91EF919F9133
:103D60008F913F912F910F900FBE0F901F9018953C
:103D700080E49CE990938900809388008FEF809382
:103D8000B902EBCF1F920F920FB60F9211242F930F
:103D90003F934F935F936F937F938F939F93AF93D3
:103DA000BF93EF93FF93E091BC02F091BD02309777
:103DB00049F0A685B7858585968D91FF14C09C91A5
:103DC0008923A1F4FF91EF91BF91AF919F918F91C2
:103DD0007F916F915F914F913F912F910F900FBE07
:103DE0000F901F9018959C91892361F7A389B4893E
:103DF0009C918589809589238C93868997890197E1
:103E0000F1F7608D718DA685B785558538E020E086
:103E1000CB010197F1F7822F90E095958795282F98
:103E20004C91452309F02068315091F7868D81FD32
:103E300020958091BB0290E001968F739927309175
:103E4000BA02381799F0A091BB02B0E0AB5ABD4F4F
:103E50002C938093BB02828D938D0197F1F7A389F8
:103E6000B4898C919589892B8C93ACCF868D816098
:103E7000868FF1CF1F920F920FB60F9211242F93BE
:103E80003F934F935F936F937F938F939F93AF93E2
:103E9000BF93EF93FF938091B900887F803609F438
:103EA0004AC0F0F5883209F4A7C018F5803109F44A
:103EB0009BC0B8F4882309F4F9C0883009F494C091
:103EC000FF91EF91BF91AF919F918F917F916F91F2
:103ED0005F914F913F912F910F900FBE0F901F90C8
:103EE0001895883109F488C0803251F780936004B6
:103EF00014C0803409F49DC040F48033B9F3883392
:103F0000F9F68093600485ECB0C0803509F485C073
:103F1000883509F496C0883499F60E94F40DD0CF04
:103F2000883909F48CC038F5883729F050F4883680
:103F300011F0803729F683E08093620410925402D6
:103F400057C0883809F47BC0803919F0803809F0EF
:103F5000B7CF80915402803208F071C0E0915402D2
:103F600081E08E0F809354028091BB00F0E0EC5C06
:103F7000FD4F80833DC0803B39F0E0F4803A09F486
:103F800079C0883A09F09CCF84E080936204109253
:103F9000330210923202E0911804F091190409954D
:103FA0008091320281110FC081E080933202109221
:103FB000120209C0803C09F4A6CF883C09F4A3CFC3
:103FC000883B09F07DCFE091330281E08E0F809332
:103FD0003302F0E0EE5EFD4F80818093BB00909154
:103FE00033028091320229C080913D048093BB004E
:103FF00085EC8093BC0064CF90915F0480915E0457
:10400000981758F5E0915F0481E08E0F80935F046C
:10401000F0E0E25CFB4F8081E9CFE0915F0481E05A
:104020008E0F80935F048091BB00F0E0E25CFB4F59
:10403000808390915F0480915E049817C8F285E8B0
:10404000D8CFE0915F0481E08E0F80935F04809170
:10405000BB00F0E0E25CFB4F808380916104811142
:104060005CCF81E080933C0484EA8093BC00109292
:10407000620426CF85EC8093BC001092620480918C
:104080005402803230F4E0915402F0E0EC5CFD4FD9
:1040900010826091540270E0E0911604F0911704D0
:1040A00084E392E00995109254020ACF10926004C2
:1040B00034CFDB0114964D915C9115976D917C91F5
:1040C000DC01ED91FC910280F381E02D0994CF9207
:1040D000DF92EF92FF9210928F0410928E0498EE6E
:1040E000C92E93E0D92EE12CF12CC0929004D092ED
:1040F0009104E0929204F092930485E791E090930A
:104100008D0480938C0485EC90E0909399048093C7
:10411000980484EC90E090939B0480939A0480EC44
:1041200090E090939D0480939C0481EC90E09093A8
:104130009F0480939E0482EC90E09093A10480936E
:10414000A00486EC90E09093A3048093A2041092C4
:10415000A5041092A6041092A7041092A80410922D
:104160004B0510924A05C0924C05D0924D05E09245
:104170004E05F0924F0587E891E0909349058093B2
:10418000480565ED71E088E795E00E94CA0C69ED8D
:1041900071E082E795E00E94CA0C10926D051092C2
:1041A0006C0510926F0510926E05109271051092B9
:1041B000700510925F0510925E0588E495E090937B
:1041C0005D0580935C0580E090E0A0ECBFE7809304
:1041D000540590935505A0935605B09357058093C9
:1041E000580590935905A0935A05B0935B0510921A
:1041F0002C0510922B05C0922D05D0922E05E09231
:104200002F05F092300589E991E090932A0580937B
:1042100029051092400510923F0510924205109218
:1042200041051092440510924305109246051092E4
:104230004505609147056E7F6D7F609347056695E4
:10424000617081E0682782E00E944D0261E082E0B7
:104250000E949902E0EFF3E0E491E0933905ECED80
:10426000F3E0E491F0E0EE0FFF1FE053FC4F859187
:10427000949190933B0580933A0560E083E00E941F
:1042800099028091470581FD04C061E083E00E94AE
:104290004D0283E080933505E1EFF3E0E491E09394
:1042A0003605EDEDF3E0E491F0E0EE0FFF1FEA5389
:1042B000FC4F859194919093380580933705FF903A
:1042C000EF90DF90CF900895CF93DF93CDB7DEB717
:1042D0002C970FB6F894DEBF0FBECDBF789484B58F
:1042E000826084BD84B5816084BD85B5826085BDF2
:1042F00085B5816085BD80916E00816080936E0080
:104300001092810080918100826080938100809171
:104310008100816080938100809180008160809322
:1043200080008091B10084608093B1008091B000E2
:1043300081608093B00080917A00846080937A00DD
:1043400080917A00826080937A0080917A00816007
:1043500080937A0080917A00806880937A0010922E
:10436000C100E0919C04F0919D0482E08083E09183
:104370009804F09199041082E0919A04F0919B04C2
:104380008FEC80831092A404E091A004F091A1042A
:1043900086E08083E0919E04F0919F04808180619B
:1043A0008083E0919E04F0919F04808188608083E7
:1043B000E0919E04F0919F04808180688083E09169
:1043C0009E04F0919F0480818F7D8083109244052C
:1043D000109243051092420510924105109240053B
:1043E00010923F058DE991E0909346058093450535
:1043F00090913505963108F047C02DEB30E03093B1
:10440000400520933F052BE931E03093420520938E
:1044100041052CE231E0309344052093430520917F
:10442000680084E0983048F031E09E3008F430E0D5
:1044300081E001C0880F3A95EAF7822B80936800EB
:104440002DE630E0983050F02BE630E09E3030F032
:104450002CE630E0963110F030E020E030933D055E
:1044600020933C05292F30E0983008F026C281E0E7
:1044700001C0880F9A95EAF780933E058091450523
:10448000909146050197F1F780914305909144057D
:10449000892B49F1E091BC02F091BD0225E0E9329F
:1044A000F20709F1309739F0A389B4899C91858985
:1044B000809589238C93809147058E7F8093470553
:1044C0001092BB021092BA0289E295E09093BD026D
:1044D0008093BC02E0913C05F0913D058081909174
:1044E0003E05892B808351E6A52E51E0B52E6DE661
:1044F000E62E61E0F62E8501D8018C910E5F1F4FEC
:1045000070E060E00E94CA02E016F106A9F78FEFA2
:1045100093E00E94700F883581F0482F50E070E0E2
:1045200060E02AE08CE894E00E94750B0E94CC0EBB
:1045300068E58FEF93E00E942C0E4BECC42E42E016
:10454000D42EF60190E080E0918380839C012F5F60
:104550003F4F338322832E5F3F4F358324832D5F6C
:104560003F4F37832683255F3F4F318720874C9607
:104570003A96803E910541F780915E0590915F05E6
:10458000009711F00E94172C86E090E00E947B2B90
:1045900020915C0530915D0544E4FC014083328349
:1045A0002183138220E230E03583248390935F05DA
:1045B00080935E050E94CF06882309F4B2C182EA87
:1045C00090E30E9491096AE070E080E090E00E9430
:1045D00061038DE293EF0E94910943E050E0BE0138
:1045E0006F5F7F4F80915E0590915F050E94A907E4
:1045F00089819A81019609F494C10E94C00960934F
:10460000C5027093C6028093C7029093C8020E94AD
:10461000A8096093C1027093C2028093C302909371
:10462000C40205E010E06091C5027091C60280915D
:10463000C7029091C8029B01AC010E94692B8111B5
:1046400049C16091C1027091C2028091C3029091F0
:10465000C4029B01AC010E94692B811145C160918C
:10466000C5027091C6028091C7029091C8029B0159
:10467000AC010E94692B811154C16091C1027091FB
:10468000C2028091C3029091C4029B01AC010E94BE
:10469000692B811146C181E08093C00282E090E0E5
:1046A0009093BF028093BE02EBE1F3E080EFDF0165
:1046B0001D928A95E9F78F0199E5692E91E0792E8F
:1046C000F12CE12C22E5522E30E5332E4424439484
:1046D000F501819191915F01D8018D939C938E306A
:1046E000910508F4D4C10E97089708F0D2C181E46F
:1046F000F8018283D6018D919C910E94700FF30185
:1047000091913F01882309F4C6C1D80114968C9376
:10471000F8018481863509F0CFC15482F801938372
:10472000D60112968D919C910E94700FF801948190
:10473000913409F0C6C1428ED60114968D919C9198
:104740000E94700F90E0F801948F838FD601169627
:104750008D909C90B401CE0101960E94720F8D81C4
:104760009E81892B09F4B3C1E981FA818081882374
:1047700009F4ADC1B401CE0107960E94720F8B857A
:104780009C8522242394892B39F0EF81F8852224FB
:10479000239480818111212CCE0107960E94210B48
:1047A000CE0101960E94210B222009F493C16FEDE6
:1047B00071E0CE0101960E94CA0CB701CE010196AC
:1047C0000E94A00DCE0101960E94210BF60180846B
:1047D0009184B401CE0101960E94720F8D819E8159
:1047E000892B09F47DC1E981FA818081882309F44C
:1047F00077C1B401CE0107960E94720F8B859C850C
:1048000022242394892B39F0EF81F88522242394E4
:1048100080818111212CCE0107960E94210BCE01AF
:1048200001960E94210B222009F45DC16FED71E019
:10483000CE0101960E94CA0CB701CE0101960E94DA
:10484000A311CE0101960E94210BD80114968C91E0
:10485000813481F0F5013297908061E0892D0E94CA
:104860009902F801638D748D892D0E94CA02D801C6
:104870005D964C92BFEFEB1AFB0A025E1F4FEAE017
:10488000CE0ED11CF8E0EF16F10409F021CF80E044
:10489000E82E80E0F82E11E08CE894E00E941C04E1
:1048A000181619060CF025C110920C048CE894E03F
:1048B0000E94FA030E940412EFCF9E3040F4285069
:1048C000310981E001C0880F2A95EAF7D5CD2E5035
:1048D0003109F7CF0E94C0096093C5027093C602E8
:1048E0008093C7029093C8026091C1027091C20286
:1048F0008091C3029091C4029B01AC010E94692B7C
:10490000882351F00E94A8096093C1027093C202EB
:104910008093C3029093C4020150110909F083CE21
:104920009ECE64E170E080E090E00E94610380919F
:104930006C0590916D05009711F00E94172C86E090
:1049400090E00E947B2B28E3DC012C9328E435E0E7
:1049500012963C932E93119713961C92139720E274
:1049600030E015963C932E93149790936D058093A9
:104970006C050E94CF06882309F496CE8AEB8983C2
:1049800041E050E0BE016F5F7F4F80916C059091D8
:104990006D050E946409882309F486CE64E170E005
:1049A00080E090E00E94610380E695E00E944C095F
:1049B00087FF05C06AE070E080E090E0F3CF81EE11
:1049C000898388E08A831B8243E050E0BE016F5FE9
:1049D0007F4F80916C0590916D050E94640980E67F
:1049E00095E00E944C0987FF07C06AE070E080E014
:1049F00090E00E946103F3CF80E695E00E944C09AD
:104A000083FF52CE8091700590917105009739F027
:104A1000DC01ED91FC910280F381E02D09958091FC
:104A20006E0590916F05009739F0DC01ED91FC91D6
:104A30000280F381E02D099586E090E00E947B2BB7
:104A4000FC018FE491E09183808380E290E1938385
:104A5000828300E615E015830483F0937105E093EB
:104A6000700586E090E00E947B2BFC0181E491E0E0
:104A70009183808381E290E1938382831583048311
:104A8000F0936F05E0936E0581E090E009CE84E439
:104A90002FCE8EE42DCE963519F4F801548238CEFF
:104AA000963421F4D80114963C9232CE9035A9F375
:104AB000D80114969C932CCE863409F02FCE3482E4
:104AC0002DCE882311F0428E37CE128E35CE222481
:104AD000239466CEB401CE0101960E94720F6DCE72
:104AE000222423949CCEB401CE0101960E94720F21
:104AF000A3CE89E295E00E944005181619064CF4F1
:104B000010930C0489E295E00E9456050E9404125D
:104B1000F0CF80E10E942703BC01990F880B990B0D
:104B20000E949C2820E731E640EA5BE30E94FB28D4
:104B300020E030E54CE556E40E94FB2820E030EE12
:104B400042E955E40E94C32A4B015C0123E333E3AD
:104B50004BE651E40E94642B181654F02DEC3CEC0B
:104B60004CE151E4C501B4010E94952887FF1AC0A9
:104B700080910B04811104C010930B040E94210F3B
:104B800062E370E080E090E00E946103E114F104D0
:104B900009F482CE0E942804882309F47DCE0E9465
:104BA00000007ACE10920B04EBCF89E991E090934C
:104BB0002A05809329058091BC029091BD028952FB
:104BC000954071F4E0913C05F0913D059081809114
:104BD0003E058095892380831092BD021092BC020D
:104BE00080915E0590915F05009711F00E94172C4F
:104BF00080916E0590916F05009739F0DC01ED9181
:104C0000FC910280F381E02D0995809170059091CF
:104C10007105009739F0DC01ED91FC910280F38180
:104C2000E02D099582E795E00E94210B88E795E049
:104C30000C94210BEF920F931F93CF93DF93E80116
:104C400034E047FD34E1042E000C550B57FF03C040
:104C5000519541955109E32E022F242FAE010E9458
:104C60005E26CE01DF91CF911F910F91EF900895B5
:104C7000FC0188279927E89421912032E9F3293013
:104C800010F02E30C8F32B3241F02D3239F46894F5
:104C900004C00E945626820F911D219120532A3074
:104CA000C0F31EF4909581959F4F08957AE0979FE9
:104CB000902D879F802D910D11240895A9E0B0E0DB
:104CC000E4E6F6E20C94F4296A01F22EB02E102FDD
:104CD000FBE3AF2EA01608F41BE31F5F012F27E0B4
:104CE000AE014F5F5F4F0E94BD27BC018981982FA5
:104CF0009970913009F43FC09BE2E1FC04C09E2D05
:104D00009170E0FC3AC05E2D5071E82FE87083FF8F
:104D100046C084E0911101C083E0EF2DE81B8F15A0
:104D200008F0E0E0D6018E2F20E2552351F19923BF
:104D300029F0D6019C93C60101966C0196012D5F66
:104D40003F4FE2FE24C08EE4D6018C9391E411968D
:104D50009C93119712968C93D9018E2F90E281111A
:104D60001BC0E20FF32FF11D10828EEF9FEF2996EB
:104D7000ECE00C94102A9DE2C6CF90E2C4CF2D93B4
:104D800081508111FCCFCE0ED11CE0E0D0CF8EE659
:104D9000D6018C9391E6DBCF9D938150E0CF482FD5
:104DA000447082FF3DC084E0911101C083E08F1503
:104DB00010F4EF2DE81BD6018E2F20E2552309F1C8
:104DC000992329F0D6019C93C60101966C019601A6
:104DD0002D5F3F4FE2FE1BC089E4D6018C938EE429
:104DE00011968C93119786E412968C93D9018E2F8D
:104DF00090E2882309F4B5CF9D938150FACF2D938B
:104E000081508111FCCFCE0ED11CE0E0D9CF89E6D4
:104E1000D6018C938EE611968C93119786E6E4CF9B
:104E20009B0177FF02C030E020E0A1E0B0E09111EB
:104E300002C0B0E0A0E0F9013196AE0FBF1F8B2C8D
:104E4000912CBB2009F461C05401EFEFAE1ABE0AE9
:104E5000AA0DBB1DFA161B0619F014F04F2D4A1BA4
:104E6000511188C0E3FC59C07601A42FB0E2A11112
:104E70004FC0C40ED11C992309F45BC040E0D60199
:104E80001196F60190836D01552309F448C0012F56
:104E9000060F9A81582F507184FF03C0913309F493
:104EA000015010160CF047C0093008F008E0EEE29F
:104EB000FE2E5B01A01AB10885019194819491089E
:104EC0002F3F320729F4D601FC92F60131966F018B
:104ED0006217730794F1021713077CF5DB01A21B1D
:104EE000B30BAA24A394B12CAC0EBD1EAA0DBB1DFE
:104EF00011968C9121503109D6011196281539054A
:104F0000F4F0F60180836D01DBCFB12CA12CA0CF92
:104F1000F701B1937F01A150AACF9111B0CFD60173
:104F2000942F50E302C05D9391509111FCCFC40EB9
:104F3000D11C40E0ACCF01E0BACF80E3DBCF6217F9
:104F4000730731F4963388F4953311F4552369F0DF
:104F5000F6018083FD01842F90E2811108C0A40F27
:104F6000B11D1C9290E080E002CF81E3F1CF9193DC
:104F70008150F3CF911183CF8ACF283008F027E0FA
:104F80003327DA01990F311D87FD91600096610585
:104F9000710539F432602E5F3D9330E32A95E1F7D5
:104FA00008959F3F30F080387105610509F03C5F3E
:104FB0003C5F3D93913008F08068911DDF93CF9363
:104FC0001F930F93FF92EF92192F987F9695E92FD9
:104FD00096959695E90FFF27EE53FF4F99273327B4
:104FE000EE24FF24A701E70105900894079428F414
:104FF000360FE71EF81E491F511D660F771F881FC9
:10500000991F0694A1F70590079428F4E70EF81E5F
:10501000491F561FC11D770F881F991F661F0694D1
:10502000A1F70590079428F4F80E491F561FC71FD3
:10503000D11D880F991F661F771F0694A1F7059051
:10504000079420F4490F561FC71FD81F990F661FDA
:10505000771F881F0694A9F784911095177041F067
:10506000D695C79557954795F794E7941A95C1F744
:10507000E8E6F0E068941590159135916591959169
:1050800005907FE27395E118F10A430B560BC90BAB
:10509000D009C0F7E10CF11E431F561FC91FD01DD8
:1050A0007EF4703311F48A95E6CFE894015030F025
:1050B000080F0AF40027021708F4202F2395022F67
:1050C0007A3328F079E37D932A95E9F710C07D9330
:1050D0002A9589F6069497956795379517951794AD
:1050E000E118F10A430B560BC90BD00998F0239530
:1050F0007E9173957A3308F070E37C932013B8F7B0
:105100007E9170617D9330F0839571E37D9370E3C0
:105110002A95E1F71124EF90FF900F911F91CF9105
:10512000DF91992787FD909508950E94D72808F46C
:1051300081E00895E89409C097FB3EF4909580952E
:10514000709561957F4F8F4F9F4F9923A9F0F92F4D
:1051500096E9BB279395F695879577956795B795CB
:10516000F111F8CFFAF4BB0F11F460FF1BC06F5FB1
:105170007F4F8F4F9F4F16C0882311F096E911C0C3
:10518000772321F09EE8872F762F05C0662371F0E4
:1051900096E8862F70E060E02AF09A95660F771FF8
:1051A000881FDAF7880F9695879597F90895990FD4
:1051B0000008550FAA0BE0E8FEEF16161706E807E1
:1051C000F907C0F012161306E407F50798F0621B02
:1051D000730B840B950B39F40A2661F0232B242BD7
:1051E000252B21F408950A2609F4A140A6958FEFF6
:1051F000811D811D08950E940E290C947F290E9413
:10520000712938F00E94782920F0952311F00C9430
:1052100068290C946E2911240C94B3290E949029BA
:1052200070F3959FC1F3950F50E0551F629FF001F9
:10523000729FBB27F00DB11D639FAA27F00DB11D12
:10524000AA1F649F6627B00DA11D661F829F22279B
:10525000B00DA11D621F739FB00DA11D621F839F22
:10526000A00D611D221F749F3327A00D611D231FF8
:10527000849F600D211D822F762F6A2F11249F5746
:1052800050409AF0F1F088234AF0EE0FFF1FBB1F49
:10529000661F771F881F91505040A9F79E3F510508
:1052A00080F00C9468290C94B3295F3FE4F3983E96
:1052B000D4F3869577956795B795F795E7959F5FB2
:1052C000C1F7FE2B880F911D9695879597F9089544
:1052D00097F99F6780E870E060E008959FEF80ECA9
:1052E000089500240A94161617061806090608954C
:1052F00000240A9412161306140605060895092EB2
:105300000394000C11F4882352F0BB0F40F4BF2B20
:1053100011F460FF04C06F5F7F4F8F4F9F4F089560
:1053200057FD9058440F551F59F05F3F71F0479556
:10533000880F97FB991F61F09F3F79F0879508953B
:10534000121613061406551FF2CF4695F1DF08C05A
:10535000161617061806991FF1CF86957105610577
:1053600008940895E894BB2766277727CB0197F91F
:105370000895F999FECF92BD81BDF89A992780B51D
:105380000895262FF999FECF1FBA92BD81BD20BD89
:105390000FB6F894FA9AF99A0FBE01960895052E61
:1053A00097FB1EF400940E94E62957FD07D00E9447
:1053B000252A07FC03D04EF40C94E629509540951D
:1053C000309521953F4F4F4F5F4F089590958095B1
:1053D000709561957F4F8F4F9F4F08952F923F9209
:1053E0004F925F926F927F928F929F92AF92BF92F5
:1053F000CF92DF92EF92FF920F931F93CF93DF93A1
:10540000CDB7DEB7CA1BDB0B0FB6F894DEBF0FBEFD
:10541000CDBF09942A88398848885F846E847D844A
:105420008C849B84AA84B984C884DF80EE80FD804C
:105430000C811B81AA81B981CE0FD11D0FB6F894C2
:10544000DEBF0FBECDBFED010895A1E21A2EAA1B4B
:10545000BB1BFD010DC0AA1FBB1FEE1FFF1FA21724
:10546000B307E407F50720F0A21BB30BE40BF50B21
:10547000661F771F881F991F1A9469F760957095AA
:10548000809590959B01AC01BD01CF010895A29F2D
:10549000B001B39FC001A39F700D811D1124911D08
:1054A000B29F700D811D1124911D08955058BB2786
:1054B000AA270E946E2A0C947F290E94712938F035
:1054C0000E94782920F039F49F3F19F426F40C94B7
:1054D0006E290EF4E095E7FB0C946829E92F0E94F1
:1054E000902958F3BA17620773078407950720F0CD
:1054F00079F4A6F50C94B2290EF4E0950B2EBA2F90
:10550000A02D0B01B90190010C01CA01A0011124C9
:10551000FF27591B99F0593F50F4503E68F11A1675
:10552000F040A22F232F342F4427585FF3CF469506
:1055300037952795A795F0405395C9F77EF41F1628
:10554000BA0B620B730B840BBAF09150A1F0FF0FF2
:10555000BB1F661F771F881FC2F70EC0BA0F621FDE
:10556000731F841F48F4879577956795B795F795CE
:105570009E3F08F0B0CF9395880F08F09927EE0F63
:105580009795879508950E94D72A0C947F290E94A9
:10559000782958F00E94712940F029F45F3F29F0E2
:1055A0000C94682951110C94B3290C946E290E9413
:1055B000902968F39923B1F3552391F3951B550B6B
:1055C000BB27AA2762177307840738F09F5F5F4FD6
:1055D000220F331F441FAA1FA9F335D00E2E3AF015
:1055E000E0E832D091505040E695001CCAF72BD02D
:1055F000FE2F29D0660F771F881FBB1F261737077E
:105600004807AB07B0E809F0BB0B802DBF01FF27AF
:1056100093585F4F3AF09E3F510578F00C946829FB
:105620000C94B3295F3FE4F3983ED4F386957795C5
:105630006795B795F7959F5FC9F7880F911D969568
:10564000879597F90895E1E0660F771F881FBB1FC4
:10565000621773078407BA0720F0621B730B840B71
:10566000BA0BEE1F88F7E09508950E94982988F0FC
:105670009F5798F0B92F9927B751B0F0E1F0660F16
:10568000771F881F991F1AF0BA95C9F714C0B13057
:1056900091F00E94B229B1E008950C94B229672FCD
:1056A000782F8827B85F39F0B93FCCF38695779586
:1056B0006795B395D9F73EF490958095709561956F
:1056C0007F4F8F4F9F4F08950E94D72808F48FEF88
:1056D00008950E94D728880B990B08950E94472AA5
:1056E000B7FF0895821B930B0895EE0FFF1F0590DF
:1056F000F491E02D09940F931F93CF93DF938230A1
:10570000910510F482E090E0E0918005F091810530
:1057100030E020E0B0E0A0E0309799F421153105A9
:1057200009F44AC0281B390B24303105D8F58A8189
:105730009B816115710589F1FB0193838283FE01D1
:1057400011C0408151810281138148175907E0F04F
:105750004817590799F4109761F012960C93129715
:1057600013961C933296CF01DF91CF911F910F9129
:1057700008950093800510938105F4CF211531051C
:1057800051F04217530738F0A901DB019A01BD011E
:10579000DF01F801C1CFEF01F9CF9093810580932C
:1057A0008005CDCFFE01E20FF31F8193919322502C
:1057B000310939832883D7CF20917E0530917F0529
:1057C000232B41F4209106013091070130937F058E
:1057D00020937E05209104013091050121153105AA
:1057E00041F42DB73EB74091080150910901241BA7
:1057F000350BE0917E05F0917F05E217F307A0F4E9
:105800002E1B3F0B2817390778F0AC014E5F5F4F16
:105810002417350748F04E0F5F1F50937F054093C4
:105820007E05819391939FCFF0E0E0E09CCFCF93F2
:10583000DF930097E9F0FC01329713821282A09166
:105840008005B0918105ED0130E020E01097A1F4D2
:1058500020813181820F931F20917E0530917F0539
:105860002817390709F061C0F0937F05E0937E05A2
:10587000DF91CF910895EA01CE17DF07E8F54A815D
:105880005B819E0141155105B1F7E901FB83EA8374
:1058900049915991C40FD51FEC17FD0761F4808120
:1058A00091810296840F951FE901998388838281F3
:1058B00093819B838A83F0E0E0E012968D919C9126
:1058C00013970097B9F52D913C911197CD01029650
:1058D000820F931F20917E0530917F05281739078D
:1058E00039F6309751F51092810510928005B093EA
:1058F0007F05A0937E05BCCFD383C28340815181B5
:10590000840F951FC817D90761F44E5F5F4F8881D8
:105910009981480F591F518340838A819B819383CA
:1059200082832115310509F0B0CFF0938105E09312
:1059300080059ECFFD01DC01C0CF13821282D7CF3C
:10594000B0E0A0E0E6EAFCE20C94F0298C010097BC
:1059500051F4CB010E947B2B8C01C801CDB7DEB77F
:10596000E0E10C940C2AFC01E60FF71F9C01225089
:105970003109E217F30708F49DC0D901CD91DC91FC
:105980001197C617D70798F0C530D10530F3CE016F
:1059900004978617970708F3C61BD70B2297C19366
:1059A000D1936D937C93CF010E94172CD6CF5B01CE
:1059B000AC1ABD0A4C018C0E9D1EA0918005B091C1
:1059C0008105512C412CF12CE12C109731F580915F
:1059D0007E0590917F058815990509F05CC04616F3
:1059E000570608F058C08091040190910501009776
:1059F00041F48DB79EB74091080150910901841B75
:105A0000950BE817F90708F055C0F0937F05E09370
:105A10007E05F90171836083A0CF8D919C911197D0
:105A200012966C90129713967C901397A815B9054F
:105A300059F56C0142E0C40ED11CCA14DB0420F1FC
:105A4000AC014A195B09DA011296159780F062825F
:105A5000738251834083D9016D937C93E114F104E7
:105A600071F0D7011396FC93EE93129776CF22969E
:105A70008C0F9D1FF90191838083F301EFCFF09389
:105A80008105E093800569CF4816590608F42C017A
:105A90007D01D3019ACFCB010E947B2B7C01009723
:105AA00049F0AE01B8010E945D2DC8010E94172C7B
:105AB000870153CF10E000E050CFFB01DC0102C0B2
:105AC00001900D9241505040D8F70895FB01DC0140
:105AD00001900D920020E1F70895FB01DC01415097
