:100000000C9403020C942B020C942B020C94A11E52
:100010000C94A11E0C94A11E0C942B020C942B0288
:100020000C942B020C942B020C942B020C943D1E6E
:100030000C942B020C942B020C942B020C942B028C
:100040000C949B1D0C942B020C940B1E0C94E51D20
:100050000C942B020C942B020C942B020C942B026C
:100060000C94191F0C942B0200407A10F35A00A034
:10007000724E18090010A5D4E80000E87648170071
:1000800000E40B54020000CA9A3B000000E1F505B1
:10009000000080969800000040420F000000A086FB
:1000A00001000000102700000000E803000000002D
:1000B0006400000000000A000000000001000000D1
:1000C00000002C76D888DC674F0823DFC1DFAE59EB
:1000D000E1B1B796E5E3E453C63AE651997696E87E
:1000E000E6C28426EB898C9B62ED407C6FFCEFBC02
:1000F0009C9F40F2BAA56FA5F490055A2AF75C932D
:100100006B6CF9676DC11BFCE0E40D47FEF520E662
:10011000B500D0ED902E0300943577050080841E45
:10012000080000204E0A000000C80C333333330FA0
:10013000986E12831141EF8D2114893BE65516CF3D
:10014000FEE6DB18D1844B381BF77C1D901DA4BB49
:10015000E424203284725E228100C9F124ECA1E5FE
:100160003D273E524F4B23003E524F4B230023006E
:100170003E0023003E00230024003A003E41542D5F
:10018000506F776572426F783A00230024003A007E
:100190003E41542D506F776572426F783A002300CC
:1001A0003E0023003E0023003E0023003E00436F3C
:1001B0006E666967204D6F646500456E74657220D8
:1001C000415420436F6D6D616E647300506C6561C6
:1001D000736520756E7061697220426C7565746F0D
:1001E0006F7468206669727374004E6F20426C757C
:1001F00065746F6F7468206D6F64756C6520666FD1
:10020000756E64206F722069742069732070616953
:10021000726564003E554F4B23003E554F4B230003
:100220003E414F4B23003E414F4B23003E4F4F4B2F
:1002300023003E4F4F4B23003E4F45525223003E7A
:100240004F45525223003E4F45525223003E4F45E8
:10025000525223003E4345525223003E43455252E0
:1002600023003E434F4B23003E434F4B23003E4E63
:100270004F4B23003E4E4F4B23003E4E45525223E0
:10028000003E4E4552522300230023003A003A001C
:100290003E003E003E5645525223003E56455252C5
:1002A000230023003E0023003E00230023003100F2
:1002B00031003E003E0023003E0023003E002300AC
:1002C0002400230024003A003A003A003A003A00A1
:1002D0003A003A003A00240024003E003E00230089
:1002E00023003E003E002300580058455252230090
:1002F0002300580058455252230023005800584507
:100300005252230023004C004C455252230023003C
:100310004C004C455252230023004C004C45525295
:1003200023003E534F4B23003E534F4B23003E537D
:1003300045525223003E53455252230023002300CE
:10034000240024003E003E00230023003E003E0027
:100350003E4D45525223003E4D455252230023004C
:100360003A003A003E0023003A003A003E003E4583
:1003700023003E45230023003A003A003E002300BC
:100380003A003A003E0023003E493A0023003E492D
:100390003A00454F4B2300444F4B23003E464F4B02
:1003A00023003E464F4B230000000000240027009E
:1003B0002A000000000800020100000304070000FA
:1003C00000000000000000000000230026002900BB
:1003D00000000000250028002B000404040404048D
:1003E00004040202020202020303030303030102E4
:1003F00004081020408001020408102001020408B3
:1004000010204620C02511241FBECFEFD8E0DEBF4C
:10041000CDBF11E0A0E0B1E0EAE9F0E602C005904E
:100420000D92AC3EB107D9F725E0ACEEB1E001C0CA
:100430001D92A037B207E1F712E0C2E0D2E004C09B
:100440002197FE010E94682BC130D107C9F70E9495
:100450004F210C9440300C940000FC019081909549
:1004600028E030E081E397FF03C0990F982701C08F
:10047000990F21503109B9F78181892728E030E0AF
:1004800091E387FF03C0880F892701C0880F21509F
:100490003109B9F708950895089590E0FC01EE54EC
:1004A000FC4F2491FC01E251FC4F3491FC01E652D7
:1004B000FC4FE491EE23C9F0222339F0233001F1FF
:1004C000A8F4213019F1223029F1F0E0EE0FFF1FDE
:1004D000E053FC4FA591B4918FB7F894EC91611162
:1004E00026C030953E233C938FBF08952730A9F056
:1004F0002830C9F0243049F7809180008F7D03C0F7
:10050000809180008F7780938000DFCF84B58F77D4
:1005100084BDDBCF84B58F7DFBCF8091B0008F771A
:100520008093B000D2CF8091B0008F7DF9CF3E2B69
:10053000DACFCF93DF9390E0FC01E251FC4F24919E
:1005400086529C4FFC0184918823D1F090E0880F63
:10055000991FFC01E855FC4FA591B491FC01E053B3
:10056000FC4FC591D49161110EC09FB7F8948C9146
:10057000E22FE0958E238C932881E223E8839FBFAE
:10058000DF91CF9108958FB7F894EC91E22BEC9323
:100590008FBFF6CF1F93CF93DF93182FEB0161E04E
:1005A0000E949902209739F460E0812FDF91CF916A
:1005B0001F910C944D02CF3FD10511F461E0F5CFAE
:1005C000E12FF0E0EE54FC4FE491E33031F140F4E0
:1005D000E130B1F0E230E1F0C038D1057CF7E4CF92
:1005E000E73029F1E83059F1E430B1F7809180002B
:1005F000806280938000D0938B00C0938A0004C0F7
:1006000084B5806884BDC7BDDF91CF911F910895E7
:1006100084B5806284BDC8BDF7CF809180008068BA
:1006200080938000D0938900C0938800EDCF8091A3
:10063000B00080688093B000C093B300E5CF809194
:10064000B00080628093B000C093B400DDCF8E30E4
:1006500008F08E508770806480937C0080917A00CF
:10066000806480937A0080917A0086FDFCCF80912F
:1006700078009091790008953FB7F8948091F40341
:100680009091F503A091F603B091F70326B5A89BCE
:1006900005C02F3F19F00196A11DB11D3FBFBA2F14
:1006A000A92F982F8827BC01CD01620F711D811DD4
:1006B000911D42E0660F771F881F991F4A95D1F759
:1006C00008958F929F92AF92BF92CF92DF92EF9256
:1006D000FF924B015C010E943C036B017C010E9474
:1006E0003C036C197D098E099F09683E73408105A2
:1006F0009105A8F321E0821A9108A108B10888EEBB
:10070000C80E83E0D81EE11CF11C81149104A104E1
:10071000B10429F7FF90EF90DF90CF90BF90AF909A
:100720009F908F900895DC01ED91FC910190F081F4
:10073000E02D0994EF92FF920F931F93CF93DF93D5
:100740008C017B01D0E0C0E0F701EC0FFD1F64914C
:10075000662361F0D801ED91FC910190F081E02DCC
:10076000C8010995892B11F02196EECFCE01DF91BA
:10077000CF911F910F91FF90EF900895AF92BF928C
:10078000CF92DF92EF92FF920F931F93CF93DF935D
:100790006C017B018B01040F151FEB015E01AE188C
:1007A000BF08C017D10759F06991D601ED91FC91AE
:1007B0000190F081E02DC6010995892B79F7C501DB
:1007C000DF91CF911F910F91FF90EF90DF90CF902D
:1007D000BF90AF900895FC01538D448D252F30E0DC
:1007E000842F90E0821B930B541710F0CF9608953E
:1007F00001970895FC01918D828D981761F0A28D6B
:10080000AE0FBF2FB11D5D968C91928D9F5F9F7330
:10081000928F90E008958FEF9FEF0895FC01918DE6
:10082000828D981731F0828DE80FF11D858D90E053
:1008300008958FEF9FEF0895FC01918D228D892FF0
:1008400090E0805C9F4F821B91098F7399270895D8
:100850008EE694E00E941C0421E0892B09F420E03C
:10086000822F089580E090E0892B29F00E942804CF
:1008700081110C9400000895FC01A48DA80FB92FDC
:10088000B11DA35ABF4F2C91848D90E001968F73B8
:100890009927848FA689B7892C93A089B1898C91D7
:1008A000837080648C93938D848D981306C0028826
:1008B000F389E02D80818F7D80830895EF92FF92F0
:1008C0000F931F93CF93DF93EC0181E0888F9B8D73
:1008D0008C8D98131AC0E889F989808185FF15C02D
:1008E0009FB7F894EE89FF896083E889F989808150
:1008F0008370806480839FBF81E090E0DF91CF911F
:100900001F910F91FF90EF900895F62E0B8D10E040
:100910000F5F1F4F0F731127E02E8C8D8E110CC0AF
:100920000FB607FCFACFE889F989808185FFF5CFFA
:10093000CE010E943C04F1CFEB8DEC0FFD2FF11D99
:10094000E35AFF4FF0829FB7F8940B8FEA89FB8937
:1009500080818062CFCFCF93DF93EC01888D882395
:10096000B9F0AA89BB89E889F9898C9185FD03C012
:10097000808186FD0DC00FB607FCF7CF8C9185FFF7
:10098000F2CF808185FFEDCFCE010E943C04E9CFFC
:10099000DF91CF9108952091C6023091C7022817A8
:1009A000390771F49091C4028091C502981741F003
:1009B000E091C402F0E0E15AFD4F808190E008959B
:1009C0008FEF9FEF08950895EF92FF920F931F937B
:1009D000CF93DF93DC015C96ED90FC905D97E11482
:1009E000F10479F481E090E013969C938E93129732
:1009F00090E080E0DF91CF911F910F91FF90EF90F9
:100A000008955196ED91FC91529750968C91509784
:100A1000982F90950FB75E962C915E97122F1270BB
:100A200021FD6095F8942081112319F1282B208352
:100A3000E7012197F1F728E0462F50E0308160FF71
:100A40001AC0382B3083E7012197F1F7BA01759569
:100A50006795215089F7112381F080818923808354
:100A60000FBF5C968D919C910197F1F781E090E02A
:100A7000C1CF2923DCCF3923E5CF9081892BEFCF5C
:100A80002091C6023091C7022817390761F480917E
:100A9000C5022091C40290E0805C9F4F821B9109A7
:100AA0008F739927089590E080E008952091C60201
:100AB0003091C70228173907B9F49091C402809188
:100AC000C502981789F0E091C402F0E0E15AFD4FA9
:100AD00080812091C40230E02F5F3F4F2F73332776
:100AE0002093C40290E008958FEF9FEF089508953A
:100AF000089520913C02260F3327331F2132310500
:100B0000ECF420914404FC0190E080E0243069F092
:100B100082E00895A0913C022191AC01445E5D4FBA
:100B2000A40FB52FB11D2C930196861798F38091D1
:100B30003C02680F60933C0280E0089581E00895D4
:100B40001092440481E08093430410921E0461E0FB
:100B500082E10E944D0261E083E10E944D02E9EBD7
:100B6000F0E080818E7F808380818D7F808388E428
:100B70008093B80085E48093BC000895CF93DF9301
:100B800091E090931B028823B9F0C091B800D091F6
:100B9000BA008091BC008A7B8093BC0060E082E157
:100BA0000E944D0260E083E10E944D020E94A00578
:100BB000D093BA00C093B800DF91CF9108958F927F
:100BC0009F92AF92BF92CF92DF92EF92FF920F93DC
:100BD0001F93CF93DF93D0916D04D13208F0D7C02B
:100BE000182FC0916C040E943C036B017C01809122
:100BF000440481116BC082E0809344041093430449
:100C00008FEF8093420410924104D0934004ACE4EF
:100C1000B4E0E0E2F4E080E0D81391C010921F0449
:100C200080911F04CC0FC82BC0931F0480911E0419
:100C3000813009F088C010921E040E943C036B01B1
:100C40007C0180911F048093BB00809146049091A9
:100C50004704A0914804B0914904892B8A2B8B2B1F
:100C6000A1F00E943C03009146041091470420919A
:100C70004804309149046C197D098E099F090617B3
:100C800017072807390708F442C08091BC0083FD8C
:100C9000D8CF85EC8093BC000E943C036B017C01A3
:100CA00080914404823009F450C0809142048F3F07
:100CB00009F46FC080914204803209F46CC08091C5
:100CC0004204803309F469C084E026C08091460460
:100CD00090914704A0914804B0914904892B8A2B34
:100CE0008B2B09F484CF0E943C03809046049090A3
:100CF0004704A0904804B09049046C197D098E09FE
:100D00009F0986169706A806B90608F070CF80914D
:100D100045040E94BE0585E010924B0410926D04BC
:100D200010924A04DF91CF911F910F91FF90EF90A5
:100D3000DF90CF90BF90AF909F908F9008959D913E
:100D400091938F5F69CF85EEA5CF809146049091F6
:100D50004704A0914804B0914904892B8A2B8B2B1E
:100D600009F49ECF0E943C03009146041091470471
:100D700020914804309149046C197D098E099F091E
:100D8000061717072807390708F08ACFC0CF81E078
:100D9000C3CF80E0C1CF82E0BFCF83E0BDCFCF9390
:100DA000DF93EC011092FD031092FC0310924B04B0
:100DB00010926D040E94A0058BE492E09093FB03D7
:100DC0008093FA038CE492E09093F9038093F80304
:100DD00081E08B83988180934A0490936C040E94F5
:100DE000DF0591E0811190E0892FDF91CF91089587
:100DF000E091FD038091FC03E81730F4F0E0E2504D
:100E0000FC4F808190E008958FEF9FEF08959091BF
:100E1000FD038091FC032FEF3FEF981748F4E92F73
:100E2000F0E0E250FC4F208130E09F5F9093FD03A3
:100E3000C90108958091FC039091FD03891B990BD2
:100E40000895CF92DF92EF92FF920F931F93CF936B
:100E5000DF937C01CB018A0120914A04222389F08F
:100E6000EB016B01C40ED51ECC15DD0569F069914F
:100E7000D701ED91FC910190F081E02DC70109951A
:100E8000F3CF642F0E947905C801DF91CF911F91A4
:100E90000F91FF90EF90DF90CF900895CF93DF9365
:100EA0001F92CDB7DEB7698320914A042223F9F05F
:100EB00020916D04203258F021E030E0FC013383B2
:100EC000228390E080E00F90DF91CF910895809190
:100ED0004B04E82FF0E0E45BFB4F998190838F5F38
:100EE00080934B0480936D0481E090E0ECCF61E04F
:100EF000CE0101960E947905F7CF90E080E0089539
:100F000020ED37E0DC010E94612B2EE031E040E073
:100F100050E00E94C229DA01C9018C509E4FAF4FA8
:100F2000BF4F0895CF93DF93EC0161E083E00E940F
:100F30004D02C230D10538F0CC0FDD1FCC0FDD1FC4
:100F400025972197F1F760E083E0DF91CF910C9432
:100F50004D022F923F924F925F926F927F928F92AB
:100F60009F92AF92BF92CF92DF92EF92FF920F9338
:100F70001F93CF93DF935C011B016A01F12CE12CDD
:100F8000D50114968D919C9186010E191F09801729
:100F9000910708F48C01F501D0810E943C032B01DC
:100FA0003C0180914404811172C0C02F013208F0CD
:100FB000C0E2F1E0F093440421E0C601801B910BF4
:100FC000E816F90608F420E0209343048FEF80939D
:100FD0004204109241048C0F80934004A1E0A0933E
:100FE0001F0480911F04DD0FD82BD0931F04809124
:100FF0001E04813009F090C010921E040E943C0330
:101000002B013C0180911F048093BB00809146041A
:1010100090914704A0914804B0914904892B8A2BF0
:101020008B2BA1F00E943C03209146043091470491
:10103000409148045091490464197509860997093B
:10104000261737074807590708F442C08091BC00AB
:1010500083FDD8CFB5ECB093BC000E943C032B01BC
:101060003C0180914404813009F45AC080914104CC
:101070008C1710F4C0914104A0E2B4E0EEEFF3E06D
:1010800080E08C1751F19D9191938F5FFACF809101
:10109000460490914704A0914804B0914904892BDB
:1010A0008A2B8B2B09F47DCF0E943C0320914604B0
:1010B00030914704409148045091490464197509DE
:1010C00086099709261737074807590708F069CF97
:1010D000809145040E94BE05C0E01092FD03C093BC
:1010E000FC03C017110609F057C041018E0C9F1C6C
:1010F000E401CE01881999098017910798F5D50167
:1011000011968D919C91DC01ED91FC910284F38507
:10111000E02D09958993EDCFE5EEE093BC009DCFDE
:101120008091460490914704A0914804B0914904ED
:10113000892B8A2B8B2B09F494CF0E943C0320919E
:101140004604309147044091480450914904641981
:10115000750986099709261737074807590708F0C0
:1011600080CFB6CFE00EF11EEC14FD0408F408CFDA
:1011700081E0DF91CF911F910F91FF90EF90DF9071
:10118000CF90BF90AF909F908F907F906F905F9027
:101190004F903F902F90089580E0EBCF0F931F93D7
:1011A000CF93DF9300D000D000D0CDB7DEB764E19D
:1011B00070E080E090E00E94610346E050E0BE01F4
:1011C0006F5F7F4F80915205909153050E94A90750
:1011D000182F882309F452C00B81CE0101960E947A
:1011E0002D02081357C00E81CE0104960E942D02D5
:1011F000081350C029813A81322723273227A7E1DB
:10120000B1E10E943A2A2EE09595879577956795EA
:101210002A95D1F764597141810991090E948F285B
:1012200020E030E048EC52E40E94B62A60934C057E
:1012300070934D0580934E0590934F052C813D8111
:10124000322723273227A1E7B2E00E943A2A3CE066
:1012500096958795779567953A95D1F70E948D2851
:1012600020E030E048EC52E40E94B62A6093480542
:101270007093490580934A0590934B05812F2696DC
:101280000FB6F894DEBF0FBECDBFDF91CF911F9197
:101290000F91089510E0F2CFCF93DF931F92CDB757
:1012A000DEB741E050E0BE016F5F7F4FFC018485F7
:1012B00095850E94A907882329F089810F90DF91E5
:1012C000CF9108958FEFFACFCF93DF93DC0114967F
:1012D0002D913C912417350710F490E01EC0EA01CF
:1012E000FC0181819281208131E030934A04209376
:1012F0006C0410924B0410926D04DC01ED91FC9192
:101300000280F381E02D0995C817D90731F781E0F4
:101310000E94DF0591E08111E0CF892FDF91CF910D
:101320000895CF93DF9300D0CDB7DEB799838A833A
:1013300042E050E0BE016F5F7F4F80915205909177
:1013400053050E9464090F900F90DF91CF9108958B
:1013500080E094E20E949109811105C060E070E094
:1013600080EC9FE708950E94CE088823B9F360912E
:101370004C0570914D0580914E0590914F05089553
:1013800080E094E20E949109811105C060E070E064
:1013900080EC9FE708950E94CE088823B9F36091FE
:1013A00048057091490580914A0590914B05089533
:1013B0004F925F926F927F92AF92BF92CF92DF92E5
:1013C000EF92FF920F931F93CF93DF93CDB7DEB7CA
:1013D00029970FB6F894DEBF0FBECDBF8C017B01FD
:1013E0006A018FB7F8944090F0035090F103609039
:1013F000F2037090F3038FBF80910A0190910B016B
:10140000A0910C018F839887A98743E050E0BE012B
:10141000695F7F4FD8011C968D919C910E94640951
:10142000811117C0B12C8B2D29960FB6F894DEBF11
:101430000FBECDBFDF91CF911F910F91FF90EF9025
:10144000DF90CF90BF90AF907F906F905F904F9064
:101450000895C8010E944C0987FF07C06AE070E048
:1014600080E090E00E946103F4CF46E050E0BE01CE
:101470006F5F7F4FF801848595850E94A907B82E7C
:10148000882381F26A817B81762767277627CB01C3
:10149000B0E0A0E09C01AD0184E0220F331F441FA7
:1014A000551F8A95D1F7AC808A2D90E064E0959520
:1014B00087956A95E1F7092E000CAA0BBB0BBC01BE
:1014C000CD01622B732B842B952B0E948D2820E05D
:1014D00030E048EC52E40E94EE2820E030E040E8A2
:1014E00055E30E94EE28D80114966D937D938D9359
:1014F0009C9317976A2D6F7070E090E080E0982FB2
:10150000872F762F66272D81622B982F872F762F96
:1015100066272E81622B0E948D2820E030E048E46F
:1015200053E40E94EE2820E030E040E855E30E94BA
:10153000EE2820E030E048E452E40E94492AF80115
:101540006083718382839383C114D10481F1F60196
:10155000349680E2DF011D928A95E9F784E290E0FB
:10156000A0E0B0E0F60180839183A283B383D80129
:101570001A968D919C91B0E0A0E084839583A68318
:10158000B7838DE090E0A0E0B0E080879187A287EC
:10159000B387408A518A628A738AF8018081918177
:1015A000A281B381F601848B958BA68BB78BE11456
:1015B000F10409F438CFF701349680E2DF011D927F
:1015C0008A95E9F784E290E0A0E0B0E0F70180833B
:1015D0009183A283B383D80118968D919C91B0E03A
:1015E000A0E084839583A683B7838DE090E0A0E09C
:1015F000B0E080879187A287B387408A518A628A48
:10160000738AF80184819581A681B781F701848B63
:10161000958BA68BB78B07CFAB0170E060E0FC0128
:10162000848195810E94D80981E0089550E040E0CE
:10163000FC01848195810E94D80981E00895FC0114
:1016400080819181009711F00C940A2C08950C94DC
:101650000A2C0C940A2C0F931F93CF93DF93EC0169
:1016600088819981009759F02A813B812617370795
:1016700030F081E0DF91CF911F910F9108958B01A0
:101680006F5F7F4F0E94932C009759F09983888356
:101690001B830A832C813D81232B59F7FC01108287
:1016A000E8CF80E0E7CFFB0101900020E9F7319718
:1016B000AF01461B570BDC01ED91FC910280F381D9
:1016C000E02D0994CF93DF93BC018EE694E00E9455
:1016D0009A03EC016EE971E08EE694E00E94530BF0
:1016E0008C0F9D1FDF91CF9108958F929F92AF92A3
:1016F000BF92EF92FF920F931F93CF93DF93CDB7DB
:10170000DEB7A1970FB6F894DEBF0FBECDBF7C0148
:10171000FA01CB0119A2223008F42AE08E010F5DF4
:101720001F4F822E912CB12CA12CBF01A501940139
:101730000E94182AF901CA016A300CF5605DD801CF
:101740006E938D01232B242B252B79F790E080E0DD
:10175000109721F0BD01C7010E94530BA1960FB64F
:10176000F894DEBF0FBECDBFDF91CF911F910F91D7
:10177000FF90EF90BF90AF909F908F900895695C1D
:10178000DECFCF92DF92EF92FF920F931F93CF9312
:10179000DF936B01770FEE08FF08F7FE1BC0EC012B
:1017A0006DE20E9493038C0144275527BA014C191E
:1017B0005D096E097F092AE0CE010E94750B800F3A
:1017C000911FDF91CF911F910F91FF90EF90DF90CC
:1017D000CF9008952AE0B701A601DF91CF911F9124
:1017E0000F91FF90EF90DF90CF900C94750B8F923C
:1017F0009F92AF92BF92CF92DF92EF92FF920F93A0
:101800001F93CF93DF93EC016A017B01AB0196013B
:10181000CB01B6010E945C2B61EA71E0811126C008
:1018200046015701E894B7F82FEF3FEF4FE75FE726
:10183000C501B4010E945C2B81110CC02FEF3FEF5A
:101840004FE75FE7C501B4010E94882865EA71E0AF
:10185000181664F02FEF3FEF4FE75FE4C701B601C2
:101860000E94572B18168CF469EA71E0CE01DF91C3
:10187000CF911F910F91FF90EF90DF90CF90BF908D
:10188000AF909F908F900C94530B2FEF3FEF4FE74B
:101890005FECC701B6010E94882887FDE5CF20E0F4
:1018A00030E0A901C701B6010E94882810E000E0DD
:1018B00087FF09C06DE2CE010E9493038C01F7FA05
:1018C000F094F7F8F0942AE037ED43EA5BE3C701C0
:1018D000B6010E944A2A6B017C010E94282B4B0111
:1018E0005C010E948D289B01AC01C701B6010E94DA
:1018F000492A6B017C012AE0B501A401CE010E94B6
:10190000750B080F191F6EE2CE010E949303080F9A
:10191000191F20E030E040E251E4C701B6010E9407
:10192000EE284B015C010E94282B6B01F12CE12C6D
:101930002AE0B701A601CE010E94750B080F191FFE
:10194000C701B6010E948D289B01AC01C501B401FD
:101950000E94492A20E030E040E251E40E94EE2853
:101960000E94282BAB0170E060E02AE0CE010E94CB
:10197000750B800F911FDF91CF911F910F91FF90F9
:10198000EF90DF90CF90BF90AF909F908F90089591
:101990000C94530BEF92FF920F931F93CF93DF930F
:1019A000EC017B01198218821B821A821D821C8223
:1019B000FB0101900020E9F731978F01061B170BFF
:1019C000B8010E942B0B28813981811113C0211588
:1019D000310519F0C9010E940A2C198218821D8252
:1019E0001C821B821A82DF91CF911F910F91FF9071
:1019F000EF9008951D830C83B701C901DF91CF914A
:101A00001F910F91FF90EF900C94592D0F931F93FE
:101A1000CF93DF938C01EB0188E2FB0111928A9551
:101A2000E9F74BE050E06DEA71E0CE010E94602DD5
:101A30001B8681E090E0A0E0B0E08C879D87AE87B8
:101A4000BF87F80182819381092E000CAA0BBB0B82
:101A5000888B998BAA8BBB8B8DE090E0A0E0B0E0E7
:101A60008C8B9D8BAE8BBF8B1CA21DA21EA21FA2B6
:101A700080E090E0A0E2B2EC8C8F9D8FAE8FBF8FA4
:101A800080E090E0AAEAB2E4888F998FAA8FBB8F9A
:101A90008AE999E9A9E9BEE388A399A3AAA3BBA30C
:101AA000DF91CF911F910F9108950F931F93CF93C3
:101AB000DF938C01EB0188E2FB0111928A95E9F733
:101AC0004BE050E065EB71E0CE010E94602D1B867B
:101AD00081E090E0A0E0B0E08C879D87AE87BF8773
:101AE000F80182819381092E000CAA0BBB0B888B15
:101AF000998BAA8BBB8B8CE090E0A0E0B0E08C8B44
:101B00009D8BAE8BBF8B1CA21DA21EA21FA21C8E82
:101B10001D8E1E8E1F8E80E090E0A8ECB2E4888FB0
:101B2000998FAA8FBB8F80E090E0A0E0B0E488A3FB
:101B300099A3AAA3BBA3DF91CF911F910F91089501
:101B4000EF92FF920F931F93CF93DF93CDB7DEB742
:101B50002C970FB6F894DEBF0FBECDBF2EE1269FA7
:101B60007001279FF00C112430E020E0F901EE0D08
:101B7000FF1DE55EFC4F15822F5F3F4F2B30310577
:101B8000A9F7FC010481158101151105C1F4198221
:101B90004BE050E0BE016F5F7F4FC701805E9C4FFE
:101BA0000E94602D2C960FB6F894DEBF0FBECDBFFD
:101BB000DF91CF911F910F91FF90EF9008950B301F
:101BC000110510F00BE010E0FC0160817181A801AB
:101BD000CE0101960E94602DE1E0F0E0EC0FFD1FC8
:101BE000E00FF11F1082D4CF85ED8093BC0080916F
:101BF000460490914704A0914804B0914904079687
:101C0000A11DB11D23E0B695A795979587952A95B7
:101C1000D1F72091BC0024FD03C010924404089524
:101C200040914604509147046091480470914904E2
:101C3000452B462B472B69F30097A105B10541F0D1
:101C40002AE22A95F1F700C00197A109B109E1CF75
:101C5000809145040C94BE050C94B429CF93DF9376
:101C6000EC018130910531F58091000190910101E5
:101C70000197E9F1D0930101C0930001C091D40212
:101C80008091D3029C2F0E9480070E9492076C2FA4
:101C90008CEE93E00E942C0E6091D3028CEE93E0C8
:101CA0000E942C0E68EE73E080E090E0DF91CF910F
:101CB0000C946103892BD9F480910001909101016A
:101CC000892BA9F01092010110920001C09103012B
:101CD000809102019C2F0E9480070E9492076C2F26
:101CE0008CEE93E00E942C0E60910201D7CFD0932E
:101CF0000101C09300016D2F8CEE93E00E942C0E29
:101D00006C2FCCCF8F929F92AF92BF92CF92DF92E7
:101D1000EF92FF920F931F93CF93DF938C017B0180
:101D20006A014C01B12CA12CE80109900020E9F7CF
:101D30002197C01BD10BAC16BD0660F4F401619174
:101D40004F01C7018A0D9B1D0E942C0EFFEFAF1A99
:101D5000BF0AEACFF80101900020E9F73197E01BB4
:101D6000F10BC6018E1B9F0BC817D90740F460E02A
:101D7000C7018C0F9D1F0E942C0E2196EBCFDF9187
:101D8000CF911F910F91FF90EF90DF90CF90BF9078
:101D9000AF909F908F900895CF93DF93D0E0C0E0F5
:101DA00060E0CE010E942C0E2196C13082E0D8075F
:101DB000B9F760E088EE93E00E942C0E60E089EEB7
:101DC00093E00E942C0E61E08AEE93E00E942C0EBC
:101DD0006EE08BEE93E00E942C0E60E08CEE93E0C0
:101DE0000E942C0E60E08DEE93E00E942C0E60E0CD
:101DF0008FEF93E00E942C0E8091EE03882341F038
:101E000062E671E08BE095E0DF91CF910C949A034C
:101E100068E671E08EE694E0F7CF1F93CF93DF93EF
:101E2000EC01162F0E94AC29181739F0612FCE0152
:101E3000DF91CF911F910C94B429DF91CF911F9125
:101E40000895DF92EF92FF920F931F93CF93DF934A
:101E5000D82ECAE5D1E085EDE82E82E0F82E0BE120
:101E600013E08881229670E060E00E94CA0260E080
:101E7000F701828193810E940D0F60E0F701848158
:101E800095810E940D0FF801148E138E128EFAE0C8
:101E9000EF0EF11C025E1F4F81E0C436D80709F730
:101EA000DD20B1F08091EE03882369F06CE973E0E6
:101EB0008BE095E0DF91CF911F910F91FF90EF9014
:101EC000DF900C949A0362EA73E08EE694E0F2CF1E
:101ED000DF91CF911F910F91FF90EF90DF900895C8
:101EE0000C94AC29CF92DF92EF92FF920F931F9345
:101EF000CF93DF9300D0CDB7DEB78C016B0160EAE2
:101F000071E00E94CA0CC6010E94700F882309F17B
:101F100089831A82F801E480F580FFEFEF1AFF0A47
:101F2000B701C8010E942B0B882379F0F8012081AA
:101F3000318184819581BE016F5F7F4F820F931F36
:101F40000E94592DF801F582E482FFEFCF1ADF0AD3
:101F5000DACFC8010F900F90DF91CF911F910F91B1
:101F6000FF90EF90DF90CF9008952F923F924F9285
:101F70005F926F927F928F929F92AF92BF92CF9219
:101F8000DF92EF92FF920F931F93CF93DF9300D0D6
:101F900000D0CDB7DEB78C018EE1809FF001819F2C
:101FA000F00D1124E55EFC4F858D882369F0C80192
:101FB000880F991F9B838A83FC01E75DFE4F808118
:101FC00091818531910549F501E112E022E044E07B
:101FD00060E070E0CB010E940D2607E012E022E0F5
:101FE00044E060E070E0CB010E940D260F900F905E
:101FF0000F900F90DF91CF911F910F91FF90EF9075
:10200000DF90CF90BF90AF909F908F907F906F9018
:102010005F904F903F902F900895EA81FB81E55E9D
:10202000FE4F60810E944D0284E10E942703BC01A3
:10203000990F880B990B0E948F2820E731E640EA20
:102040005BE30E94EE2820E030E54CE556E40E9478
:10205000EE2820E030EE42E955E40E94B62A6B01FA
:102060007C0185E10E942703BC01990F880B990B25
:102070000E948F2820E731E640EA5BE30E94EE28C9
:1020800028E539E340E250E40E94492A2CE437E392
:1020900049E85DE30E94B62A4B015C0120E030E094
:1020A000A9010E94882887FF03C0812C912C54012C
:1020B0002AE939E949E95EE3C501B4010E944A2AE7
:1020C0004B015C018EE1809FF001819FF00D112496
:1020D000E55EFC4F848102E310E0803509F05FC0CB
:1020E000412C512C612C712CEA81FB81E35FFE4F66
:1020F000F081F98389810E942703BC01990F880B25
:10210000990B0E948F281B018C839A839201A30153
:102110000E94572B18161CF421016C807A8061E014
:1021200070E080E090E00E9461030150110911F716
:102130002AE038E240EA5BE3B201C3010E94EE28E4
:1021400020E030E54AEA55E40E94EE2820E030EC39
:102150004CE854E40E94B62A2B013C0120E030E018
:10216000A9010E94882887FF03C0412C512C32010D
:102170000DEF11E022E044E0C501B4010E940D26FC
:1021800001E112E022E044E0C701B6010E940D2601
:1021900007E012E022E044E0C301B20125CF412C68
:1021A000512C32018A819B81835F9E4FFC01F0811B
:1021B000F98389810E942703BC01990F880B990B31
:1021C0000E948F289B01AC01C301B2010E944A2AE0
:1021D0002B013C0161E070E080E090E00E9461032F
:1021E0000150110931F720E030E048E452E4C30126
:1021F000B2010E94B62A2AE038E240EA5BE39ECFB1
:102200000F931F93CF93DF93CDB7DEB76E970FB6C3
:10221000F894DEBF0FBECDBF27E032E03F932F938F
:1022200021E132E03F932F932EE1289FF001299F77
:10223000F00D1124E55EFC4F848D8F93838D8F9379
:10224000828D1F928F938DEB91E09F938F938E01E0
:102250000F5F1F4F1F930F930E949F2D0FB6F8948F
:10226000DEBF0FBECDBF8091EE03B801882379F0A9
:102270008BE095E00E94C80C6E960FB6F894DEBF16
:102280000FBECDBFDF91CF911F910F9108958EE6C4
:1022900094E0F0CFCF92DF92EF92FF920F931F93D3
:1022A000CF93DF93CDB7DEB78A01CDB6DEB64F5FF1
:1022B0005F4FEDB7FEB7E41BF50B0FB6F894FEBF0A
:1022C0000FBEEDBF4DB75EB74F5F5F4F7A01680F2E
:1022D000791FA901C7010E94602DF701E00FF11FCE
:1022E0001082C7010E942B260FB6F894DEBE0FBEE7
:1022F000CDBEDF91CF911F910F91FF90EF90DF90B6
:10230000CF9008958F929F92AF92BF92CF92DF921B
:10231000EF92FF920F931F93CF93DF93CDB7DEB76A
:102320004B01ADB6BEB6FC010481158198012F5F4B
:102330003F4F4DB75EB7421B530B0FB6F8945EBFCD
:102340000FBE4DBFEDB7FEB731967F01232B21F0B5
:1023500001151105D9F410828EE1889D6001899DD7
:10236000D00C11244AE050E0B701C601855D9C4FB6
:102370000E94602D0A301105A0F4F601E00FF11F54
:10238000E55EFC4F108A0F5F1F4FF4CFFC016081A8
:102390007181A801C7010E94602DF701E00FF11FB4
:1023A000DACF0FB6F894BEBE0FBEADBEDF91CF91AF
:1023B0001F910F91FF90EF90DF90CF90BF90AF9063
:1023C0009F908F9008957F928F929F92AF92BF922D
:1023D000CF92DF92EF92FF920F931F93CF93DF93F1
:1023E000CDB7DEB7C854D1090FB6F894DEBF0FBE23
:1023F000CDBF8332F9F08E33C9F08D3011F00C94DB
:10240000851DC85BDF4F0FB6F894DEBF0FBECDBF92
:10241000DF91CF911F910F91FF90EF90DF90CF90C0
:10242000BF90AF909F908F907F9008951092FC0185
:102430001092FB01EEEEF1E0A091FB01B091FC01E6
:10244000A251BE4F1C928091EE01813539F40E9459
:10245000CC0E1092FC011092FB01D3CF843509F011
:10246000ACC18091C8029091C9022091CA02222376
:1024700009F419C1029769F78090CF029090D002B9
:10248000A090D102B090D202C090CB02D090CC02EA
:10249000E090CD02F090CE020E94A8096093CF0296
:1024A0007093D0028093D1029093D2020E94C0090F
:1024B0006093CB027093CC028093CD029093CE02B6
:1024C00005E010E06091CF027091D0028091D102BE
:1024D0009091D2029B01AC010E945C2B81110EC035
:1024E0006091CB027091CC028091CD029091CE028E
:1024F0009B01AC010E945C2B8823B9F00E94A809C3
:102500006093CF027093D0028093D1029093D20255
:102510000E94C0096093CB027093CC028093CD02DD
:102520009093CE020150110969F66091CF0270912B
:10253000D0028091D1029091D2029B01AC010E9405
:102540005C2B81110EC06091CB027091CC02809106
:10255000CD029091CE029B01AC010E945C2B88239E
:1025600081F08092CF029092D002A092D102B092DC
:10257000D202C092CB02D092CC02E092CD02F09275
:10258000CE022091CB023091CC024091CD025091ED
:10259000CE0260E070E088EC92E40E94492A20E0DC
:1025A00030E040EA50E40E94B62A9B01AC01609101
:1025B000CF027091D0028091D1029091D2020E94FC
:1025C000492A6B017C018091EE038823B9F164E80C
:1025D00073E08BE095E00E949A034091CF02509106
:1025E000D0026091D1027091D2028BE095E00E94FE
:1025F000F70B62E873E08BE095E00E949A0340914C
:10260000CB025091CC026091CD027091CE028BE052
:1026100095E00E94F70B60E873E08BE095E00E9484
:102620009A03B701A6018BE095E00E94F70B6EE7D5
:1026300073E08BE095E00E949A030BCF6CE773E0A8
:102640008EE694E00E949A034091CF025091D0020E
:102650006091D1027091D2028EE694E00E94F70B55
:102660006AE773E08EE694E00E949A034091CB0201
:102670005091CC026091CD027091CE028EE694E032
:102680000E94F70B68E773E08EE694E00E949A03DD
:10269000B701A6018EE694E00E94F70B66E773E0AF
:1026A0008EE694E0C8CF019709F07EC0AE014F5F7F
:1026B0005F4FBE016B5D7F4F8AE295E00E94D809B3
:1026C00029AD3AAD4BAD5CAD60E070E088EC92E4D2
:1026D0000E94492A20E030E040EA50E40E94B62AF5
:1026E0009B01AC016D897E898F89988D0E94492A52
:1026F0006B017C018091EE03882359F16CE673E055
:102700008BE095E00E949A034D895E896F89788DF0
:102710008BE095E00E94F70B6AE673E08BE095E0B2
:102720000E949A0349AD5AAD6BAD7CAD8BE095E04C
:102730000E94F70B68E673E08BE095E00E949A0335
:10274000B701A6018BE095E00E94F70B66E673E007
:1027500070CF64E673E08EE694E00E949A034D89A0
:102760005E896F89788D8EE694E00E94F70B62E6B1
:1027700073E08EE694E00E949A0349AD5AAD6BADCA
:102780007CAD8EE694E00E94F70B60E673E08EE687
:1027900094E00E949A03B701A6018EE694E00E949D
:1027A000F70B6EE573E07CCF8091EE0362E773E098
:1027B00081113FCF6EE673E073CF8D3409F0C7C04F
:1027C00001900020E9F7EF5EF140329708F45DC018
:1027D00022E030E041E050E061E070E08EEE91E018
:1027E0000E944A11FC01ED5AFE4F2081213449F428
:1027F0008091EE0367E573E081111BCF60E573E024
:102800004FCF0E94B50F8E010F5F1F4F84E1F8017B
:1028100011928A95E9F78091EE03882351F16EE4D5
:1028200073E08BE095E00E949A0387E092E09F932B
:102830008F9381E192E09F938F9383EC91E09F933C
:102840008F931F9284E18F931F930F930E946F2D9C
:102850000FB6F894DEBF0FBECDBF8091EE03B80176
:10286000882361F08BE095E00E94C80C6AE473E075
:10287000E0CE6CE473E08EE694E0D5CF8EE694E093
:102880000E94C80C68E473E00BCF8091EE038823AC
:1028900009F44FC066E473E08BE095E00E949A0370
:1028A00010E000E064E1762ECE0101967C0177E035
:1028B000C72E72E0D72EE1E1AE2EE2E0BE2EF3ECA1
:1028C0008F2EF1E09F2EC8010E94B50FF701272D32
:1028D00011922A95E9F7DF92CF92BF92AF929F9221
:1028E0008F921F927F92FF92EF920E946F2D0FB6F0
:1028F000F894DEBF0FBECDBF8091EE03B7018823F1
:10290000E9F08BE095E00E94C80C62E473E08BE094
:1029100095E00E949A030F5F1F4F0530110599F64D
:102920008091EE036EE373E0811183CE6CE373E07C
:10293000B7CE64E473E08EE694E0B0CF8EE694E028
:102940000E94C80C60E473E08EE694E0E2CF833529
:1029500009F0B7C022E030E041E050E061E070E013
:102960008EEE91E00E944A116C0123E030E043E0DA
:1029700050E062E070E08EEE91E00E944A117C012E
:102980008EE18C9D80018D9D100D1124055E1C4FE4
:10299000F8018481803579F5FFEFEF16F10411F02D
:1029A00008F053C0F601EE0FFF1FE65AFE4FB701C5
:1029B00080810E94CA022AE02C9DC0012D9D900DAD
:1029C00011249C012B523D4F69016E2DF901848128
:1029D00095810E940D0F6E2DF601828193810E94D8
:1029E0000D0FF801F48EE38E81E0EF2809F480E00A
:1029F000F801828F2AC0823509F05AC0E114F1042F
:102A000069F5F601EE0FFF1FE65AFE4F70E060E039
:102A100080810E94CA022AE02C9DC0012D9D900D4C
:102A200011249C012B523D4F790160E0F901828114
:102A300093810E940D0F60E0F701848195810E94CF
:102A40000D0FF801148E138E128E8091EE0368E242
:102A500073E08111EECD62E273E022CE1E141F04FA
:102A6000A4F7F601EE0FFF1FE65AFE4F6FEF70E07E
:102A700080810E94CA022AE02C9DC0012D9D900DEC
:102A800011249C012B523D4F79016FEFF901828196
:102A900093810E940D0F6FEFF701848195810E9451
:102AA0000D0F8FEF90E0F801948F838F81E0A1CF1D
:102AB0008091EE0365E373E08111BBCD6EE273E0BC
:102AC000EFCD843439F481E090E00E942E0E67E966
:102AD00073E0E6CD853439F490E080E00E942E0E5C
:102AE00062E973E0DDCD8C3409F0EDC00190002087
:102AF000E9F7EF5EF140329708F4ABCC22E030E02A
:102B000041E050E061E070E08EEE91E00E944A11F9
:102B10008C0123E030E043E050E062E070E090E0C0
:102B200080E00E944A118F3F910551F048F082E009
:102B300090E090930101809300016CE173E0B0CDCF
:102B400001151105B1F59093D4028093D3020E9430
:102B500080070E94920760E088EE93E00E942C0EAE
:102B60006091D30289EE93E00E942C0E6091D40212
:102B70008CEE93E00E942C0E6091D3028CEE93E0D9
:102B80000E942C0E82E090E090930101809300015E
:102B90006AE173E08EE694E00E949A036091D302AA
:102BA0007091D4028EE694E00E94C10B68E173E05C
:102BB00077CD0130110509F042C08091D302909188
:102BC000D402059662E173E08F3F910511F008F0A1
:102BD00067CD9093D4028093D3020E9480070E9415
:102BE000920760E088EE93E00E942C0E6091D30281
:102BF00089EE93E00E942C0E6091D4028CEE93E05B
:102C00000E942C0E6091D3028CEE93E00E942C0E59
:102C100082E090E0909301018093000160E173E015
:102C20008EE694E00E949A036091D3027091D402E0
:102C30008EE694E00E94C10B6EE073E031CD02306D
:102C4000110509F006CC8091D3029091D40205972A
:102C500068E073E08F3F910511F008F021CD90936B
:102C6000D4028093D3020E9480070E94920760E002
:102C700088EE93E00E942C0E6091D30289EE93E0DF
:102C80000E942C0E6091D4028CEE93E00E942C0ED8
:102C90006091D3028CEE93E00E942C0E1093010100
:102CA0000093000166E073E08EE694E00E949A03D0
:102CB0006091D3027091D4028EE694E00E94C10B21
:102CC00064E073E0EDCC883509F0F3C0019000209A
:102CD000E9F7EF5EF140329708F4BBCB22E030E039
:102CE00041E050E061E070E08EEE91E00E944A1118
:102CF0007C0123E030E043E050E062E070E090E0EF
:102D000080E00E944A118F3F910551F048F082E027
:102D100090E090930101809300016EEF72E0C0CCCF
:102D2000E114F104B1F590930301809302010E9434
:102D300080070E94920760E08AEE93E00E942C0ECA
:102D4000609102018BEE93E00E942C0E60910301D2
:102D50008CEE93E00E942C0E609102018CEE93E0C9
:102D60000E942C0E82E090E090930101809300017C
:102D70006CEF72E08EE694E00E949A03609102018B
:102D8000709103018EE694E00E94C10B6AEF72E03D
:102D900087CCF1E0EF16F10409F044C00091020184
:102DA000109103010B5F1F4F64EF72E0093121E0C6
:102DB000120708F075CC1093030100930201C801BB
:102DC0000E9480070E949207612F8AEE93E00E9482
:102DD0002C0E609102018BEE93E00E942C0E60910C
:102DE00003018CEE93E00E942C0E609102018CEEA8
:102DF00093E00E942C0E82E090E09093010180937A
:102E0000000162EF72E08EE694E00E949A03609106
:102E10000201709103018EE694E00E94C10B60EF05
:102E200072E03ECC32E0E316F10409F012CB0091DF
:102E3000020110910301055011096AEE72E0093197
:102E400081E0180708F02CCC1093030100930201D5
:102E5000C8010E9480070E949207612F8AEE93E0CA
:102E60000E942C0E609102018BEE93E00E942C0ECA
:102E7000609103018CEE93E00E942C0E60910201A0
:102E80008CEE93E00E942C0EF0920101E092000182
:102E900068EE72E08EE694E00E949A03609102016F
:102EA000709103018EE694E00E94C10B66EE72E021
:102EB000F7CB803509F007C201900020E9F7EF5EFB
:102EC000F140329740F122E030E041E050E061E033
:102ED00070E08EEE91E00E944A118C010E94B50FC5
:102EE0008091EE03882391F064EE72E08BE095E030
:102EF0000E949A03C8010E9400118091EE0360EEC7
:102F000072E0811196CB6EED72E0CACB62EE72E098
:102F10008EE694E0EDCF8091EE03882309F42EC174
:102F20006CED72E08BE095E00E949A0310E000E007
:102F3000C8010E94B50FC8010E9400118091EE03E4
:102F4000882309F420C168ED72E08BE095E00E94CF
:102F50009A030F5F1F4F0730110551F78091C80288
:102F60009091C902892B09F4F5C08091CA02882387
:102F700009F432C18090CF029090D002A090D1028B
:102F8000B090D202C090CB02D090CC02E090CD02A3
:102F9000F090CE020E94A8096093CF027093D002F5
:102FA0008093D1029093D2020E94C0096093CB0219
:102FB0007093CC028093CD029093CE0205E010E096
:102FC0006091CF027091D0028091D1029091D20293
:102FD0009B01AC010E945C2B81110EC06091CB0261
:102FE0007091CC028091CD029091CE029B01AC01F8
:102FF0000E945C2B8823B9F00E94A8096093CF023D
:103000007093D0028093D1029093D2020E94C009A3
:103010006093CB027093CC028093CD029093CE024A
:103020000150110969F66091CF027091D002809130
:10303000D1029091D2029B01AC010E945C2B8111C4
:103040000EC06091CB027091CC028091CD02909124
:10305000CE029B01AC010E945C2B882381F0809200
:10306000CF029092D002A092D102B092D202C0922E
:10307000CB02D092CC02E092CD02F092CE02C09070
:10308000CF02D090D002E090D102F090D2022091F5
:10309000CB023091CC024091CD025091CE0260E043
:1030A00070E088EC92E40E94492A20E030E040EA97
:1030B00050E40E94B62A9B01AC01C701B6010E94F0
:1030C000492A4B015C018091EE03B701A6018823D8
:1030D00009F45EC08BE095E00E94F70B64ED72E0AE
:1030E0008BE095E00E949A034091CB025091CC0274
:1030F0006091CD027091CE028BE095E00E94F70BBB
:1031000062ED72E08BE095E00E949A03B501A401A4
:103110008BE095E00E94F70B8091ED018F30A8F0D5
:103120008091EC0191E089278093EC01882309F4D8
:1031300050C08DE690E30E94910961E070E080E06C
:1031400090E00E9461031092ED018091ED018F5F8C
:103150008093ED018091EE03882309F4A5C064EC0F
:1031600072E08BE095E00E949A036DEF71E08BE0D6
:1031700095E00E94C80C62EC72E05BCA6AED72E0F6
:103180008EE694E0D1CE66ED72E08EE694E0DFCE7E
:103190008EE694E00E94F70B60ED72E08EE694E01C
:1031A0000E949A034091CB025091CC026091CD02D3
:1031B0007091CE028EE694E00E94F70B6EEC72E006
:1031C0008EE694E00E949A03B501A4018EE694E095
:1031D000A1CF86E690E3AFCFAE014F5F5F4FBE0158
:1031E0006B5D7F4F8AE295E00E94D809CD88DE882A
:1031F000EF88F88C29AD3AAD4BAD5CAD60E070E086
:1032000088EC92E40E94492A20E030E040EA50E451
:103210000E94B62A9B01AC01C701B6010E94492A4F
:103220004B015C018091EE03B701A6018823F9F000
:103230008BE095E00E94F70B6CEC72E08BE095E080
:103240000E949A0349AD5AAD6BAD7CAD8BE095E021
:103250000E94F70B6AEC72E08BE095E00E949A0303
:10326000B501A4018BE095E00E94F70B73CF8EE6C9
:1032700094E00E94F70B68EC72E08EE694E00E9406
:103280009A0349AD5AAD6BAD7CAD8EE694E00E94D9
:10329000F70B66EC72E08EE694E00E949A03B501AB
:1032A000A4018EE694E0E0CF60EC72E08EE694E05C
:1032B0000E949A036DEF71E08EE694E00E94C80CC4
:1032C0006EEB72E0EDC9823409F095C08EEE91E0AC
:1032D000FC0101900020E9F7CF018F5E9140109131
:1032E000EE030297D8F122E030E041E050E061E0E7
:1032F00070E08EEE91E00E944A117C011123B9F03A
:103300006CEB72E08BE095E00E949A038EE18E9D5B
:10331000F0018F9DF00D1124E55EFC4F628D70E091
:103320008BE095E00E94C10B6AEB72E082C968EB0A
:1033300072E08EE694E00E949A038EE18E9DF00189
:103340008F9DF00D1124E55EFC4F628D70E08EE6DE
:1033500094E00E94C10B66EB72E0A2C964EB72E0DC
:103360008BE095E0111104C062EB72E08EE694E010
:103370000E949A030BE113E021EBE22E23E0F22EF0
:10338000F801628D70E08091EE03882389F18BE073
:1033900095E00E94C10B025E1F4FE016F10681F717
:1033A0008091EE0381111AC06EEA72E08EE694E01D
:1033B0000E949A038091EE03811115C06EEA72E0BB
:1033C0008EE694E00E949A038091EE036AEA72E02E
:1033D000882309F465C96CEA72E02BC960EB72E0DE
:1033E0008BE095E0E5CF60EB72E08BE095E0EACF13
:1033F0008EE694E0CECF863509F097C08EEE91E050
:10340000FC0101900020E9F7CF018F5E91401091FF
:10341000EE03029708F44FC022E030E041E050E0B4
:1034200061E070E08EEE91E00E944A117C018EE135
:103430008E9DF0018F9DF00D1124E55EFC4F84817F
:10344000803511F0863581F51123B9F068EA72E014
:103450008BE095E00E949A038EE18E9DF0018F9D96
:10346000F00D1124E55EFC4F638D748D8BE095E0CB
:103470000E94C10B66EA72E0DCC864EA72E08EE684
:1034800094E00E949A038EE18E9DF0018F9DF00DD5
:103490001124E55EFC4F638D748D8EE694E00E94EE
:1034A000C10B62EA72E0FCC86BE972E01111C1C89D
:1034B00064E972E0F5C862E972E08BE095E0111111
:1034C00004C060E972E08EE694E00E949A030BE18A
:1034D00013E0F8018481803581F4638D748D8091CF
:1034E000EE038823C9F08BE095E00E94C10B6EE8E3
:1034F00072E08BE095E00E949A03025E1F4FF3E0BA
:10350000013B1F0731F78091EE036AE872E08111F9
:1035100090C868E872E0C4C88EE694E00E94C10BCF
:103520006CE872E08EE694E0E6CF8E3409F05CC081
:1035300022E030E041E050E061E070E08EEE91E0AA
:103540000E944A118C010897BCF5FE0131968EE16C
:10355000809F6001819FD00C112490E080E07F016A
:10356000DC01AC0DBD1DA55EBC4F15961C921192E1
:1035700001968B309105A1F74BE050E060EF71E0D0
:10358000C7010E94602D4CE050E060EF71E0C60181
:10359000805E9C4F0E94602D8AE0809FF001819F99
:1035A000F00D1124EB52FD4F668177814CE050E025
:1035B000C7010E94820E0AC08091EE03882379F031
:1035C00061E872E08BE095E00E949A038091EE033F
:1035D00064E772E081112DC86EE672E061C86AE7A7
:1035E00072E08EE694E0F0CF833409F048C022E028
:1035F00030E041E050E061E070E08EEE91E00E944A
:103600004A118C0108974CF08091EE036BE572E053
:1036100081110FC864E572E043C84DE050E060EFEF
:1036200071E0CE0101960E94602D1E862EE1209F42
:10363000C001219F900D11244AE050E0BE016F5F50
:103640007F4F855D9C4F0E94602D8AE0809FF00136
:10365000819FF00D1124EB52FD4F608571854DE087
:1036600050E0CE0101960E94820E8091EE0368E642
:1036700072E081110C94191362E672E011C88F3464
:1036800009F056C022E030E041E050E061E070E037
:103690008EEE91E00E944A11883091056CF42EE183
:1036A000289FF001299FF00D1124E55EFC4F238136
:1036B000203569F0263559F08091EE036DE472E013
:1036C00081110C94191366E472E00C94501360910C
:1036D000F001262F2D7F203559F08091EE036FE306
:1036E00072E081110C94191368E372E00C9450138A
:1036F0002EE1289FF001299FF00D1124E55EFC4F7B
:1037000064832AE0289FF001299FF00D1124EB52D9
:10371000FD4F808191810E940D0F8091EE0362E345
:1037200072E081110C9419136CE272E00C94501346
:103730008134D9F50AE511E085EDC82E82E0D82E56
:103740009BE1E92E93E0F92EBB24B394F80180812C
:103750000E5F1F4F6FEF70E00E94CA026FEFF6011D
:10376000828193810E940D0F6FEFF6018481958114
:103770000E940D0F8FEF90E0F701948F838FB28E30
:10378000FAE0CF0ED11C2EE1E20EF11C31E004363E
:103790001307E1F68091EE0360E272E081110C9470
:1037A000191366E272E00C945013863429F481E018
:1037B0000E94210F0C942912823529F4F0E0E0E0F8
:1037C00009950C942912853559F48091EE0364E132
:1037D00072E081110C9419136AE172E00C94501399
:1037E000893509F05CC069EC71E08BE095E00E94DE
:1037F000530B68EE73E080E090E00E9461038BE081
:1038000095E00E944005892B09F43FC08BE095E0CC
:103810000E9456058F349105C1F58EEA91E00E9411
:10382000620B8BE095E00E944005892B59F08BE0FC
:1038300095E00E94560561E070E080E090E00E9413
:103840006103EFCF8AEB91E00E94620B8BE095E081
:103850000E944005892B49F08BE095E00E945605B7
:10386000682F8EE694E00E945E048EE694E00E944B
:103870001C04892B59F38EE694E00E94FA03682F0A
:103880008BE095E00E94E404E1CF8AEE91E00E9493
:10389000620B8CEC91E00E94620B0C94291287342D
:1038A000A1F522E030E041E050E061E070E08EEE12
:1038B00091E00E944A112EE1289F8001299F100D5E
:1038C0001124005E1C4F8091EE03882379F06CEA8E
:1038D00071E08BE095E00E949A03B8018BE095E0DF
:1038E0000E94C80C6AEA71E00C94191368EA71E04E
:1038F0008EE694E00E949A03B8018EE694E00E945E
:10390000C80C66EA71E00C9450138834A1F522E0EB
:1039100030E041E050E061E070E08EEE91E00E9426
:103920004A112EE1289F8001299F100D1124055D69
:103930001C4F8091EE03882379F064EA71E08BE0FC
:1039400095E00E949A03B8018BE095E00E94C80CB4
:1039500062EA71E00C94191360EA71E08EE694E07B
:103960000E949A03B8018EE694E00E94C80C6EE9AA
:1039700071E00C9450138B3409F065C08E010F5F19
:103980001F4F88E0F80111928A95E9F7EBE1F3E027
:10399000D8018DEE93E024812D937E968E179F079C
:1039A000D1F78091EE03882339F160E971E08BE073
:1039B00095E00E949A0366E675E08BE095E00E9430
:1039C00038206EE871E08BE095E00E949A0360E693
:1039D00075E08BE095E00E9438206CE871E08BE0A8
:1039E00095E00E949A03B8018BE095E00E94C80C14
:1039F0006AE871E00C9419136CE771E08EE694E0CC
:103A00000E949A0366E675E08EE694E00E943820F4
:103A10006AE771E08EE694E00E949A0360E675E042
:103A20008EE694E00E94382068E771E08EE694E02C
:103A30000E949A03B8018EE694E00E94C80C66E7E3
:103A400071E00C9450138A34A1F58E010F5F1F4F63
:103A500087E0F80111928A95E9F7EBE1F3E0D801EC
:103A600083818D937E9623E0ED3EF207C9F7809126
:103A7000EE03882379F064E771E08BE095E00E9423
:103A80009A03B8018BE095E00E94C80C62E771E0F0
:103A90000C94191360E771E08EE694E00E949A039B
:103AA000B8018EE694E00E94C80C6EE671E00C94BA
:103AB0005013893411F00C9429128091EE0388235D
:103AC00091F06EE873E08BE095E00E949A036091BC
:103AD000C8027091C9028BE095E00E94C10B6CE8AE
:103AE00073E00C94191368E873E08EE694E00E948A
:103AF0009A036091C8027091C9028EE694E00E9418
:103B0000C10B66E873E00C9450132091FB013091D7
:103B1000FC012C30310510F00C940112A9014F5F0B
:103B20005F4F5093FC014093FB0122513E4FF9013E
:103B300080830C9401121F920F920FB60F921124E2
:103B40002F933F938F939F93AF93BF938091F003F5
:103B50009091F103A091F203B091F3033091EF0340
:103B600023E0230F2D3758F50196A11DB11D209399
:103B7000EF038093F0039093F103A093F203B093CB
:103B8000F3038091F4039091F503A091F603B091B3
:103B9000F7030196A11DB11D8093F4039093F503E3
:103BA000A093F603B093F703BF91AF919F918F91CC
:103BB0003F912F910F900FBE0F901F90189526E800
:103BC000230F0296A11DB11DD2CF1F920F920FB6E7
:103BD0000F9211242F933F934F935F936F937F9393
:103BE0008F939F93AF93BF93EF93FF938EE694E0F1
:103BF0000E943C04FF91EF91BF91AF919F918F91F3
:103C00007F916F915F914F913F912F910F900FBED8
:103C10000F901F9018951F920F920FB60F921124BC
:103C20002F938F939F93EF93FF93E0917E04F091F6
:103C30007F048081E0918404F091850482FD1BC0A3
:103C40009081809187048F5F8F7320918804821701
:103C500041F0E0918704F0E0E259FB4F958F8093AB
:103C60008704FF91EF919F918F912F910F900FBE3D
:103C70000F901F9018958081F4CF1F920F920FB66E
:103C80000F9211242F933F938F939F93EF93FF9362
:103C90008091C30287FF1FC010928500109284009C
:103CA0008091C3028F5F8093C3028091C30287FF1C
:103CB00004C08091C3028C30ACF08091840090915C
:103CC0008500049680349C4990F180918400909105
:103CD000850004962EC08091C30287FFE1CF8091BA
:103CE000C302DECF2091840030918500E091C302B1
:103CF0008E2FEE0F990BFC01EE0FFF1FE80FF91F3F
:103D0000E156FD4F81819281820F931F909389002C
:103D1000809388008091C302FF91EF919F918F91D2
:103D20003F912F910F900FBE0F901F90189580E438
:103D30009CE990938900809388008FEF8093C30261
:103D4000EBCF1F920F920FB60F9211242F933F9338
:103D50004F935F936F937F938F939F93AF93BF9393
:103D6000EF93FF93E091C602F091C702309749F0BC
:103D7000A685B7858585968D91FF14C09C91892372
:103D8000A1F4FF91EF91BF91AF919F918F917F919E
:103D90006F915F914F913F912F910F900FBE0F90B8
:103DA0001F9018959C91892361F7A389B4899C91F0
:103DB0008589809589238C93868997890197F1F766
:103DC000608D718DA685B785558538E020E0CB01E3
:103DD0000197F1F7822F90E095958795282F4C91C8
:103DE000452309F02068315091F7868D81FD20959B
:103DF0008091C50290E001968F7399273091C4029B
:103E0000381799F0A091C502B0E0A15ABD4F2C938C
:103E10008093C502828D938D0197F1F7A389B489B0
:103E20008C919589892B8C93ACCF868D8160868F00
:103E3000F1CF1F920F920FB60F9211242F933F9341
:103E40004F935F936F937F938F939F93AF93BF93A2
:103E5000EF93FF938091B900887F803609F44AC0C0
:103E6000F0F5883209F4A7C018F5803109F49BC039
:103E7000B8F4882309F4F9C0883009F494C0FF919C
:103E8000EF91BF91AF919F918F917F916F915F91D2
:103E90004F913F912F910F900FBE0F901F9018954B
:103EA000883109F488C0803251F78093420414C0ED
:103EB000803409F49DC040F48033B9F38833F9F6B7
:103EC0008093420485ECB0C0803509F485C0883504
:103ED00009F496C0883499F60E94F40DD0CF883941
:103EE00009F48CC038F5883729F050F4883611F081
:103EF000803729F683E08093440410925E0257C015
:103F0000883809F47BC0803919F0803809F0B7CFC0
:103F100080915E02803208F071C0E0915E0281E023
:103F20008E0F80935E028091BB00F0E0E25CFD4F5B
:103F300080833DC0803B39F0E0F4803A09F479C0D9
:103F4000883A09F09CCF84E08093440410923D02AB
:103F500010923C02E091FA03F091FB0309958091E5
:103F60003C0281110FC081E080933C0210921C0240
:103F700009C0803C09F4A6CF883C09F4A3CF883B54
:103F800009F07DCFE0913D0281E08E0F80933D02EC
:103F9000F0E0E45EFD4F80818093BB0090913D0294
:103FA00080913C0229C080911F048093BB0085EC66
:103FB0008093BC0064CF9091410480914004981795
:103FC00058F5E091410481E08E0F80934104F0E0C8
:103FD000E05EFB4F8081E9CFE091410481E08E0FEC
:103FE000809341048091BB00F0E0E05EFB4F808352
:103FF00090914104809140049817C8F285E8D8CF89
:10400000E091410481E08E0F809341048091BB00D8
:10401000F0E0E05EFB4F80838091430481115CCF30
:1040200081E080931E0484EA8093BC0010924404D3
:1040300026CF85EC8093BC001092440480915E02F0
:10404000803230F4E0915E02F0E0E25CFD4F1082DD
:1040500060915E0270E0E091F803F091F9038EE365
:1040600092E0099510925E020ACF1092420434CF7A
:10407000DB0114964D915C9115976D917C91DC015B
:10408000ED91FC910280F381E02D0994CF92DF92B3
:10409000EF92FF92109271041092700498EEC92E64
:1040A00093E0D92EE12CF12CC0927204D0927304CB
:1040B000E0927404F09275048CE691E090936F04A2
:1040C00080936E0485EC90E090937B0480937A0457
:1040D00084EC90E090937D0480937C0480EC90E0ED
:1040E00090937F0480937E0481EC90E09093810410
:1040F0008093800482EC90E0909383048093820408
:1041000086EC90E090938504809384041092870459
:10411000109288041092890410928A0410923F052C
:1041200010923E05C0924005D0924105E0924205B2
:10413000F09243058EE791E090933D0580933C0516
:104140006CEC71E086E695E00E94CA0C66ED71E0C9
:1041500080E695E00E94CA0C6CED71E08AE595E07E
:104160000E94CA0C60EA71E084E595E00E94CA0CE6
:1041700010925305109252058CE395E090935105EF
:104180008093500580E090E0A0ECBFE78093480565
:1041900090934905A0934A05B0934B0580934C0535
:1041A00090934D05A0934E05B0934F05109237059F
:1041B00010923605109239051092380510923B0581
:1041C00010923A0510920E0510920D05C0920F053F
:1041D000D0921005E0921105F092120580E991E06D
:1041E00090930C0580930B051092220510922105E7
:1041F0001092240510922305109226051092250591
:104200001092280510922705609129056E7F6D7F19
:10421000609329056695617081E0682782E00E94BD
:104220004D0261E082E00E949902E0EFF3E0E49148
:10423000E0931B05ECEDF3E0E491F0E0EE0FFF1FDF
:10424000E053FC4F8591949190931D0580931C053C
:1042500060E083E00E9499028091290581FD04C0FD
:1042600061E083E00E944D0283E080931705E1EF57
:10427000F3E0E491E0931805EDEDF3E0E491F0E074
:10428000EE0FFF1FEA53FC4F8591949190931A050E
:1042900080931905FF90EF90DF90CF900895CF9312
:1042A000DF93CDB7DEB72C970FB6F894DEBF0FBE05
:1042B000CDBF789484B5826084BD84B5816084BDAF
:1042C00085B5826085BD85B5816085BD80916E00B4
:1042D000816080936E0010928100809181008260E5
:1042E0008093810080918100816080938100809122
:1042F00080008160809380008091B1008460809311
:10430000B1008091B00081608093B00080917A000C
:10431000846080937A0080917A00826080937A0032
:1043200080917A00816080937A0080917A00806821
:1043300080937A001092C100E0917E04F0917F0496
:1043400082E08083E0917A04F0917B041082E09116
:104350007C04F0917D048FEC808310928604E091C0
:104360008204F091830486E08083E0918004F091E0
:104370008104808180618083E0918004F0918104D8
:10438000808188608083E0918004F0918104808145
:1043900080688083E0918004F091810480818F7D2A
:1043A0008083109226051092250510922405109204
:1043B000230510922205109221058DE991E090933A
:1043C00028058093270590911705963108F047C07E
:1043D0002DEB30E030932205209321052BE931E0CD
:1043E00030932405209323052CE231E030932605F9
:1043F000209325052091680084E0983048F031E052
:104400009E3008F430E081E001C0880F3A95EAF769
:10441000822B809368002DE630E0983050F02BE638
:1044200030E09E3030F02CE630E0963110F030E095
:1044300020E030931F0520931E05292F30E098308F
:1044400008F026C281E001C0880F9A95EAF78093B0
:10445000200580912705909128050197F1F780911B
:10446000250590912605892B49F1E091C602F0912E
:10447000C70225E0EB30F20709F1309739F0A38944
:10448000B4899C918589809589238C938091290595
:104490008E7F809329051092C5021092C4028BE092
:1044A00095E09093C7028093C602E0911E05F091BB
:1044B0001F05808190912005892B80835AE5A52EC8
:1044C00051E0B52E64E6E62E61E0F62E8501D801B6
:1044D0008C910E5F1F4F70E060E00E94CA02E016F0
:1044E000F106A9F78FEF93E00E94700F883581F0F5
:1044F000482F50E070E060E02AE08EE694E00E94F1
:10450000750B0E94CC0E68E58FEF93E00E942C0E95
:1045100045EDC42E42E0D42EF60190E080E0918378
:1045200080839C012F5F3F4F338322832E5F3F4F59
:10453000358324832D5F3F4F37832683255F3F4F8D
:10454000318720874C963A96843C910541F78091BB
:10455000520590915305009711F00E940A2C86E0B5
:1045600090E00E946E2B209150053091510544E45B
:10457000FC01408332832183138220E230E03583C3
:10458000248390935305809352050E94CF0688237D
:1045900009F4B2C182EA90E30E9491096AE070E0F6
:1045A00080E090E00E9461038DE293EF0E94910908
:1045B00043E050E0BE016F5F7F4F809152059091C4
:1045C00053050E94A90789819A81019609F494C133
:1045D0000E94A8096093CF027093D0028093D10209
:1045E0009093D2020E94C0096093CB027093CC02D8
:1045F0008093CD029093CE0205E010E06091CF024F
:104600007091D0028091D1029091D2029B01AC01B5
:104610000E945C2B811149C16091CB027091CC0248
:104620008091CD029091CE029B01AC010E945C2B47
:10463000811145C16091CF027091D0028091D10269
:104640009091D2029B01AC010E945C2B811154C15C
:104650006091CB027091CC028091CD029091CE02FC
:104660009B01AC010E945C2B811146C181E08093CB
:10467000CA0282E090E09093C9028093C802EBE105
:10468000F3E082EDDF011D928A95E9F78F0193E552
:10469000692E91E0792EF12CE12C22E5522E30E5A5
:1046A000332E44244394F501819191915F01D80107
:1046B0008D939C938E30910508F4D4C10E97089782
:1046C00008F0D2C181E4F8018283D6018D919C91DA
:1046D0000E94700FF30191913F01882309F4C6C134
:1046E000D80114968C93F8018481863509F0CFC1E6
:1046F0005482F8019383D60112968D919C910E9469
:10470000700FF8019481913409F0C6C1428ED60130
:1047100014968D919C910E94700F90E0F801948FF7
:10472000838FD60116968D909C90B401CE01019690
:104730000E94720F8D819E81892B09F4B3C1E9819A
:10474000FA818081882309F4ADC1B401CE010796B6
:104750000E94720F8B859C8522242394892B39F02B
:10476000EF81F8852224239480818111212CCE01B0
:1047700007960E941F0BCE0101960E941F0B22205C
:1047800009F493C168EE71E0CE0101960E94CA0C53
:10479000B701CE0101960E94A00DCE0101960E94A4
:1047A0001F0BF60180849184B401CE0101960E9412
:1047B000720F8D819E81892B09F47DC1E981FA8177
:1047C0008081882309F477C1B401CE0107960E9445
:1047D000720F8B859C8522242394892B39F0EF81DD
:1047E000F8852224239480818111212CCE01079603
:1047F0000E941F0BCE0101960E941F0B222009F47C
:104800005DC168EE71E0CE0101960E94CA0CB7014D
:10481000CE0101960E948211CE0101960E941F0BCB
:10482000D80114968C91813481F0F50132979080F3
:1048300061E0892D0E949902F801638D748D892DA4
:104840000E94CA02D8015D964C92BFEFEB1AFB0A98
:10485000025E1F4FEAE0CE0ED11CF7E0EF16F10426
:1048600009F021CF80E0E82E80E0F82E11E08EE6FE
:1048700094E00E941C04181619060CF025C1109231
:10488000EE038EE694E00E94FA030E94E311EFCF5C
:104890009E3040F42850310981E001C0880F2A95EC
:1048A000EAF7D5CD2E503109F7CF0E94A8096093C1
:1048B000CF027093D0028093D1029093D202609184
:1048C000CB027091CC028091CD029091CE029B01DF
:1048D000AC010E945C2B882351F00E94C0096093B8
:1048E000CB027093CC028093CD029093CE02015004
:1048F000110909F083CE9ECE64E170E080E090E083
:104900000E9461038091360590913705009711F060
:104910000E940A2C86E090E00E946E2B28E3DC01C6
:104920002C932CE335E012963C932E93119713961B
:104930001C92139720E230E015963C932E93149727
:1049400090933705809336050E94CF06882309F49B
:1049500096CE8AEB898341E050E0BE016F5F7F4FC6
:1049600080913605909137050E946409882309F4E7
:1049700086CE64E170E080E090E00E9461038AE20C
:1049800095E00E944C0987FF05C06AE070E080E076
:1049900090E0F3CF81EE898388E08A831B8243E035
:1049A00050E0BE016F5F7F4F8091360590913705D3
:1049B0000E9464098AE295E00E944C0987FF07C0C3
:1049C0006AE070E080E090E00E946103F3CF8AE249
:1049D00095E00E944C0983FF52CE80913A05909158
:1049E0003B05009739F0DC01ED91FC910280F381E9
:1049F000E02D09958091380590913905009739F09F
:104A0000DC01ED91FC910280F381E02D099586E0B7
:104A100090E00E946E2BFC0189E491E091838083F9
:104A200080E290E1938382830AE215E01583048398
:104A3000F0933B05E0933A0586E090E00E946E2BF0
:104A4000FC018BE391E09183808381E290E1938389
:104A5000828315830483F0933905E093380581E060
:104A600090E009CE84E42FCE8EE42DCE963519F455
:104A7000F801548238CE963421F4D80114963C9231
:104A800032CE9035A9F3D80114969C932CCE86345F
:104A900009F02FCE34822DCE882311F0428E37CEEE
:104AA000128E35CE2224239466CEB401CE01019617
:104AB0000E94720F6DCE222423949CCEB401CE01AD
:104AC00001960E94720FA3CE8BE095E00E944005F4
:104AD000181619064CF41093EE038BE095E00E9433
:104AE00056050E94E311F0CF84E10E942703BC0128
:104AF000990F880B990B0E948F2820E731E640EA36
:104B00005BE30E94EE2820E030E54CE556E40E948D
:104B1000EE2820E030EE42E955E40E94B62A4B012F
:104B20005C0123E333E34BE651E40E94572B181654
:104B300054F02DEC3CEC4CE151E4C501B4010E9471
:104B4000882887FF1AC08091ED03811104C010935B
:104B5000ED030E94210F62E370E080E090E00E948C
:104B60006103E114F10409F482CE0E942804882331
:104B700009F47DCE0E9400007ACE1092ED03EBCFB7
:104B800080E991E090930C0580930B058091C6021B
:104B90009091C7028B50954071F4E0911E05F09101
:104BA0001F05908180912005809589238083109234
:104BB000C7021092C602809138059091390500977E
:104BC00039F0DC01ED91FC910280F381E02D099533
:104BD00080913A0590913B05009739F0DC01ED9109
:104BE000FC910280F381E02D09958091520590910E
:104BF0005305009711F00E940A2C84E595E00E946D
:104C00001F0B8AE595E00E941F0B80E695E00E944D
:104C10001F0B86E695E00C941F0BEF920F931F93EA
:104C2000CF93DF93E80134E047FD34E1042E000C1C
:104C3000550B57FF03C0519541955109E32E022FA3
:104C4000242FAE010E945126CE01DF91CF911F91FA
:104C50000F91EF900895FC0188279927E8942191FE
:104C60002032E9F3293010F02E30C8F32B3241F016
:104C70002D3239F4689404C00E944926820F911D98
:104C8000219120532A30C0F31EF4909581959F4FB7
:104C900008957AE0979F902D879F802D910D112484
:104CA0000895A9E0B0E0E7E5F6E20C94E7296A018F
:104CB000F22EB02E102FFBE3AF2EA01608F41BE34C
:104CC0001F5F012F27E0AE014F5F5F4F0E94B027AB
:104CD000BC018981982F9970913009F43FC09BE203
:104CE000E1FC04C09E2D9170E0FC3AC05E2D507135
:104CF000E82FE87083FF46C084E0911101C083E093
:104D0000EF2DE81B8F1508F0E0E0D6018E2F20E292
:104D1000552351F1992329F0D6019C93C6010196A0
:104D20006C0196012D5F3F4FE2FE24C08EE4D60158
:104D30008C9391E411969C93119712968C93D901C0
:104D40008E2F90E281111BC0E20FF32FF11D108214
:104D50008EEF9FEF2996ECE00C94032A9DE2C6CFDC
:104D600090E2C4CF2D9381508111FCCFCE0ED11C87
:104D7000E0E0D0CF8EE6D6018C9391E6DBCF9D9319
:104D80008150E0CF482F447082FF3DC084E09111F4
:104D900001C083E08F1510F4EF2DE81BD6018E2F94
:104DA00020E2552309F1992329F0D6019C93C601ED
:104DB00001966C0196012D5F3F4FE2FE1BC089E416
:104DC000D6018C938EE411968C93119786E41296FB
:104DD0008C93D9018E2F90E2882309F4B5CF9D934F
:104DE0008150FACF2D9381508111FCCFCE0ED11C72
:104DF000E0E0D9CF89E6D6018C938EE611968C93AC
:104E0000119786E6E4CF9B0177FF02C030E020E0F7
:104E1000A1E0B0E0911102C0B0E0A0E0F90131964C
:104E2000AE0FBF1F8B2C912CBB2009F461C0540125
:104E3000EFEFAE1ABE0AAA0DBB1DFA161B0619F03B
:104E400014F04F2D4A1B511188C0E3FC59C0760164
:104E5000A42FB0E2A1114FC0C40ED11C992309F4B4
:104E60005BC040E0D6011196F60190836D01552399
:104E700009F448C0012F060F9A81582F507184FF02
:104E800003C0913309F4015010160CF047C00930EB
:104E900008F008E0EEE2FE2E5B01A01AB1088501E1
:104EA0009194819491082F3F320729F4D601FC9206
:104EB000F60131966F016217730794F10217130719
:104EC0007CF5DB01A21BB30BAA24A394B12CAC0E7E
:104ED000BD1EAA0DBB1D11968C9121503109D60122
:104EE000119628153905F4F0F60180836D01DBCFAA
:104EF000B12CA12CA0CFF701B1937F01A150AACF73
:104F00009111B0CFD601942F50E302C05D93915020
:104F10009111FCCFC40ED11C40E0ACCF01E0BACF60
:104F200080E3DBCF6217730731F4963388F495334F
:104F300011F4552369F0F6018083FD01842F90E27E
:104F4000811108C0A40FB11D1C9290E080E002CF37
:104F500081E3F1CF91938150F3CF911183CF8ACF29
:104F6000283008F027E03327DA01990F311D87FD3B
:104F7000916000966105710539F432602E5F3D93B2
:104F800030E32A95E1F708959F3F30F080387105AE
:104F9000610509F03C5F3C5F3D93913008F080680B
:104FA000911DDF93CF931F930F93FF92EF92192FD1
:104FB000987F9695E92F96959695E90FFF27EE53E2
:104FC000FF4F99273327EE24FF24A701E70105901F
:104FD0000894079428F4360FE71EF81E491F511D48
:104FE000660F771F881F991F0694A1F705900794F5
:104FF00028F4E70EF81E491F561FC11D770F881FA2
:10500000991F661F0694A1F70590079428F4F80EDF
:10501000491F561FC71FD11D880F991F661F771F75
:105020000694A1F70590079420F4490F561FC71F57
:10503000D81F990F661F771F881F0694A9F78491C0
:105040001095177041F0D695C79557954795F794E9
:10505000E7941A95C1F7E8E6F0E068941590159189
:1050600035916591959105907FE27395E118F10A6C
:10507000430B560BC90BD009C0F7E10CF11E431FBF
:10508000561FC91FD01D7EF4703311F48A95E6CFE8
:10509000E894015030F0080F0AF40027021708F4D2
:1050A000202F2395022F7A3328F079E37D932A95D8
:1050B000E9F710C07D932A9589F606949795679530
:1050C000379517951794E118F10A430B560BC90B46
:1050D000D00998F023957E9173957A3308F070E3A8
:1050E0007C932013B8F77E9170617D9330F08395A7
:1050F00071E37D9370E32A95E1F71124EF90FF901F
:105100000F911F91CF91DF91992787FD9095089579
:105110000E94CA2808F481E00895E89409C097FB2A
:105120003EF490958095709561957F4F8F4F9F4F7E
:105130009923A9F0F92F96E9BB279395F6958795C2
:1051400077956795B795F111F8CFFAF4BB0F11F485
:1051500060FF1BC06F5F7F4F8F4F9F4F16C088232C
:1051600011F096E911C0772321F09EE8872F762F62
:1051700005C0662371F096E8862F70E060E02AF0A3
:105180009A95660F771F881FDAF7880F969587958F
:1051900097F90895990F0008550FAA0BE0E8FEEF64
:1051A00016161706E807F907C0F012161306E407EB
:1051B000F50798F0621B730B840B950B39F40A26E4
:1051C00061F0232B242B252B21F408950A2609F4C2
:1051D000A140A6958FEF811D811D08950E94012990
:1051E0000C9472290E94642938F00E946B2920F0E7
:1051F000952311F00C945B290C94612911240C94D3
:10520000A6290E94832970F3959FC1F3950F50E062
:10521000551F629FF001729FBB27F00DB11D639F68
:10522000AA27F00DB11DAA1F649F6627B00DA11D0E
:10523000661F829F2227B00DA11D621F739FB00DB4
:10524000A11D621F839FA00D611D221F749F332724
:10525000A00D611D231F849F600D211D822F762FBD
:105260006A2F11249F5750409AF0F1F088234AF09A
:10527000EE0FFF1FBB1F661F771F881F9150504006
:10528000A9F79E3F510580F00C945B290C94A62948
:105290005F3FE4F3983ED4F3869577956795B7958D
:1052A000F795E7959F5FC1F7FE2B880F911D9695A7
:1052B000879597F9089597F99F6780E870E060E017
:1052C00008959FEF80EC089500240A94161617069F
:1052D00018060906089500240A94121613061406E7
:1052E00005060895092E0394000C11F4882352F04A
:1052F000BB0F40F4BF2B11F460FF04C06F5F7F4F02
:105300008F4F9F4F089557FD9058440F551F59F0E8
:105310005F3F71F04795880F97FB991F61F09F3FA2
:1053200079F087950895121613061406551FF2CFCB
:105330004695F1DF08C0161617061806991FF1CF1B
:1053400086957105610508940895E894BB27662742
:105350007727CB0197F90895F999FECF92BD81BDCA
:10536000F89A992780B50895262FF999FECF1FBA8C
:1053700092BD81BD20BD0FB6F894FA9AF99A0FBE7E
:1053800001960895052E97FB1EF400940E94D929DA
:1053900057FD07D00E94182A07FC03D04EF40C9446
:1053A000D92950954095309521953F4F4F4F5F4FEC
:1053B000089590958095709561957F4F8F4F9F4F81
:1053C00008952F923F924F925F926F927F928F92A9
:1053D0009F92AF92BF92CF92DF92EF92FF920F9384
:1053E0001F93CF93DF93CDB7DEB7CA1BDB0B0FB68E
:1053F000F894DEBF0FBECDBF09942A88398848884B
:105400005F846E847D848C849B84AA84B984C884E0
:10541000DF80EE80FD800C811B81AA81B981CE0FD7
:10542000D11D0FB6F894DEBF0FBECDBFED010895BC
:10543000A1E21A2EAA1BBB1BFD010DC0AA1FBB1F98
:10544000EE1FFF1FA217B307E407F50720F0A21B0A
:10545000B30BE40BF50B661F771F881F991F1A9477
:1054600069F760957095809590959B01AC01BD01A1
:10547000CF010895A29FB001B39FC001A39F700DFB
:10548000811D1124911DB29F700D811D1124911D4C
:1054900008955058BB27AA270E94612A0C947229AC
:1054A0000E94642938F00E946B2920F039F49F3F54
:1054B00019F426F40C9461290EF4E095E7FB0C94A2
:1054C0005B29E92F0E94832958F3BA1762077307F3
:1054D0008407950720F079F4A6F50C94A5290EF41D
:1054E000E0950B2EBA2FA02D0B01B90190010C01F4
:1054F000CA01A0011124FF27591B99F0593F50F40C
:10550000503E68F11A16F040A22F232F342F442763
:10551000585FF3CF469537952795A795F04053955B
:10552000C9F77EF41F16BA0B620B730B840BBAF02B
:105530009150A1F0FF0FBB1F661F771F881FC2F796
:105540000EC0BA0F621F731F841F48F487957795AA
:105550006795B795F7959E3F08F0B0CF9395880F64
:1055600008F09927EE0F9795879508950E94CA2A0B
:105570000C9472290E946B2958F00E94642940F013
:1055800029F45F3F29F00C945B2951110C94A62952
:105590000C9461290E94832968F39923B1F3552360
:1055A00091F3951B550BBB27AA2762177307840736
:1055B00038F09F5F5F4F220F331F441FAA1FA9F3CC
:1055C00035D00E2E3AF0E0E832D091505040E695BA
:1055D000001CCAF72BD0FE2F29D0660F771F881F1B
:1055E000BB1F261737074807AB07B0E809F0BB0B0E
:1055F000802DBF01FF2793585F4F3AF09E3F510522
:1056000078F00C945B290C94A6295F3FE4F3983E54
:10561000D4F3869577956795B795F7959F5FC9F70A
:10562000880F911D9695879597F90895E1E0660F8B
:10563000771F881FBB1F621773078407BA0720F004
:10564000621B730B840BBA0BEE1F88F7E09508956D
:105650000E948B2988F09F5798F0B92F9927B7514E
:10566000B0F0E1F0660F771F881F991F1AF0BA9506
:10567000C9F714C0B13091F00E94A529B1E0089596
:105680000C94A529672F782F8827B85F39F0B93F88
:10569000CCF3869577956795B395D9F73EF49095B9
:1056A0008095709561957F4F8F4F9F4F08950E9411
:1056B000CA2808F48FEF08950E94CA28880B990B16
:1056C00008950E943A2AB7FF0895821B930B08950C
:1056D000EE0FFF1F0590F491E02D09940F931F9397
:1056E000CF93DF938230910510F482E090E0E09157
:1056F0006E05F0916F0530E020E0B0E0A0E030975B
:1057000099F42115310509F44AC0281B390B2430BE
:105710003105D8F58A819B816115710589F1FB01FD
:1057200093838283FE0111C04081518102811381E4
:1057300048175907E0F04817590799F4109761F096
:1057400012960C93129713961C933296CF01DF9109
:10575000CF911F910F91089500936E0510936F05DF
:10576000F4CF2115310551F04217530738F0A90144
:10577000DB019A01BD01DF01F801C1CFEF01F9CFD3
:1057800090936F0580936E05CDCFFE01E20FF31F5E
:10579000819391932250310939832883D7CF209167
:1057A0006C0530916D05232B41F420910601309159
:1057B000070130936D0520936C0520910401309111
:1057C00005012115310541F42DB73EB7409108017F
:1057D00050910901241B350BE0916C05F0916D058A
:1057E000E217F307A0F42E1B3F0B2817390778F0B8
:1057F000AC014E5F5F4F2417350748F04E0F5F1F17
:1058000050936D0540936C05819391939FCFF0E089
:10581000E0E09CCFCF93DF930097E9F0FC01329753
:1058200013821282A0916E05B0916F05ED0130E0F8
:1058300020E01097A1F420813181820F931F2091E5
:105840006C0530916D052817390709F061C0F09398
:105850006D05E0936C05DF91CF910895EA01CE17B5
:10586000DF07E8F54A815B819E0141155105B1F7DB
:10587000E901FB83EA8349915991C40FD51FEC17C5
:10588000FD0761F4808191810296840F951FE901E3
:1058900099838883828193819B838A83F0E0E0E00F
:1058A00012968D919C9113970097B9F52D913C918B
:1058B0001197CD010296820F931F20916C053091B4
:1058C0006D052817390739F6309751F510926F0595
:1058D00010926E05B0936D05A0936C05BCCFD38379
:1058E000C28340815181840F951FC817D90761F485
:1058F0004E5F5F4F88819981480F591F51834083C4
:105900008A819B81938382832115310509F0B0CF71
:10591000F0936F05E0936E059ECFFD01DC01C0CFD3
:1059200013821282D7CFB0E0A0E0E9E9FCE20C9448
:10593000E3298C01009751F4CB010E946E2B8C015E
:10594000C801CDB7DEB7E0E10C94FF29FC01E60FFA
:10595000F71F9C0122503109E217F30708F49DC09C
:10596000D901CD91DC911197C617D70798F0C530B2
:10597000D10530F3CE0104978617970708F3C61BAD
:10598000D70B2297C193D1936D937C93CF010E9443
:105990000A2CD6CF5B01AC1ABD0A4C018C0E9D1EA1
:1059A000A0916E05B0916F05512C412CF12CE12C8A
:1059B000109731F580916C0590916D0588159905CA
:1059C00009F05CC04616570608F058C080910401E3
:1059D00090910501009741F48DB79EB74091080161
:1059E00050910901841B950BE817F90708F055C081
:1059F000F0936D05E0936C05F90171836083A0CF8E
:105A00008D919C91119712966C90129713967C90A1
:105A10001397A815B90559F56C0142E0C40ED11CC5
:105A2000CA14DB0420F1AC014A195B09DA011296B1
:105A3000159780F06282738251834083D9016D9300
:105A40007C93E114F10471F0D7011396FC93EE936B
:105A5000129776CF22968C0F9D1FF9019183808338
:105A6000F301EFCFF0936F05E0936E0569CF481611
:105A7000590608F42C017D01D3019ACFCB010E9475
:105A80006E2B7C01009749F0AE01B8010E94502DA9
:105A9000C8010E940A2C870153CF10E000E050CFCC
:105AA000FB01DC0102C001900D9241505040D8F73B
:105AB0000895FB01DC0101900D920020E1F70895AB
:105AC000FB01DC014150504048F001900D92002054
:105AD000C9F701C01D9241505040E0F70895AEE073
